{
  "_format": "hh-sol-artifact-1",
  "contractName": "MyToken",
  "sourceName": "contracts/Nft.sol",
  "abi": [
    {
      "inputs": [
        {
          "internalType": "address",
          "name": "sender",
          "type": "address"
        },
        {
          "internalType": "uint256",
          "name": "tokenId",
          "type": "uint256"
        },
        {
          "internalType": "address",
          "name": "owner",
          "type": "address"
        }
      ],
      "name": "ERC721IncorrectOwner",
      "type": "error"
    },
    {
      "inputs": [
        {
          "internalType": "address",
          "name": "operator",
          "type": "address"
        },
        {
          "internalType": "uint256",
          "name": "tokenId",
          "type": "uint256"
        }
      ],
      "name": "ERC721InsufficientApproval",
      "type": "error"
    },
    {
      "inputs": [
        {
          "internalType": "address",
          "name": "approver",
          "type": "address"
        }
      ],
      "name": "ERC721InvalidApprover",
      "type": "error"
    },
    {
      "inputs": [
        {
          "internalType": "address",
          "name": "operator",
          "type": "address"
        }
      ],
      "name": "ERC721InvalidOperator",
      "type": "error"
    },
    {
      "inputs": [
        {
          "internalType": "address",
          "name": "owner",
          "type": "address"
        }
      ],
      "name": "ERC721InvalidOwner",
      "type": "error"
    },
    {
      "inputs": [
        {
          "internalType": "address",
          "name": "receiver",
          "type": "address"
        }
      ],
      "name": "ERC721InvalidReceiver",
      "type": "error"
    },
    {
      "inputs": [
        {
          "internalType": "address",
          "name": "sender",
          "type": "address"
        }
      ],
      "name": "ERC721InvalidSender",
      "type": "error"
    },
    {
      "inputs": [
        {
          "internalType": "uint256",
          "name": "tokenId",
          "type": "uint256"
        }
      ],
      "name": "ERC721NonexistentToken",
      "type": "error"
    },
    {
      "inputs": [],
      "name": "InvalidInitialization",
      "type": "error"
    },
    {
      "inputs": [],
      "name": "NotInitializing",
      "type": "error"
    },
    {
      "inputs": [
        {
          "internalType": "address",
          "name": "owner",
          "type": "address"
        }
      ],
      "name": "OwnableInvalidOwner",
      "type": "error"
    },
    {
      "inputs": [
        {
          "internalType": "address",
          "name": "account",
          "type": "address"
        }
      ],
      "name": "OwnableUnauthorizedAccount",
      "type": "error"
    },
    {
      "anonymous": false,
      "inputs": [
        {
          "indexed": true,
          "internalType": "address",
          "name": "owner",
          "type": "address"
        },
        {
          "indexed": true,
          "internalType": "address",
          "name": "approved",
          "type": "address"
        },
        {
          "indexed": true,
          "internalType": "uint256",
          "name": "tokenId",
          "type": "uint256"
        }
      ],
      "name": "Approval",
      "type": "event"
    },
    {
      "anonymous": false,
      "inputs": [
        {
          "indexed": true,
          "internalType": "address",
          "name": "owner",
          "type": "address"
        },
        {
          "indexed": true,
          "internalType": "address",
          "name": "operator",
          "type": "address"
        },
        {
          "indexed": false,
          "internalType": "bool",
          "name": "approved",
          "type": "bool"
        }
      ],
      "name": "ApprovalForAll",
      "type": "event"
    },
    {
      "anonymous": false,
      "inputs": [
        {
          "indexed": false,
          "internalType": "uint256",
          "name": "_fromTokenId",
          "type": "uint256"
        },
        {
          "indexed": false,
          "internalType": "uint256",
          "name": "_toTokenId",
          "type": "uint256"
        }
      ],
      "name": "BatchMetadataUpdate",
      "type": "event"
    },
    {
      "anonymous": false,
      "inputs": [
        {
          "indexed": false,
          "internalType": "uint64",
          "name": "version",
          "type": "uint64"
        }
      ],
      "name": "Initialized",
      "type": "event"
    },
    {
      "anonymous": false,
      "inputs": [
        {
          "indexed": false,
          "internalType": "uint256",
          "name": "_tokenId",
          "type": "uint256"
        }
      ],
      "name": "MetadataUpdate",
      "type": "event"
    },
    {
      "anonymous": false,
      "inputs": [
        {
          "indexed": true,
          "internalType": "address",
          "name": "previousOwner",
          "type": "address"
        },
        {
          "indexed": true,
          "internalType": "address",
          "name": "newOwner",
          "type": "address"
        }
      ],
      "name": "OwnershipTransferred",
      "type": "event"
    },
    {
      "anonymous": false,
      "inputs": [
        {
          "indexed": true,
          "internalType": "address",
          "name": "from",
          "type": "address"
        },
        {
          "indexed": true,
          "internalType": "address",
          "name": "to",
          "type": "address"
        },
        {
          "indexed": true,
          "internalType": "uint256",
          "name": "tokenId",
          "type": "uint256"
        }
      ],
      "name": "Transfer",
      "type": "event"
    },
    {
      "inputs": [
        {
          "internalType": "address",
          "name": "to",
          "type": "address"
        },
        {
          "internalType": "uint256",
          "name": "tokenId",
          "type": "uint256"
        }
      ],
      "name": "approve",
      "outputs": [],
      "stateMutability": "nonpayable",
      "type": "function"
    },
    {
      "inputs": [
        {
          "internalType": "address",
          "name": "owner",
          "type": "address"
        }
      ],
      "name": "balanceOf",
      "outputs": [
        {
          "internalType": "uint256",
          "name": "",
          "type": "uint256"
        }
      ],
      "stateMutability": "view",
      "type": "function"
    },
    {
      "inputs": [
        {
          "internalType": "uint256",
          "name": "tokenId",
          "type": "uint256"
        }
      ],
      "name": "getApproved",
      "outputs": [
        {
          "internalType": "address",
          "name": "",
          "type": "address"
        }
      ],
      "stateMutability": "view",
      "type": "function"
    },
    {
      "inputs": [
        {
          "internalType": "address",
          "name": "initialOwner",
          "type": "address"
        }
      ],
      "name": "initialize",
      "outputs": [],
      "stateMutability": "nonpayable",
      "type": "function"
    },
    {
      "inputs": [
        {
          "internalType": "address",
          "name": "owner",
          "type": "address"
        },
        {
          "internalType": "address",
          "name": "operator",
          "type": "address"
        }
      ],
      "name": "isApprovedForAll",
      "outputs": [
        {
          "internalType": "bool",
          "name": "",
          "type": "bool"
        }
      ],
      "stateMutability": "view",
      "type": "function"
    },
    {
      "inputs": [],
      "name": "name",
      "outputs": [
        {
          "internalType": "string",
          "name": "",
          "type": "string"
        }
      ],
      "stateMutability": "view",
      "type": "function"
    },
    {
      "inputs": [],
      "name": "owner",
      "outputs": [
        {
          "internalType": "address",
          "name": "",
          "type": "address"
        }
      ],
      "stateMutability": "view",
      "type": "function"
    },
    {
      "inputs": [
        {
          "internalType": "uint256",
          "name": "tokenId",
          "type": "uint256"
        }
      ],
      "name": "ownerOf",
      "outputs": [
        {
          "internalType": "address",
          "name": "",
          "type": "address"
        }
      ],
      "stateMutability": "view",
      "type": "function"
    },
    {
      "inputs": [],
      "name": "renounceOwnership",
      "outputs": [],
      "stateMutability": "nonpayable",
      "type": "function"
    },
    {
      "inputs": [
        {
          "internalType": "address",
          "name": "to",
          "type": "address"
        },
        {
          "internalType": "string",
          "name": "uri",
          "type": "string"
        }
      ],
      "name": "safeMint",
      "outputs": [],
      "stateMutability": "nonpayable",
      "type": "function"
    },
    {
      "inputs": [
        {
          "internalType": "address",
          "name": "from",
          "type": "address"
        },
        {
          "internalType": "address",
          "name": "to",
          "type": "address"
        },
        {
          "internalType": "uint256",
          "name": "tokenId",
          "type": "uint256"
        }
      ],
      "name": "safeTransferFrom",
      "outputs": [],
      "stateMutability": "nonpayable",
      "type": "function"
    },
    {
      "inputs": [
        {
          "internalType": "address",
          "name": "from",
          "type": "address"
        },
        {
          "internalType": "address",
          "name": "to",
          "type": "address"
        },
        {
          "internalType": "uint256",
          "name": "tokenId",
          "type": "uint256"
        },
        {
          "internalType": "bytes",
          "name": "data",
          "type": "bytes"
        }
      ],
      "name": "safeTransferFrom",
      "outputs": [],
      "stateMutability": "nonpayable",
      "type": "function"
    },
    {
      "inputs": [
        {
          "internalType": "address",
          "name": "operator",
          "type": "address"
        },
        {
          "internalType": "bool",
          "name": "approved",
          "type": "bool"
        }
      ],
      "name": "setApprovalForAll",
      "outputs": [],
      "stateMutability": "nonpayable",
      "type": "function"
    },
    {
      "inputs": [
        {
          "internalType": "bytes4",
          "name": "interfaceId",
          "type": "bytes4"
        }
      ],
      "name": "supportsInterface",
      "outputs": [
        {
          "internalType": "bool",
          "name": "",
          "type": "bool"
        }
      ],
      "stateMutability": "view",
      "type": "function"
    },
    {
      "inputs": [],
      "name": "symbol",
      "outputs": [
        {
          "internalType": "string",
          "name": "",
          "type": "string"
        }
      ],
      "stateMutability": "view",
      "type": "function"
    },
    {
      "inputs": [
        {
          "internalType": "uint256",
          "name": "tokenId",
          "type": "uint256"
        }
      ],
      "name": "tokenURI",
      "outputs": [
        {
          "internalType": "string",
          "name": "",
          "type": "string"
        }
      ],
      "stateMutability": "view",
      "type": "function"
    },
    {
      "inputs": [
        {
          "internalType": "address",
          "name": "from",
          "type": "address"
        },
        {
          "internalType": "address",
          "name": "to",
          "type": "address"
        },
        {
          "internalType": "uint256",
          "name": "tokenId",
          "type": "uint256"
        }
      ],
      "name": "transferFrom",
      "outputs": [],
      "stateMutability": "nonpayable",
      "type": "function"
    },
    {
      "inputs": [
        {
          "internalType": "address",
          "name": "newOwner",
          "type": "address"
        }
      ],
      "name": "transferOwnership",
      "outputs": [],
      "stateMutability": "nonpayable",
      "type": "function"
    }
  ],
  "bytecode": "0x6080604052348015600f57600080fd5b5061183a8061001f6000396000f3fe608060405234801561001057600080fd5b50600436106101165760003560e01c80638da5cb5b116100a2578063c4d66de811610071578063c4d66de814610258578063c87b56dd1461026b578063d204c45e1461027e578063e985e9c514610291578063f2fde38b146102a457600080fd5b80638da5cb5b146101fa57806395d89b411461022a578063a22cb46514610232578063b88d4fde1461024557600080fd5b806323b872dd116100e957806323b872dd1461019857806342842e0e146101ab5780636352211e146101be57806370a08231146101d1578063715018a6146101f257600080fd5b806301ffc9a71461011b57806306fdde0314610143578063081812fc14610158578063095ea7b314610183575b600080fd5b61012e6101293660046112e0565b6102b7565b60405190151581526020015b60405180910390f35b61014b6102c8565b60405161013a919061134d565b61016b610166366004611360565b61036c565b6040516001600160a01b03909116815260200161013a565b610196610191366004611395565b610381565b005b6101966101a63660046113bf565b610390565b6101966101b93660046113bf565b610420565b61016b6101cc366004611360565b610440565b6101e46101df3660046113fc565b61044b565b60405190815260200161013a565b6101966104a7565b7f9016d09d72d40fdae2fd8ceac6b6234c7706214fd39c1cd1e609a0528c199300546001600160a01b031661016b565b61014b6104bb565b610196610240366004611417565b6104fa565b6101966102533660046114e3565b610505565b6101966102663660046113fc565b61051d565b61014b610279366004611360565b610679565b61019661028c36600461155f565b610684565b61012e61029f3660046115c1565b6106b5565b6101966102b23660046113fc565b610702565b60006102c282610740565b92915050565b6000805160206117e583398151915280546060919081906102e8906115f4565b80601f0160208091040260200160405190810160405280929190818152602001828054610314906115f4565b80156103615780601f1061033657610100808354040283529160200191610361565b820191906000526020600020905b81548152906001019060200180831161034457829003601f168201915b505050505091505090565b600061037782610765565b506102c28261079d565b61038c8282336107d7565b5050565b6001600160a01b0382166103bf57604051633250574960e11b8152600060048201526024015b60405180910390fd5b60006103cc8383336107e4565b9050836001600160a01b0316816001600160a01b03161461041a576040516364283d7b60e01b81526001600160a01b03808616600483015260248201849052821660448201526064016103b6565b50505050565b61043b83838360405180602001604052806000815250610505565b505050565b60006102c282610765565b60006000805160206117e58339815191526001600160a01b038316610486576040516322718ad960e21b8152600060048201526024016103b6565b6001600160a01b039092166000908152600390920160205250604090205490565b6104af6108ee565b6104b96000610949565b565b7f80bb2b638cc20bc4d0a60d66940f3ab4a00c1d7b313497ca82fb0b4ab007930180546060916000805160206117e5833981519152916102e8906115f4565b61038c3383836109ba565b610510848484610390565b61041a3385858585610a6b565b7ff0c57e16840df040f15088dc2f81fe391c3923bec73e23a9662efc9c229c6a008054600160401b810460ff16159067ffffffffffffffff166000811580156105635750825b905060008267ffffffffffffffff1660011480156105805750303b155b90508115801561058e575080155b156105ac5760405163f92ee8a960e01b815260040160405180910390fd5b845467ffffffffffffffff1916600117855583156105d657845460ff60401b1916600160401b1785555b61061a6040518060400160405280600781526020016626bcaa37b5b2b760c91b815250604051806040016040528060038152602001624d544b60e81b815250610b94565b610622610ba6565b61062b86610bae565b831561067157845460ff60401b19168555604051600181527fc7f505b2f371ae2175ee4913f4499e1f2633a7b5936321eed1cdaeb6115181d29060200160405180910390a15b505050505050565b60606102c282610bbf565b61068c6108ee565b60008054818061069b8361162e565b9190505590506106ab8382610cf4565b61043b8183610d0e565b6001600160a01b0391821660009081527f80bb2b638cc20bc4d0a60d66940f3ab4a00c1d7b313497ca82fb0b4ab00793056020908152604080832093909416825291909152205460ff1690565b61070a6108ee565b6001600160a01b03811661073457604051631e4fbdf760e01b8152600060048201526024016103b6565b61073d81610949565b50565b60006001600160e01b03198216632483248360e11b14806102c257506102c282610d81565b60008061077183610dd1565b90506001600160a01b0381166102c257604051637e27328960e01b8152600481018490526024016103b6565b60009081527f80bb2b638cc20bc4d0a60d66940f3ab4a00c1d7b313497ca82fb0b4ab007930460205260409020546001600160a01b031690565b61043b8383836001610e0b565b60006000805160206117e5833981519152816107ff85610dd1565b90506001600160a01b0384161561081b5761081b818587610f21565b6001600160a01b0381161561085b57610838600086600080610e0b565b6001600160a01b0381166000908152600383016020526040902080546000190190555b6001600160a01b0386161561088c576001600160a01b03861660009081526003830160205260409020805460010190555b600085815260028301602052604080822080546001600160a01b0319166001600160a01b038a811691821790925591518893918516917fddf252ad1be2c89b69c2b068fc378daa952ba7f163c4a11628f55a4df523b3ef91a495945050505050565b336109207f9016d09d72d40fdae2fd8ceac6b6234c7706214fd39c1cd1e609a0528c199300546001600160a01b031690565b6001600160a01b0316146104b95760405163118cdaa760e01b81523360048201526024016103b6565b7f9016d09d72d40fdae2fd8ceac6b6234c7706214fd39c1cd1e609a0528c19930080546001600160a01b031981166001600160a01b03848116918217845560405192169182907f8be0079c531659141344cd1fd0a4f28419497f9722a3daafe3b4186f6b6457e090600090a3505050565b6000805160206117e58339815191526001600160a01b0383166109fb57604051630b61174360e31b81526001600160a01b03841660048201526024016103b6565b6001600160a01b038481166000818152600584016020908152604080832094881680845294825291829020805460ff191687151590811790915591519182527f17307eab39ab6107e8899845ad3d59bd9653f200f220920489ca2b5937696c31910160405180910390a350505050565b6001600160a01b0383163b15610b8d57604051630a85bd0160e11b81526001600160a01b0384169063150b7a0290610aad908890889087908790600401611655565b6020604051808303816000875af1925050508015610ae8575060408051601f3d908101601f19168201909252610ae591810190611692565b60015b610b51573d808015610b16576040519150601f19603f3d011682016040523d82523d6000602084013e610b1b565b606091505b508051600003610b4957604051633250574960e11b81526001600160a01b03851660048201526024016103b6565b805181602001fd5b6001600160e01b03198116630a85bd0160e11b1461067157604051633250574960e11b81526001600160a01b03851660048201526024016103b6565b5050505050565b610b9c610f85565b61038c8282610fce565b6104b9610f85565b610bb6610f85565b61073d81610fff565b60607f0542a41881ee128a365a727b282c86fa859579490b9bb45aab8503648c8e7900610beb83610765565b5060008381526020829052604081208054610c05906115f4565b80601f0160208091040260200160405190810160405280929190818152602001828054610c31906115f4565b8015610c7e5780601f10610c5357610100808354040283529160200191610c7e565b820191906000526020600020905b815481529060010190602001808311610c6157829003601f168201915b505050505090506000610c9c60408051602081019091526000815290565b90508051600003610caf57509392505050565b815115610ce2578082604051602001610cc99291906116af565b6040516020818303038152906040529350505050919050565b610ceb85611007565b95945050505050565b61038c82826040518060200160405280600081525061107c565b60008281527f0542a41881ee128a365a727b282c86fa859579490b9bb45aab8503648c8e790060208190526040909120610d488382611725565b506040518381527ff8e1a15aba9398e019f0b49df1a4fde98ee17ae345cb5f6b5e2c27f5033e8ce79060200160405180910390a1505050565b60006001600160e01b031982166380ac58cd60e01b1480610db257506001600160e01b03198216635b5e139f60e01b145b806102c257506301ffc9a760e01b6001600160e01b03198316146102c2565b60009081527f80bb2b638cc20bc4d0a60d66940f3ab4a00c1d7b313497ca82fb0b4ab007930260205260409020546001600160a01b031690565b6000805160206117e58339815191528180610e2e57506001600160a01b03831615155b15610ef0576000610e3e85610765565b90506001600160a01b03841615801590610e6a5750836001600160a01b0316816001600160a01b031614155b8015610e7d5750610e7b81856106b5565b155b15610ea65760405163a9fbf51f60e01b81526001600160a01b03851660048201526024016103b6565b8215610eee5784866001600160a01b0316826001600160a01b03167f8c5be1e5ebec7d5bd14f71427d1e84f3dd0314c0f7b2291e5b200ac8c7c3b92560405160405180910390a45b505b600093845260040160205250506040902080546001600160a01b0319166001600160a01b0392909216919091179055565b610f2c838383611094565b61043b576001600160a01b038316610f5a57604051637e27328960e01b8152600481018290526024016103b6565b60405163177e802f60e01b81526001600160a01b0383166004820152602481018290526044016103b6565b7ff0c57e16840df040f15088dc2f81fe391c3923bec73e23a9662efc9c229c6a0054600160401b900460ff166104b957604051631afcd79f60e31b815260040160405180910390fd5b610fd6610f85565b6000805160206117e583398151915280610ff08482611725565b506001810161041a8382611725565b61070a610f85565b606061101282610765565b50600061102a60408051602081019091526000815290565b9050600081511161104a5760405180602001604052806000815250611075565b80611054846110fa565b6040516020016110659291906116af565b6040516020818303038152906040525b9392505050565b611086838361118d565b61043b336000858585610a6b565b60006001600160a01b038316158015906110f25750826001600160a01b0316846001600160a01b031614806110ce57506110ce84846106b5565b806110f25750826001600160a01b03166110e78361079d565b6001600160a01b0316145b949350505050565b60606000611107836111f2565b600101905060008167ffffffffffffffff81111561112757611127611453565b6040519080825280601f01601f191660200182016040528015611151576020820181803683370190505b5090508181016020015b600019016f181899199a1a9b1b9c1cb0b131b232b360811b600a86061a8153600a850494508461115b57509392505050565b6001600160a01b0382166111b757604051633250574960e11b8152600060048201526024016103b6565b60006111c5838360006107e4565b90506001600160a01b0381161561043b576040516339e3563760e11b8152600060048201526024016103b6565b60008072184f03e93ff9f4daa797ed6e38ed64bf6a1f0160401b83106112315772184f03e93ff9f4daa797ed6e38ed64bf6a1f0160401b830492506040015b6d04ee2d6d415b85acef8100000000831061125d576d04ee2d6d415b85acef8100000000830492506020015b662386f26fc10000831061127b57662386f26fc10000830492506010015b6305f5e1008310611293576305f5e100830492506008015b61271083106112a757612710830492506004015b606483106112b9576064830492506002015b600a83106102c25760010192915050565b6001600160e01b03198116811461073d57600080fd5b6000602082840312156112f257600080fd5b8135611075816112ca565b60005b83811015611318578181015183820152602001611300565b50506000910152565b600081518084526113398160208601602086016112fd565b601f01601f19169290920160200192915050565b6020815260006110756020830184611321565b60006020828403121561137257600080fd5b5035919050565b80356001600160a01b038116811461139057600080fd5b919050565b600080604083850312156113a857600080fd5b6113b183611379565b946020939093013593505050565b6000806000606084860312156113d457600080fd5b6113dd84611379565b92506113eb60208501611379565b929592945050506040919091013590565b60006020828403121561140e57600080fd5b61107582611379565b6000806040838503121561142a57600080fd5b61143383611379565b91506020830135801515811461144857600080fd5b809150509250929050565b634e487b7160e01b600052604160045260246000fd5b60008067ffffffffffffffff84111561148457611484611453565b50604051601f19601f85018116603f0116810181811067ffffffffffffffff821117156114b3576114b3611453565b6040528381529050808284018510156114cb57600080fd5b83836020830137600060208583010152509392505050565b600080600080608085870312156114f957600080fd5b61150285611379565b935061151060208601611379565b925060408501359150606085013567ffffffffffffffff81111561153357600080fd5b8501601f8101871361154457600080fd5b61155387823560208401611469565b91505092959194509250565b6000806040838503121561157257600080fd5b61157b83611379565b9150602083013567ffffffffffffffff81111561159757600080fd5b8301601f810185136115a857600080fd5b6115b785823560208401611469565b9150509250929050565b600080604083850312156115d457600080fd5b6115dd83611379565b91506115eb60208401611379565b90509250929050565b600181811c9082168061160857607f821691505b60208210810361162857634e487b7160e01b600052602260045260246000fd5b50919050565b60006001820161164e57634e487b7160e01b600052601160045260246000fd5b5060010190565b6001600160a01b038581168252841660208201526040810183905260806060820181905260009061168890830184611321565b9695505050505050565b6000602082840312156116a457600080fd5b8151611075816112ca565b600083516116c18184602088016112fd565b8351908301906116d58183602088016112fd565b01949350505050565b601f82111561043b57806000526020600020601f840160051c810160208510156117055750805b601f840160051c820191505b81811015610b8d5760008155600101611711565b815167ffffffffffffffff81111561173f5761173f611453565b6117538161174d84546115f4565b846116de565b6020601f821160018114611787576000831561176f5750848201515b600019600385901b1c1916600184901b178455610b8d565b600084815260208120601f198516915b828110156117b75787850151825560209485019460019092019101611797565b50848210156117d55786840151600019600387901b60f8161c191681555b50505050600190811b0190555056fe80bb2b638cc20bc4d0a60d66940f3ab4a00c1d7b313497ca82fb0b4ab0079300a2646970667358221220e3b296297b3e7613cf0c5c0a6085eaf04fc102c6daceb0145993c65c7122a71464736f6c634300081a0033",
  "linkReferences": {},
  "deployedLinkReferences": {}
}