{"contracts/Natrium-Nft-Marketplace.sol":{"NatirumMarketplace":{"abi":[{"inputs":[],"name":"InvalidInitialization","type":"error"},{"inputs":[],"name":"NotInitializing","type":"error"},{"inputs":[{"internalType":"address","name":"owner","type":"address"}],"name":"OwnableInvalidOwner","type":"error"},{"inputs":[{"internalType":"address","name":"account","type":"address"}],"name":"OwnableUnauthorizedAccount","type":"error"},{"inputs":[],"name":"ReentrancyGuardReentrantCall","type":"error"},{"anonymous":false,"inputs":[{"indexed":false,"internalType":"address","name":"buyer","type":"address"},{"indexed":false,"internalType":"uint256","name":"offerPrice","type":"uint256"},{"indexed":false,"internalType":"bool","name":"isCancel","type":"bool"}],"name":"CancelOffer","type":"event"},{"anonymous":false,"inputs":[{"indexed":false,"internalType":"uint64","name":"version","type":"uint64"}],"name":"Initialized","type":"event"},{"anonymous":false,"inputs":[{"indexed":false,"internalType":"address","name":"seller","type":"address"},{"indexed":false,"internalType":"uint256","name":"tokenID","type":"uint256"},{"indexed":false,"internalType":"address","name":"hostContract","type":"address"},{"indexed":false,"internalType":"uint256","name":"nftPrice","type":"uint256"},{"indexed":false,"internalType":"bool","name":"isListed","type":"bool"}],"name":"ListNFT","type":"event"},{"anonymous":false,"inputs":[{"indexed":true,"internalType":"address","name":"previousOwner","type":"address"},{"indexed":true,"internalType":"address","name":"newOwner","type":"address"}],"name":"OwnershipTransferred","type":"event"},{"anonymous":false,"inputs":[{"indexed":false,"internalType":"address","name":"seller","type":"address"},{"indexed":false,"internalType":"uint256","name":"tokenID","type":"uint256"},{"indexed":false,"internalType":"address","name":"hostContract","type":"address"},{"indexed":false,"internalType":"bool","name":"isUnlisted","type":"bool"}],"name":"UnListNFT","type":"event"},{"anonymous":false,"inputs":[{"indexed":false,"internalType":"address","name":"buyer","type":"address"},{"indexed":false,"internalType":"uint256","name":"acceptedPrice","type":"uint256"},{"indexed":false,"internalType":"uint256","name":"tokenId","type":"uint256"},{"indexed":false,"internalType":"bool","name":"isAccepted","type":"bool"}],"name":"acceptOffer","type":"event"},{"anonymous":false,"inputs":[{"indexed":false,"internalType":"address","name":"buyer","type":"address"},{"indexed":false,"internalType":"uint256","name":"tokenID","type":"uint256"},{"indexed":false,"internalType":"uint256","name":"paidPrice","type":"uint256"},{"indexed":false,"internalType":"uint256","name":"timeStamp","type":"uint256"}],"name":"buyNFT","type":"event"},{"anonymous":false,"inputs":[{"indexed":false,"internalType":"address","name":"buyer","type":"address"},{"indexed":false,"internalType":"uint256","name":"offerPrice","type":"uint256"}],"name":"makeOffer","type":"event"},{"anonymous":false,"inputs":[{"indexed":false,"internalType":"address","name":"admin","type":"address"},{"indexed":false,"internalType":"uint8","name":"serviceFee","type":"uint8"}],"name":"servicePercentage","type":"event"},{"anonymous":false,"inputs":[{"indexed":false,"internalType":"address","name":"seller","type":"address"},{"indexed":false,"internalType":"uint256","name":"nftPrice","type":"uint256"},{"indexed":false,"internalType":"uint256","name":"timeStamp","type":"uint256"}],"name":"transferNftPrice","type":"event"},{"anonymous":false,"inputs":[{"indexed":false,"internalType":"address","name":"owner","type":"address"},{"indexed":false,"internalType":"uint256","name":"serviceFees","type":"uint256"}],"name":"transferServiceFees","type":"event"},{"inputs":[{"internalType":"uint256","name":"_tokenId","type":"uint256"},{"internalType":"address","name":"_buyer","type":"address"}],"name":"acceptOffers","outputs":[],"stateMutability":"nonpayable","type":"function"},{"inputs":[{"internalType":"address","name":"contractAddress","type":"address"}],"name":"approveContract","outputs":[],"stateMutability":"nonpayable","type":"function"},{"inputs":[{"internalType":"address","name":"","type":"address"}],"name":"approvedContracts","outputs":[{"internalType":"bool","name":"","type":"bool"}],"stateMutability":"view","type":"function"},{"inputs":[{"internalType":"uint256","name":"_tokenId","type":"uint256"},{"internalType":"address","name":"_seller","type":"address"},{"internalType":"address","name":"_hostContract","type":"address"}],"name":"buyNft","outputs":[],"stateMutability":"payable","type":"function"},{"inputs":[{"internalType":"uint256","name":"","type":"uint256"}],"name":"contractAddresses","outputs":[{"internalType":"address","name":"","type":"address"}],"stateMutability":"view","type":"function"},{"inputs":[],"name":"contractCount","outputs":[{"internalType":"uint256","name":"","type":"uint256"}],"stateMutability":"view","type":"function"},{"inputs":[],"name":"contractOwner","outputs":[{"internalType":"address","name":"","type":"address"}],"stateMutability":"view","type":"function"},{"inputs":[{"internalType":"uint256","name":"_tokenId","type":"uint256"},{"internalType":"uint256","name":"_offerPrice","type":"uint256"},{"internalType":"uint256","name":"_offerExpiry","type":"uint256"},{"internalType":"address","name":"_seller","type":"address"}],"name":"createOffer","outputs":[],"stateMutability":"payable","type":"function"},{"inputs":[],"name":"currentOffer","outputs":[{"internalType":"enum NatirumMarketplace.Offer","name":"","type":"uint8"}],"stateMutability":"view","type":"function"},{"inputs":[{"internalType":"string","name":"name","type":"string"},{"internalType":"string","name":"symbol","type":"string"},{"internalType":"string","name":"eventName","type":"string"},{"internalType":"uint256","name":"startTime","type":"uint256"},{"internalType":"uint256","name":"endTime","type":"uint256"},{"internalType":"uint256","name":"ticketStartBuyDate","type":"uint256"},{"internalType":"uint256","name":"ticketEndBuyDate","type":"uint256"},{"components":[{"internalType":"string","name":"ticketType","type":"string"},{"internalType":"uint256","name":"quantity","type":"uint256"},{"internalType":"uint256","name":"price","type":"uint256"}],"internalType":"struct EventTicket.Ticket[]","name":"tickets","type":"tuple[]"},{"internalType":"contract IERC20","name":"_Token","type":"address"},{"internalType":"address","name":"_fundsWallet","type":"address"}],"name":"deployNewCollection","outputs":[{"internalType":"address","name":"","type":"address"}],"stateMutability":"nonpayable","type":"function"},{"inputs":[],"name":"deploymentFee","outputs":[{"internalType":"uint256","name":"","type":"uint256"}],"stateMutability":"view","type":"function"},{"inputs":[],"name":"fundsWallet","outputs":[{"internalType":"address","name":"","type":"address"}],"stateMutability":"view","type":"function"},{"inputs":[{"internalType":"address","name":"listerAddress","type":"address"}],"name":"getNftDetails","outputs":[{"components":[{"internalType":"address","name":"seller","type":"address"},{"internalType":"uint256","name":"tokenID","type":"uint256"},{"internalType":"address","name":"hostContract","type":"address"},{"internalType":"uint256","name":"nftPrice","type":"uint256"},{"internalType":"bool","name":"isListed","type":"bool"}],"internalType":"struct NatirumMarketplace.NftDetails","name":"","type":"tuple"}],"stateMutability":"view","type":"function"},{"inputs":[{"internalType":"address","name":"_buyer","type":"address"}],"name":"getOfferDetails","outputs":[{"components":[{"internalType":"address","name":"buyer","type":"address"},{"internalType":"uint256","name":"tokenID","type":"uint256"},{"internalType":"uint256","name":"offerPrice","type":"uint256"},{"internalType":"uint256","name":"offerExpire","type":"uint256"},{"internalType":"enum NatirumMarketplace.Offer","name":"currentOffer","type":"uint8"}],"internalType":"struct NatirumMarketplace.OfferDetails","name":"","type":"tuple"}],"stateMutability":"view","type":"function"},{"inputs":[{"internalType":"address","name":"_tokenAddress","type":"address"},{"internalType":"address","name":"_fundsWallet","type":"address"}],"name":"initialize","outputs":[],"stateMutability":"nonpayable","type":"function"},{"inputs":[],"name":"initialize","outputs":[],"stateMutability":"nonpayable","type":"function"},{"inputs":[{"internalType":"uint256","name":"_tokenId","type":"uint256"},{"internalType":"uint256","name":"_price","type":"uint256"},{"internalType":"address","name":"_hostContract","type":"address"},{"internalType":"address","name":"_newCollectionAddress","type":"address"}],"name":"listNft","outputs":[],"stateMutability":"nonpayable","type":"function"},{"inputs":[{"internalType":"address","name":"","type":"address"},{"internalType":"address","name":"","type":"address"},{"internalType":"uint256","name":"","type":"uint256"},{"internalType":"bytes","name":"","type":"bytes"}],"name":"onERC721Received","outputs":[{"internalType":"bytes4","name":"","type":"bytes4"}],"stateMutability":"nonpayable","type":"function"},{"inputs":[],"name":"owner","outputs":[{"internalType":"address","name":"","type":"address"}],"stateMutability":"view","type":"function"},{"inputs":[{"internalType":"uint256","name":"_tokenId","type":"uint256"},{"internalType":"address","name":"_buyer","type":"address"}],"name":"rejectOffer","outputs":[],"stateMutability":"nonpayable","type":"function"},{"inputs":[],"name":"renounceOwnership","outputs":[],"stateMutability":"nonpayable","type":"function"},{"inputs":[{"internalType":"address","name":"contractAddress","type":"address"}],"name":"revokeContract","outputs":[],"stateMutability":"nonpayable","type":"function"},{"inputs":[{"internalType":"uint256","name":"_deploymentFee","type":"uint256"}],"name":"setDeploymentFee","outputs":[],"stateMutability":"nonpayable","type":"function"},{"inputs":[{"internalType":"address","name":"_fundsWallet","type":"address"}],"name":"setFundsWallet","outputs":[],"stateMutability":"nonpayable","type":"function"},{"inputs":[{"internalType":"uint8","name":"_serviceFees","type":"uint8"}],"name":"setServiceFees","outputs":[],"stateMutability":"nonpayable","type":"function"},{"inputs":[{"internalType":"address","name":"_tokenAddress","type":"address"}],"name":"setTokenAddress","outputs":[],"stateMutability":"nonpayable","type":"function"},{"inputs":[],"name":"tokenAddress","outputs":[{"internalType":"contract IERC20","name":"","type":"address"}],"stateMutability":"view","type":"function"},{"inputs":[{"internalType":"address","name":"newOwner","type":"address"}],"name":"transferOwnership","outputs":[],"stateMutability":"nonpayable","type":"function"},{"inputs":[{"internalType":"uint256","name":"_tokenId","type":"uint256"}],"name":"unListNft","outputs":[],"stateMutability":"nonpayable","type":"function"}],"evm":{"bytecode":{"linkReferences":{},"object":"608080604052346019576001805561465b908161001f8239f35b600080fdfe6080604052600436101561001257600080fd5b6000803560e01c806307f7aafb14611c5b5780630fe9a094146118a0578063150b7a02146118395780632194f3a21461181057806322d868cb1461175957806326749ad71461171a57806326a4e8d2146116da5780633263b545146116a75780634370fb3414611469578063485cc9551461133057806364e39b87146112f0578063715018a61461128657806372a43b9c146110955780637cde120214610d805780638129fc1c14610c045780638736381a14610be65780638da5cb5b14610bb05780639d76ea5814610b87578063a0aa5cca146108da578063aa4b27a814610800578063ab67b236146105f7578063cc2e3ee1146105b6578063ce606ee01461058f578063d002462b1461056c578063db9371c214610296578063f24639c6146101d1578063f2cff57f146101b3578063f2fde38b146101865763fa4e28f61461015c57600080fd5b34610183578060031936011261018357602060ff600854166101816040518092611db2565bf35b80fd5b5034610183576020366003190112610183576101b06101a3611c9f565b6101ab611eb7565b611e41565b80f35b50346101835780600319360112610183576020600454604051908152f35b50346101835760203660031901126101835760043560ff8116809103610292576101f9611eb7565b801561023e576040817ffc893db7ca6eb178a7bd93cdeb99ea5fa6570d124b4f04b50f9a727e21cc91029260ff19600c541617600c558151903382526020820152a180f35b60405162461bcd60e51b815260206004820152602660248201527f536572766963652046656573206d7573742062652067726561746572207468616044820152656e207a65726f60d01b6064820152608490fd5b5080fd5b5034610183576040366003190112610183576102b0611cba565b6102b8611eed565b6001600160a01b0316808252600a60205260408083209051906102da82611cfc565b60018060a01b0381541682526001810154906020830191825260ff6004600283015492604086019384526003810154606087015201541660038110156105585760808401523385526009602052604085209060ff60046040519361033d85611cfc565b80546001600160a01b039081168652600182015460208701526002820154166040860152600381015460608601520154161515608083015251156105075782516001600160a01b03168490036104ca57516001600160a01b0316330361047b57600435905103610443578280808093858252600a60205260046040832001600260ff19825416179055858252600b602052604082205490868352600b60205282604081205560018060a01b0390511682821561043a575bf11561042d578152600a6020526104266040822060046000918281558260018201558260028201558260038201550155565b6001805580f35b50604051903d90823e3d90fd5b506108fc6103f4565b60405162461bcd60e51b815260206004820152601060248201526f125b95985b1a59081d1bdad95b88125960821b6044820152606490fd5b60405162461bcd60e51b815260206004820152602160248201527f4f6e6c792053656c6c65722063616e2072656a6563742074686973206f6666656044820152603960f91b6064820152608490fd5b60405162461bcd60e51b8152602060048201526015602482015274496e56616c6964204275796572204164647265737360581b6044820152606490fd5b60405162461bcd60e51b815260206004820152602360248201527f4e6f204f6666657220686173207265636569766564206f6e207468697320746f60448201526235b2b760e91b6064820152608490fd5b634e487b7160e01b86526021600452602486fd5b503461018357602036600319011261018357610586611eb7565b60043560045580f35b5034610183578060031936011261018357546040516001600160a01b039091168152602090f35b5034610183576020366003190112610183576105d0611c9f565b6105d8611eb7565b6001600160a01b03168152600660205260408120805460ff1916905580f35b503461018357602036600319011261018357600435610614611eed565b33808352600960205260408320546001600160a01b0316036107b057338252600960205260ff6004604084200154161561077757338083526009602081815260408086206002015493865291905283205483916001600160a01b039182169116803b1561077357604051632142170760e11b81523060048201526001600160a01b039290921660248301526044820184905282908290606490829084905af1801561076857610753575b5033808252600960208181526040808520549385529181528184206002015482516001600160a01b03948516815291820186905290921690820152600160608201527f62a8c32d7e607200e5e6c5986d2407a01f983fe1af6d31899fb1e32c6fd1f2c290608090a133815260096020526104266040822060046000918281558260018201558260028201558260038201550155565b8161075d91611d2d565b6102925781386106be565b6040513d84823e3d90fd5b8280fd5b60405162461bcd60e51b815260206004820152601160248201527013999d081a5cc81b9bdd08131a5cdd1959607a1b6044820152606490fd5b60405162461bcd60e51b815260206004820152602260248201527f4f6e6c792053656c6c65722063616e20756e4c69737420686973206f776e204e604482015261199d60f21b6064820152608490fd5b50346101835760203660031901126101835761081a611c9f565b610822611e16565b506001600160a01b03168152600a602052604080822090519061084482611cfc565b60018060a01b0381541682526001810154602083019081526002820154906040840191825260ff600460038501549460608701958652015416608085019560038210156108c6575085526040805194516001600160a01b0316855290516020850152905190830152516060820152905160a09190610181906080830190611db2565b634e487b7160e01b81526021600452602490fd5b5034610183576080366003190112610183576024356004356108fa611ce6565b610902611cd0565b9061090b611eed565b3385526009602090815260408087206001600160a01b039485168852600690925286205491909216919060ff1615610b42576040516331a9108f60e11b815260048101849052602081602481865afa908115610b37578691610af1575b50336001600160a01b0390911603610aa257600481019060ff825416610a6c576002810180546001600160a01b0319908116851790915581541633178155600381018590556001908101849055815460ff1916178155813b15610a6857604051632142170760e11b8152336004820152306024820152604481018490528590818160648183885af1801561076857610a4d575b50927fa704c2f7861cb3e3fe5f14f2130761e59fbecf01cb35680cc00620ca3c02c16f928560ff60a0945416916040519333855260208501526040840152606083015215156080820152a16001805580f35b81610a5b9195949395611d2d565b610a6857909184386109fb565b8480fd5b60405162461bcd60e51b815260206004820152600e60248201526d105b1c9958591e48131a5cdd195960921b6044820152606490fd5b60405162461bcd60e51b815260206004820152602160248201527f596f7520617265206e6f7420746865206f776e6572206f662074686973204e666044820152601d60fa1b6064820152608490fd5b90506020813d602011610b2f575b81610b0c60209383611d2d565b81010312610b2b57516001600160a01b0381168103610b2b5738610968565b8580fd5b3d9150610aff565b6040513d88823e3d90fd5b60405162461bcd60e51b815260206004820152601f60248201527f4e6f7420617070726f766520627920666163746f727920636f6e7472616374006044820152606490fd5b50346101835780600319360112610183576002546040516001600160a01b039091168152602090f35b50346101835780600319360112610183576000805160206145e6833981519152546040516001600160a01b039091168152602090f35b50346101835780600319360112610183576020600754604051908152f35b50346101835780600319360112610183576000805160206146068339815191525460ff8160401c1615906001600160401b03811680159081610d78575b6001149081610d6e575b159081610d65575b50610d565767ffffffffffffffff1981166001176000805160206146068339815191525581610d29575b50610c866120f3565b610c8e6120f3565b610c9733611e41565b610c9f6120f3565b81546001600160a01b03191633178255610cb76120f3565b610cbf6120f3565b610cc833611e41565b610ccf5780f35b68ff0000000000000000196000805160206146068339815191525416600080516020614606833981519152557fc7f505b2f371ae2175ee4913f4499e1f2633a7b5936321eed1cdaeb6115181d2602060405160018152a180f35b68ffffffffffffffffff191668010000000000000001176000805160206146068339815191525538610c7d565b63f92ee8a960e01b8352600483fd5b90501538610c53565b303b159150610c4b565b839150610c41565b503461018357604036600319011261018357600435610d9d611cba565b610da5611eed565b33835260096020526040832060405192610dbe84611cfc565b60018060a01b0382541684526001820154602085015260ff600460018060a01b036002850154169360408701948552600381015460608801520154161515608085015260018060a01b03831693848652600a602052604086209060405191610e2583611cfc565b60018060a01b038154168352600181015491602084019283526002820154936040810194855260ff600460038501549460608401958652015416906003821015611081576080015251336001600160a01b039091160361103d57868852600b6020526040882054156110005751421015610fcb5782905103610f8657610f126080937f2b0295c6245bbde9b0128fbea0ea5fe173b82a59a739f77c5fc7deba224dbffc95878952600a602052600460408a2001600160ff19825416179055878952600b602052604089205490888a52600b602052896040812055339260018060a01b039051169086611f0f565b5190604051918583526020830152604082015260016060820152a13382526009602052610f5a6040832060046000918281558260018201558260028201558260038201550155565b8152600a6020526104266040822060046000918281558260018201558260028201558260038201550155565b60405162461bcd60e51b815260206004820152601760248201527f5468697320746f6b656e20686173206e6f206f666665720000000000000000006044820152606490fd5b60405162461bcd60e51b815260206004820152600d60248201526c13d999995c88115e1c1a5c9959609a1b6044820152606490fd5b60405162461bcd60e51b81526020600482015260156024820152742237b2b9b713ba103932b1b2b4bb329037b33332b960591b6044820152606490fd5b606460405162461bcd60e51b815260206004820152602060248201527f4f6e6c792053656c6c65722063616e2061636365707420746865206f666665726044820152fd5b634e487b7160e01b8b52602160045260248bfd5b506060366003190112610183576004356110ad611cba565b6110b5611ce6565b906110be611eed565b6001600160a01b0381168085526009602052604085206004015490939060ff161561124f57838552600960205260408520546001600160a01b0316849003611219578385526009602052600360408620015434036111de57838552600960205260408520546001600160a01b031633146111a8576111636080927fa8c8c76dcbc214f2bf1ff14e46e52c719da6477410ad492c29eb45fd05acb6249434903385611f0f565b604051903382526020820152346040820152426060820152a1815260096020526104266040822060046000918281558260018201558260028201558260038201550155565b60405162461bcd60e51b815260206004820152600e60248201526d43616e27742053656c662062757960901b6044820152606490fd5b60405162461bcd60e51b8152602060048201526013602482015272125b94dd59999a58da595b9d08105b5bdd5b9d606a1b6044820152606490fd5b60405162461bcd60e51b815260206004820152600e60248201526d24b73b30b634b21029b2b63632b960911b6044820152606490fd5b60405162461bcd60e51b815260206004820152600f60248201526e13999d0e88139bdd08131a5cdd1959608a1b6044820152606490fd5b503461018357806003193601126101835761129f611eb7565b6000805160206145e683398151915280546001600160a01b0319811690915581906001600160a01b03167f8be0079c531659141344cd1fd0a4f28419497f9722a3daafe3b4186f6b6457e08280a380f35b50346101835760203660031901126101835761130a611c9f565b611312611eb7565b60018060a01b03166001600160601b0360a01b600354161760035580f35b50346101835760403660031901126101835761134a611c9f565b611352611cba565b600080516020614606833981519152549160ff8360401c1615926001600160401b03811680159081611461575b6001149081611457575b15908161144e575b5061143f5767ffffffffffffffff1981166001176000805160206146068339815191525583611412575b506113c46120f3565b6113cc6120f3565b6113d533611e41565b60018060a01b03166001600160601b0360a01b600254161760025560018060a01b03166001600160601b0360a01b6003541617600355610ccf5780f35b68ffffffffffffffffff1916680100000000000000011760008051602061460683398151915255386113bb565b63f92ee8a960e01b8552600485fd5b90501538611391565b303b159150611389565b85915061137f565b5060803660031901126101835760243590604435600435611488611cd0565b611490611eed565b6001600160a01b0316808452600960205260408085209051909391906114b581611cfc565b60018060a01b03855416815260ff60046001870154966020840197885260018060a01b0360028201541660408501526003810154606085015201541615156080820152338652600a602052836040872095510361166257516001600160a01b03160361162b57428111156115f9578434036115c357338452600b602052604084209485543481018091116115af5790955582546001600160a01b031916339081178455600284019590955560038301556001820155600401805460ff191690556040805192835234602084015290917fb2a4706eb30fbca70b94141708a50a456d89844927f443dadcde61e3920ab6af9190a16001805580f35b634e487b7160e01b86526011600452602486fd5b60405162461bcd60e51b815260206004820152600e60248201526d125b9d985b1a5908185b5bdd5b9d60921b6044820152606490fd5b60405162461bcd60e51b815260206004820152600a6024820152692a34b6b29022b93937b960b11b6044820152606490fd5b60405162461bcd60e51b815260206004820152600f60248201526e496e76616c6964204164647265737360881b6044820152606490fd5b60405162461bcd60e51b815260206004820152601860248201527f5468697320746f6b656e206973206e6f74204c697374656400000000000000006044820152606490fd5b503461018357602036600319011261018357602090600435815260058252604060018060a01b0391205416604051908152f35b5034610183576020366003190112610183576116f4611c9f565b6116fc611eb7565b60018060a01b03166001600160601b0360a01b600254161760025580f35b50346101835760203660031901126101835760209060ff906040906001600160a01b03611745611c9f565b168152600684522054166040519015158152f35b503461018357602036600319011261018357604060a091611778611c9f565b611780611e16565b50600180851b0316815260096020522060405161179c81611cfc565b600180841b0382541691828252600181015460208301908152600180861b036002830154169060408401918252608060ff60046003860154956060880196875201541694019315158452604051948552516020850152600180861b0390511660408401525160608301525115156080820152f35b50346101835780600319360112610183576003546040516001600160a01b039091168152602090f35b503461018357608036600319011261018357611853611c9f565b5061185c611cba565b506064356001600160401b03811161029257366023820112156102925761188d903690602481600401359101611d4e565b50604051630a85bd0160e11b8152602090f35b503461018357610140366003190112610183576004356001600160401b038111610292576118d2903690600401611d94565b906024356001600160401b038111610292576118f2903690600401611d94565b916044356001600160401b03811161077357611912903690600401611d94565b60e435906001600160401b038211611c575736602383011215611c575781600401356001600160401b038111611c43578060051b92604051916119586020860184611d2d565b825260208201906024829582010190368211611b7b5760248101925b828410611ba257505050610104356001600160a01b0381169150819003610b2b57610124356001600160a01b0381169390849003611b9e576040516124c4808201908282106001600160401b03831117611b8a579082916121228339039088f08015611b7f576001600160a01b031697883b15611b7b57611a1e96939592889592611a30611a47936040519a8b98622a1f6360ea1b8a5261018060048b01526101848a0190611dd5565b8881036003190160248a015290611dd5565b916044870152600319868303016064870152611dd5565b94606435608485015260843560a485015260a43560c485015260c43560e48501526003198487030161010485015251808652602086019560208260051b820101939686915b838310611b2b5750505050829394506101248301523361014483015230610164830152038183875af1801561076857611b1b575b5060078054825260056020526040822080546001600160a01b0319166001600160a01b0385161790555491906000198314611b075750600160209201600755604051908152f35b634e487b7160e01b81526011600452602490fd5b81611b2591611d2d565b38611ac0565b92955092955092602080600192601f19858203018652895190604080611b5a8451606085526060850190611dd5565b93858101518685015201519101529801930193018895929693889592611a8c565b8780fd5b6040513d89823e3d90fd5b634e487b7160e01b8a52604160045260248afd5b8680fd5b83356001600160401b038111611c3f57820160606023198236030112611c3f5760405190606082018281106001600160401b03821117611c2b5760405260248101356001600160401b038111611c275791606460209492611c0a869560243691840101611d94565b835260448101358584015201356040820152815201930192611974565b8b80fd5b634e487b7160e01b8c52604160045260248cfd5b8980fd5b634e487b7160e01b85526041600452602485fd5b8380fd5b503461018357602036600319011261018357611c75611c9f565b611c7d611eb7565b6001600160a01b03168152600660205260408120805460ff1916600117905580f35b600435906001600160a01b0382168203611cb557565b600080fd5b602435906001600160a01b0382168203611cb557565b606435906001600160a01b0382168203611cb557565b604435906001600160a01b0382168203611cb557565b60a081019081106001600160401b03821117611d1757604052565b634e487b7160e01b600052604160045260246000fd5b90601f801991011681019081106001600160401b03821117611d1757604052565b9291926001600160401b038211611d175760405191611d77601f8201601f191660200184611d2d565b829481845281830111611cb5578281602093846000960137010152565b9080601f83011215611cb557816020611daf93359101611d4e565b90565b906003821015611dbf5752565b634e487b7160e01b600052602160045260246000fd5b919082519283825260005b848110611e01575050826000602080949584010152601f8019910116010190565b80602080928401015182828601015201611de0565b60405190611e2382611cfc565b60006080838281528260208201528260408201528260608201520152565b6001600160a01b03168015611ea1576000805160206145e683398151915280546001600160a01b0319811683179091556001600160a01b03167f8be0079c531659141344cd1fd0a4f28419497f9722a3daafe3b4186f6b6457e0600080a3565b631e4fbdf760e01b600052600060045260246000fd5b6000805160206145e6833981519152546001600160a01b03163303611ed857565b63118cdaa760e01b6000523360045260246000fd5b600260015414611efe576002600155565b633ee5aeb560e01b60005260046000fd5b600c5460009591946001600160a01b0390941693919060ff1680156120a25780830290838204148315171561208e5760649004868080808460018060a01b03825416828215612085575bf115610b37578654604080516001600160a01b039092168252602082018390527f56a87afabcc5be804fc847379d1f4e3408f49b3016cc7dcea295265f59a0bd5791a180830391838311612071576001600160a01b031692879183918591849114612068575b839283928392f11561205d577ff474f1647716b20d13fea8c36a785eabe9a98725dd210a911b9e0fc1508a6af4916060916040519182526020820152426040820152a1813b15611c5757604051632142170760e11b81523060048201526001600160a01b03919091166024820152604481019290925282908290606490829084905af1801561076857612050575050565b8161205a91611d2d565b50565b6040513d87823e3d90fd5b506108fc611fbf565b634e487b7160e01b88526011600452602488fd5b506108fc611f59565b634e487b7160e01b87526011600452602487fd5b60405162461bcd60e51b8152602060048201526024808201527f4d61726b6574506c616365206e6f742073657420736572766963652066656573604482015263081e595d60e21b6064820152608490fd5b60ff6000805160206146068339815191525460401c161561211057565b631afcd79f60e31b60005260046000fdfe608080604052346015576124a9908161001b8239f35b600080fdfe608080604052600436101561001357600080fd5b60003560e01c90816301ffc9a714611af95750806306fdde0314611a37578063081812fc146119ec578063095ea7b3146118fa57806319e2a211146113f15780632194f3a2146113c857806323b872dd146113b157806324600fc314611188578063321db7261461108157806342842e0e146110515780634ed0262214610f2a5780636352211e14610efa57806370a0823114610ea8578063715018a614610e3e5780638da5cb5b14610e0857806395d89b4114610d215780639dec65ed14610cf8578063a22cb46514610c5c578063a87d8c0014610359578063a98ad46c14610330578063b88d4fde146102c5578063bda9060414610282578063c87b56dd14610216578063e985e9c5146101c8578063f2fde38b1461019d5763fa7130831461013d57600080fd5b34610198576020366003190112610198576004356000526009602052610189604060002061016a81611cf1565b9060026001820154910154604051938493606085526060850190611b64565b91602084015260408301520390f35b600080fd5b34610198576020366003190112610198576101c66101b9611ba5565b6101c16121f8565b612151565b005b34610198576040366003190112610198576101e1611ba5565b6101f26101ec611bbb565b91612118565b9060018060a01b0316600052602052602060ff604060002054166040519015158152f35b34610198576020366003190112610198576004356001600160a01b0361023b8261236b565b161561027157600052600a60205261026d6102596040600020611cf1565b604051918291602083526020830190611b64565b0390f35b63677510db60e11b60005260046000fd5b346101985760203660031901126101985761029b611ba5565b6102a36121f8565b600080546001600160a01b0319166001600160a01b0392909216919091179055005b34610198576080366003190112610198576102de611ba5565b6102e6611bbb565b90604435606435926001600160401b03841161019857366023850112156101985761031e6101c6943690602481600401359101611c28565b9261032a838383611f15565b3361222e565b34610198576000366003190112610198576007546040516001600160a01b039091168152602090f35b3461019857610180366003190112610198576004356001600160401b0381116101985761038a903690600401611c5f565b6024356001600160401b038111610198576103a9903690600401611c5f565b6044356001600160a01b0381169290839003610198576064356001600160401b038111610198576103de903690600401611c5f565b9261010435926001600160401b038411610198573660238501121561019857836004013561040b81611d95565b946104196040519687611bec565b8186526024602087019260051b820101903682116101985760248101925b828410610be757505050610124356001600160a01b03811693915083900361019857610144356001600160a01b038116810361019857610164356001600160a01b038116939084900361019857600080516020612434833981519152549560ff8760401c1615966001600160401b03811680159081610bdf575b6001149081610bd5575b159081610bcc575b50610bbb5767ffffffffffffffff1981166001176000805160206124348339815191525587610b8e575b506104f66123a5565b6104fe6123a5565b8051906001600160401b03821161096d576105276000805160206123d483398151915254611cb7565b601f8111610b1c575b50602090601f8311600114610a7c57610562929160009183610762575b50508160011b916000199060031b1c19161790565b6000805160206123d4833981519152555b8051906001600160401b03821161096d5761059c60008051602061245483398151915254611cb7565b601f8111610a0a575b50602090601f83116001146109835791806105db926105fc95946000926107625750508160011b916000199060031b1c19161790565b600080516020612454833981519152555b6105f46123a5565b6101c16123a5565b6001600160601b0360a01b60075416176007556001600160601b0360a01b60005416176000556001600160601b0360a01b600854161760085582516001600160401b03811161096d57610650600154611cb7565b601f8111610908575b506020601f821160011461088457819061068b9394956000926108795750508160011b916000199060031b1c19161790565b6001555b60843560025560a43560035560c43560045560e43560055560005b825181101561081457600060208260051b8501015160065468010000000000000000811015610800578060016106e39201600655611dac565b9290926107ec578151908151916001600160401b0383116107d8576107128361070c8754611cb7565b87611de1565b602091601f841160011461076d578360029460409460019998979461074b94926107625750508160011b916000199060031b1c19161790565b84555b6020810151868501550151910155016106aa565b015190508b8061054d565b9190601f198416868452828420935b8181106107c0575093604093600198979693899383600298106107a7575b505050811b01845561074e565b015160001960f88460031b161c191690558a808061079a565b9293602060018192878601518155019501930161077c565b634e487b7160e01b82526041600452602482fd5b634e487b7160e01b81526004819052602490fd5b634e487b7160e01b83526041600452602483fd5b506000600b5561082057005b68ff0000000000000000196000805160206124348339815191525416600080516020612434833981519152557fc7f505b2f371ae2175ee4913f4499e1f2633a7b5936321eed1cdaeb6115181d2602060405160018152a1005b01519050858061054d565b601f1982169060016000527fb10e2d527612073b26eecdfd717e6a320cf44b4afac2b0732d9fcbe2b7fa0cf69160005b8181106108f0575095836001959697106108d7575b505050811b0160015561068f565b015160001960f88460031b161c191690558480806108c9565b9192602060018192868b0151815501940192016108b4565b60016000527fb10e2d527612073b26eecdfd717e6a320cf44b4afac2b0732d9fcbe2b7fa0cf6601f830160051c81019160208410610963575b601f0160051c01905b8181106109575750610659565b6000815560010161094a565b9091508190610941565b634e487b7160e01b600052604160045260246000fd5b90601f19831691600080516020612454833981519152600052816000209260005b8181106109f257509160019391856105fc979694106109d9575b505050811b01600080516020612454833981519152556105ec565b015160001960f88460031b161c191690558a80806109be565b929360206001819287860151815501950193016109a4565b6000805160206124548339815191526000527ff4bad0a69248f59680a4f2b3000328cec71a413447c96781cfe5996daa8c456e601f840160051c81019160208510610a72575b601f0160051c01905b818110610a6657506105a5565b60008155600101610a59565b9091508190610a50565b90601f198316916000805160206123d48339815191526000527f37c58c799b6609234b945e882912ee9ad34948a1dfaa20a97485e1a7752bbf819260005b818110610b045750908460019594939210610aeb575b505050811b016000805160206123d483398151915255610573565b015160001960f88460031b161c191690558a8080610ad0565b92936020600181928786015181550195019301610aba565b6000805160206123d48339815191526000527f37c58c799b6609234b945e882912ee9ad34948a1dfaa20a97485e1a7752bbf81601f840160051c81019160208510610b84575b601f0160051c01905b818110610b785750610530565b60008155600101610b6b565b9091508190610b62565b68ffffffffffffffffff1916680100000000000000011760008051602061243483398151915255896104ed565b63f92ee8a960e01b60005260046000fd5b9050158b6104c3565b303b1591506104bb565b8991506104b1565b83356001600160401b038111610198578201606060231982360301126101985760405191610c1483611bd1565b6024820135926001600160401b03841161019857606460209493610c3f869560243691840101611c5f565b835260448101358584015201356040820152815201930192610437565b3461019857604036600319011261019857610c75611ba5565b60243590811515809203610198576001600160a01b0316908115610ce357610c9c33612118565b82600052602052604060002060ff1981541660ff83161790556040519081527f17307eab39ab6107e8899845ad3d59bd9653f200f220920489ca2b5937696c3160203392a3005b50630b61174360e31b60005260045260246000fd5b34610198576000366003190112610198576000546040516001600160a01b039091168152602090f35b3461019857600036600319011261019857604051600060008051602061245483398151915254610d5081611cb7565b8084529060018116908115610de45750600114610d78575b61026d8361025981850382611bec565b60008051602061245483398151915260009081527ff4bad0a69248f59680a4f2b3000328cec71a413447c96781cfe5996daa8c456e939250905b808210610dca57509091508101602001610259610d68565b919260018160209254838588010152019101909291610db2565b60ff191660208086019190915291151560051b840190910191506102599050610d68565b34610198576000366003190112610198576000805160206123f4833981519152546040516001600160a01b039091168152602090f35b3461019857600036600319011261019857610e576121f8565b6000805160206123f483398151915280546001600160a01b031981169091556000906001600160a01b03167f8be0079c531659141344cd1fd0a4f28419497f9722a3daafe3b4186f6b6457e08280a3005b3461019857602036600319011261019857610ec1611ba5565b6001600160a01b03811615610ee457610edb6020916120df565b54604051908152f35b6322718ad960e21b600052600060045260246000fd5b34610198576020366003190112610198576020610f186004356121c7565b6040516001600160a01b039091168152f35b3461019857600036600319011261019857600654610f4781611d95565b90610f556040519283611bec565b80825260208201908160066000527ff652222313e28459528d920b65115c16c04f3efc82aaedc97be59f3f377c0d3f6000915b83831061101357848660405191829160208301906020845251809152604083019060408160051b85010192916000905b828210610fc757505050500390f35b919360019193955060208091603f19898203018552875190604080610ff58451606085526060850190611b64565b93858101518685015201519101529601920192018594939192610fb8565b6003602060019260405161102681611bd1565b61102f86611cf1565b8152848601548382015260028601546040820152815201920192019190610f88565b34610198576101c661106236611c7d565b9060405192611072602085611bec565b6000845261032a838383611f15565b346101985760003660031901126101985760405160006001546110a381611cb7565b80845290600181169081156111645750600114611105575b6110ec836110cb81850382611bec565b6002546003546004546005549160405195869560a0875260a0870190611b64565b9360208601526040850152606084015260808301520390f35b600160009081527fb10e2d527612073b26eecdfd717e6a320cf44b4afac2b0732d9fcbe2b7fa0cf6939250905b80821061114a575090915081016020016110cb6110bb565b919260018160209254838588010152019101909291611132565b60ff191660208086019190915291151560051b840190910191506110cb90506110bb565b34610198576000366003190112610198576111a16121f8565b6000546040516326749ad760e01b815230600482015290602090829060249082906001600160a01b03165afa90811561129a5760009161136f575b5015611314576007546040516370a0823160e01b81523060048201526001600160a01b0390911690602081602481855afa90811561129a576000916112e2575b5080156112a657600060209160018060a01b036008541690604051908482019263a9059cbb60e01b8452602483015260448201526044815261125f606482611bec565b519082855af11561129a576000513d6112915750803b155b61127d57005b635274afe760e01b60005260045260246000fd5b60011415611277565b6040513d6000823e3d90fd5b60405162461bcd60e51b81526020600482015260146024820152734e6f2066756e647320746f20776974686472617760601b6044820152606490fd5b90506020813d60201161130c575b816112fd60209383611bec565b8101031261019857518261121c565b3d91506112f0565b60405162461bcd60e51b815260206004820152602d60248201527f5468697320636f6e7472616374206973206e6f7420617070726f76656420666f60448201526c72207769746864726177616c7360981b6064820152608490fd5b6020813d6020116113a9575b8161138860209383611bec565b810103126113a557519081151582036113a25750816111dc565b80fd5b5080fd5b3d915061137b565b34610198576101c66113c236611c7d565b91611f15565b34610198576000366003190112610198576008546040516001600160a01b039091168152602090f35b34610198576040366003190112610198576004356024356001600160401b03811161019857611424903690600401611c5f565b9060045442106118ab5760055442116118665760065481101561182b5761144a90611dac565b506001810191825480156117f45760001981019081116117de578355600b54600181018082116117de57600b556020916040516114878482611bec565b6000815233156117c85761149a8361236b565b6001600160a01b0381168015159190859083611789575b6114ba336120df565b8054600101905560008281527f80bb2b638cc20bc4d0a60d66940f3ab4a00c1d7b313497ca82fb0b4ab007930289526040812080546001600160a01b0319163390811790915591907fddf252ad1be2c89b69c2b068fc378daa952ba7f163c4a11628f55a4df523b3ef9080a45061177357333b61165a575b506001600160a01b036115448361236b565b16156102715781600052600a83526040600020908051906001600160401b03821161096d5761157d826115778554611cb7565b85611de1565b8490601f83116001146115ef5791806115b2926009979695946000926115e45750508160011b916000199060031b1c19161790565b90555b600052526040600020918183036115c857005b60029182916115d78286611e33565b5460018501550154910155005b01519050898061054d565b90601f1983169184600052866000209260005b8181106116435750916001939185600999989796941061162a575b505050811b0190556115b5565b015160001960f88460031b161c1916905588808061161d565b929388600181928786015181550195019301611602565b83611698916040979695975180938192630a85bd0160e11b835233600484015260006024840152876044840152608060648401526084830190611b64565b03816000335af18091600091611735575b50906116ff57853d156116f8573d6116c081611c0d565b906116ce6040519283611bec565b81523d60008383013e5b805191826116f557633250574960e11b6000523360045260246000fd5b01fd5b60606116d8565b939492936001600160e01b03191663757a42ff60e11b016117205785611532565b633250574960e11b6000523360045260246000fd5b8781813d831161176c575b61174a8183611bec565b810103126113a55751906001600160e01b0319821682036113a25750876116a9565b503d611740565b6339e3563760e11b600052600060045260246000fd5b60008281526000805160206124148339815191526020526040902080546001600160a01b03191690556117bb836120df565b80546000190190556114b1565b633250574960e11b600052600060045260246000fd5b634e487b7160e01b600052601160045260246000fd5b60405162461bcd60e51b815260206004820152600f60248201526e151a58dad95d081cdbdb19081bdd5d608a1b6044820152606490fd5b60405162461bcd60e51b8152602060048201526013602482015272496e76616c6964207469636b6574207479706560681b6044820152606490fd5b60405162461bcd60e51b815260206004820152601760248201527f5469636b65742073616c6573206861766520656e6465640000000000000000006044820152606490fd5b60405162461bcd60e51b815260206004820152602160248201527f5469636b65742073616c65732068617665206e6f7420737461727465642079656044820152601d60fa1b6064820152608490fd5b3461019857604036600319011261019857611913611ba5565b60243561191f816121c7565b331515806119d9575b806119b5575b6119a05781906001600160a01b0384811691167f8c5be1e5ebec7d5bd14f71427d1e84f3dd0314c0f7b2291e5b200ac8c7c3b925600080a460009081526000805160206124148339815191526020526040902080546001600160a01b0319166001600160a01b03909216919091179055005b63a9fbf51f60e01b6000523360045260246000fd5b506119bf81612118565b336000908152602091909152604090205460ff161561192e565b506001600160a01b038116331415611928565b34610198576020366003190112610198576020610f18600435611a0e816121c7565b50600090815260008051602061241483398151915260205260409020546001600160a01b031690565b346101985760003660031901126101985760405160006000805160206123d483398151915254611a6681611cb7565b8084529060018116908115610de45750600114611a8d5761026d8361025981850382611bec565b6000805160206123d483398151915260009081527f37c58c799b6609234b945e882912ee9ad34948a1dfaa20a97485e1a7752bbf81939250905b808210611adf57509091508101602001610259610d68565b919260018160209254838588010152019101909291611ac7565b34610198576020366003190112610198576004359063ffffffff60e01b8216809203610198576020916380ac58cd60e01b8114908115611b53575b8115611b42575b5015158152f35b6301ffc9a760e01b14905083611b3b565b635b5e139f60e01b81149150611b34565b919082519283825260005b848110611b90575050826000602080949584010152601f8019910116010190565b80602080928401015182828601015201611b6f565b600435906001600160a01b038216820361019857565b602435906001600160a01b038216820361019857565b606081019081106001600160401b0382111761096d57604052565b90601f801991011681019081106001600160401b0382111761096d57604052565b6001600160401b03811161096d57601f01601f191660200190565b929192611c3482611c0d565b91611c426040519384611bec565b829481845281830111610198578281602093846000960137010152565b9080601f8301121561019857816020611c7a93359101611c28565b90565b6060906003190112610198576004356001600160a01b038116810361019857906024356001600160a01b0381168103610198579060443590565b90600182811c92168015611ce7575b6020831014611cd157565b634e487b7160e01b600052602260045260246000fd5b91607f1691611cc6565b9060405191826000825492611d0584611cb7565b8084529360018116908115611d735750600114611d2c575b50611d2a92500383611bec565b565b90506000929192526020600020906000915b818310611d57575050906020611d2a9282010138611d1d565b6020919350806001915483858901015201910190918492611d3e565b905060209250611d2a94915060ff191682840152151560051b82010138611d1d565b6001600160401b03811161096d5760051b60200190565b600654811015611dcb5760066000526003602060002091020190600090565b634e487b7160e01b600052603260045260246000fd5b601f8211611dee57505050565b6000526020600020906020601f840160051c83019310611e29575b601f0160051c01905b818110611e1d575050565b60008155600101611e12565b9091508190611e09565b919091828114611f1057611e478354611cb7565b6001600160401b03811161096d57611e6981611e638454611cb7565b84611de1565b600093601f8211600114611eaa57611e9b9293948291600092611e9f5750508160011b916000199060031b1c19161790565b9055565b01549050388061054d565b845260208085208386529085209094601f198316815b818110611ef857509583600195969710611edf575b505050811b019055565b015460001960f88460031b161c19169055388080611ed5565b9192600180602092868b015481550194019201611ec0565b509050565b909291906001600160a01b03841680156117c857600094611f358461236b565b9533151580612033575b509184917fddf252ad1be2c89b69c2b068fc378daa952ba7f163c4a11628f55a4df523b3ef611f8097989460018060a01b03861698899384611ff4576120df565b805460010190558481527f80bb2b638cc20bc4d0a60d66940f3ab4a00c1d7b313497ca82fb0b4ab00793026020526040812080546001600160a01b0319168517905580a4506001600160a01b0316808303611fda57505050565b6364283d7b60e01b60005260045260245260445260646000fd5b60008781526000805160206124148339815191526020526040902080546001600160a01b0319169055612026886120df565b80546000190190556120df565b8061207c575b156120445738611f3f565b84906001600160a01b03881661206657602491637e27328960e01b8252600452fd5b60449163177e802f60e01b825233600452602452fd5b506001600160a01b038716331480156120c2575b806120395750600085815260008051602061241483398151915260205260409020546001600160a01b03163314612039565b506120cc87612118565b338252602052604081205460ff16612090565b6001600160a01b031660009081527f80bb2b638cc20bc4d0a60d66940f3ab4a00c1d7b313497ca82fb0b4ab00793036020526040902090565b6001600160a01b031660009081527f80bb2b638cc20bc4d0a60d66940f3ab4a00c1d7b313497ca82fb0b4ab00793056020526040902090565b6001600160a01b031680156121b1576000805160206123f483398151915280546001600160a01b0319811683179091556001600160a01b03167f8be0079c531659141344cd1fd0a4f28419497f9722a3daafe3b4186f6b6457e0600080a3565b631e4fbdf760e01b600052600060045260246000fd5b6121d08161236b565b906001600160a01b038216156121e4575090565b637e27328960e01b60005260045260246000fd5b6000805160206123f4833981519152546001600160a01b0316330361221957565b63118cdaa760e01b6000523360045260246000fd5b823b61223c575b5050505050565b604051630a85bd0160e11b81526001600160a01b039182166004820152918116602483015260448201939093526080606482015291169160209082908190612288906084830190611b64565b03816000865af18091600091612328575b50906122f257503d156122eb573d6122b081611c0d565b906122be6040519283611bec565b81523d6000602083013e5b805190816122e65782633250574960e11b60005260045260246000fd5b602001fd5b60606122c9565b6001600160e01b03191663757a42ff60e11b0161231457503880808080612235565b633250574960e11b60005260045260246000fd5b6020813d602011612363575b8161234160209383611bec565b810103126113a55751906001600160e01b0319821682036113a2575038612299565b3d9150612334565b60009081527f80bb2b638cc20bc4d0a60d66940f3ab4a00c1d7b313497ca82fb0b4ab007930260205260409020546001600160a01b031690565b60ff6000805160206124348339815191525460401c16156123c257565b631afcd79f60e31b60005260046000fdfe80bb2b638cc20bc4d0a60d66940f3ab4a00c1d7b313497ca82fb0b4ab00793009016d09d72d40fdae2fd8ceac6b6234c7706214fd39c1cd1e609a0528c19930080bb2b638cc20bc4d0a60d66940f3ab4a00c1d7b313497ca82fb0b4ab0079304f0c57e16840df040f15088dc2f81fe391c3923bec73e23a9662efc9c229c6a0080bb2b638cc20bc4d0a60d66940f3ab4a00c1d7b313497ca82fb0b4ab0079301a26469706673582212206552b3f64bd2cbe17261e3da47a7378865ea6cf91975799410d90cbe1bc41b7c64736f6c634300081a00339016d09d72d40fdae2fd8ceac6b6234c7706214fd39c1cd1e609a0528c199300f0c57e16840df040f15088dc2f81fe391c3923bec73e23a9662efc9c229c6a00a2646970667358221220b17e9489c575fb9a3b6ca7263de2dcbc0be2fb53e48f4f486d96f453623101d664736f6c634300081a0033","opcodes":"PUSH1 0x80 DUP1 PUSH1 0x40 MSTORE CALLVALUE PUSH1 0x19 JUMPI PUSH1 0x1 DUP1 SSTORE PUSH2 0x465B SWAP1 DUP2 PUSH2 0x1F DUP3 CODECOPY RETURN JUMPDEST PUSH1 0x0 DUP1 REVERT INVALID PUSH1 0x80 PUSH1 0x40 MSTORE PUSH1 0x4 CALLDATASIZE LT ISZERO PUSH2 0x12 JUMPI PUSH1 0x0 DUP1 REVERT JUMPDEST PUSH1 0x0 DUP1 CALLDATALOAD PUSH1 0xE0 SHR DUP1 PUSH4 0x7F7AAFB EQ PUSH2 0x1C5B JUMPI DUP1 PUSH4 0xFE9A094 EQ PUSH2 0x18A0 JUMPI DUP1 PUSH4 0x150B7A02 EQ PUSH2 0x1839 JUMPI DUP1 PUSH4 0x2194F3A2 EQ PUSH2 0x1810 JUMPI DUP1 PUSH4 0x22D868CB EQ PUSH2 0x1759 JUMPI DUP1 PUSH4 0x26749AD7 EQ PUSH2 0x171A JUMPI DUP1 PUSH4 0x26A4E8D2 EQ PUSH2 0x16DA JUMPI DUP1 PUSH4 0x3263B545 EQ PUSH2 0x16A7 JUMPI DUP1 PUSH4 0x4370FB34 EQ PUSH2 0x1469 JUMPI DUP1 PUSH4 0x485CC955 EQ PUSH2 0x1330 JUMPI DUP1 PUSH4 0x64E39B87 EQ PUSH2 0x12F0 JUMPI DUP1 PUSH4 0x715018A6 EQ PUSH2 0x1286 JUMPI DUP1 PUSH4 0x72A43B9C EQ PUSH2 0x1095 JUMPI DUP1 PUSH4 0x7CDE1202 EQ PUSH2 0xD80 JUMPI DUP1 PUSH4 0x8129FC1C EQ PUSH2 0xC04 JUMPI DUP1 PUSH4 0x8736381A EQ PUSH2 0xBE6 JUMPI DUP1 PUSH4 0x8DA5CB5B EQ PUSH2 0xBB0 JUMPI DUP1 PUSH4 0x9D76EA58 EQ PUSH2 0xB87 JUMPI DUP1 PUSH4 0xA0AA5CCA EQ PUSH2 0x8DA JUMPI DUP1 PUSH4 0xAA4B27A8 EQ PUSH2 0x800 JUMPI DUP1 PUSH4 0xAB67B236 EQ PUSH2 0x5F7 JUMPI DUP1 PUSH4 0xCC2E3EE1 EQ PUSH2 0x5B6 JUMPI DUP1 PUSH4 0xCE606EE0 EQ PUSH2 0x58F JUMPI DUP1 PUSH4 0xD002462B EQ PUSH2 0x56C JUMPI DUP1 PUSH4 0xDB9371C2 EQ PUSH2 0x296 JUMPI DUP1 PUSH4 0xF24639C6 EQ PUSH2 0x1D1 JUMPI DUP1 PUSH4 0xF2CFF57F EQ PUSH2 0x1B3 JUMPI DUP1 PUSH4 0xF2FDE38B EQ PUSH2 0x186 JUMPI PUSH4 0xFA4E28F6 EQ PUSH2 0x15C JUMPI PUSH1 0x0 DUP1 REVERT JUMPDEST CALLVALUE PUSH2 0x183 JUMPI DUP1 PUSH1 0x3 NOT CALLDATASIZE ADD SLT PUSH2 0x183 JUMPI PUSH1 0x20 PUSH1 0xFF PUSH1 0x8 SLOAD AND PUSH2 0x181 PUSH1 0x40 MLOAD DUP1 SWAP3 PUSH2 0x1DB2 JUMP JUMPDEST RETURN JUMPDEST DUP1 REVERT JUMPDEST POP CALLVALUE PUSH2 0x183 JUMPI PUSH1 0x20 CALLDATASIZE PUSH1 0x3 NOT ADD SLT PUSH2 0x183 JUMPI PUSH2 0x1B0 PUSH2 0x1A3 PUSH2 0x1C9F JUMP JUMPDEST PUSH2 0x1AB PUSH2 0x1EB7 JUMP JUMPDEST PUSH2 0x1E41 JUMP JUMPDEST DUP1 RETURN JUMPDEST POP CALLVALUE PUSH2 0x183 JUMPI DUP1 PUSH1 0x3 NOT CALLDATASIZE ADD SLT PUSH2 0x183 JUMPI PUSH1 0x20 PUSH1 0x4 SLOAD PUSH1 0x40 MLOAD SWAP1 DUP2 MSTORE RETURN JUMPDEST POP CALLVALUE PUSH2 0x183 JUMPI PUSH1 0x20 CALLDATASIZE PUSH1 0x3 NOT ADD SLT PUSH2 0x183 JUMPI PUSH1 0x4 CALLDATALOAD PUSH1 0xFF DUP2 AND DUP1 SWAP2 SUB PUSH2 0x292 JUMPI PUSH2 0x1F9 PUSH2 0x1EB7 JUMP JUMPDEST DUP1 ISZERO PUSH2 0x23E JUMPI PUSH1 0x40 DUP2 PUSH32 0xFC893DB7CA6EB178A7BD93CDEB99EA5FA6570D124B4F04B50F9A727E21CC9102 SWAP3 PUSH1 0xFF NOT PUSH1 0xC SLOAD AND OR PUSH1 0xC SSTORE DUP2 MLOAD SWAP1 CALLER DUP3 MSTORE PUSH1 0x20 DUP3 ADD MSTORE LOG1 DUP1 RETURN JUMPDEST PUSH1 0x40 MLOAD PUSH3 0x461BCD PUSH1 0xE5 SHL DUP2 MSTORE PUSH1 0x20 PUSH1 0x4 DUP3 ADD MSTORE PUSH1 0x26 PUSH1 0x24 DUP3 ADD MSTORE PUSH32 0x536572766963652046656573206D757374206265206772656174657220746861 PUSH1 0x44 DUP3 ADD MSTORE PUSH6 0x6E207A65726F PUSH1 0xD0 SHL PUSH1 0x64 DUP3 ADD MSTORE PUSH1 0x84 SWAP1 REVERT JUMPDEST POP DUP1 REVERT JUMPDEST POP CALLVALUE PUSH2 0x183 JUMPI PUSH1 0x40 CALLDATASIZE PUSH1 0x3 NOT ADD SLT PUSH2 0x183 JUMPI PUSH2 0x2B0 PUSH2 0x1CBA JUMP JUMPDEST PUSH2 0x2B8 PUSH2 0x1EED JUMP JUMPDEST PUSH1 0x1 PUSH1 0x1 PUSH1 0xA0 SHL SUB AND DUP1 DUP3 MSTORE PUSH1 0xA PUSH1 0x20 MSTORE PUSH1 0x40 DUP1 DUP4 KECCAK256 SWAP1 MLOAD SWAP1 PUSH2 0x2DA DUP3 PUSH2 0x1CFC JUMP JUMPDEST PUSH1 0x1 DUP1 PUSH1 0xA0 SHL SUB DUP2 SLOAD AND DUP3 MSTORE PUSH1 0x1 DUP2 ADD SLOAD SWAP1 PUSH1 0x20 DUP4 ADD SWAP2 DUP3 MSTORE PUSH1 0xFF PUSH1 0x4 PUSH1 0x2 DUP4 ADD SLOAD SWAP3 PUSH1 0x40 DUP7 ADD SWAP4 DUP5 MSTORE PUSH1 0x3 DUP2 ADD SLOAD PUSH1 0x60 DUP8 ADD MSTORE ADD SLOAD AND PUSH1 0x3 DUP2 LT ISZERO PUSH2 0x558 JUMPI PUSH1 0x80 DUP5 ADD MSTORE CALLER DUP6 MSTORE PUSH1 0x9 PUSH1 0x20 MSTORE PUSH1 0x40 DUP6 KECCAK256 SWAP1 PUSH1 0xFF PUSH1 0x4 PUSH1 0x40 MLOAD SWAP4 PUSH2 0x33D DUP6 PUSH2 0x1CFC JUMP JUMPDEST DUP1 SLOAD PUSH1 0x1 PUSH1 0x1 PUSH1 0xA0 SHL SUB SWAP1 DUP2 AND DUP7 MSTORE PUSH1 0x1 DUP3 ADD SLOAD PUSH1 0x20 DUP8 ADD MSTORE PUSH1 0x2 DUP3 ADD SLOAD AND PUSH1 0x40 DUP7 ADD MSTORE PUSH1 0x3 DUP2 ADD SLOAD PUSH1 0x60 DUP7 ADD MSTORE ADD SLOAD AND ISZERO ISZERO PUSH1 0x80 DUP4 ADD MSTORE MLOAD ISZERO PUSH2 0x507 JUMPI DUP3 MLOAD PUSH1 0x1 PUSH1 0x1 PUSH1 0xA0 SHL SUB AND DUP5 SWAP1 SUB PUSH2 0x4CA JUMPI MLOAD PUSH1 0x1 PUSH1 0x1 PUSH1 0xA0 SHL SUB AND CALLER SUB PUSH2 0x47B JUMPI PUSH1 0x4 CALLDATALOAD SWAP1 MLOAD SUB PUSH2 0x443 JUMPI DUP3 DUP1 DUP1 DUP1 SWAP4 DUP6 DUP3 MSTORE PUSH1 0xA PUSH1 0x20 MSTORE PUSH1 0x4 PUSH1 0x40 DUP4 KECCAK256 ADD PUSH1 0x2 PUSH1 0xFF NOT DUP3 SLOAD AND OR SWAP1 SSTORE DUP6 DUP3 MSTORE PUSH1 0xB PUSH1 0x20 MSTORE PUSH1 0x40 DUP3 KECCAK256 SLOAD SWAP1 DUP7 DUP4 MSTORE PUSH1 0xB PUSH1 0x20 MSTORE DUP3 PUSH1 0x40 DUP2 KECCAK256 SSTORE PUSH1 0x1 DUP1 PUSH1 0xA0 SHL SUB SWAP1 MLOAD AND DUP3 DUP3 ISZERO PUSH2 0x43A JUMPI JUMPDEST CALL ISZERO PUSH2 0x42D JUMPI DUP2 MSTORE PUSH1 0xA PUSH1 0x20 MSTORE PUSH2 0x426 PUSH1 0x40 DUP3 KECCAK256 PUSH1 0x4 PUSH1 0x0 SWAP2 DUP3 DUP2 SSTORE DUP3 PUSH1 0x1 DUP3 ADD SSTORE DUP3 PUSH1 0x2 DUP3 ADD SSTORE DUP3 PUSH1 0x3 DUP3 ADD SSTORE ADD SSTORE JUMP JUMPDEST PUSH1 0x1 DUP1 SSTORE DUP1 RETURN JUMPDEST POP PUSH1 0x40 MLOAD SWAP1 RETURNDATASIZE SWAP1 DUP3 RETURNDATACOPY RETURNDATASIZE SWAP1 REVERT JUMPDEST POP PUSH2 0x8FC PUSH2 0x3F4 JUMP JUMPDEST PUSH1 0x40 MLOAD PUSH3 0x461BCD PUSH1 0xE5 SHL DUP2 MSTORE PUSH1 0x20 PUSH1 0x4 DUP3 ADD MSTORE PUSH1 0x10 PUSH1 0x24 DUP3 ADD MSTORE PUSH16 0x125B95985B1A59081D1BDAD95B881259 PUSH1 0x82 SHL PUSH1 0x44 DUP3 ADD MSTORE PUSH1 0x64 SWAP1 REVERT JUMPDEST PUSH1 0x40 MLOAD PUSH3 0x461BCD PUSH1 0xE5 SHL DUP2 MSTORE PUSH1 0x20 PUSH1 0x4 DUP3 ADD MSTORE PUSH1 0x21 PUSH1 0x24 DUP3 ADD MSTORE PUSH32 0x4F6E6C792053656C6C65722063616E2072656A6563742074686973206F666665 PUSH1 0x44 DUP3 ADD MSTORE PUSH1 0x39 PUSH1 0xF9 SHL PUSH1 0x64 DUP3 ADD MSTORE PUSH1 0x84 SWAP1 REVERT JUMPDEST PUSH1 0x40 MLOAD PUSH3 0x461BCD PUSH1 0xE5 SHL DUP2 MSTORE PUSH1 0x20 PUSH1 0x4 DUP3 ADD MSTORE PUSH1 0x15 PUSH1 0x24 DUP3 ADD MSTORE PUSH21 0x496E56616C69642042757965722041646472657373 PUSH1 0x58 SHL PUSH1 0x44 DUP3 ADD MSTORE PUSH1 0x64 SWAP1 REVERT JUMPDEST PUSH1 0x40 MLOAD PUSH3 0x461BCD PUSH1 0xE5 SHL DUP2 MSTORE PUSH1 0x20 PUSH1 0x4 DUP3 ADD MSTORE PUSH1 0x23 PUSH1 0x24 DUP3 ADD MSTORE PUSH32 0x4E6F204F6666657220686173207265636569766564206F6E207468697320746F PUSH1 0x44 DUP3 ADD MSTORE PUSH3 0x35B2B7 PUSH1 0xE9 SHL PUSH1 0x64 DUP3 ADD MSTORE PUSH1 0x84 SWAP1 REVERT JUMPDEST PUSH4 0x4E487B71 PUSH1 0xE0 SHL DUP7 MSTORE PUSH1 0x21 PUSH1 0x4 MSTORE PUSH1 0x24 DUP7 REVERT JUMPDEST POP CALLVALUE PUSH2 0x183 JUMPI PUSH1 0x20 CALLDATASIZE PUSH1 0x3 NOT ADD SLT PUSH2 0x183 JUMPI PUSH2 0x586 PUSH2 0x1EB7 JUMP JUMPDEST PUSH1 0x4 CALLDATALOAD PUSH1 0x4 SSTORE DUP1 RETURN JUMPDEST POP CALLVALUE PUSH2 0x183 JUMPI DUP1 PUSH1 0x3 NOT CALLDATASIZE ADD SLT PUSH2 0x183 JUMPI SLOAD PUSH1 0x40 MLOAD PUSH1 0x1 PUSH1 0x1 PUSH1 0xA0 SHL SUB SWAP1 SWAP2 AND DUP2 MSTORE PUSH1 0x20 SWAP1 RETURN JUMPDEST POP CALLVALUE PUSH2 0x183 JUMPI PUSH1 0x20 CALLDATASIZE PUSH1 0x3 NOT ADD SLT PUSH2 0x183 JUMPI PUSH2 0x5D0 PUSH2 0x1C9F JUMP JUMPDEST PUSH2 0x5D8 PUSH2 0x1EB7 JUMP JUMPDEST PUSH1 0x1 PUSH1 0x1 PUSH1 0xA0 SHL SUB AND DUP2 MSTORE PUSH1 0x6 PUSH1 0x20 MSTORE PUSH1 0x40 DUP2 KECCAK256 DUP1 SLOAD PUSH1 0xFF NOT AND SWAP1 SSTORE DUP1 RETURN JUMPDEST POP CALLVALUE PUSH2 0x183 JUMPI PUSH1 0x20 CALLDATASIZE PUSH1 0x3 NOT ADD SLT PUSH2 0x183 JUMPI PUSH1 0x4 CALLDATALOAD PUSH2 0x614 PUSH2 0x1EED JUMP JUMPDEST CALLER DUP1 DUP4 MSTORE PUSH1 0x9 PUSH1 0x20 MSTORE PUSH1 0x40 DUP4 KECCAK256 SLOAD PUSH1 0x1 PUSH1 0x1 PUSH1 0xA0 SHL SUB AND SUB PUSH2 0x7B0 JUMPI CALLER DUP3 MSTORE PUSH1 0x9 PUSH1 0x20 MSTORE PUSH1 0xFF PUSH1 0x4 PUSH1 0x40 DUP5 KECCAK256 ADD SLOAD AND ISZERO PUSH2 0x777 JUMPI CALLER DUP1 DUP4 MSTORE PUSH1 0x9 PUSH1 0x20 DUP2 DUP2 MSTORE PUSH1 0x40 DUP1 DUP7 KECCAK256 PUSH1 0x2 ADD SLOAD SWAP4 DUP7 MSTORE SWAP2 SWAP1 MSTORE DUP4 KECCAK256 SLOAD DUP4 SWAP2 PUSH1 0x1 PUSH1 0x1 PUSH1 0xA0 SHL SUB SWAP2 DUP3 AND SWAP2 AND DUP1 EXTCODESIZE ISZERO PUSH2 0x773 JUMPI PUSH1 0x40 MLOAD PUSH4 0x21421707 PUSH1 0xE1 SHL DUP2 MSTORE ADDRESS PUSH1 0x4 DUP3 ADD MSTORE PUSH1 0x1 PUSH1 0x1 PUSH1 0xA0 SHL SUB SWAP3 SWAP1 SWAP3 AND PUSH1 0x24 DUP4 ADD MSTORE PUSH1 0x44 DUP3 ADD DUP5 SWAP1 MSTORE DUP3 SWAP1 DUP3 SWAP1 PUSH1 0x64 SWAP1 DUP3 SWAP1 DUP5 SWAP1 GAS CALL DUP1 ISZERO PUSH2 0x768 JUMPI PUSH2 0x753 JUMPI JUMPDEST POP CALLER DUP1 DUP3 MSTORE PUSH1 0x9 PUSH1 0x20 DUP2 DUP2 MSTORE PUSH1 0x40 DUP1 DUP6 KECCAK256 SLOAD SWAP4 DUP6 MSTORE SWAP2 DUP2 MSTORE DUP2 DUP5 KECCAK256 PUSH1 0x2 ADD SLOAD DUP3 MLOAD PUSH1 0x1 PUSH1 0x1 PUSH1 0xA0 SHL SUB SWAP5 DUP6 AND DUP2 MSTORE SWAP2 DUP3 ADD DUP7 SWAP1 MSTORE SWAP1 SWAP3 AND SWAP1 DUP3 ADD MSTORE PUSH1 0x1 PUSH1 0x60 DUP3 ADD MSTORE PUSH32 0x62A8C32D7E607200E5E6C5986D2407A01F983FE1AF6D31899FB1E32C6FD1F2C2 SWAP1 PUSH1 0x80 SWAP1 LOG1 CALLER DUP2 MSTORE PUSH1 0x9 PUSH1 0x20 MSTORE PUSH2 0x426 PUSH1 0x40 DUP3 KECCAK256 PUSH1 0x4 PUSH1 0x0 SWAP2 DUP3 DUP2 SSTORE DUP3 PUSH1 0x1 DUP3 ADD SSTORE DUP3 PUSH1 0x2 DUP3 ADD SSTORE DUP3 PUSH1 0x3 DUP3 ADD SSTORE ADD SSTORE JUMP JUMPDEST DUP2 PUSH2 0x75D SWAP2 PUSH2 0x1D2D JUMP JUMPDEST PUSH2 0x292 JUMPI DUP2 CODESIZE PUSH2 0x6BE JUMP JUMPDEST PUSH1 0x40 MLOAD RETURNDATASIZE DUP5 DUP3 RETURNDATACOPY RETURNDATASIZE SWAP1 REVERT JUMPDEST DUP3 DUP1 REVERT JUMPDEST PUSH1 0x40 MLOAD PUSH3 0x461BCD PUSH1 0xE5 SHL DUP2 MSTORE PUSH1 0x20 PUSH1 0x4 DUP3 ADD MSTORE PUSH1 0x11 PUSH1 0x24 DUP3 ADD MSTORE PUSH17 0x13999D081A5CC81B9BDD08131A5CDD1959 PUSH1 0x7A SHL PUSH1 0x44 DUP3 ADD MSTORE PUSH1 0x64 SWAP1 REVERT JUMPDEST PUSH1 0x40 MLOAD PUSH3 0x461BCD PUSH1 0xE5 SHL DUP2 MSTORE PUSH1 0x20 PUSH1 0x4 DUP3 ADD MSTORE PUSH1 0x22 PUSH1 0x24 DUP3 ADD MSTORE PUSH32 0x4F6E6C792053656C6C65722063616E20756E4C69737420686973206F776E204E PUSH1 0x44 DUP3 ADD MSTORE PUSH2 0x199D PUSH1 0xF2 SHL PUSH1 0x64 DUP3 ADD MSTORE PUSH1 0x84 SWAP1 REVERT JUMPDEST POP CALLVALUE PUSH2 0x183 JUMPI PUSH1 0x20 CALLDATASIZE PUSH1 0x3 NOT ADD SLT PUSH2 0x183 JUMPI PUSH2 0x81A PUSH2 0x1C9F JUMP JUMPDEST PUSH2 0x822 PUSH2 0x1E16 JUMP JUMPDEST POP PUSH1 0x1 PUSH1 0x1 PUSH1 0xA0 SHL SUB AND DUP2 MSTORE PUSH1 0xA PUSH1 0x20 MSTORE PUSH1 0x40 DUP1 DUP3 KECCAK256 SWAP1 MLOAD SWAP1 PUSH2 0x844 DUP3 PUSH2 0x1CFC JUMP JUMPDEST PUSH1 0x1 DUP1 PUSH1 0xA0 SHL SUB DUP2 SLOAD AND DUP3 MSTORE PUSH1 0x1 DUP2 ADD SLOAD PUSH1 0x20 DUP4 ADD SWAP1 DUP2 MSTORE PUSH1 0x2 DUP3 ADD SLOAD SWAP1 PUSH1 0x40 DUP5 ADD SWAP2 DUP3 MSTORE PUSH1 0xFF PUSH1 0x4 PUSH1 0x3 DUP6 ADD SLOAD SWAP5 PUSH1 0x60 DUP8 ADD SWAP6 DUP7 MSTORE ADD SLOAD AND PUSH1 0x80 DUP6 ADD SWAP6 PUSH1 0x3 DUP3 LT ISZERO PUSH2 0x8C6 JUMPI POP DUP6 MSTORE PUSH1 0x40 DUP1 MLOAD SWAP5 MLOAD PUSH1 0x1 PUSH1 0x1 PUSH1 0xA0 SHL SUB AND DUP6 MSTORE SWAP1 MLOAD PUSH1 0x20 DUP6 ADD MSTORE SWAP1 MLOAD SWAP1 DUP4 ADD MSTORE MLOAD PUSH1 0x60 DUP3 ADD MSTORE SWAP1 MLOAD PUSH1 0xA0 SWAP2 SWAP1 PUSH2 0x181 SWAP1 PUSH1 0x80 DUP4 ADD SWAP1 PUSH2 0x1DB2 JUMP JUMPDEST PUSH4 0x4E487B71 PUSH1 0xE0 SHL DUP2 MSTORE PUSH1 0x21 PUSH1 0x4 MSTORE PUSH1 0x24 SWAP1 REVERT JUMPDEST POP CALLVALUE PUSH2 0x183 JUMPI PUSH1 0x80 CALLDATASIZE PUSH1 0x3 NOT ADD SLT PUSH2 0x183 JUMPI PUSH1 0x24 CALLDATALOAD PUSH1 0x4 CALLDATALOAD PUSH2 0x8FA PUSH2 0x1CE6 JUMP JUMPDEST PUSH2 0x902 PUSH2 0x1CD0 JUMP JUMPDEST SWAP1 PUSH2 0x90B PUSH2 0x1EED JUMP JUMPDEST CALLER DUP6 MSTORE PUSH1 0x9 PUSH1 0x20 SWAP1 DUP2 MSTORE PUSH1 0x40 DUP1 DUP8 KECCAK256 PUSH1 0x1 PUSH1 0x1 PUSH1 0xA0 SHL SUB SWAP5 DUP6 AND DUP9 MSTORE PUSH1 0x6 SWAP1 SWAP3 MSTORE DUP7 KECCAK256 SLOAD SWAP2 SWAP1 SWAP3 AND SWAP2 SWAP1 PUSH1 0xFF AND ISZERO PUSH2 0xB42 JUMPI PUSH1 0x40 MLOAD PUSH4 0x31A9108F PUSH1 0xE1 SHL DUP2 MSTORE PUSH1 0x4 DUP2 ADD DUP5 SWAP1 MSTORE PUSH1 0x20 DUP2 PUSH1 0x24 DUP2 DUP7 GAS STATICCALL SWAP1 DUP2 ISZERO PUSH2 0xB37 JUMPI DUP7 SWAP2 PUSH2 0xAF1 JUMPI JUMPDEST POP CALLER PUSH1 0x1 PUSH1 0x1 PUSH1 0xA0 SHL SUB SWAP1 SWAP2 AND SUB PUSH2 0xAA2 JUMPI PUSH1 0x4 DUP2 ADD SWAP1 PUSH1 0xFF DUP3 SLOAD AND PUSH2 0xA6C JUMPI PUSH1 0x2 DUP2 ADD DUP1 SLOAD PUSH1 0x1 PUSH1 0x1 PUSH1 0xA0 SHL SUB NOT SWAP1 DUP2 AND DUP6 OR SWAP1 SWAP2 SSTORE DUP2 SLOAD AND CALLER OR DUP2 SSTORE PUSH1 0x3 DUP2 ADD DUP6 SWAP1 SSTORE PUSH1 0x1 SWAP1 DUP2 ADD DUP5 SWAP1 SSTORE DUP2 SLOAD PUSH1 0xFF NOT AND OR DUP2 SSTORE DUP2 EXTCODESIZE ISZERO PUSH2 0xA68 JUMPI PUSH1 0x40 MLOAD PUSH4 0x21421707 PUSH1 0xE1 SHL DUP2 MSTORE CALLER PUSH1 0x4 DUP3 ADD MSTORE ADDRESS PUSH1 0x24 DUP3 ADD MSTORE PUSH1 0x44 DUP2 ADD DUP5 SWAP1 MSTORE DUP6 SWAP1 DUP2 DUP2 PUSH1 0x64 DUP2 DUP4 DUP9 GAS CALL DUP1 ISZERO PUSH2 0x768 JUMPI PUSH2 0xA4D JUMPI JUMPDEST POP SWAP3 PUSH32 0xA704C2F7861CB3E3FE5F14F2130761E59FBECF01CB35680CC00620CA3C02C16F SWAP3 DUP6 PUSH1 0xFF PUSH1 0xA0 SWAP5 SLOAD AND SWAP2 PUSH1 0x40 MLOAD SWAP4 CALLER DUP6 MSTORE PUSH1 0x20 DUP6 ADD MSTORE PUSH1 0x40 DUP5 ADD MSTORE PUSH1 0x60 DUP4 ADD MSTORE ISZERO ISZERO PUSH1 0x80 DUP3 ADD MSTORE LOG1 PUSH1 0x1 DUP1 SSTORE DUP1 RETURN JUMPDEST DUP2 PUSH2 0xA5B SWAP2 SWAP6 SWAP5 SWAP4 SWAP6 PUSH2 0x1D2D JUMP JUMPDEST PUSH2 0xA68 JUMPI SWAP1 SWAP2 DUP5 CODESIZE PUSH2 0x9FB JUMP JUMPDEST DUP5 DUP1 REVERT JUMPDEST PUSH1 0x40 MLOAD PUSH3 0x461BCD PUSH1 0xE5 SHL DUP2 MSTORE PUSH1 0x20 PUSH1 0x4 DUP3 ADD MSTORE PUSH1 0xE PUSH1 0x24 DUP3 ADD MSTORE PUSH14 0x105B1C9958591E48131A5CDD1959 PUSH1 0x92 SHL PUSH1 0x44 DUP3 ADD MSTORE PUSH1 0x64 SWAP1 REVERT JUMPDEST PUSH1 0x40 MLOAD PUSH3 0x461BCD PUSH1 0xE5 SHL DUP2 MSTORE PUSH1 0x20 PUSH1 0x4 DUP3 ADD MSTORE PUSH1 0x21 PUSH1 0x24 DUP3 ADD MSTORE PUSH32 0x596F7520617265206E6F7420746865206F776E6572206F662074686973204E66 PUSH1 0x44 DUP3 ADD MSTORE PUSH1 0x1D PUSH1 0xFA SHL PUSH1 0x64 DUP3 ADD MSTORE PUSH1 0x84 SWAP1 REVERT JUMPDEST SWAP1 POP PUSH1 0x20 DUP2 RETURNDATASIZE PUSH1 0x20 GT PUSH2 0xB2F JUMPI JUMPDEST DUP2 PUSH2 0xB0C PUSH1 0x20 SWAP4 DUP4 PUSH2 0x1D2D JUMP JUMPDEST DUP2 ADD SUB SLT PUSH2 0xB2B JUMPI MLOAD PUSH1 0x1 PUSH1 0x1 PUSH1 0xA0 SHL SUB DUP2 AND DUP2 SUB PUSH2 0xB2B JUMPI CODESIZE PUSH2 0x968 JUMP JUMPDEST DUP6 DUP1 REVERT JUMPDEST RETURNDATASIZE SWAP2 POP PUSH2 0xAFF JUMP JUMPDEST PUSH1 0x40 MLOAD RETURNDATASIZE DUP9 DUP3 RETURNDATACOPY RETURNDATASIZE SWAP1 REVERT JUMPDEST PUSH1 0x40 MLOAD PUSH3 0x461BCD PUSH1 0xE5 SHL DUP2 MSTORE PUSH1 0x20 PUSH1 0x4 DUP3 ADD MSTORE PUSH1 0x1F PUSH1 0x24 DUP3 ADD MSTORE PUSH32 0x4E6F7420617070726F766520627920666163746F727920636F6E747261637400 PUSH1 0x44 DUP3 ADD MSTORE PUSH1 0x64 SWAP1 REVERT JUMPDEST POP CALLVALUE PUSH2 0x183 JUMPI DUP1 PUSH1 0x3 NOT CALLDATASIZE ADD SLT PUSH2 0x183 JUMPI PUSH1 0x2 SLOAD PUSH1 0x40 MLOAD PUSH1 0x1 PUSH1 0x1 PUSH1 0xA0 SHL SUB SWAP1 SWAP2 AND DUP2 MSTORE PUSH1 0x20 SWAP1 RETURN JUMPDEST POP CALLVALUE PUSH2 0x183 JUMPI DUP1 PUSH1 0x3 NOT CALLDATASIZE ADD SLT PUSH2 0x183 JUMPI PUSH1 0x0 DUP1 MLOAD PUSH1 0x20 PUSH2 0x45E6 DUP4 CODECOPY DUP2 MLOAD SWAP2 MSTORE SLOAD PUSH1 0x40 MLOAD PUSH1 0x1 PUSH1 0x1 PUSH1 0xA0 SHL SUB SWAP1 SWAP2 AND DUP2 MSTORE PUSH1 0x20 SWAP1 RETURN JUMPDEST POP CALLVALUE PUSH2 0x183 JUMPI DUP1 PUSH1 0x3 NOT CALLDATASIZE ADD SLT PUSH2 0x183 JUMPI PUSH1 0x20 PUSH1 0x7 SLOAD PUSH1 0x40 MLOAD SWAP1 DUP2 MSTORE RETURN JUMPDEST POP CALLVALUE PUSH2 0x183 JUMPI DUP1 PUSH1 0x3 NOT CALLDATASIZE ADD SLT PUSH2 0x183 JUMPI PUSH1 0x0 DUP1 MLOAD PUSH1 0x20 PUSH2 0x4606 DUP4 CODECOPY DUP2 MLOAD SWAP2 MSTORE SLOAD PUSH1 0xFF DUP2 PUSH1 0x40 SHR AND ISZERO SWAP1 PUSH1 0x1 PUSH1 0x1 PUSH1 0x40 SHL SUB DUP2 AND DUP1 ISZERO SWAP1 DUP2 PUSH2 0xD78 JUMPI JUMPDEST PUSH1 0x1 EQ SWAP1 DUP2 PUSH2 0xD6E JUMPI JUMPDEST ISZERO SWAP1 DUP2 PUSH2 0xD65 JUMPI JUMPDEST POP PUSH2 0xD56 JUMPI PUSH8 0xFFFFFFFFFFFFFFFF NOT DUP2 AND PUSH1 0x1 OR PUSH1 0x0 DUP1 MLOAD PUSH1 0x20 PUSH2 0x4606 DUP4 CODECOPY DUP2 MLOAD SWAP2 MSTORE SSTORE DUP2 PUSH2 0xD29 JUMPI JUMPDEST POP PUSH2 0xC86 PUSH2 0x20F3 JUMP JUMPDEST PUSH2 0xC8E PUSH2 0x20F3 JUMP JUMPDEST PUSH2 0xC97 CALLER PUSH2 0x1E41 JUMP JUMPDEST PUSH2 0xC9F PUSH2 0x20F3 JUMP JUMPDEST DUP2 SLOAD PUSH1 0x1 PUSH1 0x1 PUSH1 0xA0 SHL SUB NOT AND CALLER OR DUP3 SSTORE PUSH2 0xCB7 PUSH2 0x20F3 JUMP JUMPDEST PUSH2 0xCBF PUSH2 0x20F3 JUMP JUMPDEST PUSH2 0xCC8 CALLER PUSH2 0x1E41 JUMP JUMPDEST PUSH2 0xCCF JUMPI DUP1 RETURN JUMPDEST PUSH9 0xFF0000000000000000 NOT PUSH1 0x0 DUP1 MLOAD PUSH1 0x20 PUSH2 0x4606 DUP4 CODECOPY DUP2 MLOAD SWAP2 MSTORE SLOAD AND PUSH1 0x0 DUP1 MLOAD PUSH1 0x20 PUSH2 0x4606 DUP4 CODECOPY DUP2 MLOAD SWAP2 MSTORE SSTORE PUSH32 0xC7F505B2F371AE2175EE4913F4499E1F2633A7B5936321EED1CDAEB6115181D2 PUSH1 0x20 PUSH1 0x40 MLOAD PUSH1 0x1 DUP2 MSTORE LOG1 DUP1 RETURN JUMPDEST PUSH9 0xFFFFFFFFFFFFFFFFFF NOT AND PUSH9 0x10000000000000001 OR PUSH1 0x0 DUP1 MLOAD PUSH1 0x20 PUSH2 0x4606 DUP4 CODECOPY DUP2 MLOAD SWAP2 MSTORE SSTORE CODESIZE PUSH2 0xC7D JUMP JUMPDEST PUSH4 0xF92EE8A9 PUSH1 0xE0 SHL DUP4 MSTORE PUSH1 0x4 DUP4 REVERT JUMPDEST SWAP1 POP ISZERO CODESIZE PUSH2 0xC53 JUMP JUMPDEST ADDRESS EXTCODESIZE ISZERO SWAP2 POP PUSH2 0xC4B JUMP JUMPDEST DUP4 SWAP2 POP PUSH2 0xC41 JUMP JUMPDEST POP CALLVALUE PUSH2 0x183 JUMPI PUSH1 0x40 CALLDATASIZE PUSH1 0x3 NOT ADD SLT PUSH2 0x183 JUMPI PUSH1 0x4 CALLDATALOAD PUSH2 0xD9D PUSH2 0x1CBA JUMP JUMPDEST PUSH2 0xDA5 PUSH2 0x1EED JUMP JUMPDEST CALLER DUP4 MSTORE PUSH1 0x9 PUSH1 0x20 MSTORE PUSH1 0x40 DUP4 KECCAK256 PUSH1 0x40 MLOAD SWAP3 PUSH2 0xDBE DUP5 PUSH2 0x1CFC JUMP JUMPDEST PUSH1 0x1 DUP1 PUSH1 0xA0 SHL SUB DUP3 SLOAD AND DUP5 MSTORE PUSH1 0x1 DUP3 ADD SLOAD PUSH1 0x20 DUP6 ADD MSTORE PUSH1 0xFF PUSH1 0x4 PUSH1 0x1 DUP1 PUSH1 0xA0 SHL SUB PUSH1 0x2 DUP6 ADD SLOAD AND SWAP4 PUSH1 0x40 DUP8 ADD SWAP5 DUP6 MSTORE PUSH1 0x3 DUP2 ADD SLOAD PUSH1 0x60 DUP9 ADD MSTORE ADD SLOAD AND ISZERO ISZERO PUSH1 0x80 DUP6 ADD MSTORE PUSH1 0x1 DUP1 PUSH1 0xA0 SHL SUB DUP4 AND SWAP4 DUP5 DUP7 MSTORE PUSH1 0xA PUSH1 0x20 MSTORE PUSH1 0x40 DUP7 KECCAK256 SWAP1 PUSH1 0x40 MLOAD SWAP2 PUSH2 0xE25 DUP4 PUSH2 0x1CFC JUMP JUMPDEST PUSH1 0x1 DUP1 PUSH1 0xA0 SHL SUB DUP2 SLOAD AND DUP4 MSTORE PUSH1 0x1 DUP2 ADD SLOAD SWAP2 PUSH1 0x20 DUP5 ADD SWAP3 DUP4 MSTORE PUSH1 0x2 DUP3 ADD SLOAD SWAP4 PUSH1 0x40 DUP2 ADD SWAP5 DUP6 MSTORE PUSH1 0xFF PUSH1 0x4 PUSH1 0x3 DUP6 ADD SLOAD SWAP5 PUSH1 0x60 DUP5 ADD SWAP6 DUP7 MSTORE ADD SLOAD AND SWAP1 PUSH1 0x3 DUP3 LT ISZERO PUSH2 0x1081 JUMPI PUSH1 0x80 ADD MSTORE MLOAD CALLER PUSH1 0x1 PUSH1 0x1 PUSH1 0xA0 SHL SUB SWAP1 SWAP2 AND SUB PUSH2 0x103D JUMPI DUP7 DUP9 MSTORE PUSH1 0xB PUSH1 0x20 MSTORE PUSH1 0x40 DUP9 KECCAK256 SLOAD ISZERO PUSH2 0x1000 JUMPI MLOAD TIMESTAMP LT ISZERO PUSH2 0xFCB JUMPI DUP3 SWAP1 MLOAD SUB PUSH2 0xF86 JUMPI PUSH2 0xF12 PUSH1 0x80 SWAP4 PUSH32 0x2B0295C6245BBDE9B0128FBEA0EA5FE173B82A59A739F77C5FC7DEBA224DBFFC SWAP6 DUP8 DUP10 MSTORE PUSH1 0xA PUSH1 0x20 MSTORE PUSH1 0x4 PUSH1 0x40 DUP11 KECCAK256 ADD PUSH1 0x1 PUSH1 0xFF NOT DUP3 SLOAD AND OR SWAP1 SSTORE DUP8 DUP10 MSTORE PUSH1 0xB PUSH1 0x20 MSTORE PUSH1 0x40 DUP10 KECCAK256 SLOAD SWAP1 DUP9 DUP11 MSTORE PUSH1 0xB PUSH1 0x20 MSTORE DUP10 PUSH1 0x40 DUP2 KECCAK256 SSTORE CALLER SWAP3 PUSH1 0x1 DUP1 PUSH1 0xA0 SHL SUB SWAP1 MLOAD AND SWAP1 DUP7 PUSH2 0x1F0F JUMP JUMPDEST MLOAD SWAP1 PUSH1 0x40 MLOAD SWAP2 DUP6 DUP4 MSTORE PUSH1 0x20 DUP4 ADD MSTORE PUSH1 0x40 DUP3 ADD MSTORE PUSH1 0x1 PUSH1 0x60 DUP3 ADD MSTORE LOG1 CALLER DUP3 MSTORE PUSH1 0x9 PUSH1 0x20 MSTORE PUSH2 0xF5A PUSH1 0x40 DUP4 KECCAK256 PUSH1 0x4 PUSH1 0x0 SWAP2 DUP3 DUP2 SSTORE DUP3 PUSH1 0x1 DUP3 ADD SSTORE DUP3 PUSH1 0x2 DUP3 ADD SSTORE DUP3 PUSH1 0x3 DUP3 ADD SSTORE ADD SSTORE JUMP JUMPDEST DUP2 MSTORE PUSH1 0xA PUSH1 0x20 MSTORE PUSH2 0x426 PUSH1 0x40 DUP3 KECCAK256 PUSH1 0x4 PUSH1 0x0 SWAP2 DUP3 DUP2 SSTORE DUP3 PUSH1 0x1 DUP3 ADD SSTORE DUP3 PUSH1 0x2 DUP3 ADD SSTORE DUP3 PUSH1 0x3 DUP3 ADD SSTORE ADD SSTORE JUMP JUMPDEST PUSH1 0x40 MLOAD PUSH3 0x461BCD PUSH1 0xE5 SHL DUP2 MSTORE PUSH1 0x20 PUSH1 0x4 DUP3 ADD MSTORE PUSH1 0x17 PUSH1 0x24 DUP3 ADD MSTORE PUSH32 0x5468697320746F6B656E20686173206E6F206F66666572000000000000000000 PUSH1 0x44 DUP3 ADD MSTORE PUSH1 0x64 SWAP1 REVERT JUMPDEST PUSH1 0x40 MLOAD PUSH3 0x461BCD PUSH1 0xE5 SHL DUP2 MSTORE PUSH1 0x20 PUSH1 0x4 DUP3 ADD MSTORE PUSH1 0xD PUSH1 0x24 DUP3 ADD MSTORE PUSH13 0x13D999995C88115E1C1A5C9959 PUSH1 0x9A SHL PUSH1 0x44 DUP3 ADD MSTORE PUSH1 0x64 SWAP1 REVERT JUMPDEST PUSH1 0x40 MLOAD PUSH3 0x461BCD PUSH1 0xE5 SHL DUP2 MSTORE PUSH1 0x20 PUSH1 0x4 DUP3 ADD MSTORE PUSH1 0x15 PUSH1 0x24 DUP3 ADD MSTORE PUSH21 0x2237B2B9B713BA103932B1B2B4BB329037B33332B9 PUSH1 0x59 SHL PUSH1 0x44 DUP3 ADD MSTORE PUSH1 0x64 SWAP1 REVERT JUMPDEST PUSH1 0x64 PUSH1 0x40 MLOAD PUSH3 0x461BCD PUSH1 0xE5 SHL DUP2 MSTORE PUSH1 0x20 PUSH1 0x4 DUP3 ADD MSTORE PUSH1 0x20 PUSH1 0x24 DUP3 ADD MSTORE PUSH32 0x4F6E6C792053656C6C65722063616E2061636365707420746865206F66666572 PUSH1 0x44 DUP3 ADD MSTORE REVERT JUMPDEST PUSH4 0x4E487B71 PUSH1 0xE0 SHL DUP12 MSTORE PUSH1 0x21 PUSH1 0x4 MSTORE PUSH1 0x24 DUP12 REVERT JUMPDEST POP PUSH1 0x60 CALLDATASIZE PUSH1 0x3 NOT ADD SLT PUSH2 0x183 JUMPI PUSH1 0x4 CALLDATALOAD PUSH2 0x10AD PUSH2 0x1CBA JUMP JUMPDEST PUSH2 0x10B5 PUSH2 0x1CE6 JUMP JUMPDEST SWAP1 PUSH2 0x10BE PUSH2 0x1EED JUMP JUMPDEST PUSH1 0x1 PUSH1 0x1 PUSH1 0xA0 SHL SUB DUP2 AND DUP1 DUP6 MSTORE PUSH1 0x9 PUSH1 0x20 MSTORE PUSH1 0x40 DUP6 KECCAK256 PUSH1 0x4 ADD SLOAD SWAP1 SWAP4 SWAP1 PUSH1 0xFF AND ISZERO PUSH2 0x124F JUMPI DUP4 DUP6 MSTORE PUSH1 0x9 PUSH1 0x20 MSTORE PUSH1 0x40 DUP6 KECCAK256 SLOAD PUSH1 0x1 PUSH1 0x1 PUSH1 0xA0 SHL SUB AND DUP5 SWAP1 SUB PUSH2 0x1219 JUMPI DUP4 DUP6 MSTORE PUSH1 0x9 PUSH1 0x20 MSTORE PUSH1 0x3 PUSH1 0x40 DUP7 KECCAK256 ADD SLOAD CALLVALUE SUB PUSH2 0x11DE JUMPI DUP4 DUP6 MSTORE PUSH1 0x9 PUSH1 0x20 MSTORE PUSH1 0x40 DUP6 KECCAK256 SLOAD PUSH1 0x1 PUSH1 0x1 PUSH1 0xA0 SHL SUB AND CALLER EQ PUSH2 0x11A8 JUMPI PUSH2 0x1163 PUSH1 0x80 SWAP3 PUSH32 0xA8C8C76DCBC214F2BF1FF14E46E52C719DA6477410AD492C29EB45FD05ACB624 SWAP5 CALLVALUE SWAP1 CALLER DUP6 PUSH2 0x1F0F JUMP JUMPDEST PUSH1 0x40 MLOAD SWAP1 CALLER DUP3 MSTORE PUSH1 0x20 DUP3 ADD MSTORE CALLVALUE PUSH1 0x40 DUP3 ADD MSTORE TIMESTAMP PUSH1 0x60 DUP3 ADD MSTORE LOG1 DUP2 MSTORE PUSH1 0x9 PUSH1 0x20 MSTORE PUSH2 0x426 PUSH1 0x40 DUP3 KECCAK256 PUSH1 0x4 PUSH1 0x0 SWAP2 DUP3 DUP2 SSTORE DUP3 PUSH1 0x1 DUP3 ADD SSTORE DUP3 PUSH1 0x2 DUP3 ADD SSTORE DUP3 PUSH1 0x3 DUP3 ADD SSTORE ADD SSTORE JUMP JUMPDEST PUSH1 0x40 MLOAD PUSH3 0x461BCD PUSH1 0xE5 SHL DUP2 MSTORE PUSH1 0x20 PUSH1 0x4 DUP3 ADD MSTORE PUSH1 0xE PUSH1 0x24 DUP3 ADD MSTORE PUSH14 0x43616E27742053656C6620627579 PUSH1 0x90 SHL PUSH1 0x44 DUP3 ADD MSTORE PUSH1 0x64 SWAP1 REVERT JUMPDEST PUSH1 0x40 MLOAD PUSH3 0x461BCD PUSH1 0xE5 SHL DUP2 MSTORE PUSH1 0x20 PUSH1 0x4 DUP3 ADD MSTORE PUSH1 0x13 PUSH1 0x24 DUP3 ADD MSTORE PUSH19 0x125B94DD59999A58DA595B9D08105B5BDD5B9D PUSH1 0x6A SHL PUSH1 0x44 DUP3 ADD MSTORE PUSH1 0x64 SWAP1 REVERT JUMPDEST PUSH1 0x40 MLOAD PUSH3 0x461BCD PUSH1 0xE5 SHL DUP2 MSTORE PUSH1 0x20 PUSH1 0x4 DUP3 ADD MSTORE PUSH1 0xE PUSH1 0x24 DUP3 ADD MSTORE PUSH14 0x24B73B30B634B21029B2B63632B9 PUSH1 0x91 SHL PUSH1 0x44 DUP3 ADD MSTORE PUSH1 0x64 SWAP1 REVERT JUMPDEST PUSH1 0x40 MLOAD PUSH3 0x461BCD PUSH1 0xE5 SHL DUP2 MSTORE PUSH1 0x20 PUSH1 0x4 DUP3 ADD MSTORE PUSH1 0xF PUSH1 0x24 DUP3 ADD MSTORE PUSH15 0x13999D0E88139BDD08131A5CDD1959 PUSH1 0x8A SHL PUSH1 0x44 DUP3 ADD MSTORE PUSH1 0x64 SWAP1 REVERT JUMPDEST POP CALLVALUE PUSH2 0x183 JUMPI DUP1 PUSH1 0x3 NOT CALLDATASIZE ADD SLT PUSH2 0x183 JUMPI PUSH2 0x129F PUSH2 0x1EB7 JUMP JUMPDEST PUSH1 0x0 DUP1 MLOAD PUSH1 0x20 PUSH2 0x45E6 DUP4 CODECOPY DUP2 MLOAD SWAP2 MSTORE DUP1 SLOAD PUSH1 0x1 PUSH1 0x1 PUSH1 0xA0 SHL SUB NOT DUP2 AND SWAP1 SWAP2 SSTORE DUP2 SWAP1 PUSH1 0x1 PUSH1 0x1 PUSH1 0xA0 SHL SUB AND PUSH32 0x8BE0079C531659141344CD1FD0A4F28419497F9722A3DAAFE3B4186F6B6457E0 DUP3 DUP1 LOG3 DUP1 RETURN JUMPDEST POP CALLVALUE PUSH2 0x183 JUMPI PUSH1 0x20 CALLDATASIZE PUSH1 0x3 NOT ADD SLT PUSH2 0x183 JUMPI PUSH2 0x130A PUSH2 0x1C9F JUMP JUMPDEST PUSH2 0x1312 PUSH2 0x1EB7 JUMP JUMPDEST PUSH1 0x1 DUP1 PUSH1 0xA0 SHL SUB AND PUSH1 0x1 PUSH1 0x1 PUSH1 0x60 SHL SUB PUSH1 0xA0 SHL PUSH1 0x3 SLOAD AND OR PUSH1 0x3 SSTORE DUP1 RETURN JUMPDEST POP CALLVALUE PUSH2 0x183 JUMPI PUSH1 0x40 CALLDATASIZE PUSH1 0x3 NOT ADD SLT PUSH2 0x183 JUMPI PUSH2 0x134A PUSH2 0x1C9F JUMP JUMPDEST PUSH2 0x1352 PUSH2 0x1CBA JUMP JUMPDEST PUSH1 0x0 DUP1 MLOAD PUSH1 0x20 PUSH2 0x4606 DUP4 CODECOPY DUP2 MLOAD SWAP2 MSTORE SLOAD SWAP2 PUSH1 0xFF DUP4 PUSH1 0x40 SHR AND ISZERO SWAP3 PUSH1 0x1 PUSH1 0x1 PUSH1 0x40 SHL SUB DUP2 AND DUP1 ISZERO SWAP1 DUP2 PUSH2 0x1461 JUMPI JUMPDEST PUSH1 0x1 EQ SWAP1 DUP2 PUSH2 0x1457 JUMPI JUMPDEST ISZERO SWAP1 DUP2 PUSH2 0x144E JUMPI JUMPDEST POP PUSH2 0x143F JUMPI PUSH8 0xFFFFFFFFFFFFFFFF NOT DUP2 AND PUSH1 0x1 OR PUSH1 0x0 DUP1 MLOAD PUSH1 0x20 PUSH2 0x4606 DUP4 CODECOPY DUP2 MLOAD SWAP2 MSTORE SSTORE DUP4 PUSH2 0x1412 JUMPI JUMPDEST POP PUSH2 0x13C4 PUSH2 0x20F3 JUMP JUMPDEST PUSH2 0x13CC PUSH2 0x20F3 JUMP JUMPDEST PUSH2 0x13D5 CALLER PUSH2 0x1E41 JUMP JUMPDEST PUSH1 0x1 DUP1 PUSH1 0xA0 SHL SUB AND PUSH1 0x1 PUSH1 0x1 PUSH1 0x60 SHL SUB PUSH1 0xA0 SHL PUSH1 0x2 SLOAD AND OR PUSH1 0x2 SSTORE PUSH1 0x1 DUP1 PUSH1 0xA0 SHL SUB AND PUSH1 0x1 PUSH1 0x1 PUSH1 0x60 SHL SUB PUSH1 0xA0 SHL PUSH1 0x3 SLOAD AND OR PUSH1 0x3 SSTORE PUSH2 0xCCF JUMPI DUP1 RETURN JUMPDEST PUSH9 0xFFFFFFFFFFFFFFFFFF NOT AND PUSH9 0x10000000000000001 OR PUSH1 0x0 DUP1 MLOAD PUSH1 0x20 PUSH2 0x4606 DUP4 CODECOPY DUP2 MLOAD SWAP2 MSTORE SSTORE CODESIZE PUSH2 0x13BB JUMP JUMPDEST PUSH4 0xF92EE8A9 PUSH1 0xE0 SHL DUP6 MSTORE PUSH1 0x4 DUP6 REVERT JUMPDEST SWAP1 POP ISZERO CODESIZE PUSH2 0x1391 JUMP JUMPDEST ADDRESS EXTCODESIZE ISZERO SWAP2 POP PUSH2 0x1389 JUMP JUMPDEST DUP6 SWAP2 POP PUSH2 0x137F JUMP JUMPDEST POP PUSH1 0x80 CALLDATASIZE PUSH1 0x3 NOT ADD SLT PUSH2 0x183 JUMPI PUSH1 0x24 CALLDATALOAD SWAP1 PUSH1 0x44 CALLDATALOAD PUSH1 0x4 CALLDATALOAD PUSH2 0x1488 PUSH2 0x1CD0 JUMP JUMPDEST PUSH2 0x1490 PUSH2 0x1EED JUMP JUMPDEST PUSH1 0x1 PUSH1 0x1 PUSH1 0xA0 SHL SUB AND DUP1 DUP5 MSTORE PUSH1 0x9 PUSH1 0x20 MSTORE PUSH1 0x40 DUP1 DUP6 KECCAK256 SWAP1 MLOAD SWAP1 SWAP4 SWAP2 SWAP1 PUSH2 0x14B5 DUP2 PUSH2 0x1CFC JUMP JUMPDEST PUSH1 0x1 DUP1 PUSH1 0xA0 SHL SUB DUP6 SLOAD AND DUP2 MSTORE PUSH1 0xFF PUSH1 0x4 PUSH1 0x1 DUP8 ADD SLOAD SWAP7 PUSH1 0x20 DUP5 ADD SWAP8 DUP9 MSTORE PUSH1 0x1 DUP1 PUSH1 0xA0 SHL SUB PUSH1 0x2 DUP3 ADD SLOAD AND PUSH1 0x40 DUP6 ADD MSTORE PUSH1 0x3 DUP2 ADD SLOAD PUSH1 0x60 DUP6 ADD MSTORE ADD SLOAD AND ISZERO ISZERO PUSH1 0x80 DUP3 ADD MSTORE CALLER DUP7 MSTORE PUSH1 0xA PUSH1 0x20 MSTORE DUP4 PUSH1 0x40 DUP8 KECCAK256 SWAP6 MLOAD SUB PUSH2 0x1662 JUMPI MLOAD PUSH1 0x1 PUSH1 0x1 PUSH1 0xA0 SHL SUB AND SUB PUSH2 0x162B JUMPI TIMESTAMP DUP2 GT ISZERO PUSH2 0x15F9 JUMPI DUP5 CALLVALUE SUB PUSH2 0x15C3 JUMPI CALLER DUP5 MSTORE PUSH1 0xB PUSH1 0x20 MSTORE PUSH1 0x40 DUP5 KECCAK256 SWAP5 DUP6 SLOAD CALLVALUE DUP2 ADD DUP1 SWAP2 GT PUSH2 0x15AF JUMPI SWAP1 SWAP6 SSTORE DUP3 SLOAD PUSH1 0x1 PUSH1 0x1 PUSH1 0xA0 SHL SUB NOT AND CALLER SWAP1 DUP2 OR DUP5 SSTORE PUSH1 0x2 DUP5 ADD SWAP6 SWAP1 SWAP6 SSTORE PUSH1 0x3 DUP4 ADD SSTORE PUSH1 0x1 DUP3 ADD SSTORE PUSH1 0x4 ADD DUP1 SLOAD PUSH1 0xFF NOT AND SWAP1 SSTORE PUSH1 0x40 DUP1 MLOAD SWAP3 DUP4 MSTORE CALLVALUE PUSH1 0x20 DUP5 ADD MSTORE SWAP1 SWAP2 PUSH32 0xB2A4706EB30FBCA70B94141708A50A456D89844927F443DADCDE61E3920AB6AF SWAP2 SWAP1 LOG1 PUSH1 0x1 DUP1 SSTORE DUP1 RETURN JUMPDEST PUSH4 0x4E487B71 PUSH1 0xE0 SHL DUP7 MSTORE PUSH1 0x11 PUSH1 0x4 MSTORE PUSH1 0x24 DUP7 REVERT JUMPDEST PUSH1 0x40 MLOAD PUSH3 0x461BCD PUSH1 0xE5 SHL DUP2 MSTORE PUSH1 0x20 PUSH1 0x4 DUP3 ADD MSTORE PUSH1 0xE PUSH1 0x24 DUP3 ADD MSTORE PUSH14 0x125B9D985B1A5908185B5BDD5B9D PUSH1 0x92 SHL PUSH1 0x44 DUP3 ADD MSTORE PUSH1 0x64 SWAP1 REVERT JUMPDEST PUSH1 0x40 MLOAD PUSH3 0x461BCD PUSH1 0xE5 SHL DUP2 MSTORE PUSH1 0x20 PUSH1 0x4 DUP3 ADD MSTORE PUSH1 0xA PUSH1 0x24 DUP3 ADD MSTORE PUSH10 0x2A34B6B29022B93937B9 PUSH1 0xB1 SHL PUSH1 0x44 DUP3 ADD MSTORE PUSH1 0x64 SWAP1 REVERT JUMPDEST PUSH1 0x40 MLOAD PUSH3 0x461BCD PUSH1 0xE5 SHL DUP2 MSTORE PUSH1 0x20 PUSH1 0x4 DUP3 ADD MSTORE PUSH1 0xF PUSH1 0x24 DUP3 ADD MSTORE PUSH15 0x496E76616C69642041646472657373 PUSH1 0x88 SHL PUSH1 0x44 DUP3 ADD MSTORE PUSH1 0x64 SWAP1 REVERT JUMPDEST PUSH1 0x40 MLOAD PUSH3 0x461BCD PUSH1 0xE5 SHL DUP2 MSTORE PUSH1 0x20 PUSH1 0x4 DUP3 ADD MSTORE PUSH1 0x18 PUSH1 0x24 DUP3 ADD MSTORE PUSH32 0x5468697320746F6B656E206973206E6F74204C69737465640000000000000000 PUSH1 0x44 DUP3 ADD MSTORE PUSH1 0x64 SWAP1 REVERT JUMPDEST POP CALLVALUE PUSH2 0x183 JUMPI PUSH1 0x20 CALLDATASIZE PUSH1 0x3 NOT ADD SLT PUSH2 0x183 JUMPI PUSH1 0x20 SWAP1 PUSH1 0x4 CALLDATALOAD DUP2 MSTORE PUSH1 0x5 DUP3 MSTORE PUSH1 0x40 PUSH1 0x1 DUP1 PUSH1 0xA0 SHL SUB SWAP2 KECCAK256 SLOAD AND PUSH1 0x40 MLOAD SWAP1 DUP2 MSTORE RETURN JUMPDEST POP CALLVALUE PUSH2 0x183 JUMPI PUSH1 0x20 CALLDATASIZE PUSH1 0x3 NOT ADD SLT PUSH2 0x183 JUMPI PUSH2 0x16F4 PUSH2 0x1C9F JUMP JUMPDEST PUSH2 0x16FC PUSH2 0x1EB7 JUMP JUMPDEST PUSH1 0x1 DUP1 PUSH1 0xA0 SHL SUB AND PUSH1 0x1 PUSH1 0x1 PUSH1 0x60 SHL SUB PUSH1 0xA0 SHL PUSH1 0x2 SLOAD AND OR PUSH1 0x2 SSTORE DUP1 RETURN JUMPDEST POP CALLVALUE PUSH2 0x183 JUMPI PUSH1 0x20 CALLDATASIZE PUSH1 0x3 NOT ADD SLT PUSH2 0x183 JUMPI PUSH1 0x20 SWAP1 PUSH1 0xFF SWAP1 PUSH1 0x40 SWAP1 PUSH1 0x1 PUSH1 0x1 PUSH1 0xA0 SHL SUB PUSH2 0x1745 PUSH2 0x1C9F JUMP JUMPDEST AND DUP2 MSTORE PUSH1 0x6 DUP5 MSTORE KECCAK256 SLOAD AND PUSH1 0x40 MLOAD SWAP1 ISZERO ISZERO DUP2 MSTORE RETURN JUMPDEST POP CALLVALUE PUSH2 0x183 JUMPI PUSH1 0x20 CALLDATASIZE PUSH1 0x3 NOT ADD SLT PUSH2 0x183 JUMPI PUSH1 0x40 PUSH1 0xA0 SWAP2 PUSH2 0x1778 PUSH2 0x1C9F JUMP JUMPDEST PUSH2 0x1780 PUSH2 0x1E16 JUMP JUMPDEST POP PUSH1 0x1 DUP1 DUP6 SHL SUB AND DUP2 MSTORE PUSH1 0x9 PUSH1 0x20 MSTORE KECCAK256 PUSH1 0x40 MLOAD PUSH2 0x179C DUP2 PUSH2 0x1CFC JUMP JUMPDEST PUSH1 0x1 DUP1 DUP5 SHL SUB DUP3 SLOAD AND SWAP2 DUP3 DUP3 MSTORE PUSH1 0x1 DUP2 ADD SLOAD PUSH1 0x20 DUP4 ADD SWAP1 DUP2 MSTORE PUSH1 0x1 DUP1 DUP7 SHL SUB PUSH1 0x2 DUP4 ADD SLOAD AND SWAP1 PUSH1 0x40 DUP5 ADD SWAP2 DUP3 MSTORE PUSH1 0x80 PUSH1 0xFF PUSH1 0x4 PUSH1 0x3 DUP7 ADD SLOAD SWAP6 PUSH1 0x60 DUP9 ADD SWAP7 DUP8 MSTORE ADD SLOAD AND SWAP5 ADD SWAP4 ISZERO ISZERO DUP5 MSTORE PUSH1 0x40 MLOAD SWAP5 DUP6 MSTORE MLOAD PUSH1 0x20 DUP6 ADD MSTORE PUSH1 0x1 DUP1 DUP7 SHL SUB SWAP1 MLOAD AND PUSH1 0x40 DUP5 ADD MSTORE MLOAD PUSH1 0x60 DUP4 ADD MSTORE MLOAD ISZERO ISZERO PUSH1 0x80 DUP3 ADD MSTORE RETURN JUMPDEST POP CALLVALUE PUSH2 0x183 JUMPI DUP1 PUSH1 0x3 NOT CALLDATASIZE ADD SLT PUSH2 0x183 JUMPI PUSH1 0x3 SLOAD PUSH1 0x40 MLOAD PUSH1 0x1 PUSH1 0x1 PUSH1 0xA0 SHL SUB SWAP1 SWAP2 AND DUP2 MSTORE PUSH1 0x20 SWAP1 RETURN JUMPDEST POP CALLVALUE PUSH2 0x183 JUMPI PUSH1 0x80 CALLDATASIZE PUSH1 0x3 NOT ADD SLT PUSH2 0x183 JUMPI PUSH2 0x1853 PUSH2 0x1C9F JUMP JUMPDEST POP PUSH2 0x185C PUSH2 0x1CBA JUMP JUMPDEST POP PUSH1 0x64 CALLDATALOAD PUSH1 0x1 PUSH1 0x1 PUSH1 0x40 SHL SUB DUP2 GT PUSH2 0x292 JUMPI CALLDATASIZE PUSH1 0x23 DUP3 ADD SLT ISZERO PUSH2 0x292 JUMPI PUSH2 0x188D SWAP1 CALLDATASIZE SWAP1 PUSH1 0x24 DUP2 PUSH1 0x4 ADD CALLDATALOAD SWAP2 ADD PUSH2 0x1D4E JUMP JUMPDEST POP PUSH1 0x40 MLOAD PUSH4 0xA85BD01 PUSH1 0xE1 SHL DUP2 MSTORE PUSH1 0x20 SWAP1 RETURN JUMPDEST POP CALLVALUE PUSH2 0x183 JUMPI PUSH2 0x140 CALLDATASIZE PUSH1 0x3 NOT ADD SLT PUSH2 0x183 JUMPI PUSH1 0x4 CALLDATALOAD PUSH1 0x1 PUSH1 0x1 PUSH1 0x40 SHL SUB DUP2 GT PUSH2 0x292 JUMPI PUSH2 0x18D2 SWAP1 CALLDATASIZE SWAP1 PUSH1 0x4 ADD PUSH2 0x1D94 JUMP JUMPDEST SWAP1 PUSH1 0x24 CALLDATALOAD PUSH1 0x1 PUSH1 0x1 PUSH1 0x40 SHL SUB DUP2 GT PUSH2 0x292 JUMPI PUSH2 0x18F2 SWAP1 CALLDATASIZE SWAP1 PUSH1 0x4 ADD PUSH2 0x1D94 JUMP JUMPDEST SWAP2 PUSH1 0x44 CALLDATALOAD PUSH1 0x1 PUSH1 0x1 PUSH1 0x40 SHL SUB DUP2 GT PUSH2 0x773 JUMPI PUSH2 0x1912 SWAP1 CALLDATASIZE SWAP1 PUSH1 0x4 ADD PUSH2 0x1D94 JUMP JUMPDEST PUSH1 0xE4 CALLDATALOAD SWAP1 PUSH1 0x1 PUSH1 0x1 PUSH1 0x40 SHL SUB DUP3 GT PUSH2 0x1C57 JUMPI CALLDATASIZE PUSH1 0x23 DUP4 ADD SLT ISZERO PUSH2 0x1C57 JUMPI DUP2 PUSH1 0x4 ADD CALLDATALOAD PUSH1 0x1 PUSH1 0x1 PUSH1 0x40 SHL SUB DUP2 GT PUSH2 0x1C43 JUMPI DUP1 PUSH1 0x5 SHL SWAP3 PUSH1 0x40 MLOAD SWAP2 PUSH2 0x1958 PUSH1 0x20 DUP7 ADD DUP5 PUSH2 0x1D2D JUMP JUMPDEST DUP3 MSTORE PUSH1 0x20 DUP3 ADD SWAP1 PUSH1 0x24 DUP3 SWAP6 DUP3 ADD ADD SWAP1 CALLDATASIZE DUP3 GT PUSH2 0x1B7B JUMPI PUSH1 0x24 DUP2 ADD SWAP3 JUMPDEST DUP3 DUP5 LT PUSH2 0x1BA2 JUMPI POP POP POP PUSH2 0x104 CALLDATALOAD PUSH1 0x1 PUSH1 0x1 PUSH1 0xA0 SHL SUB DUP2 AND SWAP2 POP DUP2 SWAP1 SUB PUSH2 0xB2B JUMPI PUSH2 0x124 CALLDATALOAD PUSH1 0x1 PUSH1 0x1 PUSH1 0xA0 SHL SUB DUP2 AND SWAP4 SWAP1 DUP5 SWAP1 SUB PUSH2 0x1B9E JUMPI PUSH1 0x40 MLOAD PUSH2 0x24C4 DUP1 DUP3 ADD SWAP1 DUP3 DUP3 LT PUSH1 0x1 PUSH1 0x1 PUSH1 0x40 SHL SUB DUP4 GT OR PUSH2 0x1B8A JUMPI SWAP1 DUP3 SWAP2 PUSH2 0x2122 DUP4 CODECOPY SUB SWAP1 DUP9 CREATE DUP1 ISZERO PUSH2 0x1B7F JUMPI PUSH1 0x1 PUSH1 0x1 PUSH1 0xA0 SHL SUB AND SWAP8 DUP9 EXTCODESIZE ISZERO PUSH2 0x1B7B JUMPI PUSH2 0x1A1E SWAP7 SWAP4 SWAP6 SWAP3 DUP9 SWAP6 SWAP3 PUSH2 0x1A30 PUSH2 0x1A47 SWAP4 PUSH1 0x40 MLOAD SWAP11 DUP12 SWAP9 PUSH3 0x2A1F63 PUSH1 0xEA SHL DUP11 MSTORE PUSH2 0x180 PUSH1 0x4 DUP12 ADD MSTORE PUSH2 0x184 DUP11 ADD SWAP1 PUSH2 0x1DD5 JUMP JUMPDEST DUP9 DUP2 SUB PUSH1 0x3 NOT ADD PUSH1 0x24 DUP11 ADD MSTORE SWAP1 PUSH2 0x1DD5 JUMP JUMPDEST SWAP2 PUSH1 0x44 DUP8 ADD MSTORE PUSH1 0x3 NOT DUP7 DUP4 SUB ADD PUSH1 0x64 DUP8 ADD MSTORE PUSH2 0x1DD5 JUMP JUMPDEST SWAP5 PUSH1 0x64 CALLDATALOAD PUSH1 0x84 DUP6 ADD MSTORE PUSH1 0x84 CALLDATALOAD PUSH1 0xA4 DUP6 ADD MSTORE PUSH1 0xA4 CALLDATALOAD PUSH1 0xC4 DUP6 ADD MSTORE PUSH1 0xC4 CALLDATALOAD PUSH1 0xE4 DUP6 ADD MSTORE PUSH1 0x3 NOT DUP5 DUP8 SUB ADD PUSH2 0x104 DUP6 ADD MSTORE MLOAD DUP1 DUP7 MSTORE PUSH1 0x20 DUP7 ADD SWAP6 PUSH1 0x20 DUP3 PUSH1 0x5 SHL DUP3 ADD ADD SWAP4 SWAP7 DUP7 SWAP2 JUMPDEST DUP4 DUP4 LT PUSH2 0x1B2B JUMPI POP POP POP POP DUP3 SWAP4 SWAP5 POP PUSH2 0x124 DUP4 ADD MSTORE CALLER PUSH2 0x144 DUP4 ADD MSTORE ADDRESS PUSH2 0x164 DUP4 ADD MSTORE SUB DUP2 DUP4 DUP8 GAS CALL DUP1 ISZERO PUSH2 0x768 JUMPI PUSH2 0x1B1B JUMPI JUMPDEST POP PUSH1 0x7 DUP1 SLOAD DUP3 MSTORE PUSH1 0x5 PUSH1 0x20 MSTORE PUSH1 0x40 DUP3 KECCAK256 DUP1 SLOAD PUSH1 0x1 PUSH1 0x1 PUSH1 0xA0 SHL SUB NOT AND PUSH1 0x1 PUSH1 0x1 PUSH1 0xA0 SHL SUB DUP6 AND OR SWAP1 SSTORE SLOAD SWAP2 SWAP1 PUSH1 0x0 NOT DUP4 EQ PUSH2 0x1B07 JUMPI POP PUSH1 0x1 PUSH1 0x20 SWAP3 ADD PUSH1 0x7 SSTORE PUSH1 0x40 MLOAD SWAP1 DUP2 MSTORE RETURN JUMPDEST PUSH4 0x4E487B71 PUSH1 0xE0 SHL DUP2 MSTORE PUSH1 0x11 PUSH1 0x4 MSTORE PUSH1 0x24 SWAP1 REVERT JUMPDEST DUP2 PUSH2 0x1B25 SWAP2 PUSH2 0x1D2D JUMP JUMPDEST CODESIZE PUSH2 0x1AC0 JUMP JUMPDEST SWAP3 SWAP6 POP SWAP3 SWAP6 POP SWAP3 PUSH1 0x20 DUP1 PUSH1 0x1 SWAP3 PUSH1 0x1F NOT DUP6 DUP3 SUB ADD DUP7 MSTORE DUP10 MLOAD SWAP1 PUSH1 0x40 DUP1 PUSH2 0x1B5A DUP5 MLOAD PUSH1 0x60 DUP6 MSTORE PUSH1 0x60 DUP6 ADD SWAP1 PUSH2 0x1DD5 JUMP JUMPDEST SWAP4 DUP6 DUP2 ADD MLOAD DUP7 DUP6 ADD MSTORE ADD MLOAD SWAP2 ADD MSTORE SWAP9 ADD SWAP4 ADD SWAP4 ADD DUP9 SWAP6 SWAP3 SWAP7 SWAP4 DUP9 SWAP6 SWAP3 PUSH2 0x1A8C JUMP JUMPDEST DUP8 DUP1 REVERT JUMPDEST PUSH1 0x40 MLOAD RETURNDATASIZE DUP10 DUP3 RETURNDATACOPY RETURNDATASIZE SWAP1 REVERT JUMPDEST PUSH4 0x4E487B71 PUSH1 0xE0 SHL DUP11 MSTORE PUSH1 0x41 PUSH1 0x4 MSTORE PUSH1 0x24 DUP11 REVERT JUMPDEST DUP7 DUP1 REVERT JUMPDEST DUP4 CALLDATALOAD PUSH1 0x1 PUSH1 0x1 PUSH1 0x40 SHL SUB DUP2 GT PUSH2 0x1C3F JUMPI DUP3 ADD PUSH1 0x60 PUSH1 0x23 NOT DUP3 CALLDATASIZE SUB ADD SLT PUSH2 0x1C3F JUMPI PUSH1 0x40 MLOAD SWAP1 PUSH1 0x60 DUP3 ADD DUP3 DUP2 LT PUSH1 0x1 PUSH1 0x1 PUSH1 0x40 SHL SUB DUP3 GT OR PUSH2 0x1C2B JUMPI PUSH1 0x40 MSTORE PUSH1 0x24 DUP2 ADD CALLDATALOAD PUSH1 0x1 PUSH1 0x1 PUSH1 0x40 SHL SUB DUP2 GT PUSH2 0x1C27 JUMPI SWAP2 PUSH1 0x64 PUSH1 0x20 SWAP5 SWAP3 PUSH2 0x1C0A DUP7 SWAP6 PUSH1 0x24 CALLDATASIZE SWAP2 DUP5 ADD ADD PUSH2 0x1D94 JUMP JUMPDEST DUP4 MSTORE PUSH1 0x44 DUP2 ADD CALLDATALOAD DUP6 DUP5 ADD MSTORE ADD CALLDATALOAD PUSH1 0x40 DUP3 ADD MSTORE DUP2 MSTORE ADD SWAP4 ADD SWAP3 PUSH2 0x1974 JUMP JUMPDEST DUP12 DUP1 REVERT JUMPDEST PUSH4 0x4E487B71 PUSH1 0xE0 SHL DUP13 MSTORE PUSH1 0x41 PUSH1 0x4 MSTORE PUSH1 0x24 DUP13 REVERT JUMPDEST DUP10 DUP1 REVERT JUMPDEST PUSH4 0x4E487B71 PUSH1 0xE0 SHL DUP6 MSTORE PUSH1 0x41 PUSH1 0x4 MSTORE PUSH1 0x24 DUP6 REVERT JUMPDEST DUP4 DUP1 REVERT JUMPDEST POP CALLVALUE PUSH2 0x183 JUMPI PUSH1 0x20 CALLDATASIZE PUSH1 0x3 NOT ADD SLT PUSH2 0x183 JUMPI PUSH2 0x1C75 PUSH2 0x1C9F JUMP JUMPDEST PUSH2 0x1C7D PUSH2 0x1EB7 JUMP JUMPDEST PUSH1 0x1 PUSH1 0x1 PUSH1 0xA0 SHL SUB AND DUP2 MSTORE PUSH1 0x6 PUSH1 0x20 MSTORE PUSH1 0x40 DUP2 KECCAK256 DUP1 SLOAD PUSH1 0xFF NOT AND PUSH1 0x1 OR SWAP1 SSTORE DUP1 RETURN JUMPDEST PUSH1 0x4 CALLDATALOAD SWAP1 PUSH1 0x1 PUSH1 0x1 PUSH1 0xA0 SHL SUB DUP3 AND DUP3 SUB PUSH2 0x1CB5 JUMPI JUMP JUMPDEST PUSH1 0x0 DUP1 REVERT JUMPDEST PUSH1 0x24 CALLDATALOAD SWAP1 PUSH1 0x1 PUSH1 0x1 PUSH1 0xA0 SHL SUB DUP3 AND DUP3 SUB PUSH2 0x1CB5 JUMPI JUMP JUMPDEST PUSH1 0x64 CALLDATALOAD SWAP1 PUSH1 0x1 PUSH1 0x1 PUSH1 0xA0 SHL SUB DUP3 AND DUP3 SUB PUSH2 0x1CB5 JUMPI JUMP JUMPDEST PUSH1 0x44 CALLDATALOAD SWAP1 PUSH1 0x1 PUSH1 0x1 PUSH1 0xA0 SHL SUB DUP3 AND DUP3 SUB PUSH2 0x1CB5 JUMPI JUMP JUMPDEST PUSH1 0xA0 DUP2 ADD SWAP1 DUP2 LT PUSH1 0x1 PUSH1 0x1 PUSH1 0x40 SHL SUB DUP3 GT OR PUSH2 0x1D17 JUMPI PUSH1 0x40 MSTORE JUMP JUMPDEST PUSH4 0x4E487B71 PUSH1 0xE0 SHL PUSH1 0x0 MSTORE PUSH1 0x41 PUSH1 0x4 MSTORE PUSH1 0x24 PUSH1 0x0 REVERT JUMPDEST SWAP1 PUSH1 0x1F DUP1 NOT SWAP2 ADD AND DUP2 ADD SWAP1 DUP2 LT PUSH1 0x1 PUSH1 0x1 PUSH1 0x40 SHL SUB DUP3 GT OR PUSH2 0x1D17 JUMPI PUSH1 0x40 MSTORE JUMP JUMPDEST SWAP3 SWAP2 SWAP3 PUSH1 0x1 PUSH1 0x1 PUSH1 0x40 SHL SUB DUP3 GT PUSH2 0x1D17 JUMPI PUSH1 0x40 MLOAD SWAP2 PUSH2 0x1D77 PUSH1 0x1F DUP3 ADD PUSH1 0x1F NOT AND PUSH1 0x20 ADD DUP5 PUSH2 0x1D2D JUMP JUMPDEST DUP3 SWAP5 DUP2 DUP5 MSTORE DUP2 DUP4 ADD GT PUSH2 0x1CB5 JUMPI DUP3 DUP2 PUSH1 0x20 SWAP4 DUP5 PUSH1 0x0 SWAP7 ADD CALLDATACOPY ADD ADD MSTORE JUMP JUMPDEST SWAP1 DUP1 PUSH1 0x1F DUP4 ADD SLT ISZERO PUSH2 0x1CB5 JUMPI DUP2 PUSH1 0x20 PUSH2 0x1DAF SWAP4 CALLDATALOAD SWAP2 ADD PUSH2 0x1D4E JUMP JUMPDEST SWAP1 JUMP JUMPDEST SWAP1 PUSH1 0x3 DUP3 LT ISZERO PUSH2 0x1DBF JUMPI MSTORE JUMP JUMPDEST PUSH4 0x4E487B71 PUSH1 0xE0 SHL PUSH1 0x0 MSTORE PUSH1 0x21 PUSH1 0x4 MSTORE PUSH1 0x24 PUSH1 0x0 REVERT JUMPDEST SWAP2 SWAP1 DUP3 MLOAD SWAP3 DUP4 DUP3 MSTORE PUSH1 0x0 JUMPDEST DUP5 DUP2 LT PUSH2 0x1E01 JUMPI POP POP DUP3 PUSH1 0x0 PUSH1 0x20 DUP1 SWAP5 SWAP6 DUP5 ADD ADD MSTORE PUSH1 0x1F DUP1 NOT SWAP2 ADD AND ADD ADD SWAP1 JUMP JUMPDEST DUP1 PUSH1 0x20 DUP1 SWAP3 DUP5 ADD ADD MLOAD DUP3 DUP3 DUP7 ADD ADD MSTORE ADD PUSH2 0x1DE0 JUMP JUMPDEST PUSH1 0x40 MLOAD SWAP1 PUSH2 0x1E23 DUP3 PUSH2 0x1CFC JUMP JUMPDEST PUSH1 0x0 PUSH1 0x80 DUP4 DUP3 DUP2 MSTORE DUP3 PUSH1 0x20 DUP3 ADD MSTORE DUP3 PUSH1 0x40 DUP3 ADD MSTORE DUP3 PUSH1 0x60 DUP3 ADD MSTORE ADD MSTORE JUMP JUMPDEST PUSH1 0x1 PUSH1 0x1 PUSH1 0xA0 SHL SUB AND DUP1 ISZERO PUSH2 0x1EA1 JUMPI PUSH1 0x0 DUP1 MLOAD PUSH1 0x20 PUSH2 0x45E6 DUP4 CODECOPY DUP2 MLOAD SWAP2 MSTORE DUP1 SLOAD PUSH1 0x1 PUSH1 0x1 PUSH1 0xA0 SHL SUB NOT DUP2 AND DUP4 OR SWAP1 SWAP2 SSTORE PUSH1 0x1 PUSH1 0x1 PUSH1 0xA0 SHL SUB AND PUSH32 0x8BE0079C531659141344CD1FD0A4F28419497F9722A3DAAFE3B4186F6B6457E0 PUSH1 0x0 DUP1 LOG3 JUMP JUMPDEST PUSH4 0x1E4FBDF7 PUSH1 0xE0 SHL PUSH1 0x0 MSTORE PUSH1 0x0 PUSH1 0x4 MSTORE PUSH1 0x24 PUSH1 0x0 REVERT JUMPDEST PUSH1 0x0 DUP1 MLOAD PUSH1 0x20 PUSH2 0x45E6 DUP4 CODECOPY DUP2 MLOAD SWAP2 MSTORE SLOAD PUSH1 0x1 PUSH1 0x1 PUSH1 0xA0 SHL SUB AND CALLER SUB PUSH2 0x1ED8 JUMPI JUMP JUMPDEST PUSH4 0x118CDAA7 PUSH1 0xE0 SHL PUSH1 0x0 MSTORE CALLER PUSH1 0x4 MSTORE PUSH1 0x24 PUSH1 0x0 REVERT JUMPDEST PUSH1 0x2 PUSH1 0x1 SLOAD EQ PUSH2 0x1EFE JUMPI PUSH1 0x2 PUSH1 0x1 SSTORE JUMP JUMPDEST PUSH4 0x3EE5AEB5 PUSH1 0xE0 SHL PUSH1 0x0 MSTORE PUSH1 0x4 PUSH1 0x0 REVERT JUMPDEST PUSH1 0xC SLOAD PUSH1 0x0 SWAP6 SWAP2 SWAP5 PUSH1 0x1 PUSH1 0x1 PUSH1 0xA0 SHL SUB SWAP1 SWAP5 AND SWAP4 SWAP2 SWAP1 PUSH1 0xFF AND DUP1 ISZERO PUSH2 0x20A2 JUMPI DUP1 DUP4 MUL SWAP1 DUP4 DUP3 DIV EQ DUP4 ISZERO OR ISZERO PUSH2 0x208E JUMPI PUSH1 0x64 SWAP1 DIV DUP7 DUP1 DUP1 DUP1 DUP5 PUSH1 0x1 DUP1 PUSH1 0xA0 SHL SUB DUP3 SLOAD AND DUP3 DUP3 ISZERO PUSH2 0x2085 JUMPI JUMPDEST CALL ISZERO PUSH2 0xB37 JUMPI DUP7 SLOAD PUSH1 0x40 DUP1 MLOAD PUSH1 0x1 PUSH1 0x1 PUSH1 0xA0 SHL SUB SWAP1 SWAP3 AND DUP3 MSTORE PUSH1 0x20 DUP3 ADD DUP4 SWAP1 MSTORE PUSH32 0x56A87AFABCC5BE804FC847379D1F4E3408F49B3016CC7DCEA295265F59A0BD57 SWAP2 LOG1 DUP1 DUP4 SUB SWAP2 DUP4 DUP4 GT PUSH2 0x2071 JUMPI PUSH1 0x1 PUSH1 0x1 PUSH1 0xA0 SHL SUB AND SWAP3 DUP8 SWAP2 DUP4 SWAP2 DUP6 SWAP2 DUP5 SWAP2 EQ PUSH2 0x2068 JUMPI JUMPDEST DUP4 SWAP3 DUP4 SWAP3 DUP4 SWAP3 CALL ISZERO PUSH2 0x205D JUMPI PUSH32 0xF474F1647716B20D13FEA8C36A785EABE9A98725DD210A911B9E0FC1508A6AF4 SWAP2 PUSH1 0x60 SWAP2 PUSH1 0x40 MLOAD SWAP2 DUP3 MSTORE PUSH1 0x20 DUP3 ADD MSTORE TIMESTAMP PUSH1 0x40 DUP3 ADD MSTORE LOG1 DUP2 EXTCODESIZE ISZERO PUSH2 0x1C57 JUMPI PUSH1 0x40 MLOAD PUSH4 0x21421707 PUSH1 0xE1 SHL DUP2 MSTORE ADDRESS PUSH1 0x4 DUP3 ADD MSTORE PUSH1 0x1 PUSH1 0x1 PUSH1 0xA0 SHL SUB SWAP2 SWAP1 SWAP2 AND PUSH1 0x24 DUP3 ADD MSTORE PUSH1 0x44 DUP2 ADD SWAP3 SWAP1 SWAP3 MSTORE DUP3 SWAP1 DUP3 SWAP1 PUSH1 0x64 SWAP1 DUP3 SWAP1 DUP5 SWAP1 GAS CALL DUP1 ISZERO PUSH2 0x768 JUMPI PUSH2 0x2050 JUMPI POP POP JUMP JUMPDEST DUP2 PUSH2 0x205A SWAP2 PUSH2 0x1D2D JUMP JUMPDEST POP JUMP JUMPDEST PUSH1 0x40 MLOAD RETURNDATASIZE DUP8 DUP3 RETURNDATACOPY RETURNDATASIZE SWAP1 REVERT JUMPDEST POP PUSH2 0x8FC PUSH2 0x1FBF JUMP JUMPDEST PUSH4 0x4E487B71 PUSH1 0xE0 SHL DUP9 MSTORE PUSH1 0x11 PUSH1 0x4 MSTORE PUSH1 0x24 DUP9 REVERT JUMPDEST POP PUSH2 0x8FC PUSH2 0x1F59 JUMP JUMPDEST PUSH4 0x4E487B71 PUSH1 0xE0 SHL DUP8 MSTORE PUSH1 0x11 PUSH1 0x4 MSTORE PUSH1 0x24 DUP8 REVERT JUMPDEST PUSH1 0x40 MLOAD PUSH3 0x461BCD PUSH1 0xE5 SHL DUP2 MSTORE PUSH1 0x20 PUSH1 0x4 DUP3 ADD MSTORE PUSH1 0x24 DUP1 DUP3 ADD MSTORE PUSH32 0x4D61726B6574506C616365206E6F742073657420736572766963652066656573 PUSH1 0x44 DUP3 ADD MSTORE PUSH4 0x81E595D PUSH1 0xE2 SHL PUSH1 0x64 DUP3 ADD MSTORE PUSH1 0x84 SWAP1 REVERT JUMPDEST PUSH1 0xFF PUSH1 0x0 DUP1 MLOAD PUSH1 0x20 PUSH2 0x4606 DUP4 CODECOPY DUP2 MLOAD SWAP2 MSTORE SLOAD PUSH1 0x40 SHR AND ISZERO PUSH2 0x2110 JUMPI JUMP JUMPDEST PUSH4 0x1AFCD79F PUSH1 0xE3 SHL PUSH1 0x0 MSTORE PUSH1 0x4 PUSH1 0x0 REVERT INVALID PUSH1 0x80 DUP1 PUSH1 0x40 MSTORE CALLVALUE PUSH1 0x15 JUMPI PUSH2 0x24A9 SWAP1 DUP2 PUSH2 0x1B DUP3 CODECOPY RETURN JUMPDEST PUSH1 0x0 DUP1 REVERT INVALID PUSH1 0x80 DUP1 PUSH1 0x40 MSTORE PUSH1 0x4 CALLDATASIZE LT ISZERO PUSH2 0x13 JUMPI PUSH1 0x0 DUP1 REVERT JUMPDEST PUSH1 0x0 CALLDATALOAD PUSH1 0xE0 SHR SWAP1 DUP2 PUSH4 0x1FFC9A7 EQ PUSH2 0x1AF9 JUMPI POP DUP1 PUSH4 0x6FDDE03 EQ PUSH2 0x1A37 JUMPI DUP1 PUSH4 0x81812FC EQ PUSH2 0x19EC JUMPI DUP1 PUSH4 0x95EA7B3 EQ PUSH2 0x18FA JUMPI DUP1 PUSH4 0x19E2A211 EQ PUSH2 0x13F1 JUMPI DUP1 PUSH4 0x2194F3A2 EQ PUSH2 0x13C8 JUMPI DUP1 PUSH4 0x23B872DD EQ PUSH2 0x13B1 JUMPI DUP1 PUSH4 0x24600FC3 EQ PUSH2 0x1188 JUMPI DUP1 PUSH4 0x321DB726 EQ PUSH2 0x1081 JUMPI DUP1 PUSH4 0x42842E0E EQ PUSH2 0x1051 JUMPI DUP1 PUSH4 0x4ED02622 EQ PUSH2 0xF2A JUMPI DUP1 PUSH4 0x6352211E EQ PUSH2 0xEFA JUMPI DUP1 PUSH4 0x70A08231 EQ PUSH2 0xEA8 JUMPI DUP1 PUSH4 0x715018A6 EQ PUSH2 0xE3E JUMPI DUP1 PUSH4 0x8DA5CB5B EQ PUSH2 0xE08 JUMPI DUP1 PUSH4 0x95D89B41 EQ PUSH2 0xD21 JUMPI DUP1 PUSH4 0x9DEC65ED EQ PUSH2 0xCF8 JUMPI DUP1 PUSH4 0xA22CB465 EQ PUSH2 0xC5C JUMPI DUP1 PUSH4 0xA87D8C00 EQ PUSH2 0x359 JUMPI DUP1 PUSH4 0xA98AD46C EQ PUSH2 0x330 JUMPI DUP1 PUSH4 0xB88D4FDE EQ PUSH2 0x2C5 JUMPI DUP1 PUSH4 0xBDA90604 EQ PUSH2 0x282 JUMPI DUP1 PUSH4 0xC87B56DD EQ PUSH2 0x216 JUMPI DUP1 PUSH4 0xE985E9C5 EQ PUSH2 0x1C8 JUMPI DUP1 PUSH4 0xF2FDE38B EQ PUSH2 0x19D JUMPI PUSH4 0xFA713083 EQ PUSH2 0x13D JUMPI PUSH1 0x0 DUP1 REVERT JUMPDEST CALLVALUE PUSH2 0x198 JUMPI PUSH1 0x20 CALLDATASIZE PUSH1 0x3 NOT ADD SLT PUSH2 0x198 JUMPI PUSH1 0x4 CALLDATALOAD PUSH1 0x0 MSTORE PUSH1 0x9 PUSH1 0x20 MSTORE PUSH2 0x189 PUSH1 0x40 PUSH1 0x0 KECCAK256 PUSH2 0x16A DUP2 PUSH2 0x1CF1 JUMP JUMPDEST SWAP1 PUSH1 0x2 PUSH1 0x1 DUP3 ADD SLOAD SWAP2 ADD SLOAD PUSH1 0x40 MLOAD SWAP4 DUP5 SWAP4 PUSH1 0x60 DUP6 MSTORE PUSH1 0x60 DUP6 ADD SWAP1 PUSH2 0x1B64 JUMP JUMPDEST SWAP2 PUSH1 0x20 DUP5 ADD MSTORE PUSH1 0x40 DUP4 ADD MSTORE SUB SWAP1 RETURN JUMPDEST PUSH1 0x0 DUP1 REVERT JUMPDEST CALLVALUE PUSH2 0x198 JUMPI PUSH1 0x20 CALLDATASIZE PUSH1 0x3 NOT ADD SLT PUSH2 0x198 JUMPI PUSH2 0x1C6 PUSH2 0x1B9 PUSH2 0x1BA5 JUMP JUMPDEST PUSH2 0x1C1 PUSH2 0x21F8 JUMP JUMPDEST PUSH2 0x2151 JUMP JUMPDEST STOP JUMPDEST CALLVALUE PUSH2 0x198 JUMPI PUSH1 0x40 CALLDATASIZE PUSH1 0x3 NOT ADD SLT PUSH2 0x198 JUMPI PUSH2 0x1E1 PUSH2 0x1BA5 JUMP JUMPDEST PUSH2 0x1F2 PUSH2 0x1EC PUSH2 0x1BBB JUMP JUMPDEST SWAP2 PUSH2 0x2118 JUMP JUMPDEST SWAP1 PUSH1 0x1 DUP1 PUSH1 0xA0 SHL SUB AND PUSH1 0x0 MSTORE PUSH1 0x20 MSTORE PUSH1 0x20 PUSH1 0xFF PUSH1 0x40 PUSH1 0x0 KECCAK256 SLOAD AND PUSH1 0x40 MLOAD SWAP1 ISZERO ISZERO DUP2 MSTORE RETURN JUMPDEST CALLVALUE PUSH2 0x198 JUMPI PUSH1 0x20 CALLDATASIZE PUSH1 0x3 NOT ADD SLT PUSH2 0x198 JUMPI PUSH1 0x4 CALLDATALOAD PUSH1 0x1 PUSH1 0x1 PUSH1 0xA0 SHL SUB PUSH2 0x23B DUP3 PUSH2 0x236B JUMP JUMPDEST AND ISZERO PUSH2 0x271 JUMPI PUSH1 0x0 MSTORE PUSH1 0xA PUSH1 0x20 MSTORE PUSH2 0x26D PUSH2 0x259 PUSH1 0x40 PUSH1 0x0 KECCAK256 PUSH2 0x1CF1 JUMP JUMPDEST PUSH1 0x40 MLOAD SWAP2 DUP3 SWAP2 PUSH1 0x20 DUP4 MSTORE PUSH1 0x20 DUP4 ADD SWAP1 PUSH2 0x1B64 JUMP JUMPDEST SUB SWAP1 RETURN JUMPDEST PUSH4 0x677510DB PUSH1 0xE1 SHL PUSH1 0x0 MSTORE PUSH1 0x4 PUSH1 0x0 REVERT JUMPDEST CALLVALUE PUSH2 0x198 JUMPI PUSH1 0x20 CALLDATASIZE PUSH1 0x3 NOT ADD SLT PUSH2 0x198 JUMPI PUSH2 0x29B PUSH2 0x1BA5 JUMP JUMPDEST PUSH2 0x2A3 PUSH2 0x21F8 JUMP JUMPDEST PUSH1 0x0 DUP1 SLOAD PUSH1 0x1 PUSH1 0x1 PUSH1 0xA0 SHL SUB NOT AND PUSH1 0x1 PUSH1 0x1 PUSH1 0xA0 SHL SUB SWAP3 SWAP1 SWAP3 AND SWAP2 SWAP1 SWAP2 OR SWAP1 SSTORE STOP JUMPDEST CALLVALUE PUSH2 0x198 JUMPI PUSH1 0x80 CALLDATASIZE PUSH1 0x3 NOT ADD SLT PUSH2 0x198 JUMPI PUSH2 0x2DE PUSH2 0x1BA5 JUMP JUMPDEST PUSH2 0x2E6 PUSH2 0x1BBB JUMP JUMPDEST SWAP1 PUSH1 0x44 CALLDATALOAD PUSH1 0x64 CALLDATALOAD SWAP3 PUSH1 0x1 PUSH1 0x1 PUSH1 0x40 SHL SUB DUP5 GT PUSH2 0x198 JUMPI CALLDATASIZE PUSH1 0x23 DUP6 ADD SLT ISZERO PUSH2 0x198 JUMPI PUSH2 0x31E PUSH2 0x1C6 SWAP5 CALLDATASIZE SWAP1 PUSH1 0x24 DUP2 PUSH1 0x4 ADD CALLDATALOAD SWAP2 ADD PUSH2 0x1C28 JUMP JUMPDEST SWAP3 PUSH2 0x32A DUP4 DUP4 DUP4 PUSH2 0x1F15 JUMP JUMPDEST CALLER PUSH2 0x222E JUMP JUMPDEST CALLVALUE PUSH2 0x198 JUMPI PUSH1 0x0 CALLDATASIZE PUSH1 0x3 NOT ADD SLT PUSH2 0x198 JUMPI PUSH1 0x7 SLOAD PUSH1 0x40 MLOAD PUSH1 0x1 PUSH1 0x1 PUSH1 0xA0 SHL SUB SWAP1 SWAP2 AND DUP2 MSTORE PUSH1 0x20 SWAP1 RETURN JUMPDEST CALLVALUE PUSH2 0x198 JUMPI PUSH2 0x180 CALLDATASIZE PUSH1 0x3 NOT ADD SLT PUSH2 0x198 JUMPI PUSH1 0x4 CALLDATALOAD PUSH1 0x1 PUSH1 0x1 PUSH1 0x40 SHL SUB DUP2 GT PUSH2 0x198 JUMPI PUSH2 0x38A SWAP1 CALLDATASIZE SWAP1 PUSH1 0x4 ADD PUSH2 0x1C5F JUMP JUMPDEST PUSH1 0x24 CALLDATALOAD PUSH1 0x1 PUSH1 0x1 PUSH1 0x40 SHL SUB DUP2 GT PUSH2 0x198 JUMPI PUSH2 0x3A9 SWAP1 CALLDATASIZE SWAP1 PUSH1 0x4 ADD PUSH2 0x1C5F JUMP JUMPDEST PUSH1 0x44 CALLDATALOAD PUSH1 0x1 PUSH1 0x1 PUSH1 0xA0 SHL SUB DUP2 AND SWAP3 SWAP1 DUP4 SWAP1 SUB PUSH2 0x198 JUMPI PUSH1 0x64 CALLDATALOAD PUSH1 0x1 PUSH1 0x1 PUSH1 0x40 SHL SUB DUP2 GT PUSH2 0x198 JUMPI PUSH2 0x3DE SWAP1 CALLDATASIZE SWAP1 PUSH1 0x4 ADD PUSH2 0x1C5F JUMP JUMPDEST SWAP3 PUSH2 0x104 CALLDATALOAD SWAP3 PUSH1 0x1 PUSH1 0x1 PUSH1 0x40 SHL SUB DUP5 GT PUSH2 0x198 JUMPI CALLDATASIZE PUSH1 0x23 DUP6 ADD SLT ISZERO PUSH2 0x198 JUMPI DUP4 PUSH1 0x4 ADD CALLDATALOAD PUSH2 0x40B DUP2 PUSH2 0x1D95 JUMP JUMPDEST SWAP5 PUSH2 0x419 PUSH1 0x40 MLOAD SWAP7 DUP8 PUSH2 0x1BEC JUMP JUMPDEST DUP2 DUP7 MSTORE PUSH1 0x24 PUSH1 0x20 DUP8 ADD SWAP3 PUSH1 0x5 SHL DUP3 ADD ADD SWAP1 CALLDATASIZE DUP3 GT PUSH2 0x198 JUMPI PUSH1 0x24 DUP2 ADD SWAP3 JUMPDEST DUP3 DUP5 LT PUSH2 0xBE7 JUMPI POP POP POP PUSH2 0x124 CALLDATALOAD PUSH1 0x1 PUSH1 0x1 PUSH1 0xA0 SHL SUB DUP2 AND SWAP4 SWAP2 POP DUP4 SWAP1 SUB PUSH2 0x198 JUMPI PUSH2 0x144 CALLDATALOAD PUSH1 0x1 PUSH1 0x1 PUSH1 0xA0 SHL SUB DUP2 AND DUP2 SUB PUSH2 0x198 JUMPI PUSH2 0x164 CALLDATALOAD PUSH1 0x1 PUSH1 0x1 PUSH1 0xA0 SHL SUB DUP2 AND SWAP4 SWAP1 DUP5 SWAP1 SUB PUSH2 0x198 JUMPI PUSH1 0x0 DUP1 MLOAD PUSH1 0x20 PUSH2 0x2434 DUP4 CODECOPY DUP2 MLOAD SWAP2 MSTORE SLOAD SWAP6 PUSH1 0xFF DUP8 PUSH1 0x40 SHR AND ISZERO SWAP7 PUSH1 0x1 PUSH1 0x1 PUSH1 0x40 SHL SUB DUP2 AND DUP1 ISZERO SWAP1 DUP2 PUSH2 0xBDF JUMPI JUMPDEST PUSH1 0x1 EQ SWAP1 DUP2 PUSH2 0xBD5 JUMPI JUMPDEST ISZERO SWAP1 DUP2 PUSH2 0xBCC JUMPI JUMPDEST POP PUSH2 0xBBB JUMPI PUSH8 0xFFFFFFFFFFFFFFFF NOT DUP2 AND PUSH1 0x1 OR PUSH1 0x0 DUP1 MLOAD PUSH1 0x20 PUSH2 0x2434 DUP4 CODECOPY DUP2 MLOAD SWAP2 MSTORE SSTORE DUP8 PUSH2 0xB8E JUMPI JUMPDEST POP PUSH2 0x4F6 PUSH2 0x23A5 JUMP JUMPDEST PUSH2 0x4FE PUSH2 0x23A5 JUMP JUMPDEST DUP1 MLOAD SWAP1 PUSH1 0x1 PUSH1 0x1 PUSH1 0x40 SHL SUB DUP3 GT PUSH2 0x96D JUMPI PUSH2 0x527 PUSH1 0x0 DUP1 MLOAD PUSH1 0x20 PUSH2 0x23D4 DUP4 CODECOPY DUP2 MLOAD SWAP2 MSTORE SLOAD PUSH2 0x1CB7 JUMP JUMPDEST PUSH1 0x1F DUP2 GT PUSH2 0xB1C JUMPI JUMPDEST POP PUSH1 0x20 SWAP1 PUSH1 0x1F DUP4 GT PUSH1 0x1 EQ PUSH2 0xA7C JUMPI PUSH2 0x562 SWAP3 SWAP2 PUSH1 0x0 SWAP2 DUP4 PUSH2 0x762 JUMPI JUMPDEST POP POP DUP2 PUSH1 0x1 SHL SWAP2 PUSH1 0x0 NOT SWAP1 PUSH1 0x3 SHL SHR NOT AND OR SWAP1 JUMP JUMPDEST PUSH1 0x0 DUP1 MLOAD PUSH1 0x20 PUSH2 0x23D4 DUP4 CODECOPY DUP2 MLOAD SWAP2 MSTORE SSTORE JUMPDEST DUP1 MLOAD SWAP1 PUSH1 0x1 PUSH1 0x1 PUSH1 0x40 SHL SUB DUP3 GT PUSH2 0x96D JUMPI PUSH2 0x59C PUSH1 0x0 DUP1 MLOAD PUSH1 0x20 PUSH2 0x2454 DUP4 CODECOPY DUP2 MLOAD SWAP2 MSTORE SLOAD PUSH2 0x1CB7 JUMP JUMPDEST PUSH1 0x1F DUP2 GT PUSH2 0xA0A JUMPI JUMPDEST POP PUSH1 0x20 SWAP1 PUSH1 0x1F DUP4 GT PUSH1 0x1 EQ PUSH2 0x983 JUMPI SWAP2 DUP1 PUSH2 0x5DB SWAP3 PUSH2 0x5FC SWAP6 SWAP5 PUSH1 0x0 SWAP3 PUSH2 0x762 JUMPI POP POP DUP2 PUSH1 0x1 SHL SWAP2 PUSH1 0x0 NOT SWAP1 PUSH1 0x3 SHL SHR NOT AND OR SWAP1 JUMP JUMPDEST PUSH1 0x0 DUP1 MLOAD PUSH1 0x20 PUSH2 0x2454 DUP4 CODECOPY DUP2 MLOAD SWAP2 MSTORE SSTORE JUMPDEST PUSH2 0x5F4 PUSH2 0x23A5 JUMP JUMPDEST PUSH2 0x1C1 PUSH2 0x23A5 JUMP JUMPDEST PUSH1 0x1 PUSH1 0x1 PUSH1 0x60 SHL SUB PUSH1 0xA0 SHL PUSH1 0x7 SLOAD AND OR PUSH1 0x7 SSTORE PUSH1 0x1 PUSH1 0x1 PUSH1 0x60 SHL SUB PUSH1 0xA0 SHL PUSH1 0x0 SLOAD AND OR PUSH1 0x0 SSTORE PUSH1 0x1 PUSH1 0x1 PUSH1 0x60 SHL SUB PUSH1 0xA0 SHL PUSH1 0x8 SLOAD AND OR PUSH1 0x8 SSTORE DUP3 MLOAD PUSH1 0x1 PUSH1 0x1 PUSH1 0x40 SHL SUB DUP2 GT PUSH2 0x96D JUMPI PUSH2 0x650 PUSH1 0x1 SLOAD PUSH2 0x1CB7 JUMP JUMPDEST PUSH1 0x1F DUP2 GT PUSH2 0x908 JUMPI JUMPDEST POP PUSH1 0x20 PUSH1 0x1F DUP3 GT PUSH1 0x1 EQ PUSH2 0x884 JUMPI DUP2 SWAP1 PUSH2 0x68B SWAP4 SWAP5 SWAP6 PUSH1 0x0 SWAP3 PUSH2 0x879 JUMPI POP POP DUP2 PUSH1 0x1 SHL SWAP2 PUSH1 0x0 NOT SWAP1 PUSH1 0x3 SHL SHR NOT AND OR SWAP1 JUMP JUMPDEST PUSH1 0x1 SSTORE JUMPDEST PUSH1 0x84 CALLDATALOAD PUSH1 0x2 SSTORE PUSH1 0xA4 CALLDATALOAD PUSH1 0x3 SSTORE PUSH1 0xC4 CALLDATALOAD PUSH1 0x4 SSTORE PUSH1 0xE4 CALLDATALOAD PUSH1 0x5 SSTORE PUSH1 0x0 JUMPDEST DUP3 MLOAD DUP2 LT ISZERO PUSH2 0x814 JUMPI PUSH1 0x0 PUSH1 0x20 DUP3 PUSH1 0x5 SHL DUP6 ADD ADD MLOAD PUSH1 0x6 SLOAD PUSH9 0x10000000000000000 DUP2 LT ISZERO PUSH2 0x800 JUMPI DUP1 PUSH1 0x1 PUSH2 0x6E3 SWAP3 ADD PUSH1 0x6 SSTORE PUSH2 0x1DAC JUMP JUMPDEST SWAP3 SWAP1 SWAP3 PUSH2 0x7EC JUMPI DUP2 MLOAD SWAP1 DUP2 MLOAD SWAP2 PUSH1 0x1 PUSH1 0x1 PUSH1 0x40 SHL SUB DUP4 GT PUSH2 0x7D8 JUMPI PUSH2 0x712 DUP4 PUSH2 0x70C DUP8 SLOAD PUSH2 0x1CB7 JUMP JUMPDEST DUP8 PUSH2 0x1DE1 JUMP JUMPDEST PUSH1 0x20 SWAP2 PUSH1 0x1F DUP5 GT PUSH1 0x1 EQ PUSH2 0x76D JUMPI DUP4 PUSH1 0x2 SWAP5 PUSH1 0x40 SWAP5 PUSH1 0x1 SWAP10 SWAP9 SWAP8 SWAP5 PUSH2 0x74B SWAP5 SWAP3 PUSH2 0x762 JUMPI POP POP DUP2 PUSH1 0x1 SHL SWAP2 PUSH1 0x0 NOT SWAP1 PUSH1 0x3 SHL SHR NOT AND OR SWAP1 JUMP JUMPDEST DUP5 SSTORE JUMPDEST PUSH1 0x20 DUP2 ADD MLOAD DUP7 DUP6 ADD SSTORE ADD MLOAD SWAP2 ADD SSTORE ADD PUSH2 0x6AA JUMP JUMPDEST ADD MLOAD SWAP1 POP DUP12 DUP1 PUSH2 0x54D JUMP JUMPDEST SWAP2 SWAP1 PUSH1 0x1F NOT DUP5 AND DUP7 DUP5 MSTORE DUP3 DUP5 KECCAK256 SWAP4 JUMPDEST DUP2 DUP2 LT PUSH2 0x7C0 JUMPI POP SWAP4 PUSH1 0x40 SWAP4 PUSH1 0x1 SWAP9 SWAP8 SWAP7 SWAP4 DUP10 SWAP4 DUP4 PUSH1 0x2 SWAP9 LT PUSH2 0x7A7 JUMPI JUMPDEST POP POP POP DUP2 SHL ADD DUP5 SSTORE PUSH2 0x74E JUMP JUMPDEST ADD MLOAD PUSH1 0x0 NOT PUSH1 0xF8 DUP5 PUSH1 0x3 SHL AND SHR NOT AND SWAP1 SSTORE DUP11 DUP1 DUP1 PUSH2 0x79A JUMP JUMPDEST SWAP3 SWAP4 PUSH1 0x20 PUSH1 0x1 DUP2 SWAP3 DUP8 DUP7 ADD MLOAD DUP2 SSTORE ADD SWAP6 ADD SWAP4 ADD PUSH2 0x77C JUMP JUMPDEST PUSH4 0x4E487B71 PUSH1 0xE0 SHL DUP3 MSTORE PUSH1 0x41 PUSH1 0x4 MSTORE PUSH1 0x24 DUP3 REVERT JUMPDEST PUSH4 0x4E487B71 PUSH1 0xE0 SHL DUP2 MSTORE PUSH1 0x4 DUP2 SWAP1 MSTORE PUSH1 0x24 SWAP1 REVERT JUMPDEST PUSH4 0x4E487B71 PUSH1 0xE0 SHL DUP4 MSTORE PUSH1 0x41 PUSH1 0x4 MSTORE PUSH1 0x24 DUP4 REVERT JUMPDEST POP PUSH1 0x0 PUSH1 0xB SSTORE PUSH2 0x820 JUMPI STOP JUMPDEST PUSH9 0xFF0000000000000000 NOT PUSH1 0x0 DUP1 MLOAD PUSH1 0x20 PUSH2 0x2434 DUP4 CODECOPY DUP2 MLOAD SWAP2 MSTORE SLOAD AND PUSH1 0x0 DUP1 MLOAD PUSH1 0x20 PUSH2 0x2434 DUP4 CODECOPY DUP2 MLOAD SWAP2 MSTORE SSTORE PUSH32 0xC7F505B2F371AE2175EE4913F4499E1F2633A7B5936321EED1CDAEB6115181D2 PUSH1 0x20 PUSH1 0x40 MLOAD PUSH1 0x1 DUP2 MSTORE LOG1 STOP JUMPDEST ADD MLOAD SWAP1 POP DUP6 DUP1 PUSH2 0x54D JUMP JUMPDEST PUSH1 0x1F NOT DUP3 AND SWAP1 PUSH1 0x1 PUSH1 0x0 MSTORE PUSH32 0xB10E2D527612073B26EECDFD717E6A320CF44B4AFAC2B0732D9FCBE2B7FA0CF6 SWAP2 PUSH1 0x0 JUMPDEST DUP2 DUP2 LT PUSH2 0x8F0 JUMPI POP SWAP6 DUP4 PUSH1 0x1 SWAP6 SWAP7 SWAP8 LT PUSH2 0x8D7 JUMPI JUMPDEST POP POP POP DUP2 SHL ADD PUSH1 0x1 SSTORE PUSH2 0x68F JUMP JUMPDEST ADD MLOAD PUSH1 0x0 NOT PUSH1 0xF8 DUP5 PUSH1 0x3 SHL AND SHR NOT AND SWAP1 SSTORE DUP5 DUP1 DUP1 PUSH2 0x8C9 JUMP JUMPDEST SWAP2 SWAP3 PUSH1 0x20 PUSH1 0x1 DUP2 SWAP3 DUP7 DUP12 ADD MLOAD DUP2 SSTORE ADD SWAP5 ADD SWAP3 ADD PUSH2 0x8B4 JUMP JUMPDEST PUSH1 0x1 PUSH1 0x0 MSTORE PUSH32 0xB10E2D527612073B26EECDFD717E6A320CF44B4AFAC2B0732D9FCBE2B7FA0CF6 PUSH1 0x1F DUP4 ADD PUSH1 0x5 SHR DUP2 ADD SWAP2 PUSH1 0x20 DUP5 LT PUSH2 0x963 JUMPI JUMPDEST PUSH1 0x1F ADD PUSH1 0x5 SHR ADD SWAP1 JUMPDEST DUP2 DUP2 LT PUSH2 0x957 JUMPI POP PUSH2 0x659 JUMP JUMPDEST PUSH1 0x0 DUP2 SSTORE PUSH1 0x1 ADD PUSH2 0x94A JUMP JUMPDEST SWAP1 SWAP2 POP DUP2 SWAP1 PUSH2 0x941 JUMP JUMPDEST PUSH4 0x4E487B71 PUSH1 0xE0 SHL PUSH1 0x0 MSTORE PUSH1 0x41 PUSH1 0x4 MSTORE PUSH1 0x24 PUSH1 0x0 REVERT JUMPDEST SWAP1 PUSH1 0x1F NOT DUP4 AND SWAP2 PUSH1 0x0 DUP1 MLOAD PUSH1 0x20 PUSH2 0x2454 DUP4 CODECOPY DUP2 MLOAD SWAP2 MSTORE PUSH1 0x0 MSTORE DUP2 PUSH1 0x0 KECCAK256 SWAP3 PUSH1 0x0 JUMPDEST DUP2 DUP2 LT PUSH2 0x9F2 JUMPI POP SWAP2 PUSH1 0x1 SWAP4 SWAP2 DUP6 PUSH2 0x5FC SWAP8 SWAP7 SWAP5 LT PUSH2 0x9D9 JUMPI JUMPDEST POP POP POP DUP2 SHL ADD PUSH1 0x0 DUP1 MLOAD PUSH1 0x20 PUSH2 0x2454 DUP4 CODECOPY DUP2 MLOAD SWAP2 MSTORE SSTORE PUSH2 0x5EC JUMP JUMPDEST ADD MLOAD PUSH1 0x0 NOT PUSH1 0xF8 DUP5 PUSH1 0x3 SHL AND SHR NOT AND SWAP1 SSTORE DUP11 DUP1 DUP1 PUSH2 0x9BE JUMP JUMPDEST SWAP3 SWAP4 PUSH1 0x20 PUSH1 0x1 DUP2 SWAP3 DUP8 DUP7 ADD MLOAD DUP2 SSTORE ADD SWAP6 ADD SWAP4 ADD PUSH2 0x9A4 JUMP JUMPDEST PUSH1 0x0 DUP1 MLOAD PUSH1 0x20 PUSH2 0x2454 DUP4 CODECOPY DUP2 MLOAD SWAP2 MSTORE PUSH1 0x0 MSTORE PUSH32 0xF4BAD0A69248F59680A4F2B3000328CEC71A413447C96781CFE5996DAA8C456E PUSH1 0x1F DUP5 ADD PUSH1 0x5 SHR DUP2 ADD SWAP2 PUSH1 0x20 DUP6 LT PUSH2 0xA72 JUMPI JUMPDEST PUSH1 0x1F ADD PUSH1 0x5 SHR ADD SWAP1 JUMPDEST DUP2 DUP2 LT PUSH2 0xA66 JUMPI POP PUSH2 0x5A5 JUMP JUMPDEST PUSH1 0x0 DUP2 SSTORE PUSH1 0x1 ADD PUSH2 0xA59 JUMP JUMPDEST SWAP1 SWAP2 POP DUP2 SWAP1 PUSH2 0xA50 JUMP JUMPDEST SWAP1 PUSH1 0x1F NOT DUP4 AND SWAP2 PUSH1 0x0 DUP1 MLOAD PUSH1 0x20 PUSH2 0x23D4 DUP4 CODECOPY DUP2 MLOAD SWAP2 MSTORE PUSH1 0x0 MSTORE PUSH32 0x37C58C799B6609234B945E882912EE9AD34948A1DFAA20A97485E1A7752BBF81 SWAP3 PUSH1 0x0 JUMPDEST DUP2 DUP2 LT PUSH2 0xB04 JUMPI POP SWAP1 DUP5 PUSH1 0x1 SWAP6 SWAP5 SWAP4 SWAP3 LT PUSH2 0xAEB JUMPI JUMPDEST POP POP POP DUP2 SHL ADD PUSH1 0x0 DUP1 MLOAD PUSH1 0x20 PUSH2 0x23D4 DUP4 CODECOPY DUP2 MLOAD SWAP2 MSTORE SSTORE PUSH2 0x573 JUMP JUMPDEST ADD MLOAD PUSH1 0x0 NOT PUSH1 0xF8 DUP5 PUSH1 0x3 SHL AND SHR NOT AND SWAP1 SSTORE DUP11 DUP1 DUP1 PUSH2 0xAD0 JUMP JUMPDEST SWAP3 SWAP4 PUSH1 0x20 PUSH1 0x1 DUP2 SWAP3 DUP8 DUP7 ADD MLOAD DUP2 SSTORE ADD SWAP6 ADD SWAP4 ADD PUSH2 0xABA JUMP JUMPDEST PUSH1 0x0 DUP1 MLOAD PUSH1 0x20 PUSH2 0x23D4 DUP4 CODECOPY DUP2 MLOAD SWAP2 MSTORE PUSH1 0x0 MSTORE PUSH32 0x37C58C799B6609234B945E882912EE9AD34948A1DFAA20A97485E1A7752BBF81 PUSH1 0x1F DUP5 ADD PUSH1 0x5 SHR DUP2 ADD SWAP2 PUSH1 0x20 DUP6 LT PUSH2 0xB84 JUMPI JUMPDEST PUSH1 0x1F ADD PUSH1 0x5 SHR ADD SWAP1 JUMPDEST DUP2 DUP2 LT PUSH2 0xB78 JUMPI POP PUSH2 0x530 JUMP JUMPDEST PUSH1 0x0 DUP2 SSTORE PUSH1 0x1 ADD PUSH2 0xB6B JUMP JUMPDEST SWAP1 SWAP2 POP DUP2 SWAP1 PUSH2 0xB62 JUMP JUMPDEST PUSH9 0xFFFFFFFFFFFFFFFFFF NOT AND PUSH9 0x10000000000000001 OR PUSH1 0x0 DUP1 MLOAD PUSH1 0x20 PUSH2 0x2434 DUP4 CODECOPY DUP2 MLOAD SWAP2 MSTORE SSTORE DUP10 PUSH2 0x4ED JUMP JUMPDEST PUSH4 0xF92EE8A9 PUSH1 0xE0 SHL PUSH1 0x0 MSTORE PUSH1 0x4 PUSH1 0x0 REVERT JUMPDEST SWAP1 POP ISZERO DUP12 PUSH2 0x4C3 JUMP JUMPDEST ADDRESS EXTCODESIZE ISZERO SWAP2 POP PUSH2 0x4BB JUMP JUMPDEST DUP10 SWAP2 POP PUSH2 0x4B1 JUMP JUMPDEST DUP4 CALLDATALOAD PUSH1 0x1 PUSH1 0x1 PUSH1 0x40 SHL SUB DUP2 GT PUSH2 0x198 JUMPI DUP3 ADD PUSH1 0x60 PUSH1 0x23 NOT DUP3 CALLDATASIZE SUB ADD SLT PUSH2 0x198 JUMPI PUSH1 0x40 MLOAD SWAP2 PUSH2 0xC14 DUP4 PUSH2 0x1BD1 JUMP JUMPDEST PUSH1 0x24 DUP3 ADD CALLDATALOAD SWAP3 PUSH1 0x1 PUSH1 0x1 PUSH1 0x40 SHL SUB DUP5 GT PUSH2 0x198 JUMPI PUSH1 0x64 PUSH1 0x20 SWAP5 SWAP4 PUSH2 0xC3F DUP7 SWAP6 PUSH1 0x24 CALLDATASIZE SWAP2 DUP5 ADD ADD PUSH2 0x1C5F JUMP JUMPDEST DUP4 MSTORE PUSH1 0x44 DUP2 ADD CALLDATALOAD DUP6 DUP5 ADD MSTORE ADD CALLDATALOAD PUSH1 0x40 DUP3 ADD MSTORE DUP2 MSTORE ADD SWAP4 ADD SWAP3 PUSH2 0x437 JUMP JUMPDEST CALLVALUE PUSH2 0x198 JUMPI PUSH1 0x40 CALLDATASIZE PUSH1 0x3 NOT ADD SLT PUSH2 0x198 JUMPI PUSH2 0xC75 PUSH2 0x1BA5 JUMP JUMPDEST PUSH1 0x24 CALLDATALOAD SWAP1 DUP2 ISZERO ISZERO DUP1 SWAP3 SUB PUSH2 0x198 JUMPI PUSH1 0x1 PUSH1 0x1 PUSH1 0xA0 SHL SUB AND SWAP1 DUP2 ISZERO PUSH2 0xCE3 JUMPI PUSH2 0xC9C CALLER PUSH2 0x2118 JUMP JUMPDEST DUP3 PUSH1 0x0 MSTORE PUSH1 0x20 MSTORE PUSH1 0x40 PUSH1 0x0 KECCAK256 PUSH1 0xFF NOT DUP2 SLOAD AND PUSH1 0xFF DUP4 AND OR SWAP1 SSTORE PUSH1 0x40 MLOAD SWAP1 DUP2 MSTORE PUSH32 0x17307EAB39AB6107E8899845AD3D59BD9653F200F220920489CA2B5937696C31 PUSH1 0x20 CALLER SWAP3 LOG3 STOP JUMPDEST POP PUSH4 0xB611743 PUSH1 0xE3 SHL PUSH1 0x0 MSTORE PUSH1 0x4 MSTORE PUSH1 0x24 PUSH1 0x0 REVERT JUMPDEST CALLVALUE PUSH2 0x198 JUMPI PUSH1 0x0 CALLDATASIZE PUSH1 0x3 NOT ADD SLT PUSH2 0x198 JUMPI PUSH1 0x0 SLOAD PUSH1 0x40 MLOAD PUSH1 0x1 PUSH1 0x1 PUSH1 0xA0 SHL SUB SWAP1 SWAP2 AND DUP2 MSTORE PUSH1 0x20 SWAP1 RETURN JUMPDEST CALLVALUE PUSH2 0x198 JUMPI PUSH1 0x0 CALLDATASIZE PUSH1 0x3 NOT ADD SLT PUSH2 0x198 JUMPI PUSH1 0x40 MLOAD PUSH1 0x0 PUSH1 0x0 DUP1 MLOAD PUSH1 0x20 PUSH2 0x2454 DUP4 CODECOPY DUP2 MLOAD SWAP2 MSTORE SLOAD PUSH2 0xD50 DUP2 PUSH2 0x1CB7 JUMP JUMPDEST DUP1 DUP5 MSTORE SWAP1 PUSH1 0x1 DUP2 AND SWAP1 DUP2 ISZERO PUSH2 0xDE4 JUMPI POP PUSH1 0x1 EQ PUSH2 0xD78 JUMPI JUMPDEST PUSH2 0x26D DUP4 PUSH2 0x259 DUP2 DUP6 SUB DUP3 PUSH2 0x1BEC JUMP JUMPDEST PUSH1 0x0 DUP1 MLOAD PUSH1 0x20 PUSH2 0x2454 DUP4 CODECOPY DUP2 MLOAD SWAP2 MSTORE PUSH1 0x0 SWAP1 DUP2 MSTORE PUSH32 0xF4BAD0A69248F59680A4F2B3000328CEC71A413447C96781CFE5996DAA8C456E SWAP4 SWAP3 POP SWAP1 JUMPDEST DUP1 DUP3 LT PUSH2 0xDCA JUMPI POP SWAP1 SWAP2 POP DUP2 ADD PUSH1 0x20 ADD PUSH2 0x259 PUSH2 0xD68 JUMP JUMPDEST SWAP2 SWAP3 PUSH1 0x1 DUP2 PUSH1 0x20 SWAP3 SLOAD DUP4 DUP6 DUP9 ADD ADD MSTORE ADD SWAP2 ADD SWAP1 SWAP3 SWAP2 PUSH2 0xDB2 JUMP JUMPDEST PUSH1 0xFF NOT AND PUSH1 0x20 DUP1 DUP7 ADD SWAP2 SWAP1 SWAP2 MSTORE SWAP2 ISZERO ISZERO PUSH1 0x5 SHL DUP5 ADD SWAP1 SWAP2 ADD SWAP2 POP PUSH2 0x259 SWAP1 POP PUSH2 0xD68 JUMP JUMPDEST CALLVALUE PUSH2 0x198 JUMPI PUSH1 0x0 CALLDATASIZE PUSH1 0x3 NOT ADD SLT PUSH2 0x198 JUMPI PUSH1 0x0 DUP1 MLOAD PUSH1 0x20 PUSH2 0x23F4 DUP4 CODECOPY DUP2 MLOAD SWAP2 MSTORE SLOAD PUSH1 0x40 MLOAD PUSH1 0x1 PUSH1 0x1 PUSH1 0xA0 SHL SUB SWAP1 SWAP2 AND DUP2 MSTORE PUSH1 0x20 SWAP1 RETURN JUMPDEST CALLVALUE PUSH2 0x198 JUMPI PUSH1 0x0 CALLDATASIZE PUSH1 0x3 NOT ADD SLT PUSH2 0x198 JUMPI PUSH2 0xE57 PUSH2 0x21F8 JUMP JUMPDEST PUSH1 0x0 DUP1 MLOAD PUSH1 0x20 PUSH2 0x23F4 DUP4 CODECOPY DUP2 MLOAD SWAP2 MSTORE DUP1 SLOAD PUSH1 0x1 PUSH1 0x1 PUSH1 0xA0 SHL SUB NOT DUP2 AND SWAP1 SWAP2 SSTORE PUSH1 0x0 SWAP1 PUSH1 0x1 PUSH1 0x1 PUSH1 0xA0 SHL SUB AND PUSH32 0x8BE0079C531659141344CD1FD0A4F28419497F9722A3DAAFE3B4186F6B6457E0 DUP3 DUP1 LOG3 STOP JUMPDEST CALLVALUE PUSH2 0x198 JUMPI PUSH1 0x20 CALLDATASIZE PUSH1 0x3 NOT ADD SLT PUSH2 0x198 JUMPI PUSH2 0xEC1 PUSH2 0x1BA5 JUMP JUMPDEST PUSH1 0x1 PUSH1 0x1 PUSH1 0xA0 SHL SUB DUP2 AND ISZERO PUSH2 0xEE4 JUMPI PUSH2 0xEDB PUSH1 0x20 SWAP2 PUSH2 0x20DF JUMP JUMPDEST SLOAD PUSH1 0x40 MLOAD SWAP1 DUP2 MSTORE RETURN JUMPDEST PUSH4 0x22718AD9 PUSH1 0xE2 SHL PUSH1 0x0 MSTORE PUSH1 0x0 PUSH1 0x4 MSTORE PUSH1 0x24 PUSH1 0x0 REVERT JUMPDEST CALLVALUE PUSH2 0x198 JUMPI PUSH1 0x20 CALLDATASIZE PUSH1 0x3 NOT ADD SLT PUSH2 0x198 JUMPI PUSH1 0x20 PUSH2 0xF18 PUSH1 0x4 CALLDATALOAD PUSH2 0x21C7 JUMP JUMPDEST PUSH1 0x40 MLOAD PUSH1 0x1 PUSH1 0x1 PUSH1 0xA0 SHL SUB SWAP1 SWAP2 AND DUP2 MSTORE RETURN JUMPDEST CALLVALUE PUSH2 0x198 JUMPI PUSH1 0x0 CALLDATASIZE PUSH1 0x3 NOT ADD SLT PUSH2 0x198 JUMPI PUSH1 0x6 SLOAD PUSH2 0xF47 DUP2 PUSH2 0x1D95 JUMP JUMPDEST SWAP1 PUSH2 0xF55 PUSH1 0x40 MLOAD SWAP3 DUP4 PUSH2 0x1BEC JUMP JUMPDEST DUP1 DUP3 MSTORE PUSH1 0x20 DUP3 ADD SWAP1 DUP2 PUSH1 0x6 PUSH1 0x0 MSTORE PUSH32 0xF652222313E28459528D920B65115C16C04F3EFC82AAEDC97BE59F3F377C0D3F PUSH1 0x0 SWAP2 JUMPDEST DUP4 DUP4 LT PUSH2 0x1013 JUMPI DUP5 DUP7 PUSH1 0x40 MLOAD SWAP2 DUP3 SWAP2 PUSH1 0x20 DUP4 ADD SWAP1 PUSH1 0x20 DUP5 MSTORE MLOAD DUP1 SWAP2 MSTORE PUSH1 0x40 DUP4 ADD SWAP1 PUSH1 0x40 DUP2 PUSH1 0x5 SHL DUP6 ADD ADD SWAP3 SWAP2 PUSH1 0x0 SWAP1 JUMPDEST DUP3 DUP3 LT PUSH2 0xFC7 JUMPI POP POP POP POP SUB SWAP1 RETURN JUMPDEST SWAP2 SWAP4 PUSH1 0x1 SWAP2 SWAP4 SWAP6 POP PUSH1 0x20 DUP1 SWAP2 PUSH1 0x3F NOT DUP10 DUP3 SUB ADD DUP6 MSTORE DUP8 MLOAD SWAP1 PUSH1 0x40 DUP1 PUSH2 0xFF5 DUP5 MLOAD PUSH1 0x60 DUP6 MSTORE PUSH1 0x60 DUP6 ADD SWAP1 PUSH2 0x1B64 JUMP JUMPDEST SWAP4 DUP6 DUP2 ADD MLOAD DUP7 DUP6 ADD MSTORE ADD MLOAD SWAP2 ADD MSTORE SWAP7 ADD SWAP3 ADD SWAP3 ADD DUP6 SWAP5 SWAP4 SWAP2 SWAP3 PUSH2 0xFB8 JUMP JUMPDEST PUSH1 0x3 PUSH1 0x20 PUSH1 0x1 SWAP3 PUSH1 0x40 MLOAD PUSH2 0x1026 DUP2 PUSH2 0x1BD1 JUMP JUMPDEST PUSH2 0x102F DUP7 PUSH2 0x1CF1 JUMP JUMPDEST DUP2 MSTORE DUP5 DUP7 ADD SLOAD DUP4 DUP3 ADD MSTORE PUSH1 0x2 DUP7 ADD SLOAD PUSH1 0x40 DUP3 ADD MSTORE DUP2 MSTORE ADD SWAP3 ADD SWAP3 ADD SWAP2 SWAP1 PUSH2 0xF88 JUMP JUMPDEST CALLVALUE PUSH2 0x198 JUMPI PUSH2 0x1C6 PUSH2 0x1062 CALLDATASIZE PUSH2 0x1C7D JUMP JUMPDEST SWAP1 PUSH1 0x40 MLOAD SWAP3 PUSH2 0x1072 PUSH1 0x20 DUP6 PUSH2 0x1BEC JUMP JUMPDEST PUSH1 0x0 DUP5 MSTORE PUSH2 0x32A DUP4 DUP4 DUP4 PUSH2 0x1F15 JUMP JUMPDEST CALLVALUE PUSH2 0x198 JUMPI PUSH1 0x0 CALLDATASIZE PUSH1 0x3 NOT ADD SLT PUSH2 0x198 JUMPI PUSH1 0x40 MLOAD PUSH1 0x0 PUSH1 0x1 SLOAD PUSH2 0x10A3 DUP2 PUSH2 0x1CB7 JUMP JUMPDEST DUP1 DUP5 MSTORE SWAP1 PUSH1 0x1 DUP2 AND SWAP1 DUP2 ISZERO PUSH2 0x1164 JUMPI POP PUSH1 0x1 EQ PUSH2 0x1105 JUMPI JUMPDEST PUSH2 0x10EC DUP4 PUSH2 0x10CB DUP2 DUP6 SUB DUP3 PUSH2 0x1BEC JUMP JUMPDEST PUSH1 0x2 SLOAD PUSH1 0x3 SLOAD PUSH1 0x4 SLOAD PUSH1 0x5 SLOAD SWAP2 PUSH1 0x40 MLOAD SWAP6 DUP7 SWAP6 PUSH1 0xA0 DUP8 MSTORE PUSH1 0xA0 DUP8 ADD SWAP1 PUSH2 0x1B64 JUMP JUMPDEST SWAP4 PUSH1 0x20 DUP7 ADD MSTORE PUSH1 0x40 DUP6 ADD MSTORE PUSH1 0x60 DUP5 ADD MSTORE PUSH1 0x80 DUP4 ADD MSTORE SUB SWAP1 RETURN JUMPDEST PUSH1 0x1 PUSH1 0x0 SWAP1 DUP2 MSTORE PUSH32 0xB10E2D527612073B26EECDFD717E6A320CF44B4AFAC2B0732D9FCBE2B7FA0CF6 SWAP4 SWAP3 POP SWAP1 JUMPDEST DUP1 DUP3 LT PUSH2 0x114A JUMPI POP SWAP1 SWAP2 POP DUP2 ADD PUSH1 0x20 ADD PUSH2 0x10CB PUSH2 0x10BB JUMP JUMPDEST SWAP2 SWAP3 PUSH1 0x1 DUP2 PUSH1 0x20 SWAP3 SLOAD DUP4 DUP6 DUP9 ADD ADD MSTORE ADD SWAP2 ADD SWAP1 SWAP3 SWAP2 PUSH2 0x1132 JUMP JUMPDEST PUSH1 0xFF NOT AND PUSH1 0x20 DUP1 DUP7 ADD SWAP2 SWAP1 SWAP2 MSTORE SWAP2 ISZERO ISZERO PUSH1 0x5 SHL DUP5 ADD SWAP1 SWAP2 ADD SWAP2 POP PUSH2 0x10CB SWAP1 POP PUSH2 0x10BB JUMP JUMPDEST CALLVALUE PUSH2 0x198 JUMPI PUSH1 0x0 CALLDATASIZE PUSH1 0x3 NOT ADD SLT PUSH2 0x198 JUMPI PUSH2 0x11A1 PUSH2 0x21F8 JUMP JUMPDEST PUSH1 0x0 SLOAD PUSH1 0x40 MLOAD PUSH4 0x26749AD7 PUSH1 0xE0 SHL DUP2 MSTORE ADDRESS PUSH1 0x4 DUP3 ADD MSTORE SWAP1 PUSH1 0x20 SWAP1 DUP3 SWAP1 PUSH1 0x24 SWAP1 DUP3 SWAP1 PUSH1 0x1 PUSH1 0x1 PUSH1 0xA0 SHL SUB AND GAS STATICCALL SWAP1 DUP2 ISZERO PUSH2 0x129A JUMPI PUSH1 0x0 SWAP2 PUSH2 0x136F JUMPI JUMPDEST POP ISZERO PUSH2 0x1314 JUMPI PUSH1 0x7 SLOAD PUSH1 0x40 MLOAD PUSH4 0x70A08231 PUSH1 0xE0 SHL DUP2 MSTORE ADDRESS PUSH1 0x4 DUP3 ADD MSTORE PUSH1 0x1 PUSH1 0x1 PUSH1 0xA0 SHL SUB SWAP1 SWAP2 AND SWAP1 PUSH1 0x20 DUP2 PUSH1 0x24 DUP2 DUP6 GAS STATICCALL SWAP1 DUP2 ISZERO PUSH2 0x129A JUMPI PUSH1 0x0 SWAP2 PUSH2 0x12E2 JUMPI JUMPDEST POP DUP1 ISZERO PUSH2 0x12A6 JUMPI PUSH1 0x0 PUSH1 0x20 SWAP2 PUSH1 0x1 DUP1 PUSH1 0xA0 SHL SUB PUSH1 0x8 SLOAD AND SWAP1 PUSH1 0x40 MLOAD SWAP1 DUP5 DUP3 ADD SWAP3 PUSH4 0xA9059CBB PUSH1 0xE0 SHL DUP5 MSTORE PUSH1 0x24 DUP4 ADD MSTORE PUSH1 0x44 DUP3 ADD MSTORE PUSH1 0x44 DUP2 MSTORE PUSH2 0x125F PUSH1 0x64 DUP3 PUSH2 0x1BEC JUMP JUMPDEST MLOAD SWAP1 DUP3 DUP6 GAS CALL ISZERO PUSH2 0x129A JUMPI PUSH1 0x0 MLOAD RETURNDATASIZE PUSH2 0x1291 JUMPI POP DUP1 EXTCODESIZE ISZERO JUMPDEST PUSH2 0x127D JUMPI STOP JUMPDEST PUSH4 0x5274AFE7 PUSH1 0xE0 SHL PUSH1 0x0 MSTORE PUSH1 0x4 MSTORE PUSH1 0x24 PUSH1 0x0 REVERT JUMPDEST PUSH1 0x1 EQ ISZERO PUSH2 0x1277 JUMP JUMPDEST PUSH1 0x40 MLOAD RETURNDATASIZE PUSH1 0x0 DUP3 RETURNDATACOPY RETURNDATASIZE SWAP1 REVERT JUMPDEST PUSH1 0x40 MLOAD PUSH3 0x461BCD PUSH1 0xE5 SHL DUP2 MSTORE PUSH1 0x20 PUSH1 0x4 DUP3 ADD MSTORE PUSH1 0x14 PUSH1 0x24 DUP3 ADD MSTORE PUSH20 0x4E6F2066756E647320746F207769746864726177 PUSH1 0x60 SHL PUSH1 0x44 DUP3 ADD MSTORE PUSH1 0x64 SWAP1 REVERT JUMPDEST SWAP1 POP PUSH1 0x20 DUP2 RETURNDATASIZE PUSH1 0x20 GT PUSH2 0x130C JUMPI JUMPDEST DUP2 PUSH2 0x12FD PUSH1 0x20 SWAP4 DUP4 PUSH2 0x1BEC JUMP JUMPDEST DUP2 ADD SUB SLT PUSH2 0x198 JUMPI MLOAD DUP3 PUSH2 0x121C JUMP JUMPDEST RETURNDATASIZE SWAP2 POP PUSH2 0x12F0 JUMP JUMPDEST PUSH1 0x40 MLOAD PUSH3 0x461BCD PUSH1 0xE5 SHL DUP2 MSTORE PUSH1 0x20 PUSH1 0x4 DUP3 ADD MSTORE PUSH1 0x2D PUSH1 0x24 DUP3 ADD MSTORE PUSH32 0x5468697320636F6E7472616374206973206E6F7420617070726F76656420666F PUSH1 0x44 DUP3 ADD MSTORE PUSH13 0x72207769746864726177616C73 PUSH1 0x98 SHL PUSH1 0x64 DUP3 ADD MSTORE PUSH1 0x84 SWAP1 REVERT JUMPDEST PUSH1 0x20 DUP2 RETURNDATASIZE PUSH1 0x20 GT PUSH2 0x13A9 JUMPI JUMPDEST DUP2 PUSH2 0x1388 PUSH1 0x20 SWAP4 DUP4 PUSH2 0x1BEC JUMP JUMPDEST DUP2 ADD SUB SLT PUSH2 0x13A5 JUMPI MLOAD SWAP1 DUP2 ISZERO ISZERO DUP3 SUB PUSH2 0x13A2 JUMPI POP DUP2 PUSH2 0x11DC JUMP JUMPDEST DUP1 REVERT JUMPDEST POP DUP1 REVERT JUMPDEST RETURNDATASIZE SWAP2 POP PUSH2 0x137B JUMP JUMPDEST CALLVALUE PUSH2 0x198 JUMPI PUSH2 0x1C6 PUSH2 0x13C2 CALLDATASIZE PUSH2 0x1C7D JUMP JUMPDEST SWAP2 PUSH2 0x1F15 JUMP JUMPDEST CALLVALUE PUSH2 0x198 JUMPI PUSH1 0x0 CALLDATASIZE PUSH1 0x3 NOT ADD SLT PUSH2 0x198 JUMPI PUSH1 0x8 SLOAD PUSH1 0x40 MLOAD PUSH1 0x1 PUSH1 0x1 PUSH1 0xA0 SHL SUB SWAP1 SWAP2 AND DUP2 MSTORE PUSH1 0x20 SWAP1 RETURN JUMPDEST CALLVALUE PUSH2 0x198 JUMPI PUSH1 0x40 CALLDATASIZE PUSH1 0x3 NOT ADD SLT PUSH2 0x198 JUMPI PUSH1 0x4 CALLDATALOAD PUSH1 0x24 CALLDATALOAD PUSH1 0x1 PUSH1 0x1 PUSH1 0x40 SHL SUB DUP2 GT PUSH2 0x198 JUMPI PUSH2 0x1424 SWAP1 CALLDATASIZE SWAP1 PUSH1 0x4 ADD PUSH2 0x1C5F JUMP JUMPDEST SWAP1 PUSH1 0x4 SLOAD TIMESTAMP LT PUSH2 0x18AB JUMPI PUSH1 0x5 SLOAD TIMESTAMP GT PUSH2 0x1866 JUMPI PUSH1 0x6 SLOAD DUP2 LT ISZERO PUSH2 0x182B JUMPI PUSH2 0x144A SWAP1 PUSH2 0x1DAC JUMP JUMPDEST POP PUSH1 0x1 DUP2 ADD SWAP2 DUP3 SLOAD DUP1 ISZERO PUSH2 0x17F4 JUMPI PUSH1 0x0 NOT DUP2 ADD SWAP1 DUP2 GT PUSH2 0x17DE JUMPI DUP4 SSTORE PUSH1 0xB SLOAD PUSH1 0x1 DUP2 ADD DUP1 DUP3 GT PUSH2 0x17DE JUMPI PUSH1 0xB SSTORE PUSH1 0x20 SWAP2 PUSH1 0x40 MLOAD PUSH2 0x1487 DUP5 DUP3 PUSH2 0x1BEC JUMP JUMPDEST PUSH1 0x0 DUP2 MSTORE CALLER ISZERO PUSH2 0x17C8 JUMPI PUSH2 0x149A DUP4 PUSH2 0x236B JUMP JUMPDEST PUSH1 0x1 PUSH1 0x1 PUSH1 0xA0 SHL SUB DUP2 AND DUP1 ISZERO ISZERO SWAP2 SWAP1 DUP6 SWAP1 DUP4 PUSH2 0x1789 JUMPI JUMPDEST PUSH2 0x14BA CALLER PUSH2 0x20DF JUMP JUMPDEST DUP1 SLOAD PUSH1 0x1 ADD SWAP1 SSTORE PUSH1 0x0 DUP3 DUP2 MSTORE PUSH32 0x80BB2B638CC20BC4D0A60D66940F3AB4A00C1D7B313497CA82FB0B4AB0079302 DUP10 MSTORE PUSH1 0x40 DUP2 KECCAK256 DUP1 SLOAD PUSH1 0x1 PUSH1 0x1 PUSH1 0xA0 SHL SUB NOT AND CALLER SWAP1 DUP2 OR SWAP1 SWAP2 SSTORE SWAP2 SWAP1 PUSH32 0xDDF252AD1BE2C89B69C2B068FC378DAA952BA7F163C4A11628F55A4DF523B3EF SWAP1 DUP1 LOG4 POP PUSH2 0x1773 JUMPI CALLER EXTCODESIZE PUSH2 0x165A JUMPI JUMPDEST POP PUSH1 0x1 PUSH1 0x1 PUSH1 0xA0 SHL SUB PUSH2 0x1544 DUP4 PUSH2 0x236B JUMP JUMPDEST AND ISZERO PUSH2 0x271 JUMPI DUP2 PUSH1 0x0 MSTORE PUSH1 0xA DUP4 MSTORE PUSH1 0x40 PUSH1 0x0 KECCAK256 SWAP1 DUP1 MLOAD SWAP1 PUSH1 0x1 PUSH1 0x1 PUSH1 0x40 SHL SUB DUP3 GT PUSH2 0x96D JUMPI PUSH2 0x157D DUP3 PUSH2 0x1577 DUP6 SLOAD PUSH2 0x1CB7 JUMP JUMPDEST DUP6 PUSH2 0x1DE1 JUMP JUMPDEST DUP5 SWAP1 PUSH1 0x1F DUP4 GT PUSH1 0x1 EQ PUSH2 0x15EF JUMPI SWAP2 DUP1 PUSH2 0x15B2 SWAP3 PUSH1 0x9 SWAP8 SWAP7 SWAP6 SWAP5 PUSH1 0x0 SWAP3 PUSH2 0x15E4 JUMPI POP POP DUP2 PUSH1 0x1 SHL SWAP2 PUSH1 0x0 NOT SWAP1 PUSH1 0x3 SHL SHR NOT AND OR SWAP1 JUMP JUMPDEST SWAP1 SSTORE JUMPDEST PUSH1 0x0 MSTORE MSTORE PUSH1 0x40 PUSH1 0x0 KECCAK256 SWAP2 DUP2 DUP4 SUB PUSH2 0x15C8 JUMPI STOP JUMPDEST PUSH1 0x2 SWAP2 DUP3 SWAP2 PUSH2 0x15D7 DUP3 DUP7 PUSH2 0x1E33 JUMP JUMPDEST SLOAD PUSH1 0x1 DUP6 ADD SSTORE ADD SLOAD SWAP2 ADD SSTORE STOP JUMPDEST ADD MLOAD SWAP1 POP DUP10 DUP1 PUSH2 0x54D JUMP JUMPDEST SWAP1 PUSH1 0x1F NOT DUP4 AND SWAP2 DUP5 PUSH1 0x0 MSTORE DUP7 PUSH1 0x0 KECCAK256 SWAP3 PUSH1 0x0 JUMPDEST DUP2 DUP2 LT PUSH2 0x1643 JUMPI POP SWAP2 PUSH1 0x1 SWAP4 SWAP2 DUP6 PUSH1 0x9 SWAP10 SWAP9 SWAP8 SWAP7 SWAP5 LT PUSH2 0x162A JUMPI JUMPDEST POP POP POP DUP2 SHL ADD SWAP1 SSTORE PUSH2 0x15B5 JUMP JUMPDEST ADD MLOAD PUSH1 0x0 NOT PUSH1 0xF8 DUP5 PUSH1 0x3 SHL AND SHR NOT AND SWAP1 SSTORE DUP9 DUP1 DUP1 PUSH2 0x161D JUMP JUMPDEST SWAP3 SWAP4 DUP9 PUSH1 0x1 DUP2 SWAP3 DUP8 DUP7 ADD MLOAD DUP2 SSTORE ADD SWAP6 ADD SWAP4 ADD PUSH2 0x1602 JUMP JUMPDEST DUP4 PUSH2 0x1698 SWAP2 PUSH1 0x40 SWAP8 SWAP7 SWAP6 SWAP8 MLOAD DUP1 SWAP4 DUP2 SWAP3 PUSH4 0xA85BD01 PUSH1 0xE1 SHL DUP4 MSTORE CALLER PUSH1 0x4 DUP5 ADD MSTORE PUSH1 0x0 PUSH1 0x24 DUP5 ADD MSTORE DUP8 PUSH1 0x44 DUP5 ADD MSTORE PUSH1 0x80 PUSH1 0x64 DUP5 ADD MSTORE PUSH1 0x84 DUP4 ADD SWAP1 PUSH2 0x1B64 JUMP JUMPDEST SUB DUP2 PUSH1 0x0 CALLER GAS CALL DUP1 SWAP2 PUSH1 0x0 SWAP2 PUSH2 0x1735 JUMPI JUMPDEST POP SWAP1 PUSH2 0x16FF JUMPI DUP6 RETURNDATASIZE ISZERO PUSH2 0x16F8 JUMPI RETURNDATASIZE PUSH2 0x16C0 DUP2 PUSH2 0x1C0D JUMP JUMPDEST SWAP1 PUSH2 0x16CE PUSH1 0x40 MLOAD SWAP3 DUP4 PUSH2 0x1BEC JUMP JUMPDEST DUP2 MSTORE RETURNDATASIZE PUSH1 0x0 DUP4 DUP4 ADD RETURNDATACOPY JUMPDEST DUP1 MLOAD SWAP2 DUP3 PUSH2 0x16F5 JUMPI PUSH4 0x32505749 PUSH1 0xE1 SHL PUSH1 0x0 MSTORE CALLER PUSH1 0x4 MSTORE PUSH1 0x24 PUSH1 0x0 REVERT JUMPDEST ADD REVERT JUMPDEST PUSH1 0x60 PUSH2 0x16D8 JUMP JUMPDEST SWAP4 SWAP5 SWAP3 SWAP4 PUSH1 0x1 PUSH1 0x1 PUSH1 0xE0 SHL SUB NOT AND PUSH4 0x757A42FF PUSH1 0xE1 SHL ADD PUSH2 0x1720 JUMPI DUP6 PUSH2 0x1532 JUMP JUMPDEST PUSH4 0x32505749 PUSH1 0xE1 SHL PUSH1 0x0 MSTORE CALLER PUSH1 0x4 MSTORE PUSH1 0x24 PUSH1 0x0 REVERT JUMPDEST DUP8 DUP2 DUP2 RETURNDATASIZE DUP4 GT PUSH2 0x176C JUMPI JUMPDEST PUSH2 0x174A DUP2 DUP4 PUSH2 0x1BEC JUMP JUMPDEST DUP2 ADD SUB SLT PUSH2 0x13A5 JUMPI MLOAD SWAP1 PUSH1 0x1 PUSH1 0x1 PUSH1 0xE0 SHL SUB NOT DUP3 AND DUP3 SUB PUSH2 0x13A2 JUMPI POP DUP8 PUSH2 0x16A9 JUMP JUMPDEST POP RETURNDATASIZE PUSH2 0x1740 JUMP JUMPDEST PUSH4 0x39E35637 PUSH1 0xE1 SHL PUSH1 0x0 MSTORE PUSH1 0x0 PUSH1 0x4 MSTORE PUSH1 0x24 PUSH1 0x0 REVERT JUMPDEST PUSH1 0x0 DUP3 DUP2 MSTORE PUSH1 0x0 DUP1 MLOAD PUSH1 0x20 PUSH2 0x2414 DUP4 CODECOPY DUP2 MLOAD SWAP2 MSTORE PUSH1 0x20 MSTORE PUSH1 0x40 SWAP1 KECCAK256 DUP1 SLOAD PUSH1 0x1 PUSH1 0x1 PUSH1 0xA0 SHL SUB NOT AND SWAP1 SSTORE PUSH2 0x17BB DUP4 PUSH2 0x20DF JUMP JUMPDEST DUP1 SLOAD PUSH1 0x0 NOT ADD SWAP1 SSTORE PUSH2 0x14B1 JUMP JUMPDEST PUSH4 0x32505749 PUSH1 0xE1 SHL PUSH1 0x0 MSTORE PUSH1 0x0 PUSH1 0x4 MSTORE PUSH1 0x24 PUSH1 0x0 REVERT JUMPDEST PUSH4 0x4E487B71 PUSH1 0xE0 SHL PUSH1 0x0 MSTORE PUSH1 0x11 PUSH1 0x4 MSTORE PUSH1 0x24 PUSH1 0x0 REVERT JUMPDEST PUSH1 0x40 MLOAD PUSH3 0x461BCD PUSH1 0xE5 SHL DUP2 MSTORE PUSH1 0x20 PUSH1 0x4 DUP3 ADD MSTORE PUSH1 0xF PUSH1 0x24 DUP3 ADD MSTORE PUSH15 0x151A58DAD95D081CDBDB19081BDD5D PUSH1 0x8A SHL PUSH1 0x44 DUP3 ADD MSTORE PUSH1 0x64 SWAP1 REVERT JUMPDEST PUSH1 0x40 MLOAD PUSH3 0x461BCD PUSH1 0xE5 SHL DUP2 MSTORE PUSH1 0x20 PUSH1 0x4 DUP3 ADD MSTORE PUSH1 0x13 PUSH1 0x24 DUP3 ADD MSTORE PUSH19 0x496E76616C6964207469636B65742074797065 PUSH1 0x68 SHL PUSH1 0x44 DUP3 ADD MSTORE PUSH1 0x64 SWAP1 REVERT JUMPDEST PUSH1 0x40 MLOAD PUSH3 0x461BCD PUSH1 0xE5 SHL DUP2 MSTORE PUSH1 0x20 PUSH1 0x4 DUP3 ADD MSTORE PUSH1 0x17 PUSH1 0x24 DUP3 ADD MSTORE PUSH32 0x5469636B65742073616C6573206861766520656E646564000000000000000000 PUSH1 0x44 DUP3 ADD MSTORE PUSH1 0x64 SWAP1 REVERT JUMPDEST PUSH1 0x40 MLOAD PUSH3 0x461BCD PUSH1 0xE5 SHL DUP2 MSTORE PUSH1 0x20 PUSH1 0x4 DUP3 ADD MSTORE PUSH1 0x21 PUSH1 0x24 DUP3 ADD MSTORE PUSH32 0x5469636B65742073616C65732068617665206E6F742073746172746564207965 PUSH1 0x44 DUP3 ADD MSTORE PUSH1 0x1D PUSH1 0xFA SHL PUSH1 0x64 DUP3 ADD MSTORE PUSH1 0x84 SWAP1 REVERT JUMPDEST CALLVALUE PUSH2 0x198 JUMPI PUSH1 0x40 CALLDATASIZE PUSH1 0x3 NOT ADD SLT PUSH2 0x198 JUMPI PUSH2 0x1913 PUSH2 0x1BA5 JUMP JUMPDEST PUSH1 0x24 CALLDATALOAD PUSH2 0x191F DUP2 PUSH2 0x21C7 JUMP JUMPDEST CALLER ISZERO ISZERO DUP1 PUSH2 0x19D9 JUMPI JUMPDEST DUP1 PUSH2 0x19B5 JUMPI JUMPDEST PUSH2 0x19A0 JUMPI DUP2 SWAP1 PUSH1 0x1 PUSH1 0x1 PUSH1 0xA0 SHL SUB DUP5 DUP2 AND SWAP2 AND PUSH32 0x8C5BE1E5EBEC7D5BD14F71427D1E84F3DD0314C0F7B2291E5B200AC8C7C3B925 PUSH1 0x0 DUP1 LOG4 PUSH1 0x0 SWAP1 DUP2 MSTORE PUSH1 0x0 DUP1 MLOAD PUSH1 0x20 PUSH2 0x2414 DUP4 CODECOPY DUP2 MLOAD SWAP2 MSTORE PUSH1 0x20 MSTORE PUSH1 0x40 SWAP1 KECCAK256 DUP1 SLOAD PUSH1 0x1 PUSH1 0x1 PUSH1 0xA0 SHL SUB NOT AND PUSH1 0x1 PUSH1 0x1 PUSH1 0xA0 SHL SUB SWAP1 SWAP3 AND SWAP2 SWAP1 SWAP2 OR SWAP1 SSTORE STOP JUMPDEST PUSH4 0xA9FBF51F PUSH1 0xE0 SHL PUSH1 0x0 MSTORE CALLER PUSH1 0x4 MSTORE PUSH1 0x24 PUSH1 0x0 REVERT JUMPDEST POP PUSH2 0x19BF DUP2 PUSH2 0x2118 JUMP JUMPDEST CALLER PUSH1 0x0 SWAP1 DUP2 MSTORE PUSH1 0x20 SWAP2 SWAP1 SWAP2 MSTORE PUSH1 0x40 SWAP1 KECCAK256 SLOAD PUSH1 0xFF AND ISZERO PUSH2 0x192E JUMP JUMPDEST POP PUSH1 0x1 PUSH1 0x1 PUSH1 0xA0 SHL SUB DUP2 AND CALLER EQ ISZERO PUSH2 0x1928 JUMP JUMPDEST CALLVALUE PUSH2 0x198 JUMPI PUSH1 0x20 CALLDATASIZE PUSH1 0x3 NOT ADD SLT PUSH2 0x198 JUMPI PUSH1 0x20 PUSH2 0xF18 PUSH1 0x4 CALLDATALOAD PUSH2 0x1A0E DUP2 PUSH2 0x21C7 JUMP JUMPDEST POP PUSH1 0x0 SWAP1 DUP2 MSTORE PUSH1 0x0 DUP1 MLOAD PUSH1 0x20 PUSH2 0x2414 DUP4 CODECOPY DUP2 MLOAD SWAP2 MSTORE PUSH1 0x20 MSTORE PUSH1 0x40 SWAP1 KECCAK256 SLOAD PUSH1 0x1 PUSH1 0x1 PUSH1 0xA0 SHL SUB AND SWAP1 JUMP JUMPDEST CALLVALUE PUSH2 0x198 JUMPI PUSH1 0x0 CALLDATASIZE PUSH1 0x3 NOT ADD SLT PUSH2 0x198 JUMPI PUSH1 0x40 MLOAD PUSH1 0x0 PUSH1 0x0 DUP1 MLOAD PUSH1 0x20 PUSH2 0x23D4 DUP4 CODECOPY DUP2 MLOAD SWAP2 MSTORE SLOAD PUSH2 0x1A66 DUP2 PUSH2 0x1CB7 JUMP JUMPDEST DUP1 DUP5 MSTORE SWAP1 PUSH1 0x1 DUP2 AND SWAP1 DUP2 ISZERO PUSH2 0xDE4 JUMPI POP PUSH1 0x1 EQ PUSH2 0x1A8D JUMPI PUSH2 0x26D DUP4 PUSH2 0x259 DUP2 DUP6 SUB DUP3 PUSH2 0x1BEC JUMP JUMPDEST PUSH1 0x0 DUP1 MLOAD PUSH1 0x20 PUSH2 0x23D4 DUP4 CODECOPY DUP2 MLOAD SWAP2 MSTORE PUSH1 0x0 SWAP1 DUP2 MSTORE PUSH32 0x37C58C799B6609234B945E882912EE9AD34948A1DFAA20A97485E1A7752BBF81 SWAP4 SWAP3 POP SWAP1 JUMPDEST DUP1 DUP3 LT PUSH2 0x1ADF JUMPI POP SWAP1 SWAP2 POP DUP2 ADD PUSH1 0x20 ADD PUSH2 0x259 PUSH2 0xD68 JUMP JUMPDEST SWAP2 SWAP3 PUSH1 0x1 DUP2 PUSH1 0x20 SWAP3 SLOAD DUP4 DUP6 DUP9 ADD ADD MSTORE ADD SWAP2 ADD SWAP1 SWAP3 SWAP2 PUSH2 0x1AC7 JUMP JUMPDEST CALLVALUE PUSH2 0x198 JUMPI PUSH1 0x20 CALLDATASIZE PUSH1 0x3 NOT ADD SLT PUSH2 0x198 JUMPI PUSH1 0x4 CALLDATALOAD SWAP1 PUSH4 0xFFFFFFFF PUSH1 0xE0 SHL DUP3 AND DUP1 SWAP3 SUB PUSH2 0x198 JUMPI PUSH1 0x20 SWAP2 PUSH4 0x80AC58CD PUSH1 0xE0 SHL DUP2 EQ SWAP1 DUP2 ISZERO PUSH2 0x1B53 JUMPI JUMPDEST DUP2 ISZERO PUSH2 0x1B42 JUMPI JUMPDEST POP ISZERO ISZERO DUP2 MSTORE RETURN JUMPDEST PUSH4 0x1FFC9A7 PUSH1 0xE0 SHL EQ SWAP1 POP DUP4 PUSH2 0x1B3B JUMP JUMPDEST PUSH4 0x5B5E139F PUSH1 0xE0 SHL DUP2 EQ SWAP2 POP PUSH2 0x1B34 JUMP JUMPDEST SWAP2 SWAP1 DUP3 MLOAD SWAP3 DUP4 DUP3 MSTORE PUSH1 0x0 JUMPDEST DUP5 DUP2 LT PUSH2 0x1B90 JUMPI POP POP DUP3 PUSH1 0x0 PUSH1 0x20 DUP1 SWAP5 SWAP6 DUP5 ADD ADD MSTORE PUSH1 0x1F DUP1 NOT SWAP2 ADD AND ADD ADD SWAP1 JUMP JUMPDEST DUP1 PUSH1 0x20 DUP1 SWAP3 DUP5 ADD ADD MLOAD DUP3 DUP3 DUP7 ADD ADD MSTORE ADD PUSH2 0x1B6F JUMP JUMPDEST PUSH1 0x4 CALLDATALOAD SWAP1 PUSH1 0x1 PUSH1 0x1 PUSH1 0xA0 SHL SUB DUP3 AND DUP3 SUB PUSH2 0x198 JUMPI JUMP JUMPDEST PUSH1 0x24 CALLDATALOAD SWAP1 PUSH1 0x1 PUSH1 0x1 PUSH1 0xA0 SHL SUB DUP3 AND DUP3 SUB PUSH2 0x198 JUMPI JUMP JUMPDEST PUSH1 0x60 DUP2 ADD SWAP1 DUP2 LT PUSH1 0x1 PUSH1 0x1 PUSH1 0x40 SHL SUB DUP3 GT OR PUSH2 0x96D JUMPI PUSH1 0x40 MSTORE JUMP JUMPDEST SWAP1 PUSH1 0x1F DUP1 NOT SWAP2 ADD AND DUP2 ADD SWAP1 DUP2 LT PUSH1 0x1 PUSH1 0x1 PUSH1 0x40 SHL SUB DUP3 GT OR PUSH2 0x96D JUMPI PUSH1 0x40 MSTORE JUMP JUMPDEST PUSH1 0x1 PUSH1 0x1 PUSH1 0x40 SHL SUB DUP2 GT PUSH2 0x96D JUMPI PUSH1 0x1F ADD PUSH1 0x1F NOT AND PUSH1 0x20 ADD SWAP1 JUMP JUMPDEST SWAP3 SWAP2 SWAP3 PUSH2 0x1C34 DUP3 PUSH2 0x1C0D JUMP JUMPDEST SWAP2 PUSH2 0x1C42 PUSH1 0x40 MLOAD SWAP4 DUP5 PUSH2 0x1BEC JUMP JUMPDEST DUP3 SWAP5 DUP2 DUP5 MSTORE DUP2 DUP4 ADD GT PUSH2 0x198 JUMPI DUP3 DUP2 PUSH1 0x20 SWAP4 DUP5 PUSH1 0x0 SWAP7 ADD CALLDATACOPY ADD ADD MSTORE JUMP JUMPDEST SWAP1 DUP1 PUSH1 0x1F DUP4 ADD SLT ISZERO PUSH2 0x198 JUMPI DUP2 PUSH1 0x20 PUSH2 0x1C7A SWAP4 CALLDATALOAD SWAP2 ADD PUSH2 0x1C28 JUMP JUMPDEST SWAP1 JUMP JUMPDEST PUSH1 0x60 SWAP1 PUSH1 0x3 NOT ADD SLT PUSH2 0x198 JUMPI PUSH1 0x4 CALLDATALOAD PUSH1 0x1 PUSH1 0x1 PUSH1 0xA0 SHL SUB DUP2 AND DUP2 SUB PUSH2 0x198 JUMPI SWAP1 PUSH1 0x24 CALLDATALOAD PUSH1 0x1 PUSH1 0x1 PUSH1 0xA0 SHL SUB DUP2 AND DUP2 SUB PUSH2 0x198 JUMPI SWAP1 PUSH1 0x44 CALLDATALOAD SWAP1 JUMP JUMPDEST SWAP1 PUSH1 0x1 DUP3 DUP2 SHR SWAP3 AND DUP1 ISZERO PUSH2 0x1CE7 JUMPI JUMPDEST PUSH1 0x20 DUP4 LT EQ PUSH2 0x1CD1 JUMPI JUMP JUMPDEST PUSH4 0x4E487B71 PUSH1 0xE0 SHL PUSH1 0x0 MSTORE PUSH1 0x22 PUSH1 0x4 MSTORE PUSH1 0x24 PUSH1 0x0 REVERT JUMPDEST SWAP2 PUSH1 0x7F AND SWAP2 PUSH2 0x1CC6 JUMP JUMPDEST SWAP1 PUSH1 0x40 MLOAD SWAP2 DUP3 PUSH1 0x0 DUP3 SLOAD SWAP3 PUSH2 0x1D05 DUP5 PUSH2 0x1CB7 JUMP JUMPDEST DUP1 DUP5 MSTORE SWAP4 PUSH1 0x1 DUP2 AND SWAP1 DUP2 ISZERO PUSH2 0x1D73 JUMPI POP PUSH1 0x1 EQ PUSH2 0x1D2C JUMPI JUMPDEST POP PUSH2 0x1D2A SWAP3 POP SUB DUP4 PUSH2 0x1BEC JUMP JUMPDEST JUMP JUMPDEST SWAP1 POP PUSH1 0x0 SWAP3 SWAP2 SWAP3 MSTORE PUSH1 0x20 PUSH1 0x0 KECCAK256 SWAP1 PUSH1 0x0 SWAP2 JUMPDEST DUP2 DUP4 LT PUSH2 0x1D57 JUMPI POP POP SWAP1 PUSH1 0x20 PUSH2 0x1D2A SWAP3 DUP3 ADD ADD CODESIZE PUSH2 0x1D1D JUMP JUMPDEST PUSH1 0x20 SWAP2 SWAP4 POP DUP1 PUSH1 0x1 SWAP2 SLOAD DUP4 DUP6 DUP10 ADD ADD MSTORE ADD SWAP2 ADD SWAP1 SWAP2 DUP5 SWAP3 PUSH2 0x1D3E JUMP JUMPDEST SWAP1 POP PUSH1 0x20 SWAP3 POP PUSH2 0x1D2A SWAP5 SWAP2 POP PUSH1 0xFF NOT AND DUP3 DUP5 ADD MSTORE ISZERO ISZERO PUSH1 0x5 SHL DUP3 ADD ADD CODESIZE PUSH2 0x1D1D JUMP JUMPDEST PUSH1 0x1 PUSH1 0x1 PUSH1 0x40 SHL SUB DUP2 GT PUSH2 0x96D JUMPI PUSH1 0x5 SHL PUSH1 0x20 ADD SWAP1 JUMP JUMPDEST PUSH1 0x6 SLOAD DUP2 LT ISZERO PUSH2 0x1DCB JUMPI PUSH1 0x6 PUSH1 0x0 MSTORE PUSH1 0x3 PUSH1 0x20 PUSH1 0x0 KECCAK256 SWAP2 MUL ADD SWAP1 PUSH1 0x0 SWAP1 JUMP JUMPDEST PUSH4 0x4E487B71 PUSH1 0xE0 SHL PUSH1 0x0 MSTORE PUSH1 0x32 PUSH1 0x4 MSTORE PUSH1 0x24 PUSH1 0x0 REVERT JUMPDEST PUSH1 0x1F DUP3 GT PUSH2 0x1DEE JUMPI POP POP POP JUMP JUMPDEST PUSH1 0x0 MSTORE PUSH1 0x20 PUSH1 0x0 KECCAK256 SWAP1 PUSH1 0x20 PUSH1 0x1F DUP5 ADD PUSH1 0x5 SHR DUP4 ADD SWAP4 LT PUSH2 0x1E29 JUMPI JUMPDEST PUSH1 0x1F ADD PUSH1 0x5 SHR ADD SWAP1 JUMPDEST DUP2 DUP2 LT PUSH2 0x1E1D JUMPI POP POP JUMP JUMPDEST PUSH1 0x0 DUP2 SSTORE PUSH1 0x1 ADD PUSH2 0x1E12 JUMP JUMPDEST SWAP1 SWAP2 POP DUP2 SWAP1 PUSH2 0x1E09 JUMP JUMPDEST SWAP2 SWAP1 SWAP2 DUP3 DUP2 EQ PUSH2 0x1F10 JUMPI PUSH2 0x1E47 DUP4 SLOAD PUSH2 0x1CB7 JUMP JUMPDEST PUSH1 0x1 PUSH1 0x1 PUSH1 0x40 SHL SUB DUP2 GT PUSH2 0x96D JUMPI PUSH2 0x1E69 DUP2 PUSH2 0x1E63 DUP5 SLOAD PUSH2 0x1CB7 JUMP JUMPDEST DUP5 PUSH2 0x1DE1 JUMP JUMPDEST PUSH1 0x0 SWAP4 PUSH1 0x1F DUP3 GT PUSH1 0x1 EQ PUSH2 0x1EAA JUMPI PUSH2 0x1E9B SWAP3 SWAP4 SWAP5 DUP3 SWAP2 PUSH1 0x0 SWAP3 PUSH2 0x1E9F JUMPI POP POP DUP2 PUSH1 0x1 SHL SWAP2 PUSH1 0x0 NOT SWAP1 PUSH1 0x3 SHL SHR NOT AND OR SWAP1 JUMP JUMPDEST SWAP1 SSTORE JUMP JUMPDEST ADD SLOAD SWAP1 POP CODESIZE DUP1 PUSH2 0x54D JUMP JUMPDEST DUP5 MSTORE PUSH1 0x20 DUP1 DUP6 KECCAK256 DUP4 DUP7 MSTORE SWAP1 DUP6 KECCAK256 SWAP1 SWAP5 PUSH1 0x1F NOT DUP4 AND DUP2 JUMPDEST DUP2 DUP2 LT PUSH2 0x1EF8 JUMPI POP SWAP6 DUP4 PUSH1 0x1 SWAP6 SWAP7 SWAP8 LT PUSH2 0x1EDF JUMPI JUMPDEST POP POP POP DUP2 SHL ADD SWAP1 SSTORE JUMP JUMPDEST ADD SLOAD PUSH1 0x0 NOT PUSH1 0xF8 DUP5 PUSH1 0x3 SHL AND SHR NOT AND SWAP1 SSTORE CODESIZE DUP1 DUP1 PUSH2 0x1ED5 JUMP JUMPDEST SWAP2 SWAP3 PUSH1 0x1 DUP1 PUSH1 0x20 SWAP3 DUP7 DUP12 ADD SLOAD DUP2 SSTORE ADD SWAP5 ADD SWAP3 ADD PUSH2 0x1EC0 JUMP JUMPDEST POP SWAP1 POP JUMP JUMPDEST SWAP1 SWAP3 SWAP2 SWAP1 PUSH1 0x1 PUSH1 0x1 PUSH1 0xA0 SHL SUB DUP5 AND DUP1 ISZERO PUSH2 0x17C8 JUMPI PUSH1 0x0 SWAP5 PUSH2 0x1F35 DUP5 PUSH2 0x236B JUMP JUMPDEST SWAP6 CALLER ISZERO ISZERO DUP1 PUSH2 0x2033 JUMPI JUMPDEST POP SWAP2 DUP5 SWAP2 PUSH32 0xDDF252AD1BE2C89B69C2B068FC378DAA952BA7F163C4A11628F55A4DF523B3EF PUSH2 0x1F80 SWAP8 SWAP9 SWAP5 PUSH1 0x1 DUP1 PUSH1 0xA0 SHL SUB DUP7 AND SWAP9 DUP10 SWAP4 DUP5 PUSH2 0x1FF4 JUMPI PUSH2 0x20DF JUMP JUMPDEST DUP1 SLOAD PUSH1 0x1 ADD SWAP1 SSTORE DUP5 DUP2 MSTORE PUSH32 0x80BB2B638CC20BC4D0A60D66940F3AB4A00C1D7B313497CA82FB0B4AB0079302 PUSH1 0x20 MSTORE PUSH1 0x40 DUP2 KECCAK256 DUP1 SLOAD PUSH1 0x1 PUSH1 0x1 PUSH1 0xA0 SHL SUB NOT AND DUP6 OR SWAP1 SSTORE DUP1 LOG4 POP PUSH1 0x1 PUSH1 0x1 PUSH1 0xA0 SHL SUB AND DUP1 DUP4 SUB PUSH2 0x1FDA JUMPI POP POP POP JUMP JUMPDEST PUSH4 0x64283D7B PUSH1 0xE0 SHL PUSH1 0x0 MSTORE PUSH1 0x4 MSTORE PUSH1 0x24 MSTORE PUSH1 0x44 MSTORE PUSH1 0x64 PUSH1 0x0 REVERT JUMPDEST PUSH1 0x0 DUP8 DUP2 MSTORE PUSH1 0x0 DUP1 MLOAD PUSH1 0x20 PUSH2 0x2414 DUP4 CODECOPY DUP2 MLOAD SWAP2 MSTORE PUSH1 0x20 MSTORE PUSH1 0x40 SWAP1 KECCAK256 DUP1 SLOAD PUSH1 0x1 PUSH1 0x1 PUSH1 0xA0 SHL SUB NOT AND SWAP1 SSTORE PUSH2 0x2026 DUP9 PUSH2 0x20DF JUMP JUMPDEST DUP1 SLOAD PUSH1 0x0 NOT ADD SWAP1 SSTORE PUSH2 0x20DF JUMP JUMPDEST DUP1 PUSH2 0x207C JUMPI JUMPDEST ISZERO PUSH2 0x2044 JUMPI CODESIZE PUSH2 0x1F3F JUMP JUMPDEST DUP5 SWAP1 PUSH1 0x1 PUSH1 0x1 PUSH1 0xA0 SHL SUB DUP9 AND PUSH2 0x2066 JUMPI PUSH1 0x24 SWAP2 PUSH4 0x7E273289 PUSH1 0xE0 SHL DUP3 MSTORE PUSH1 0x4 MSTORE REVERT JUMPDEST PUSH1 0x44 SWAP2 PUSH4 0x177E802F PUSH1 0xE0 SHL DUP3 MSTORE CALLER PUSH1 0x4 MSTORE PUSH1 0x24 MSTORE REVERT JUMPDEST POP PUSH1 0x1 PUSH1 0x1 PUSH1 0xA0 SHL SUB DUP8 AND CALLER EQ DUP1 ISZERO PUSH2 0x20C2 JUMPI JUMPDEST DUP1 PUSH2 0x2039 JUMPI POP PUSH1 0x0 DUP6 DUP2 MSTORE PUSH1 0x0 DUP1 MLOAD PUSH1 0x20 PUSH2 0x2414 DUP4 CODECOPY DUP2 MLOAD SWAP2 MSTORE PUSH1 0x20 MSTORE PUSH1 0x40 SWAP1 KECCAK256 SLOAD PUSH1 0x1 PUSH1 0x1 PUSH1 0xA0 SHL SUB AND CALLER EQ PUSH2 0x2039 JUMP JUMPDEST POP PUSH2 0x20CC DUP8 PUSH2 0x2118 JUMP JUMPDEST CALLER DUP3 MSTORE PUSH1 0x20 MSTORE PUSH1 0x40 DUP2 KECCAK256 SLOAD PUSH1 0xFF AND PUSH2 0x2090 JUMP JUMPDEST PUSH1 0x1 PUSH1 0x1 PUSH1 0xA0 SHL SUB AND PUSH1 0x0 SWAP1 DUP2 MSTORE PUSH32 0x80BB2B638CC20BC4D0A60D66940F3AB4A00C1D7B313497CA82FB0B4AB0079303 PUSH1 0x20 MSTORE PUSH1 0x40 SWAP1 KECCAK256 SWAP1 JUMP JUMPDEST PUSH1 0x1 PUSH1 0x1 PUSH1 0xA0 SHL SUB AND PUSH1 0x0 SWAP1 DUP2 MSTORE PUSH32 0x80BB2B638CC20BC4D0A60D66940F3AB4A00C1D7B313497CA82FB0B4AB0079305 PUSH1 0x20 MSTORE PUSH1 0x40 SWAP1 KECCAK256 SWAP1 JUMP JUMPDEST PUSH1 0x1 PUSH1 0x1 PUSH1 0xA0 SHL SUB AND DUP1 ISZERO PUSH2 0x21B1 JUMPI PUSH1 0x0 DUP1 MLOAD PUSH1 0x20 PUSH2 0x23F4 DUP4 CODECOPY DUP2 MLOAD SWAP2 MSTORE DUP1 SLOAD PUSH1 0x1 PUSH1 0x1 PUSH1 0xA0 SHL SUB NOT DUP2 AND DUP4 OR SWAP1 SWAP2 SSTORE PUSH1 0x1 PUSH1 0x1 PUSH1 0xA0 SHL SUB AND PUSH32 0x8BE0079C531659141344CD1FD0A4F28419497F9722A3DAAFE3B4186F6B6457E0 PUSH1 0x0 DUP1 LOG3 JUMP JUMPDEST PUSH4 0x1E4FBDF7 PUSH1 0xE0 SHL PUSH1 0x0 MSTORE PUSH1 0x0 PUSH1 0x4 MSTORE PUSH1 0x24 PUSH1 0x0 REVERT JUMPDEST PUSH2 0x21D0 DUP2 PUSH2 0x236B JUMP JUMPDEST SWAP1 PUSH1 0x1 PUSH1 0x1 PUSH1 0xA0 SHL SUB DUP3 AND ISZERO PUSH2 0x21E4 JUMPI POP SWAP1 JUMP JUMPDEST PUSH4 0x7E273289 PUSH1 0xE0 SHL PUSH1 0x0 MSTORE PUSH1 0x4 MSTORE PUSH1 0x24 PUSH1 0x0 REVERT JUMPDEST PUSH1 0x0 DUP1 MLOAD PUSH1 0x20 PUSH2 0x23F4 DUP4 CODECOPY DUP2 MLOAD SWAP2 MSTORE SLOAD PUSH1 0x1 PUSH1 0x1 PUSH1 0xA0 SHL SUB AND CALLER SUB PUSH2 0x2219 JUMPI JUMP JUMPDEST PUSH4 0x118CDAA7 PUSH1 0xE0 SHL PUSH1 0x0 MSTORE CALLER PUSH1 0x4 MSTORE PUSH1 0x24 PUSH1 0x0 REVERT JUMPDEST DUP3 EXTCODESIZE PUSH2 0x223C JUMPI JUMPDEST POP POP POP POP POP JUMP JUMPDEST PUSH1 0x40 MLOAD PUSH4 0xA85BD01 PUSH1 0xE1 SHL DUP2 MSTORE PUSH1 0x1 PUSH1 0x1 PUSH1 0xA0 SHL SUB SWAP2 DUP3 AND PUSH1 0x4 DUP3 ADD MSTORE SWAP2 DUP2 AND PUSH1 0x24 DUP4 ADD MSTORE PUSH1 0x44 DUP3 ADD SWAP4 SWAP1 SWAP4 MSTORE PUSH1 0x80 PUSH1 0x64 DUP3 ADD MSTORE SWAP2 AND SWAP2 PUSH1 0x20 SWAP1 DUP3 SWAP1 DUP2 SWAP1 PUSH2 0x2288 SWAP1 PUSH1 0x84 DUP4 ADD SWAP1 PUSH2 0x1B64 JUMP JUMPDEST SUB DUP2 PUSH1 0x0 DUP7 GAS CALL DUP1 SWAP2 PUSH1 0x0 SWAP2 PUSH2 0x2328 JUMPI JUMPDEST POP SWAP1 PUSH2 0x22F2 JUMPI POP RETURNDATASIZE ISZERO PUSH2 0x22EB JUMPI RETURNDATASIZE PUSH2 0x22B0 DUP2 PUSH2 0x1C0D JUMP JUMPDEST SWAP1 PUSH2 0x22BE PUSH1 0x40 MLOAD SWAP3 DUP4 PUSH2 0x1BEC JUMP JUMPDEST DUP2 MSTORE RETURNDATASIZE PUSH1 0x0 PUSH1 0x20 DUP4 ADD RETURNDATACOPY JUMPDEST DUP1 MLOAD SWAP1 DUP2 PUSH2 0x22E6 JUMPI DUP3 PUSH4 0x32505749 PUSH1 0xE1 SHL PUSH1 0x0 MSTORE PUSH1 0x4 MSTORE PUSH1 0x24 PUSH1 0x0 REVERT JUMPDEST PUSH1 0x20 ADD REVERT JUMPDEST PUSH1 0x60 PUSH2 0x22C9 JUMP JUMPDEST PUSH1 0x1 PUSH1 0x1 PUSH1 0xE0 SHL SUB NOT AND PUSH4 0x757A42FF PUSH1 0xE1 SHL ADD PUSH2 0x2314 JUMPI POP CODESIZE DUP1 DUP1 DUP1 DUP1 PUSH2 0x2235 JUMP JUMPDEST PUSH4 0x32505749 PUSH1 0xE1 SHL PUSH1 0x0 MSTORE PUSH1 0x4 MSTORE PUSH1 0x24 PUSH1 0x0 REVERT JUMPDEST PUSH1 0x20 DUP2 RETURNDATASIZE PUSH1 0x20 GT PUSH2 0x2363 JUMPI JUMPDEST DUP2 PUSH2 0x2341 PUSH1 0x20 SWAP4 DUP4 PUSH2 0x1BEC JUMP JUMPDEST DUP2 ADD SUB SLT PUSH2 0x13A5 JUMPI MLOAD SWAP1 PUSH1 0x1 PUSH1 0x1 PUSH1 0xE0 SHL SUB NOT DUP3 AND DUP3 SUB PUSH2 0x13A2 JUMPI POP CODESIZE PUSH2 0x2299 JUMP JUMPDEST RETURNDATASIZE SWAP2 POP PUSH2 0x2334 JUMP JUMPDEST PUSH1 0x0 SWAP1 DUP2 MSTORE PUSH32 0x80BB2B638CC20BC4D0A60D66940F3AB4A00C1D7B313497CA82FB0B4AB0079302 PUSH1 0x20 MSTORE PUSH1 0x40 SWAP1 KECCAK256 SLOAD PUSH1 0x1 PUSH1 0x1 PUSH1 0xA0 SHL SUB AND SWAP1 JUMP JUMPDEST PUSH1 0xFF PUSH1 0x0 DUP1 MLOAD PUSH1 0x20 PUSH2 0x2434 DUP4 CODECOPY DUP2 MLOAD SWAP2 MSTORE SLOAD PUSH1 0x40 SHR AND ISZERO PUSH2 0x23C2 JUMPI JUMP JUMPDEST PUSH4 0x1AFCD79F PUSH1 0xE3 SHL PUSH1 0x0 MSTORE PUSH1 0x4 PUSH1 0x0 REVERT INVALID DUP1 0xBB 0x2B PUSH4 0x8CC20BC4 0xD0 0xA6 0xD PUSH7 0x940F3AB4A00C1D PUSH28 0x313497CA82FB0B4AB00793009016D09D72D40FDAE2FD8CEAC6B6234C PUSH24 0x6214FD39C1CD1E609A0528C19930080BB2B638CC20BC4D0 0xA6 0xD PUSH7 0x940F3AB4A00C1D PUSH28 0x313497CA82FB0B4AB0079304F0C57E16840DF040F15088DC2F81FE39 SHR CODECOPY 0x23 0xBE 0xC7 RETURNDATACOPY 0x23 0xA9 PUSH7 0x2EFC9C229C6A00 DUP1 0xBB 0x2B PUSH4 0x8CC20BC4 0xD0 0xA6 0xD PUSH7 0x940F3AB4A00C1D PUSH28 0x313497CA82FB0B4AB0079301A26469706673582212206552B3F64BD2 0xCB 0xE1 PUSH19 0x61E3DA47A7378865EA6CF91975799410D90CBE SHL 0xC4 SHL PUSH29 0x64736F6C634300081A00339016D09D72D40FDAE2FD8CEAC6B6234C7706 0x21 0x4F 0xD3 SWAP13 SHR 0xD1 0xE6 MULMOD LOG0 MSTORE DUP13 NOT SWAP4 STOP CREATE 0xC5 PUSH31 0x16840DF040F15088DC2F81FE391C3923BEC73E23A9662EFC9C229C6A00A264 PUSH10 0x70667358221220B17E94 DUP10 0xC5 PUSH22 0xFB9A3B6CA7263DE2DCBC0BE2FB53E48F4F486D96F453 PUSH3 0x3101D6 PUSH5 0x736F6C6343 STOP ADDMOD BYTE STOP CALLER "},"methodIdentifiers":{"acceptOffers(uint256,address)":"7cde1202","approveContract(address)":"07f7aafb","approvedContracts(address)":"26749ad7","buyNft(uint256,address,address)":"72a43b9c","contractAddresses(uint256)":"3263b545","contractCount()":"8736381a","contractOwner()":"ce606ee0","createOffer(uint256,uint256,uint256,address)":"4370fb34","currentOffer()":"fa4e28f6","deployNewCollection(string,string,string,uint256,uint256,uint256,uint256,(string,uint256,uint256)[],address,address)":"0fe9a094","deploymentFee()":"f2cff57f","fundsWallet()":"2194f3a2","getNftDetails(address)":"22d868cb","getOfferDetails(address)":"aa4b27a8","initialize()":"8129fc1c","initialize(address,address)":"485cc955","listNft(uint256,uint256,address,address)":"a0aa5cca","onERC721Received(address,address,uint256,bytes)":"150b7a02","owner()":"8da5cb5b","rejectOffer(uint256,address)":"db9371c2","renounceOwnership()":"715018a6","revokeContract(address)":"cc2e3ee1","setDeploymentFee(uint256)":"d002462b","setFundsWallet(address)":"64e39b87","setServiceFees(uint8)":"f24639c6","setTokenAddress(address)":"26a4e8d2","tokenAddress()":"9d76ea58","transferOwnership(address)":"f2fde38b","unListNft(uint256)":"ab67b236"}},"storageLayout":{"storage":[{"astId":8509,"contract":"contracts/Natrium-Nft-Marketplace.sol:NatirumMarketplace","label":"contractOwner","offset":0,"slot":"0","type":"t_address"},{"astId":3431,"contract":"contracts/Natrium-Nft-Marketplace.sol:NatirumMarketplace","label":"_status","offset":0,"slot":"1","type":"t_uint256"},{"astId":7484,"contract":"contracts/Natrium-Nft-Marketplace.sol:NatirumMarketplace","label":"tokenAddress","offset":0,"slot":"2","type":"t_contract(IERC20)2436"},{"astId":7486,"contract":"contracts/Natrium-Nft-Marketplace.sol:NatirumMarketplace","label":"fundsWallet","offset":0,"slot":"3","type":"t_address"},{"astId":7488,"contract":"contracts/Natrium-Nft-Marketplace.sol:NatirumMarketplace","label":"deploymentFee","offset":0,"slot":"4","type":"t_uint256"},{"astId":7492,"contract":"contracts/Natrium-Nft-Marketplace.sol:NatirumMarketplace","label":"contractAddresses","offset":0,"slot":"5","type":"t_mapping(t_uint256,t_address)"},{"astId":7496,"contract":"contracts/Natrium-Nft-Marketplace.sol:NatirumMarketplace","label":"approvedContracts","offset":0,"slot":"6","type":"t_mapping(t_address,t_bool)"},{"astId":7498,"contract":"contracts/Natrium-Nft-Marketplace.sol:NatirumMarketplace","label":"contractCount","offset":0,"slot":"7","type":"t_uint256"},{"astId":7687,"contract":"contracts/Natrium-Nft-Marketplace.sol:NatirumMarketplace","label":"currentOffer","offset":0,"slot":"8","type":"t_enum(Offer)7684"},{"astId":7715,"contract":"contracts/Natrium-Nft-Marketplace.sol:NatirumMarketplace","label":"nftInfo","offset":0,"slot":"9","type":"t_mapping(t_address,t_struct(NftDetails)7698_storage)"},{"astId":7720,"contract":"contracts/Natrium-Nft-Marketplace.sol:NatirumMarketplace","label":"offererInfo","offset":0,"slot":"10","type":"t_mapping(t_address,t_struct(OfferDetails)7710_storage)"},{"astId":7724,"contract":"contracts/Natrium-Nft-Marketplace.sol:NatirumMarketplace","label":"trackOfferPrice","offset":0,"slot":"11","type":"t_mapping(t_address,t_uint256)"},{"astId":7726,"contract":"contracts/Natrium-Nft-Marketplace.sol:NatirumMarketplace","label":"serviceFees","offset":0,"slot":"12","type":"t_uint8"}],"types":{"t_address":{"encoding":"inplace","label":"address","numberOfBytes":"20"},"t_bool":{"encoding":"inplace","label":"bool","numberOfBytes":"1"},"t_contract(IERC20)2436":{"encoding":"inplace","label":"contract IERC20","numberOfBytes":"20"},"t_enum(Offer)7684":{"encoding":"inplace","label":"enum NatirumMarketplace.Offer","numberOfBytes":"1"},"t_mapping(t_address,t_bool)":{"encoding":"mapping","key":"t_address","label":"mapping(address => bool)","numberOfBytes":"32","value":"t_bool"},"t_mapping(t_address,t_struct(NftDetails)7698_storage)":{"encoding":"mapping","key":"t_address","label":"mapping(address => struct NatirumMarketplace.NftDetails)","numberOfBytes":"32","value":"t_struct(NftDetails)7698_storage"},"t_mapping(t_address,t_struct(OfferDetails)7710_storage)":{"encoding":"mapping","key":"t_address","label":"mapping(address => struct NatirumMarketplace.OfferDetails)","numberOfBytes":"32","value":"t_struct(OfferDetails)7710_storage"},"t_mapping(t_address,t_uint256)":{"encoding":"mapping","key":"t_address","label":"mapping(address => uint256)","numberOfBytes":"32","value":"t_uint256"},"t_mapping(t_uint256,t_address)":{"encoding":"mapping","key":"t_uint256","label":"mapping(uint256 => address)","numberOfBytes":"32","value":"t_address"},"t_struct(NftDetails)7698_storage":{"encoding":"inplace","label":"struct NatirumMarketplace.NftDetails","members":[{"astId":7689,"contract":"contracts/Natrium-Nft-Marketplace.sol:NatirumMarketplace","label":"seller","offset":0,"slot":"0","type":"t_address"},{"astId":7691,"contract":"contracts/Natrium-Nft-Marketplace.sol:NatirumMarketplace","label":"tokenID","offset":0,"slot":"1","type":"t_uint256"},{"astId":7693,"contract":"contracts/Natrium-Nft-Marketplace.sol:NatirumMarketplace","label":"hostContract","offset":0,"slot":"2","type":"t_address"},{"astId":7695,"contract":"contracts/Natrium-Nft-Marketplace.sol:NatirumMarketplace","label":"nftPrice","offset":0,"slot":"3","type":"t_uint256"},{"astId":7697,"contract":"contracts/Natrium-Nft-Marketplace.sol:NatirumMarketplace","label":"isListed","offset":0,"slot":"4","type":"t_bool"}],"numberOfBytes":"160"},"t_struct(OfferDetails)7710_storage":{"encoding":"inplace","label":"struct NatirumMarketplace.OfferDetails","members":[{"astId":7700,"contract":"contracts/Natrium-Nft-Marketplace.sol:NatirumMarketplace","label":"buyer","offset":0,"slot":"0","type":"t_address"},{"astId":7702,"contract":"contracts/Natrium-Nft-Marketplace.sol:NatirumMarketplace","label":"tokenID","offset":0,"slot":"1","type":"t_uint256"},{"astId":7704,"contract":"contracts/Natrium-Nft-Marketplace.sol:NatirumMarketplace","label":"offerPrice","offset":0,"slot":"2","type":"t_uint256"},{"astId":7706,"contract":"contracts/Natrium-Nft-Marketplace.sol:NatirumMarketplace","label":"offerExpire","offset":0,"slot":"3","type":"t_uint256"},{"astId":7709,"contract":"contracts/Natrium-Nft-Marketplace.sol:NatirumMarketplace","label":"currentOffer","offset":0,"slot":"4","type":"t_enum(Offer)7684"}],"numberOfBytes":"160"},"t_uint256":{"encoding":"inplace","label":"uint256","numberOfBytes":"32"},"t_uint8":{"encoding":"inplace","label":"uint8","numberOfBytes":"1"}}}}}}