{
  "_format": "hh-sol-artifact-1",
  "contractName": "EventTicket",
  "sourceName": "contracts/TicktingContract.sol",
  "abi": [
    {
      "inputs": [
        {
          "internalType": "address",
          "name": "sender",
          "type": "address"
        },
        {
          "internalType": "uint256",
          "name": "tokenId",
          "type": "uint256"
        },
        {
          "internalType": "address",
          "name": "owner",
          "type": "address"
        }
      ],
      "name": "ERC721IncorrectOwner",
      "type": "error"
    },
    {
      "inputs": [
        {
          "internalType": "address",
          "name": "operator",
          "type": "address"
        },
        {
          "internalType": "uint256",
          "name": "tokenId",
          "type": "uint256"
        }
      ],
      "name": "ERC721InsufficientApproval",
      "type": "error"
    },
    {
      "inputs": [
        {
          "internalType": "address",
          "name": "approver",
          "type": "address"
        }
      ],
      "name": "ERC721InvalidApprover",
      "type": "error"
    },
    {
      "inputs": [
        {
          "internalType": "address",
          "name": "operator",
          "type": "address"
        }
      ],
      "name": "ERC721InvalidOperator",
      "type": "error"
    },
    {
      "inputs": [
        {
          "internalType": "address",
          "name": "owner",
          "type": "address"
        }
      ],
      "name": "ERC721InvalidOwner",
      "type": "error"
    },
    {
      "inputs": [
        {
          "internalType": "address",
          "name": "receiver",
          "type": "address"
        }
      ],
      "name": "ERC721InvalidReceiver",
      "type": "error"
    },
    {
      "inputs": [
        {
          "internalType": "address",
          "name": "sender",
          "type": "address"
        }
      ],
      "name": "ERC721InvalidSender",
      "type": "error"
    },
    {
      "inputs": [
        {
          "internalType": "uint256",
          "name": "tokenId",
          "type": "uint256"
        }
      ],
      "name": "ERC721NonexistentToken",
      "type": "error"
    },
    {
      "inputs": [],
      "name": "InvalidInitialization",
      "type": "error"
    },
    {
      "inputs": [],
      "name": "NotInitializing",
      "type": "error"
    },
    {
      "inputs": [
        {
          "internalType": "address",
          "name": "owner",
          "type": "address"
        }
      ],
      "name": "OwnableInvalidOwner",
      "type": "error"
    },
    {
      "inputs": [
        {
          "internalType": "address",
          "name": "account",
          "type": "address"
        }
      ],
      "name": "OwnableUnauthorizedAccount",
      "type": "error"
    },
    {
      "inputs": [
        {
          "internalType": "address",
          "name": "token",
          "type": "address"
        }
      ],
      "name": "SafeERC20FailedOperation",
      "type": "error"
    },
    {
      "inputs": [],
      "name": "TokenDoesNotExist",
      "type": "error"
    },
    {
      "anonymous": false,
      "inputs": [
        {
          "indexed": true,
          "internalType": "address",
          "name": "owner",
          "type": "address"
        },
        {
          "indexed": true,
          "internalType": "address",
          "name": "approved",
          "type": "address"
        },
        {
          "indexed": true,
          "internalType": "uint256",
          "name": "tokenId",
          "type": "uint256"
        }
      ],
      "name": "Approval",
      "type": "event"
    },
    {
      "anonymous": false,
      "inputs": [
        {
          "indexed": true,
          "internalType": "address",
          "name": "owner",
          "type": "address"
        },
        {
          "indexed": true,
          "internalType": "address",
          "name": "operator",
          "type": "address"
        },
        {
          "indexed": false,
          "internalType": "bool",
          "name": "approved",
          "type": "bool"
        }
      ],
      "name": "ApprovalForAll",
      "type": "event"
    },
    {
      "anonymous": false,
      "inputs": [
        {
          "indexed": false,
          "internalType": "uint64",
          "name": "version",
          "type": "uint64"
        }
      ],
      "name": "Initialized",
      "type": "event"
    },
    {
      "anonymous": false,
      "inputs": [
        {
          "indexed": true,
          "internalType": "address",
          "name": "previousOwner",
          "type": "address"
        },
        {
          "indexed": true,
          "internalType": "address",
          "name": "newOwner",
          "type": "address"
        }
      ],
      "name": "OwnershipTransferred",
      "type": "event"
    },
    {
      "anonymous": false,
      "inputs": [
        {
          "indexed": true,
          "internalType": "address",
          "name": "from",
          "type": "address"
        },
        {
          "indexed": true,
          "internalType": "address",
          "name": "to",
          "type": "address"
        },
        {
          "indexed": true,
          "internalType": "uint256",
          "name": "tokenId",
          "type": "uint256"
        }
      ],
      "name": "Transfer",
      "type": "event"
    },
    {
      "inputs": [
        {
          "internalType": "address",
          "name": "to",
          "type": "address"
        },
        {
          "internalType": "uint256",
          "name": "tokenId",
          "type": "uint256"
        }
      ],
      "name": "approve",
      "outputs": [],
      "stateMutability": "nonpayable",
      "type": "function"
    },
    {
      "inputs": [
        {
          "internalType": "address",
          "name": "owner",
          "type": "address"
        }
      ],
      "name": "balanceOf",
      "outputs": [
        {
          "internalType": "uint256",
          "name": "",
          "type": "uint256"
        }
      ],
      "stateMutability": "view",
      "type": "function"
    },
    {
      "inputs": [],
      "name": "eventDeployer",
      "outputs": [
        {
          "internalType": "address",
          "name": "",
          "type": "address"
        }
      ],
      "stateMutability": "view",
      "type": "function"
    },
    {
      "inputs": [],
      "name": "eventDetail",
      "outputs": [
        {
          "internalType": "string",
          "name": "eventName",
          "type": "string"
        },
        {
          "internalType": "string",
          "name": "collectionUri",
          "type": "string"
        },
        {
          "internalType": "uint256",
          "name": "startDate",
          "type": "uint256"
        },
        {
          "internalType": "uint256",
          "name": "endDate",
          "type": "uint256"
        },
        {
          "internalType": "uint256",
          "name": "ticketStartBuyDate",
          "type": "uint256"
        },
        {
          "internalType": "uint256",
          "name": "ticketEndBuyDate",
          "type": "uint256"
        }
      ],
      "stateMutability": "view",
      "type": "function"
    },
    {
      "inputs": [],
      "name": "fundsWallet",
      "outputs": [
        {
          "internalType": "address",
          "name": "",
          "type": "address"
        }
      ],
      "stateMutability": "view",
      "type": "function"
    },
    {
      "inputs": [
        {
          "internalType": "uint256",
          "name": "tokenId",
          "type": "uint256"
        }
      ],
      "name": "getApproved",
      "outputs": [
        {
          "internalType": "address",
          "name": "",
          "type": "address"
        }
      ],
      "stateMutability": "view",
      "type": "function"
    },
    {
      "inputs": [],
      "name": "getTickets",
      "outputs": [
        {
          "components": [
            {
              "internalType": "string",
              "name": "ticketType",
              "type": "string"
            },
            {
              "internalType": "uint256",
              "name": "quantity",
              "type": "uint256"
            },
            {
              "internalType": "uint256",
              "name": "price",
              "type": "uint256"
            }
          ],
          "internalType": "struct EventTicket.Ticket[]",
          "name": "",
          "type": "tuple[]"
        }
      ],
      "stateMutability": "view",
      "type": "function"
    },
    {
      "inputs": [
        {
          "internalType": "string",
          "name": "name",
          "type": "string"
        },
        {
          "internalType": "string",
          "name": "symbol",
          "type": "string"
        },
        {
          "internalType": "address",
          "name": "_usdtTokenAddress",
          "type": "address"
        },
        {
          "internalType": "string",
          "name": "_eventName",
          "type": "string"
        },
        {
          "internalType": "string",
          "name": "_collectionURI",
          "type": "string"
        },
        {
          "internalType": "uint256",
          "name": "_startDate",
          "type": "uint256"
        },
        {
          "internalType": "uint256",
          "name": "_endDate",
          "type": "uint256"
        },
        {
          "internalType": "uint256",
          "name": "_ticketStartBuyDate",
          "type": "uint256"
        },
        {
          "internalType": "uint256",
          "name": "_ticketEndBuyDate",
          "type": "uint256"
        },
        {
          "components": [
            {
              "internalType": "string",
              "name": "ticketType",
              "type": "string"
            },
            {
              "internalType": "uint256",
              "name": "quantity",
              "type": "uint256"
            },
            {
              "internalType": "uint256",
              "name": "price",
              "type": "uint256"
            }
          ],
          "internalType": "struct EventTicket.Ticket[]",
          "name": "_tickets",
          "type": "tuple[]"
        },
        {
          "internalType": "address",
          "name": "_fundsWallet",
          "type": "address"
        },
        {
          "internalType": "address",
          "name": "_owner",
          "type": "address"
        },
        {
          "internalType": "address",
          "name": "_eventDeployer",
          "type": "address"
        }
      ],
      "name": "initialize",
      "outputs": [],
      "stateMutability": "nonpayable",
      "type": "function"
    },
    {
      "inputs": [
        {
          "internalType": "address",
          "name": "owner",
          "type": "address"
        },
        {
          "internalType": "address",
          "name": "operator",
          "type": "address"
        }
      ],
      "name": "isApprovedForAll",
      "outputs": [
        {
          "internalType": "bool",
          "name": "",
          "type": "bool"
        }
      ],
      "stateMutability": "view",
      "type": "function"
    },
    {
      "inputs": [
        {
          "internalType": "uint256",
          "name": "ticketIndex",
          "type": "uint256"
        },
        {
          "internalType": "string",
          "name": "_tokenURI",
          "type": "string"
        }
      ],
      "name": "mintTicket",
      "outputs": [],
      "stateMutability": "nonpayable",
      "type": "function"
    },
    {
      "inputs": [],
      "name": "name",
      "outputs": [
        {
          "internalType": "string",
          "name": "",
          "type": "string"
        }
      ],
      "stateMutability": "view",
      "type": "function"
    },
    {
      "inputs": [],
      "name": "owner",
      "outputs": [
        {
          "internalType": "address",
          "name": "",
          "type": "address"
        }
      ],
      "stateMutability": "view",
      "type": "function"
    },
    {
      "inputs": [
        {
          "internalType": "uint256",
          "name": "tokenId",
          "type": "uint256"
        }
      ],
      "name": "ownerOf",
      "outputs": [
        {
          "internalType": "address",
          "name": "",
          "type": "address"
        }
      ],
      "stateMutability": "view",
      "type": "function"
    },
    {
      "inputs": [],
      "name": "renounceOwnership",
      "outputs": [],
      "stateMutability": "nonpayable",
      "type": "function"
    },
    {
      "inputs": [
        {
          "internalType": "address",
          "name": "from",
          "type": "address"
        },
        {
          "internalType": "address",
          "name": "to",
          "type": "address"
        },
        {
          "internalType": "uint256",
          "name": "tokenId",
          "type": "uint256"
        }
      ],
      "name": "safeTransferFrom",
      "outputs": [],
      "stateMutability": "nonpayable",
      "type": "function"
    },
    {
      "inputs": [
        {
          "internalType": "address",
          "name": "from",
          "type": "address"
        },
        {
          "internalType": "address",
          "name": "to",
          "type": "address"
        },
        {
          "internalType": "uint256",
          "name": "tokenId",
          "type": "uint256"
        },
        {
          "internalType": "bytes",
          "name": "data",
          "type": "bytes"
        }
      ],
      "name": "safeTransferFrom",
      "outputs": [],
      "stateMutability": "nonpayable",
      "type": "function"
    },
    {
      "inputs": [
        {
          "internalType": "address",
          "name": "operator",
          "type": "address"
        },
        {
          "internalType": "bool",
          "name": "approved",
          "type": "bool"
        }
      ],
      "name": "setApprovalForAll",
      "outputs": [],
      "stateMutability": "nonpayable",
      "type": "function"
    },
    {
      "inputs": [
        {
          "internalType": "address",
          "name": "_eventDeployer",
          "type": "address"
        }
      ],
      "name": "setEventDeployer",
      "outputs": [],
      "stateMutability": "nonpayable",
      "type": "function"
    },
    {
      "inputs": [
        {
          "internalType": "bytes4",
          "name": "interfaceId",
          "type": "bytes4"
        }
      ],
      "name": "supportsInterface",
      "outputs": [
        {
          "internalType": "bool",
          "name": "",
          "type": "bool"
        }
      ],
      "stateMutability": "view",
      "type": "function"
    },
    {
      "inputs": [],
      "name": "symbol",
      "outputs": [
        {
          "internalType": "string",
          "name": "",
          "type": "string"
        }
      ],
      "stateMutability": "view",
      "type": "function"
    },
    {
      "inputs": [
        {
          "internalType": "uint256",
          "name": "",
          "type": "uint256"
        }
      ],
      "name": "ticketInfo",
      "outputs": [
        {
          "internalType": "string",
          "name": "ticketType",
          "type": "string"
        },
        {
          "internalType": "uint256",
          "name": "quantity",
          "type": "uint256"
        },
        {
          "internalType": "uint256",
          "name": "price",
          "type": "uint256"
        }
      ],
      "stateMutability": "view",
      "type": "function"
    },
    {
      "inputs": [
        {
          "internalType": "uint256",
          "name": "tokenId",
          "type": "uint256"
        }
      ],
      "name": "tokenURI",
      "outputs": [
        {
          "internalType": "string",
          "name": "",
          "type": "string"
        }
      ],
      "stateMutability": "view",
      "type": "function"
    },
    {
      "inputs": [
        {
          "internalType": "address",
          "name": "from",
          "type": "address"
        },
        {
          "internalType": "address",
          "name": "to",
          "type": "address"
        },
        {
          "internalType": "uint256",
          "name": "tokenId",
          "type": "uint256"
        }
      ],
      "name": "transferFrom",
      "outputs": [],
      "stateMutability": "nonpayable",
      "type": "function"
    },
    {
      "inputs": [
        {
          "internalType": "address",
          "name": "newOwner",
          "type": "address"
        }
      ],
      "name": "transferOwnership",
      "outputs": [],
      "stateMutability": "nonpayable",
      "type": "function"
    },
    {
      "inputs": [],
      "name": "usdtToken",
      "outputs": [
        {
          "internalType": "contract IERC20",
          "name": "",
          "type": "address"
        }
      ],
      "stateMutability": "view",
      "type": "function"
    },
    {
      "inputs": [],
      "name": "withdrawFunds",
      "outputs": [],
      "stateMutability": "nonpayable",
      "type": "function"
    }
  ],
  "bytecode": "0x608080604052346015576126e9908161001b8239f35b600080fdfe608080604052600436101561001357600080fd5b60003560e01c90816301ffc9a714611d395750806306fdde0314611c77578063081812fc14611c2c578063095ea7b314611b3a57806319e2a211146116315780632194f3a21461160857806323b872dd146115f157806324600fc3146113c857806324b0512814610949578063321db7261461077e57806342842e0e1461074e5780634ed02622146106275780636352211e146105f757806370a08231146105a5578063715018a61461053b5780638da5cb5b1461050557806395d89b411461041e5780639dec65ed146103f5578063a22cb46514610359578063a98ad46c14610330578063b88d4fde146102c5578063bda9060414610282578063c87b56dd14610216578063e985e9c5146101c8578063f2fde38b1461019d5763fa7130831461013d57600080fd5b3461019857602036600319011261019857600435600052600a602052610189604060002061016a81611f48565b9060026001820154910154604051938493606085526060850190611da4565b91602084015260408301520390f35b600080fd5b34610198576020366003190112610198576101c66101b9611de5565b6101c1612438565b612391565b005b34610198576040366003190112610198576101e1611de5565b6101f26101ec611dfb565b91612358565b9060018060a01b0316600052602052602060ff604060002054166040519015158152f35b34610198576020366003190112610198576004356001600160a01b0361023b826125ab565b161561027157600052600b60205261026d6102596040600020611f48565b604051918291602083526020830190611da4565b0390f35b63677510db60e11b60005260046000fd5b346101985760203660031901126101985761029b611de5565b6102a3612438565b600080546001600160a01b0319166001600160a01b0392909216919091179055005b34610198576080366003190112610198576102de611de5565b6102e6611dfb565b90604435606435926001600160401b03841161019857366023850112156101985761031e6101c6943690602481600401359101611e68565b9261032a838383612155565b3361246e565b34610198576000366003190112610198576008546040516001600160a01b039091168152602090f35b3461019857604036600319011261019857610372611de5565b60243590811515809203610198576001600160a01b03169081156103e05761039933612358565b82600052602052604060002060ff1981541660ff83161790556040519081527f17307eab39ab6107e8899845ad3d59bd9653f200f220920489ca2b5937696c3160203392a3005b50630b61174360e31b60005260045260246000fd5b34610198576000366003190112610198576000546040516001600160a01b039091168152602090f35b346101985760003660031901126101985760405160006000805160206126948339815191525461044d81611f0e565b80845290600181169081156104e15750600114610475575b61026d8361025981850382611e2c565b60008051602061269483398151915260009081527ff4bad0a69248f59680a4f2b3000328cec71a413447c96781cfe5996daa8c456e939250905b8082106104c757509091508101602001610259610465565b9192600181602092548385880101520191019092916104af565b60ff191660208086019190915291151560051b840190910191506102599050610465565b3461019857600036600319011261019857600080516020612634833981519152546040516001600160a01b039091168152602090f35b3461019857600036600319011261019857610554612438565b60008051602061263483398151915280546001600160a01b031981169091556000906001600160a01b03167f8be0079c531659141344cd1fd0a4f28419497f9722a3daafe3b4186f6b6457e08280a3005b34610198576020366003190112610198576105be611de5565b6001600160a01b038116156105e1576105d860209161231f565b54604051908152f35b6322718ad960e21b600052600060045260246000fd5b34610198576020366003190112610198576020610615600435612407565b6040516001600160a01b039091168152f35b346101985760003660031901126101985760075461064481611ef7565b906106526040519283611e2c565b80825260208201908160076000527fa66cc928b5edb82af9bd49922954155ab7b0942694bea4ce44661d9a8736c6886000915b83831061071057848660405191829160208301906020845251809152604083019060408160051b85010192916000905b8282106106c457505050500390f35b919360019193955060208091603f198982030185528751906040806106f28451606085526060850190611da4565b938581015186850152015191015296019201920185949391926106b5565b6003602060019260405161072381611e11565b61072c86611f48565b8152848601548382015260028601546040820152815201920192019190610685565b34610198576101c661075f36611ebd565b906040519261076f602085611e2c565b6000845261032a838383612155565b34610198576000366003190112610198576040516001548160006107a183611f0e565b808352926001811690811561092a57506001146108ca575b6107c592500382611e2c565b604051906000916002546107d881611f0e565b80835290600181169081156108a6575060011461084d575b5061080081610826940382611e2c565b60035490600454600554906108346006549360405197889760c0895260c0890190611da4565b908782036020890152611da4565b9360408601526060850152608084015260a08301520390f35b600260009081529093507f405787fa12a823e0f2b7631cc41b3ba8828b3321ca811111fa75cd3aa3bb5ace5b8482106108905750810160200192506108006107f0565b6001816020925483858701015201910190610879565b60ff191660208085019190915291151560051b8301909101935061080090506107f0565b506001600090815290917fb10e2d527612073b26eecdfd717e6a320cf44b4afac2b0732d9fcbe2b7fa0cf65b81831061090e5750509060206107c5928201016107b9565b60209193508060019154838588010152019101909183926108f6565b602092506107c594915060ff191682840152151560051b8201016107b9565b34610198576101a0366003190112610198576004356001600160401b0381116101985761097a903690600401611e9f565b6024356001600160401b03811161019857610999903690600401611e9f565b6044356001600160a01b0381169190829003610198576064356001600160401b038111610198576109ce903690600401611e9f565b926084356001600160401b038111610198576109ee903690600401611e9f565b9261012435926001600160401b0384116101985736602385011215610198578360040135610a1b81611ef7565b94610a296040519687611e2c565b8186526024602087019260051b820101903682116101985760248101925b82841061135357505050610144356001600160a01b03811693915083900361019857610164356001600160a01b038116810361019857610184356001600160a01b038116939084900361019857600080516020612674833981519152549560ff8760401c1615966001600160401b0381168015908161134b575b6001149081611341575b159081611338575b506113275767ffffffffffffffff19811660011760008051602061267483398151915255876112fa575b50610b066125e5565b610b0e6125e5565b8051906001600160401b038211610fda57610b3760008051602061261483398151915254611f0e565b601f8111611288575b50602090601f83116001146111e857610b729291600091836110e4575b50508160011b916000199060031b1c19161790565b600080516020612614833981519152555b8051906001600160401b038211610fda57610bac60008051602061269483398151915254611f0e565b601f8111611176575b50602090601f83116001146110ef579180610beb92610c0c95946000926110e45750508160011b916000199060031b1c19161790565b600080516020612694833981519152555b610c046125e5565b6101c16125e5565b6001600160601b0360a01b60085416176008556001600160601b0360a01b60005416176000556001600160601b0360a01b600954161760095583516001600160401b038111610fda57610c60600154611f0e565b601f811161107f575b50602094601f8211600114610ffb57610c9d929394958291600092610ff05750508160011b916000199060031b1c19161790565b6001555b82516001600160401b038111610fda57610cbc600254611f0e565b601f8111610f75575b506020601f8211600114610ef1578190610cf7939495600092610ee65750508160011b916000199060031b1c19161790565b6002555b60a43560035560c43560045560e4356005556101043560065560005b8251811015610e8157600060208260051b8501015160075468010000000000000000811015610e6d57806001610d509201600755611fec565b929092610e59578151908151916001600160401b038311610e4557610d7f83610d798754611f0e565b87612021565b602091601f8411600114610dda5783600294604094600199989794610db89492610dcf5750508160011b916000199060031b1c19161790565b84555b602081015186850155015191015501610d17565b015190508b80610b5d565b9190601f198416868452828420935b818110610e2d57509360409360019897969389938360029810610e14575b505050811b018455610dbb565b015160001960f88460031b161c191690558a8080610e07565b92936020600181928786015181550195019301610de9565b634e487b7160e01b82526041600452602482fd5b634e487b7160e01b81526004819052602490fd5b634e487b7160e01b83526041600452602483fd5b506000600c55610e8d57005b68ff0000000000000000196000805160206126748339815191525416600080516020612674833981519152557fc7f505b2f371ae2175ee4913f4499e1f2633a7b5936321eed1cdaeb6115181d2602060405160018152a1005b015190508580610b5d565b601f1982169060026000527f405787fa12a823e0f2b7631cc41b3ba8828b3321ca811111fa75cd3aa3bb5ace9160005b818110610f5d57509583600195969710610f44575b505050811b01600255610cfb565b015160001960f88460031b161c19169055848080610f36565b9192602060018192868b015181550194019201610f21565b60026000527f405787fa12a823e0f2b7631cc41b3ba8828b3321ca811111fa75cd3aa3bb5ace601f830160051c81019160208410610fd0575b601f0160051c01905b818110610fc45750610cc5565b60008155600101610fb7565b9091508190610fae565b634e487b7160e01b600052604160045260246000fd5b015190508680610b5d565b601f1982169560016000527fb10e2d527612073b26eecdfd717e6a320cf44b4afac2b0732d9fcbe2b7fa0cf69160005b8881106110675750836001959697981061104e575b505050811b01600155610ca1565b015160001960f88460031b161c19169055858080611040565b9192602060018192868501518155019401920161102b565b60016000527fb10e2d527612073b26eecdfd717e6a320cf44b4afac2b0732d9fcbe2b7fa0cf6601f830160051c810191602084106110da575b601f0160051c01905b8181106110ce5750610c69565b600081556001016110c1565b90915081906110b8565b015190508c80610b5d565b90601f19831691600080516020612694833981519152600052816000209260005b81811061115e5750916001939185610c0c97969410611145575b505050811b0160008051602061269483398151915255610bfc565b015160001960f88460031b161c191690558b808061112a565b92936020600181928786015181550195019301611110565b6000805160206126948339815191526000527ff4bad0a69248f59680a4f2b3000328cec71a413447c96781cfe5996daa8c456e601f840160051c810191602085106111de575b601f0160051c01905b8181106111d25750610bb5565b600081556001016111c5565b90915081906111bc565b90601f198316916000805160206126148339815191526000527f37c58c799b6609234b945e882912ee9ad34948a1dfaa20a97485e1a7752bbf819260005b8181106112705750908460019594939210611257575b505050811b0160008051602061261483398151915255610b83565b015160001960f88460031b161c191690558b808061123c565b92936020600181928786015181550195019301611226565b6000805160206126148339815191526000527f37c58c799b6609234b945e882912ee9ad34948a1dfaa20a97485e1a7752bbf81601f840160051c810191602085106112f0575b601f0160051c01905b8181106112e45750610b40565b600081556001016112d7565b90915081906112ce565b68ffffffffffffffffff19166801000000000000000117600080516020612674833981519152558a610afd565b63f92ee8a960e01b60005260046000fd5b9050158c610ad3565b303b159150610acb565b899150610ac1565b83356001600160401b03811161019857820160606023198236030112610198576040519161138083611e11565b6024820135926001600160401b038411610198576064602094936113ab869560243691840101611e9f565b835260448101358584015201356040820152815201930192610a47565b34610198576000366003190112610198576113e1612438565b6000546040516326749ad760e01b815230600482015290602090829060249082906001600160a01b03165afa9081156114da576000916115af575b5015611554576008546040516370a0823160e01b81523060048201526001600160a01b0390911690602081602481855afa9081156114da57600091611522575b5080156114e657600060209160018060a01b036009541690604051908482019263a9059cbb60e01b8452602483015260448201526044815261149f606482611e2c565b519082855af1156114da576000513d6114d15750803b155b6114bd57005b635274afe760e01b60005260045260246000fd5b600114156114b7565b6040513d6000823e3d90fd5b60405162461bcd60e51b81526020600482015260146024820152734e6f2066756e647320746f20776974686472617760601b6044820152606490fd5b90506020813d60201161154c575b8161153d60209383611e2c565b8101031261019857518261145c565b3d9150611530565b60405162461bcd60e51b815260206004820152602d60248201527f5468697320636f6e7472616374206973206e6f7420617070726f76656420666f60448201526c72207769746864726177616c7360981b6064820152608490fd5b6020813d6020116115e9575b816115c860209383611e2c565b810103126115e557519081151582036115e257508161141c565b80fd5b5080fd5b3d91506115bb565b34610198576101c661160236611ebd565b91612155565b34610198576000366003190112610198576009546040516001600160a01b039091168152602090f35b34610198576040366003190112610198576004356024356001600160401b03811161019857611664903690600401611e9f565b906005544210611aeb576006544211611aa657600754811015611a6b5761168a90611fec565b50600181019182548015611a34576000198101908111611a1e578355600c5460018101808211611a1e57600c556020916040516116c78482611e2c565b600081523315611a08576116da836125ab565b6001600160a01b03811680151591908590836119c9575b6116fa3361231f565b8054600101905560008281527f80bb2b638cc20bc4d0a60d66940f3ab4a00c1d7b313497ca82fb0b4ab007930289526040812080546001600160a01b0319163390811790915591907fddf252ad1be2c89b69c2b068fc378daa952ba7f163c4a11628f55a4df523b3ef9080a4506119b357333b61189a575b506001600160a01b03611784836125ab565b16156102715781600052600b83526040600020908051906001600160401b038211610fda576117bd826117b78554611f0e565b85612021565b8490601f831160011461182f5791806117f292600a979695946000926118245750508160011b916000199060031b1c19161790565b90555b6000525260406000209181830361180857005b60029182916118178286612073565b5460018501550154910155005b015190508980610b5d565b90601f1983169184600052866000209260005b8181106118835750916001939185600a99989796941061186a575b505050811b0190556117f5565b015160001960f88460031b161c1916905588808061185d565b929388600181928786015181550195019301611842565b836118d8916040979695975180938192630a85bd0160e11b835233600484015260006024840152876044840152608060648401526084830190611da4565b03816000335af18091600091611975575b509061193f57853d15611938573d61190081611e4d565b9061190e6040519283611e2c565b81523d60008383013e5b8051918261193557633250574960e11b6000523360045260246000fd5b01fd5b6060611918565b939492936001600160e01b03191663757a42ff60e11b016119605785611772565b633250574960e11b6000523360045260246000fd5b8781813d83116119ac575b61198a8183611e2c565b810103126115e55751906001600160e01b0319821682036115e25750876118e9565b503d611980565b6339e3563760e11b600052600060045260246000fd5b60008281526000805160206126548339815191526020526040902080546001600160a01b03191690556119fb8361231f565b80546000190190556116f1565b633250574960e11b600052600060045260246000fd5b634e487b7160e01b600052601160045260246000fd5b60405162461bcd60e51b815260206004820152600f60248201526e151a58dad95d081cdbdb19081bdd5d608a1b6044820152606490fd5b60405162461bcd60e51b8152602060048201526013602482015272496e76616c6964207469636b6574207479706560681b6044820152606490fd5b60405162461bcd60e51b815260206004820152601760248201527f5469636b65742073616c6573206861766520656e6465640000000000000000006044820152606490fd5b60405162461bcd60e51b815260206004820152602160248201527f5469636b65742073616c65732068617665206e6f7420737461727465642079656044820152601d60fa1b6064820152608490fd5b3461019857604036600319011261019857611b53611de5565b602435611b5f81612407565b33151580611c19575b80611bf5575b611be05781906001600160a01b0384811691167f8c5be1e5ebec7d5bd14f71427d1e84f3dd0314c0f7b2291e5b200ac8c7c3b925600080a460009081526000805160206126548339815191526020526040902080546001600160a01b0319166001600160a01b03909216919091179055005b63a9fbf51f60e01b6000523360045260246000fd5b50611bff81612358565b336000908152602091909152604090205460ff1615611b6e565b506001600160a01b038116331415611b68565b34610198576020366003190112610198576020610615600435611c4e81612407565b50600090815260008051602061265483398151915260205260409020546001600160a01b031690565b3461019857600036600319011261019857604051600060008051602061261483398151915254611ca681611f0e565b80845290600181169081156104e15750600114611ccd5761026d8361025981850382611e2c565b60008051602061261483398151915260009081527f37c58c799b6609234b945e882912ee9ad34948a1dfaa20a97485e1a7752bbf81939250905b808210611d1f57509091508101602001610259610465565b919260018160209254838588010152019101909291611d07565b34610198576020366003190112610198576004359063ffffffff60e01b8216809203610198576020916380ac58cd60e01b8114908115611d93575b8115611d82575b5015158152f35b6301ffc9a760e01b14905083611d7b565b635b5e139f60e01b81149150611d74565b919082519283825260005b848110611dd0575050826000602080949584010152601f8019910116010190565b80602080928401015182828601015201611daf565b600435906001600160a01b038216820361019857565b602435906001600160a01b038216820361019857565b606081019081106001600160401b03821117610fda57604052565b90601f801991011681019081106001600160401b03821117610fda57604052565b6001600160401b038111610fda57601f01601f191660200190565b929192611e7482611e4d565b91611e826040519384611e2c565b829481845281830111610198578281602093846000960137010152565b9080601f8301121561019857816020611eba93359101611e68565b90565b6060906003190112610198576004356001600160a01b038116810361019857906024356001600160a01b0381168103610198579060443590565b6001600160401b038111610fda5760051b60200190565b90600182811c92168015611f3e575b6020831014611f2857565b634e487b7160e01b600052602260045260246000fd5b91607f1691611f1d565b9060405191826000825492611f5c84611f0e565b8084529360018116908115611fca5750600114611f83575b50611f8192500383611e2c565b565b90506000929192526020600020906000915b818310611fae575050906020611f819282010138611f74565b6020919350806001915483858901015201910190918492611f95565b905060209250611f8194915060ff191682840152151560051b82010138611f74565b60075481101561200b5760076000526003602060002091020190600090565b634e487b7160e01b600052603260045260246000fd5b601f821161202e57505050565b6000526020600020906020601f840160051c83019310612069575b601f0160051c01905b81811061205d575050565b60008155600101612052565b9091508190612049565b919091828114612150576120878354611f0e565b6001600160401b038111610fda576120a9816120a38454611f0e565b84612021565b600093601f82116001146120ea576120db92939482916000926120df5750508160011b916000199060031b1c19161790565b9055565b015490503880610b5d565b845260208085208386529085209094601f198316815b8181106121385750958360019596971061211f575b505050811b019055565b015460001960f88460031b161c19169055388080612115565b9192600180602092868b015481550194019201612100565b509050565b909291906001600160a01b0384168015611a0857600094612175846125ab565b9533151580612273575b509184917fddf252ad1be2c89b69c2b068fc378daa952ba7f163c4a11628f55a4df523b3ef6121c097989460018060a01b038616988993846122345761231f565b805460010190558481527f80bb2b638cc20bc4d0a60d66940f3ab4a00c1d7b313497ca82fb0b4ab00793026020526040812080546001600160a01b0319168517905580a4506001600160a01b031680830361221a57505050565b6364283d7b60e01b60005260045260245260445260646000fd5b60008781526000805160206126548339815191526020526040902080546001600160a01b03191690556122668861231f565b805460001901905561231f565b806122bc575b15612284573861217f565b84906001600160a01b0388166122a657602491637e27328960e01b8252600452fd5b60449163177e802f60e01b825233600452602452fd5b506001600160a01b03871633148015612302575b806122795750600085815260008051602061265483398151915260205260409020546001600160a01b03163314612279565b5061230c87612358565b338252602052604081205460ff166122d0565b6001600160a01b031660009081527f80bb2b638cc20bc4d0a60d66940f3ab4a00c1d7b313497ca82fb0b4ab00793036020526040902090565b6001600160a01b031660009081527f80bb2b638cc20bc4d0a60d66940f3ab4a00c1d7b313497ca82fb0b4ab00793056020526040902090565b6001600160a01b031680156123f15760008051602061263483398151915280546001600160a01b0319811683179091556001600160a01b03167f8be0079c531659141344cd1fd0a4f28419497f9722a3daafe3b4186f6b6457e0600080a3565b631e4fbdf760e01b600052600060045260246000fd5b612410816125ab565b906001600160a01b03821615612424575090565b637e27328960e01b60005260045260246000fd5b600080516020612634833981519152546001600160a01b0316330361245957565b63118cdaa760e01b6000523360045260246000fd5b823b61247c575b5050505050565b604051630a85bd0160e11b81526001600160a01b0391821660048201529181166024830152604482019390935260806064820152911691602090829081906124c8906084830190611da4565b03816000865af18091600091612568575b509061253257503d1561252b573d6124f081611e4d565b906124fe6040519283611e2c565b81523d6000602083013e5b805190816125265782633250574960e11b60005260045260246000fd5b602001fd5b6060612509565b6001600160e01b03191663757a42ff60e11b0161255457503880808080612475565b633250574960e11b60005260045260246000fd5b6020813d6020116125a3575b8161258160209383611e2c565b810103126115e55751906001600160e01b0319821682036115e25750386124d9565b3d9150612574565b60009081527f80bb2b638cc20bc4d0a60d66940f3ab4a00c1d7b313497ca82fb0b4ab007930260205260409020546001600160a01b031690565b60ff6000805160206126748339815191525460401c161561260257565b631afcd79f60e31b60005260046000fdfe80bb2b638cc20bc4d0a60d66940f3ab4a00c1d7b313497ca82fb0b4ab00793009016d09d72d40fdae2fd8ceac6b6234c7706214fd39c1cd1e609a0528c19930080bb2b638cc20bc4d0a60d66940f3ab4a00c1d7b313497ca82fb0b4ab0079304f0c57e16840df040f15088dc2f81fe391c3923bec73e23a9662efc9c229c6a0080bb2b638cc20bc4d0a60d66940f3ab4a00c1d7b313497ca82fb0b4ab0079301a2646970667358221220534609d730a99a63adf700226ab99bfd36e00c7d26f4f41005cb08ea0377e78664736f6c634300081a0033",
  "linkReferences": {},
  "deployedLinkReferences": {}
}