{
  "_format": "hh-sol-artifact-1",
  "contractName": "EventTicket",
  "sourceName": "contracts/TicktingContract.sol",
  "abi": [
    {
      "inputs": [
        {
          "internalType": "address",
          "name": "sender",
          "type": "address"
        },
        {
          "internalType": "uint256",
          "name": "tokenId",
          "type": "uint256"
        },
        {
          "internalType": "address",
          "name": "owner",
          "type": "address"
        }
      ],
      "name": "ERC721IncorrectOwner",
      "type": "error"
    },
    {
      "inputs": [
        {
          "internalType": "address",
          "name": "operator",
          "type": "address"
        },
        {
          "internalType": "uint256",
          "name": "tokenId",
          "type": "uint256"
        }
      ],
      "name": "ERC721InsufficientApproval",
      "type": "error"
    },
    {
      "inputs": [
        {
          "internalType": "address",
          "name": "approver",
          "type": "address"
        }
      ],
      "name": "ERC721InvalidApprover",
      "type": "error"
    },
    {
      "inputs": [
        {
          "internalType": "address",
          "name": "operator",
          "type": "address"
        }
      ],
      "name": "ERC721InvalidOperator",
      "type": "error"
    },
    {
      "inputs": [
        {
          "internalType": "address",
          "name": "owner",
          "type": "address"
        }
      ],
      "name": "ERC721InvalidOwner",
      "type": "error"
    },
    {
      "inputs": [
        {
          "internalType": "address",
          "name": "receiver",
          "type": "address"
        }
      ],
      "name": "ERC721InvalidReceiver",
      "type": "error"
    },
    {
      "inputs": [
        {
          "internalType": "address",
          "name": "sender",
          "type": "address"
        }
      ],
      "name": "ERC721InvalidSender",
      "type": "error"
    },
    {
      "inputs": [
        {
          "internalType": "uint256",
          "name": "tokenId",
          "type": "uint256"
        }
      ],
      "name": "ERC721NonexistentToken",
      "type": "error"
    },
    {
      "inputs": [],
      "name": "InvalidInitialization",
      "type": "error"
    },
    {
      "inputs": [],
      "name": "NotInitializing",
      "type": "error"
    },
    {
      "inputs": [
        {
          "internalType": "address",
          "name": "owner",
          "type": "address"
        }
      ],
      "name": "OwnableInvalidOwner",
      "type": "error"
    },
    {
      "inputs": [
        {
          "internalType": "address",
          "name": "account",
          "type": "address"
        }
      ],
      "name": "OwnableUnauthorizedAccount",
      "type": "error"
    },
    {
      "inputs": [
        {
          "internalType": "address",
          "name": "token",
          "type": "address"
        }
      ],
      "name": "SafeERC20FailedOperation",
      "type": "error"
    },
    {
      "inputs": [],
      "name": "TokenDoesNotExist",
      "type": "error"
    },
    {
      "anonymous": false,
      "inputs": [
        {
          "indexed": true,
          "internalType": "address",
          "name": "owner",
          "type": "address"
        },
        {
          "indexed": true,
          "internalType": "address",
          "name": "approved",
          "type": "address"
        },
        {
          "indexed": true,
          "internalType": "uint256",
          "name": "tokenId",
          "type": "uint256"
        }
      ],
      "name": "Approval",
      "type": "event"
    },
    {
      "anonymous": false,
      "inputs": [
        {
          "indexed": true,
          "internalType": "address",
          "name": "owner",
          "type": "address"
        },
        {
          "indexed": true,
          "internalType": "address",
          "name": "operator",
          "type": "address"
        },
        {
          "indexed": false,
          "internalType": "bool",
          "name": "approved",
          "type": "bool"
        }
      ],
      "name": "ApprovalForAll",
      "type": "event"
    },
    {
      "anonymous": false,
      "inputs": [
        {
          "indexed": false,
          "internalType": "uint64",
          "name": "version",
          "type": "uint64"
        }
      ],
      "name": "Initialized",
      "type": "event"
    },
    {
      "anonymous": false,
      "inputs": [
        {
          "indexed": true,
          "internalType": "address",
          "name": "previousOwner",
          "type": "address"
        },
        {
          "indexed": true,
          "internalType": "address",
          "name": "newOwner",
          "type": "address"
        }
      ],
      "name": "OwnershipTransferred",
      "type": "event"
    },
    {
      "anonymous": false,
      "inputs": [
        {
          "indexed": true,
          "internalType": "address",
          "name": "from",
          "type": "address"
        },
        {
          "indexed": true,
          "internalType": "address",
          "name": "to",
          "type": "address"
        },
        {
          "indexed": true,
          "internalType": "uint256",
          "name": "tokenId",
          "type": "uint256"
        }
      ],
      "name": "Transfer",
      "type": "event"
    },
    {
      "inputs": [
        {
          "internalType": "address",
          "name": "to",
          "type": "address"
        },
        {
          "internalType": "uint256",
          "name": "tokenId",
          "type": "uint256"
        }
      ],
      "name": "approve",
      "outputs": [],
      "stateMutability": "nonpayable",
      "type": "function"
    },
    {
      "inputs": [
        {
          "internalType": "address",
          "name": "owner",
          "type": "address"
        }
      ],
      "name": "balanceOf",
      "outputs": [
        {
          "internalType": "uint256",
          "name": "",
          "type": "uint256"
        }
      ],
      "stateMutability": "view",
      "type": "function"
    },
    {
      "inputs": [],
      "name": "eventDeployer",
      "outputs": [
        {
          "internalType": "address",
          "name": "",
          "type": "address"
        }
      ],
      "stateMutability": "view",
      "type": "function"
    },
    {
      "inputs": [],
      "name": "eventDetail",
      "outputs": [
        {
          "internalType": "string",
          "name": "eventName",
          "type": "string"
        },
        {
          "internalType": "string",
          "name": "collectionUri",
          "type": "string"
        },
        {
          "internalType": "uint256",
          "name": "startDate",
          "type": "uint256"
        },
        {
          "internalType": "uint256",
          "name": "endDate",
          "type": "uint256"
        },
        {
          "internalType": "uint256",
          "name": "ticketStartBuyDate",
          "type": "uint256"
        },
        {
          "internalType": "uint256",
          "name": "ticketEndBuyDate",
          "type": "uint256"
        }
      ],
      "stateMutability": "view",
      "type": "function"
    },
    {
      "inputs": [],
      "name": "fundsWallet",
      "outputs": [
        {
          "internalType": "address",
          "name": "",
          "type": "address"
        }
      ],
      "stateMutability": "view",
      "type": "function"
    },
    {
      "inputs": [
        {
          "internalType": "uint256",
          "name": "tokenId",
          "type": "uint256"
        }
      ],
      "name": "getApproved",
      "outputs": [
        {
          "internalType": "address",
          "name": "",
          "type": "address"
        }
      ],
      "stateMutability": "view",
      "type": "function"
    },
    {
      "inputs": [],
      "name": "getTickets",
      "outputs": [
        {
          "components": [
            {
              "internalType": "string",
              "name": "ticketType",
              "type": "string"
            },
            {
              "internalType": "uint256",
              "name": "quantity",
              "type": "uint256"
            },
            {
              "internalType": "uint256",
              "name": "price",
              "type": "uint256"
            }
          ],
          "internalType": "struct EventTicket.Ticket[]",
          "name": "",
          "type": "tuple[]"
        }
      ],
      "stateMutability": "view",
      "type": "function"
    },
    {
      "inputs": [
        {
          "internalType": "string",
          "name": "name",
          "type": "string"
        },
        {
          "internalType": "string",
          "name": "symbol",
          "type": "string"
        },
        {
          "internalType": "address",
          "name": "_usdtTokenAddress",
          "type": "address"
        },
        {
          "internalType": "string",
          "name": "_eventName",
          "type": "string"
        },
        {
          "internalType": "string",
          "name": "_collectionURI",
          "type": "string"
        },
        {
          "internalType": "uint256",
          "name": "_startDate",
          "type": "uint256"
        },
        {
          "internalType": "uint256",
          "name": "_endDate",
          "type": "uint256"
        },
        {
          "internalType": "uint256",
          "name": "_ticketStartBuyDate",
          "type": "uint256"
        },
        {
          "internalType": "uint256",
          "name": "_ticketEndBuyDate",
          "type": "uint256"
        },
        {
          "components": [
            {
              "internalType": "string",
              "name": "ticketType",
              "type": "string"
            },
            {
              "internalType": "uint256",
              "name": "quantity",
              "type": "uint256"
            },
            {
              "internalType": "uint256",
              "name": "price",
              "type": "uint256"
            }
          ],
          "internalType": "struct EventTicket.Ticket[]",
          "name": "_tickets",
          "type": "tuple[]"
        },
        {
          "internalType": "address",
          "name": "_fundsWallet",
          "type": "address"
        },
        {
          "internalType": "address",
          "name": "_owner",
          "type": "address"
        },
        {
          "internalType": "address",
          "name": "_eventDeployer",
          "type": "address"
        }
      ],
      "name": "initialize",
      "outputs": [],
      "stateMutability": "nonpayable",
      "type": "function"
    },
    {
      "inputs": [
        {
          "internalType": "address",
          "name": "owner",
          "type": "address"
        },
        {
          "internalType": "address",
          "name": "operator",
          "type": "address"
        }
      ],
      "name": "isApprovedForAll",
      "outputs": [
        {
          "internalType": "bool",
          "name": "",
          "type": "bool"
        }
      ],
      "stateMutability": "view",
      "type": "function"
    },
    {
      "inputs": [
        {
          "internalType": "uint256",
          "name": "ticketIndex",
          "type": "uint256"
        },
        {
          "internalType": "string",
          "name": "_tokenURI",
          "type": "string"
        }
      ],
      "name": "mintTicket",
      "outputs": [],
      "stateMutability": "nonpayable",
      "type": "function"
    },
    {
      "inputs": [],
      "name": "name",
      "outputs": [
        {
          "internalType": "string",
          "name": "",
          "type": "string"
        }
      ],
      "stateMutability": "view",
      "type": "function"
    },
    {
      "inputs": [],
      "name": "owner",
      "outputs": [
        {
          "internalType": "address",
          "name": "",
          "type": "address"
        }
      ],
      "stateMutability": "view",
      "type": "function"
    },
    {
      "inputs": [
        {
          "internalType": "uint256",
          "name": "tokenId",
          "type": "uint256"
        }
      ],
      "name": "ownerOf",
      "outputs": [
        {
          "internalType": "address",
          "name": "",
          "type": "address"
        }
      ],
      "stateMutability": "view",
      "type": "function"
    },
    {
      "inputs": [],
      "name": "renounceOwnership",
      "outputs": [],
      "stateMutability": "nonpayable",
      "type": "function"
    },
    {
      "inputs": [
        {
          "internalType": "address",
          "name": "from",
          "type": "address"
        },
        {
          "internalType": "address",
          "name": "to",
          "type": "address"
        },
        {
          "internalType": "uint256",
          "name": "tokenId",
          "type": "uint256"
        }
      ],
      "name": "safeTransferFrom",
      "outputs": [],
      "stateMutability": "nonpayable",
      "type": "function"
    },
    {
      "inputs": [
        {
          "internalType": "address",
          "name": "from",
          "type": "address"
        },
        {
          "internalType": "address",
          "name": "to",
          "type": "address"
        },
        {
          "internalType": "uint256",
          "name": "tokenId",
          "type": "uint256"
        },
        {
          "internalType": "bytes",
          "name": "data",
          "type": "bytes"
        }
      ],
      "name": "safeTransferFrom",
      "outputs": [],
      "stateMutability": "nonpayable",
      "type": "function"
    },
    {
      "inputs": [
        {
          "internalType": "address",
          "name": "operator",
          "type": "address"
        },
        {
          "internalType": "bool",
          "name": "approved",
          "type": "bool"
        }
      ],
      "name": "setApprovalForAll",
      "outputs": [],
      "stateMutability": "nonpayable",
      "type": "function"
    },
    {
      "inputs": [
        {
          "internalType": "address",
          "name": "_eventDeployer",
          "type": "address"
        }
      ],
      "name": "setEventDeployer",
      "outputs": [],
      "stateMutability": "nonpayable",
      "type": "function"
    },
    {
      "inputs": [
        {
          "internalType": "bytes4",
          "name": "interfaceId",
          "type": "bytes4"
        }
      ],
      "name": "supportsInterface",
      "outputs": [
        {
          "internalType": "bool",
          "name": "",
          "type": "bool"
        }
      ],
      "stateMutability": "view",
      "type": "function"
    },
    {
      "inputs": [],
      "name": "symbol",
      "outputs": [
        {
          "internalType": "string",
          "name": "",
          "type": "string"
        }
      ],
      "stateMutability": "view",
      "type": "function"
    },
    {
      "inputs": [
        {
          "internalType": "uint256",
          "name": "",
          "type": "uint256"
        }
      ],
      "name": "ticketInfo",
      "outputs": [
        {
          "internalType": "string",
          "name": "ticketType",
          "type": "string"
        },
        {
          "internalType": "uint256",
          "name": "quantity",
          "type": "uint256"
        },
        {
          "internalType": "uint256",
          "name": "price",
          "type": "uint256"
        }
      ],
      "stateMutability": "view",
      "type": "function"
    },
    {
      "inputs": [
        {
          "internalType": "uint256",
          "name": "tokenId",
          "type": "uint256"
        }
      ],
      "name": "tokenURI",
      "outputs": [
        {
          "internalType": "string",
          "name": "",
          "type": "string"
        }
      ],
      "stateMutability": "view",
      "type": "function"
    },
    {
      "inputs": [
        {
          "internalType": "address",
          "name": "from",
          "type": "address"
        },
        {
          "internalType": "address",
          "name": "to",
          "type": "address"
        },
        {
          "internalType": "uint256",
          "name": "tokenId",
          "type": "uint256"
        }
      ],
      "name": "transferFrom",
      "outputs": [],
      "stateMutability": "nonpayable",
      "type": "function"
    },
    {
      "inputs": [
        {
          "internalType": "address",
          "name": "newOwner",
          "type": "address"
        }
      ],
      "name": "transferOwnership",
      "outputs": [],
      "stateMutability": "nonpayable",
      "type": "function"
    },
    {
      "inputs": [],
      "name": "usdtToken",
      "outputs": [
        {
          "internalType": "contract IERC20",
          "name": "",
          "type": "address"
        }
      ],
      "stateMutability": "view",
      "type": "function"
    },
    {
      "inputs": [],
      "name": "withdrawFunds",
      "outputs": [],
      "stateMutability": "nonpayable",
      "type": "function"
    }
  ],
  "bytecode": "0x60808060405234601557612688908161001b8239f35b600080fdfe608080604052600436101561001357600080fd5b600090813560e01c90816301ffc9a714611b5a5750806306fdde0314611a99578063081812fc14611a4d578063095ea7b31461196557806319e2a211146113325780632194f3a21461130957806323b872dd146112f157806324600fc3146110bd57806324b05128146108d4578063321db726146107a857806342842e0e146107785780634ed026221461064f5780636352211e1461061e57806370a08231146105cc578063715018a6146105625780638da5cb5b1461052c57806395d89b41146104435780639dec65ed1461041c578063a22cb4651461037b578063a98ad46c14610352578063b88d4fde146102e2578063bda90604146102a2578063c87b56dd14610227578063e985e9c5146101d7578063f2fde38b146101aa5763fa7130831461013f57600080fd5b346101a75760203660031901126101a7576040610198916004358152600a602052206040519061017a826101738184611e27565b0383611c6a565b60026001820154910154604051938493606085526060850190611bc7565b91602084015260408301520390f35b80fd5b50346101a75760203660031901126101a7576101d46101c7611c08565b6101cf6123d7565b612330565b80f35b50346101a75760403660031901126101a7576102036101f4611c08565b6101fc611c23565b92506122f7565b9060018060a01b0316600052602052602060ff604060002054166040519015158152f35b50346101a75760203660031901126101a7576004356001600160a01b0361024d8261254a565b16156102935761027b6040836102749361028f9552600b6020522060405192838092611e27565b0382611c6a565b604051918291602083526020830190611bc7565b0390f35b63677510db60e11b8252600482fd5b50346101a75760203660031901126101a7576102bc611c08565b6102c46123d7565b81546001600160a01b0319166001600160a01b039190911617815580f35b50346101a75760803660031901126101a7576102fc611c08565b610304611c23565b90604435606435926001600160401b03841161034e573660238501121561034e5761033c6101d4943690602481600401359101611ca6565b926103488383836120de565b3361240d565b8480fd5b50346101a757806003193601126101a7576008546040516001600160a01b039091168152602090f35b50346101a75760403660031901126101a757610395611c08565b60243590811515809203610418576001600160a01b0316908115610404576103bc336122f7565b82600052602052604060002060ff1981541660ff83161790556040519081527f17307eab39ab6107e8899845ad3d59bd9653f200f220920489ca2b5937696c3160203392a380f35b630b61174360e31b83526004829052602483fd5b8280fd5b50346101a757806003193601126101a757546040516001600160a01b039091168152602090f35b50346101a757806003193601126101a7576040519080600080516020612633833981519152549061047382611d4c565b8085529160018116908115610505575060011461049b575b61028f8461027b81860382611c6a565b60008051602061263383398151915281527ff4bad0a69248f59680a4f2b3000328cec71a413447c96781cfe5996daa8c456e939250905b8082106104eb5750909150810160200161027b8261048b565b9192600181602092548385880101520191019092916104d2565b60ff191660208087019190915292151560051b8501909201925061027b915083905061048b565b50346101a757806003193601126101a7576000805160206125d3833981519152546040516001600160a01b039091168152602090f35b50346101a757806003193601126101a75761057b6123d7565b6000805160206125d383398151915280546001600160a01b0319811690915581906001600160a01b03167f8be0079c531659141344cd1fd0a4f28419497f9722a3daafe3b4186f6b6457e08280a380f35b50346101a75760203660031901126101a7576105e6611c08565b906001600160a01b0382161561060a576020610601836122be565b54604051908152f35b6322718ad960e21b81526004819052602490fd5b50346101a75760203660031901126101a757602061063d6004356123a6565b6040516001600160a01b039091168152f35b50346101a757806003193601126101a75760075461066c81611d35565b6106796040519182611c6a565b818152600783526020810191837fa66cc928b5edb82af9bd49922954155ab7b0942694bea4ce44661d9a8736c688845b83831061073257868587604051928392602084019060208552518091526040840160408260051b8601019392905b8282106106e657505050500390f35b919360019193955060208091603f198982030185528751906040806107148451606085526060850190611bc7565b938581015186850152015191015296019201920185949391926106d7565b6003602060019260405161074581611c39565b60405161075681610274818a611e27565b81528486015483820152600286015460408201528152019201920191906106a9565b50346101a7576101d461078a36611cfb565b906040519261079a602085611c6a565b8584526103488383836120de565b50346101a757806003193601126101a7576040519080600154906107cb82611d4c565b80855291600181169081156108ad5750600114610850575b610829846107f381860382611c6a565b6040516108038161027481611d86565b60035490600454600554906108376006549360405197889760c0895260c0890190611bc7565b908782036020890152611bc7565b9360408601526060850152608084015260a08301520390f35b600181527fb10e2d527612073b26eecdfd717e6a320cf44b4afac2b0732d9fcbe2b7fa0cf6939250905b808210610893575090915081016020016107f3826107e3565b91926001816020925483858801015201910190929161087a565b60ff191660208087019190915292151560051b850190920192506107f391508390506107e3565b50346101a7576101a03660031901126101a7576004356001600160401b0381116110b957610906903690600401611cdd565b906024356001600160401b0381116110b957610926903690600401611cdd565b6044356001600160a01b038116939190849003610418576064356001600160401b0381116110b55761095c903690600401611cdd565b6084356001600160401b03811161034e5761097b903690600401611cdd565b9461012435926001600160401b0384116110b157366023850112156110b15783600401356109a881611d35565b946109b66040519687611c6a565b8186526024602087019260051b820101903682116110285760248101925b82841061103457505050610144356001600160a01b03811693915083900361103057610164356001600160a01b038116810361102c57610184356001600160a01b038116939084900361102857600080516020612613833981519152549760ff8960401c1615986001600160401b03811680159081611020575b6001149081611016575b15908161100d575b50610ffe5767ffffffffffffffff1981166001176000805160206126138339815191525589610fd1575b50610a93612584565b610a9b612584565b8051906001600160401b038211610fbd57610adc82610ac86000805160206125b383398151915254611d4c565b6000805160206125b3833981519152611edf565b602090601f8311600114610f3e57610b0c92918c9183610dab575b50508160011b916000199060031b1c19161790565b6000805160206125b3833981519152555b8051906001600160401b038211610f2a57610b5e82610b4a60008051602061263383398151915254611d4c565b600080516020612633833981519152611edf565b602090601f8311600114610ea7579180610b9292610bb395948d92610dab5750508160011b916000199060031b1c19161790565b600080516020612633833981519152555b610bab612584565b6101cf612584565b6001600160601b0360a01b60085416176008556001600160601b0360a01b8654161785556001600160601b0360a01b60095416176009558051906001600160401b038211610e9357610c1182610c0a600154611d4c565b6001611edf565b602090601f8311600114610e2e57610c409291869183610dab5750508160011b916000199060031b1c19161790565b6001555b83516001600160401b038111610e1a57610c6a81610c63600254611d4c565b6002611edf565b602094601f8211600114610db65784958291610c9c94959692610dab5750508160011b916000199060031b1c19161790565b6002555b60a43560035560c43560045560e43560055561010435600655825b8151811015610d445760208160051b83010151600754600160401b811015610d3057806001610ced9201600755611eaa565b919091610d1c57906002604083610d0860019695518561202b565b602081015186850155015191015501610cbb565b634e487b7160e01b86526004869052602486fd5b634e487b7160e01b86526041600452602486fd5b505081600d55610d515780f35b68ff0000000000000000196000805160206126138339815191525416600080516020612613833981519152557fc7f505b2f371ae2175ee4913f4499e1f2633a7b5936321eed1cdaeb6115181d2602060405160018152a180f35b015190503880610af7565b601f198216956002865280862091865b888110610e0257508360019596979810610de9575b505050811b01600255610ca0565b015160001960f88460031b161c19169055388080610ddb565b91926020600181928685015181550194019201610dc6565b634e487b7160e01b84526041600452602484fd5b600186528186209190601f198416875b818110610e7b5750908460019594939210610e62575b505050811b01600155610c44565b015160001960f88460031b161c19169055388080610e54565b92936020600181928786015181550195019301610e3e565b634e487b7160e01b85526041600452602485fd5b6000805160206126338339815191528b52818b209190601f1984168c5b818110610f125750916001939185610bb397969410610ef9575b505050811b0160008051602061263383398151915255610ba3565b015160001960f88460031b161c19169055388080610ede565b92936020600181928786015181550195019301610ec4565b634e487b7160e01b8a52604160045260248afd5b6000805160206125b38339815191528c52818c209190601f1984168d5b818110610fa55750908460019594939210610f8c575b505050811b016000805160206125b383398151915255610b1d565b015160001960f88460031b161c19169055388080610f71565b92936020600181928786015181550195019301610f5b565b634e487b7160e01b8b52604160045260248bfd5b68ffffffffffffffffff191668010000000000000001176000805160206126138339815191525538610a8a565b63f92ee8a960e01b8b5260048bfd5b90501538610a60565b303b159150610a58565b8b9150610a4e565b8880fd5b8780fd5b8680fd5b83356001600160401b0381116110ad578201606060231982360301126110ad576040519061106182611c39565b60248101356001600160401b0381116110a9579160646020949261108c869560243691840101611cdd565b8352604481013585840152013560408201528152019301926109d4565b8c80fd5b8a80fd5b8580fd5b8380fd5b5080fd5b50346101a757806003193601126101a7576110d66123d7565b80546040516326749ad760e01b815230600482015290602090829060249082906001600160a01b03165afa9081156112e65782916112ab575b5015611250576008546040516370a0823160e01b81523060048201526001600160a01b0390911690602081602481855afa908115611245578391611213575b5080156111d7578260209160018060a01b036009541690604051908482019263a9059cbb60e01b84526024830152604482015260448152611190606482611c6a565b519082855af1156111ca5781513d6111c15750803b155b6111af575080f35b635274afe760e01b8252600452602490fd5b600114156111a7565b50604051903d90823e3d90fd5b60405162461bcd60e51b81526020600482015260146024820152734e6f2066756e647320746f20776974686472617760601b6044820152606490fd5b90506020813d60201161123d575b8161122e60209383611c6a565b8101031261041857513861114e565b3d9150611221565b6040513d85823e3d90fd5b60405162461bcd60e51b815260206004820152602d60248201527f5468697320636f6e7472616374206973206e6f7420617070726f76656420666f60448201526c72207769746864726177616c7360981b6064820152608490fd5b90506020813d6020116112de575b816112c660209383611c6a565b810103126110b9575180151581036110b9573861110f565b3d91506112b9565b6040513d84823e3d90fd5b50346101a7576101d461130336611cfb565b916120de565b50346101a757806003193601126101a7576009546040516001600160a01b039091168152602090f35b50346101a75760403660031901126101a7576004356024356001600160401b03811161041857611366903690600401611cdd565b60055442106119165760065442116118d1576007548210156118965761138b82611eaa565b5090600182018054801561185f57600019810190811161184b578155600d54906001820180831161183757600d556020936040516113c98682611c6a565b8781523315611823576113db8461254a565b6001600160a01b03811680151591908690836117e4575b6113fb336122be565b80546001019055818c527f80bb2b638cc20bc4d0a60d66940f3ab4a00c1d7b313497ca82fb0b4ab00793028a5260408c2080546001600160a01b03191633908117909155907fddf252ad1be2c89b69c2b068fc378daa952ba7f163c4a11628f55a4df523b3ef8d80a4506117d057333b6116bc575b506001600160a01b036114828461254a565b16156116ad57828752600b855261149c846040892061202b565b828752600a8552604087209181830361168b575b505050838552600c835260408520805490600160401b82101561167757906114dd91600182018155612013565b819291549060031b91821b91600019901b1916179055828452600c825260016040852001805490600160401b821015610d30579061152091600182018155612013565b611663579061152e9161202b565b60018060a01b0383541690828452600c815260408420838552600c82526001604086200191833b156110b157939092859260405195869363405bf43160e11b855260c0600486015261158260c48601611d86565b903060248701526044860152600319858203016064860152818754918281520196865281862090865b8181106116495750505060031984870301608485015281549081875280870196818360051b8201019387528187209787915b848310611615575050505050838095508380924260a483015203925af180156111ca576116075780f35b61161091611c6a565b388180f35b9295989750929550928460016116358193601f198682030187528a611e27565b9801930193018996938996939895926115dd565b82548952978301978a9750899650600192830192016115ab565b634e487b7160e01b85526004859052602485fd5b634e487b7160e01b87526041600452602487fd5b600291829161169a8286611f31565b54600185015501549101553880806114b0565b63677510db60e11b8752600487fd5b856116f9916040999897995180938192630a85bd0160e11b83523360048401528b6024840152886044840152608060648401526084830190611bc7565b03818a335af1879181611790575b5061175c5787873d15611755573d61171e81611c8b565b9061172c6040519283611c6a565b81523d828483013e5b8051928361175057633250574960e11b835233600452602483fd5b019050fd5b6060611735565b959694956001600160e01b03191663757a42ff60e11b0161177d5738611470565b633250574960e11b875233600452602487fd5b9091508881813d83116117c9575b6117a88183611c6a565b8101031261102c57516001600160e01b03198116810361102c579038611707565b503d61179e565b6339e3563760e11b88526004889052602488fd5b60008281526000805160206125f38339815191526020526040902080546001600160a01b0319169055611816836122be565b80546000190190556113f2565b633250574960e11b88526004889052602488fd5b634e487b7160e01b87526011600452602487fd5b634e487b7160e01b86526011600452602486fd5b60405162461bcd60e51b815260206004820152600f60248201526e151a58dad95d081cdbdb19081bdd5d608a1b6044820152606490fd5b60405162461bcd60e51b8152602060048201526013602482015272496e76616c6964207469636b6574207479706560681b6044820152606490fd5b60405162461bcd60e51b815260206004820152601760248201527f5469636b65742073616c6573206861766520656e6465640000000000000000006044820152606490fd5b60405162461bcd60e51b815260206004820152602160248201527f5469636b65742073616c65732068617665206e6f7420737461727465642079656044820152601d60fa1b6064820152608490fd5b50346101a75760403660031901126101a75761197f611c08565b60243561198b816123a6565b33151580611a3a575b80611a1c575b611a095781906001600160a01b0384811691167f8c5be1e5ebec7d5bd14f71427d1e84f3dd0314c0f7b2291e5b200ac8c7c3b9258680a482526000805160206125f38339815191526020526040822080546001600160a01b0319166001600160a01b0390921691909117905580f35b63a9fbf51f60e01b845233600452602484fd5b50611a26816122f7565b338552602052604084205460ff161561199a565b506001600160a01b038116331415611994565b50346101a75760203660031901126101a757602061063d600435611a70816123a6565b5060009081526000805160206125f383398151915260205260409020546001600160a01b031690565b50346101a757806003193601126101a75760405190806000805160206125b38339815191525490611ac982611d4c565b80855291600181169081156105055750600114611af05761028f8461027b81860382611c6a565b6000805160206125b383398151915281527f37c58c799b6609234b945e882912ee9ad34948a1dfaa20a97485e1a7752bbf81939250905b808210611b405750909150810160200161027b8261048b565b919260018160209254838588010152019101909291611b27565b9050346110b95760203660031901126110b95760043563ffffffff60e01b811680910361041857602092506380ac58cd60e01b8114908115611bb6575b8115611ba5575b5015158152f35b6301ffc9a760e01b14905038611b9e565b635b5e139f60e01b81149150611b97565b919082519283825260005b848110611bf3575050826000602080949584010152601f8019910116010190565b80602080928401015182828601015201611bd2565b600435906001600160a01b0382168203611c1e57565b600080fd5b602435906001600160a01b0382168203611c1e57565b606081019081106001600160401b03821117611c5457604052565b634e487b7160e01b600052604160045260246000fd5b90601f801991011681019081106001600160401b03821117611c5457604052565b6001600160401b038111611c5457601f01601f191660200190565b929192611cb282611c8b565b91611cc06040519384611c6a565b829481845281830111611c1e578281602093846000960137010152565b9080601f83011215611c1e57816020611cf893359101611ca6565b90565b6060906003190112611c1e576004356001600160a01b0381168103611c1e57906024356001600160a01b0381168103611c1e579060443590565b6001600160401b038111611c545760051b60200190565b90600182811c92168015611d7c575b6020831014611d6657565b634e487b7160e01b600052602260045260246000fd5b91607f1691611d5b565b60025460009291611d9682611d4c565b8082529160018116908115611e0b5750600114611db1575050565b600260009081529293509091907f405787fa12a823e0f2b7631cc41b3ba8828b3321ca811111fa75cd3aa3bb5ace5b838310611df1575060209250010190565b600181602092949394548385870101520191019190611de0565b9050602093945060ff929192191683830152151560051b010190565b60009291815491611e3783611d4c565b8083529260018116908115611e8d5750600114611e5357505050565b60009081526020812093945091925b838310611e73575060209250010190565b600181602092949394548385870101520191019190611e62565b915050602093945060ff929192191683830152151560051b010190565b600754811015611ec95760076000526003602060002091020190600090565b634e487b7160e01b600052603260045260246000fd5b601f8211611eec57505050565b6000526020600020906020601f840160051c83019310611f27575b601f0160051c01905b818110611f1b575050565b60008155600101611f10565b9091508190611f07565b91909182811461200e57611f458354611d4c565b6001600160401b038111611c5457611f6781611f618454611d4c565b84611edf565b600093601f8211600114611fa857611f999293948291600092611f9d5750508160011b916000199060031b1c19161790565b9055565b015490503880610af7565b845260208085208386529085209094601f198316815b818110611ff657509583600195969710611fdd575b505050811b019055565b015460001960f88460031b161c19169055388080611fd3565b9192600180602092868b015481550194019201611fbe565b509050565b8054821015611ec95760005260206000200190600090565b91909182516001600160401b038111611c545761204c81611f618454611d4c565b6020601f821160011461207d578190611f99939495600092610dab5750508160011b916000199060031b1c19161790565b601f1982169083600052806000209160005b8181106120c6575095836001959697106120ad57505050811b019055565b015160001960f88460031b161c19169055388080611fd3565b9192602060018192868b01518155019401920161208f565b909291906001600160a01b03841680156122a8576000946120fe8461254a565b95331515806121fc575b509184917fddf252ad1be2c89b69c2b068fc378daa952ba7f163c4a11628f55a4df523b3ef61214997989460018060a01b038616988993846121bd576122be565b805460010190558481527f80bb2b638cc20bc4d0a60d66940f3ab4a00c1d7b313497ca82fb0b4ab00793026020526040812080546001600160a01b0319168517905580a4506001600160a01b03168083036121a357505050565b6364283d7b60e01b60005260045260245260445260646000fd5b60008781526000805160206125f38339815191526020526040902080546001600160a01b03191690556121ef886122be565b80546000190190556122be565b80612245575b1561220d5738612108565b84906001600160a01b03881661222f57602491637e27328960e01b8252600452fd5b60449163177e802f60e01b825233600452602452fd5b506001600160a01b0387163314801561228b575b80612202575060008581526000805160206125f383398151915260205260409020546001600160a01b03163314612202565b50612295876122f7565b338252602052604081205460ff16612259565b633250574960e11b600052600060045260246000fd5b6001600160a01b031660009081527f80bb2b638cc20bc4d0a60d66940f3ab4a00c1d7b313497ca82fb0b4ab00793036020526040902090565b6001600160a01b031660009081527f80bb2b638cc20bc4d0a60d66940f3ab4a00c1d7b313497ca82fb0b4ab00793056020526040902090565b6001600160a01b03168015612390576000805160206125d383398151915280546001600160a01b0319811683179091556001600160a01b03167f8be0079c531659141344cd1fd0a4f28419497f9722a3daafe3b4186f6b6457e0600080a3565b631e4fbdf760e01b600052600060045260246000fd5b6123af8161254a565b906001600160a01b038216156123c3575090565b637e27328960e01b60005260045260246000fd5b6000805160206125d3833981519152546001600160a01b031633036123f857565b63118cdaa760e01b6000523360045260246000fd5b823b61241b575b5050505050565b604051630a85bd0160e11b81526001600160a01b039182166004820152918116602483015260448201939093526080606482015291169160209082908190612467906084830190611bc7565b03816000865af18091600091612507575b50906124d157503d156124ca573d61248f81611c8b565b9061249d6040519283611c6a565b81523d6000602083013e5b805190816124c55782633250574960e11b60005260045260246000fd5b602001fd5b60606124a8565b6001600160e01b03191663757a42ff60e11b016124f357503880808080612414565b633250574960e11b60005260045260246000fd5b6020813d602011612542575b8161252060209383611c6a565b810103126110b95751906001600160e01b0319821682036101a7575038612478565b3d9150612513565b60009081527f80bb2b638cc20bc4d0a60d66940f3ab4a00c1d7b313497ca82fb0b4ab007930260205260409020546001600160a01b031690565b60ff6000805160206126138339815191525460401c16156125a157565b631afcd79f60e31b60005260046000fdfe80bb2b638cc20bc4d0a60d66940f3ab4a00c1d7b313497ca82fb0b4ab00793009016d09d72d40fdae2fd8ceac6b6234c7706214fd39c1cd1e609a0528c19930080bb2b638cc20bc4d0a60d66940f3ab4a00c1d7b313497ca82fb0b4ab0079304f0c57e16840df040f15088dc2f81fe391c3923bec73e23a9662efc9c229c6a0080bb2b638cc20bc4d0a60d66940f3ab4a00c1d7b313497ca82fb0b4ab0079301a2646970667358221220a0e4a78d07af382b23f175c7fd373a1c575eb7bde5771991dee7b43eaa372fbb64736f6c634300081a0033",
  "linkReferences": {},
  "deployedLinkReferences": {}
}