{
  "_format": "hh-sol-artifact-1",
  "contractName": "EventTicket",
  "sourceName": "contracts/TicktingContract.sol",
  "abi": [
    {
      "inputs": [
        {
          "internalType": "address",
          "name": "sender",
          "type": "address"
        },
        {
          "internalType": "uint256",
          "name": "tokenId",
          "type": "uint256"
        },
        {
          "internalType": "address",
          "name": "owner",
          "type": "address"
        }
      ],
      "name": "ERC721IncorrectOwner",
      "type": "error"
    },
    {
      "inputs": [
        {
          "internalType": "address",
          "name": "operator",
          "type": "address"
        },
        {
          "internalType": "uint256",
          "name": "tokenId",
          "type": "uint256"
        }
      ],
      "name": "ERC721InsufficientApproval",
      "type": "error"
    },
    {
      "inputs": [
        {
          "internalType": "address",
          "name": "approver",
          "type": "address"
        }
      ],
      "name": "ERC721InvalidApprover",
      "type": "error"
    },
    {
      "inputs": [
        {
          "internalType": "address",
          "name": "operator",
          "type": "address"
        }
      ],
      "name": "ERC721InvalidOperator",
      "type": "error"
    },
    {
      "inputs": [
        {
          "internalType": "address",
          "name": "owner",
          "type": "address"
        }
      ],
      "name": "ERC721InvalidOwner",
      "type": "error"
    },
    {
      "inputs": [
        {
          "internalType": "address",
          "name": "receiver",
          "type": "address"
        }
      ],
      "name": "ERC721InvalidReceiver",
      "type": "error"
    },
    {
      "inputs": [
        {
          "internalType": "address",
          "name": "sender",
          "type": "address"
        }
      ],
      "name": "ERC721InvalidSender",
      "type": "error"
    },
    {
      "inputs": [
        {
          "internalType": "uint256",
          "name": "tokenId",
          "type": "uint256"
        }
      ],
      "name": "ERC721NonexistentToken",
      "type": "error"
    },
    {
      "inputs": [],
      "name": "InvalidInitialization",
      "type": "error"
    },
    {
      "inputs": [],
      "name": "NotInitializing",
      "type": "error"
    },
    {
      "inputs": [
        {
          "internalType": "address",
          "name": "owner",
          "type": "address"
        }
      ],
      "name": "OwnableInvalidOwner",
      "type": "error"
    },
    {
      "inputs": [
        {
          "internalType": "address",
          "name": "account",
          "type": "address"
        }
      ],
      "name": "OwnableUnauthorizedAccount",
      "type": "error"
    },
    {
      "inputs": [
        {
          "internalType": "address",
          "name": "token",
          "type": "address"
        }
      ],
      "name": "SafeERC20FailedOperation",
      "type": "error"
    },
    {
      "inputs": [],
      "name": "TokenDoesNotExist",
      "type": "error"
    },
    {
      "anonymous": false,
      "inputs": [
        {
          "indexed": true,
          "internalType": "address",
          "name": "owner",
          "type": "address"
        },
        {
          "indexed": true,
          "internalType": "address",
          "name": "approved",
          "type": "address"
        },
        {
          "indexed": true,
          "internalType": "uint256",
          "name": "tokenId",
          "type": "uint256"
        }
      ],
      "name": "Approval",
      "type": "event"
    },
    {
      "anonymous": false,
      "inputs": [
        {
          "indexed": true,
          "internalType": "address",
          "name": "owner",
          "type": "address"
        },
        {
          "indexed": true,
          "internalType": "address",
          "name": "operator",
          "type": "address"
        },
        {
          "indexed": false,
          "internalType": "bool",
          "name": "approved",
          "type": "bool"
        }
      ],
      "name": "ApprovalForAll",
      "type": "event"
    },
    {
      "anonymous": false,
      "inputs": [
        {
          "indexed": false,
          "internalType": "uint64",
          "name": "version",
          "type": "uint64"
        }
      ],
      "name": "Initialized",
      "type": "event"
    },
    {
      "anonymous": false,
      "inputs": [
        {
          "indexed": true,
          "internalType": "address",
          "name": "previousOwner",
          "type": "address"
        },
        {
          "indexed": true,
          "internalType": "address",
          "name": "newOwner",
          "type": "address"
        }
      ],
      "name": "OwnershipTransferred",
      "type": "event"
    },
    {
      "anonymous": false,
      "inputs": [
        {
          "indexed": true,
          "internalType": "address",
          "name": "from",
          "type": "address"
        },
        {
          "indexed": true,
          "internalType": "address",
          "name": "to",
          "type": "address"
        },
        {
          "indexed": true,
          "internalType": "uint256",
          "name": "tokenId",
          "type": "uint256"
        }
      ],
      "name": "Transfer",
      "type": "event"
    },
    {
      "inputs": [
        {
          "internalType": "address",
          "name": "to",
          "type": "address"
        },
        {
          "internalType": "uint256",
          "name": "tokenId",
          "type": "uint256"
        }
      ],
      "name": "approve",
      "outputs": [],
      "stateMutability": "nonpayable",
      "type": "function"
    },
    {
      "inputs": [
        {
          "internalType": "address",
          "name": "owner",
          "type": "address"
        }
      ],
      "name": "balanceOf",
      "outputs": [
        {
          "internalType": "uint256",
          "name": "",
          "type": "uint256"
        }
      ],
      "stateMutability": "view",
      "type": "function"
    },
    {
      "inputs": [],
      "name": "eventDeployer",
      "outputs": [
        {
          "internalType": "address",
          "name": "",
          "type": "address"
        }
      ],
      "stateMutability": "view",
      "type": "function"
    },
    {
      "inputs": [],
      "name": "eventDetail",
      "outputs": [
        {
          "internalType": "string",
          "name": "eventName",
          "type": "string"
        },
        {
          "internalType": "uint256",
          "name": "startDate",
          "type": "uint256"
        },
        {
          "internalType": "uint256",
          "name": "endDate",
          "type": "uint256"
        },
        {
          "internalType": "uint256",
          "name": "ticketStartBuyDate",
          "type": "uint256"
        },
        {
          "internalType": "uint256",
          "name": "ticketEndBuyDate",
          "type": "uint256"
        }
      ],
      "stateMutability": "view",
      "type": "function"
    },
    {
      "inputs": [],
      "name": "fundsWallet",
      "outputs": [
        {
          "internalType": "address",
          "name": "",
          "type": "address"
        }
      ],
      "stateMutability": "view",
      "type": "function"
    },
    {
      "inputs": [
        {
          "internalType": "uint256",
          "name": "tokenId",
          "type": "uint256"
        }
      ],
      "name": "getApproved",
      "outputs": [
        {
          "internalType": "address",
          "name": "",
          "type": "address"
        }
      ],
      "stateMutability": "view",
      "type": "function"
    },
    {
      "inputs": [],
      "name": "getTickets",
      "outputs": [
        {
          "components": [
            {
              "internalType": "string",
              "name": "ticketType",
              "type": "string"
            },
            {
              "internalType": "uint256",
              "name": "quantity",
              "type": "uint256"
            },
            {
              "internalType": "uint256",
              "name": "price",
              "type": "uint256"
            }
          ],
          "internalType": "struct EventTicket.Ticket[]",
          "name": "",
          "type": "tuple[]"
        }
      ],
      "stateMutability": "view",
      "type": "function"
    },
    {
      "inputs": [
        {
          "internalType": "string",
          "name": "name",
          "type": "string"
        },
        {
          "internalType": "string",
          "name": "symbol",
          "type": "string"
        },
        {
          "internalType": "address",
          "name": "_usdtTokenAddress",
          "type": "address"
        },
        {
          "internalType": "string",
          "name": "_eventName",
          "type": "string"
        },
        {
          "internalType": "uint256",
          "name": "_startDate",
          "type": "uint256"
        },
        {
          "internalType": "uint256",
          "name": "_endDate",
          "type": "uint256"
        },
        {
          "internalType": "uint256",
          "name": "_ticketStartBuyDate",
          "type": "uint256"
        },
        {
          "internalType": "uint256",
          "name": "_ticketEndBuyDate",
          "type": "uint256"
        },
        {
          "components": [
            {
              "internalType": "string",
              "name": "ticketType",
              "type": "string"
            },
            {
              "internalType": "uint256",
              "name": "quantity",
              "type": "uint256"
            },
            {
              "internalType": "uint256",
              "name": "price",
              "type": "uint256"
            }
          ],
          "internalType": "struct EventTicket.Ticket[]",
          "name": "_tickets",
          "type": "tuple[]"
        },
        {
          "internalType": "address",
          "name": "_fundsWallet",
          "type": "address"
        },
        {
          "internalType": "address",
          "name": "_owner",
          "type": "address"
        },
        {
          "internalType": "address",
          "name": "_eventDeployer",
          "type": "address"
        }
      ],
      "name": "initialize",
      "outputs": [],
      "stateMutability": "nonpayable",
      "type": "function"
    },
    {
      "inputs": [
        {
          "internalType": "address",
          "name": "owner",
          "type": "address"
        },
        {
          "internalType": "address",
          "name": "operator",
          "type": "address"
        }
      ],
      "name": "isApprovedForAll",
      "outputs": [
        {
          "internalType": "bool",
          "name": "",
          "type": "bool"
        }
      ],
      "stateMutability": "view",
      "type": "function"
    },
    {
      "inputs": [
        {
          "internalType": "uint256",
          "name": "ticketIndex",
          "type": "uint256"
        },
        {
          "internalType": "string",
          "name": "_tokenURI",
          "type": "string"
        }
      ],
      "name": "mintTicket",
      "outputs": [],
      "stateMutability": "nonpayable",
      "type": "function"
    },
    {
      "inputs": [],
      "name": "name",
      "outputs": [
        {
          "internalType": "string",
          "name": "",
          "type": "string"
        }
      ],
      "stateMutability": "view",
      "type": "function"
    },
    {
      "inputs": [],
      "name": "owner",
      "outputs": [
        {
          "internalType": "address",
          "name": "",
          "type": "address"
        }
      ],
      "stateMutability": "view",
      "type": "function"
    },
    {
      "inputs": [
        {
          "internalType": "uint256",
          "name": "tokenId",
          "type": "uint256"
        }
      ],
      "name": "ownerOf",
      "outputs": [
        {
          "internalType": "address",
          "name": "",
          "type": "address"
        }
      ],
      "stateMutability": "view",
      "type": "function"
    },
    {
      "inputs": [],
      "name": "renounceOwnership",
      "outputs": [],
      "stateMutability": "nonpayable",
      "type": "function"
    },
    {
      "inputs": [
        {
          "internalType": "address",
          "name": "from",
          "type": "address"
        },
        {
          "internalType": "address",
          "name": "to",
          "type": "address"
        },
        {
          "internalType": "uint256",
          "name": "tokenId",
          "type": "uint256"
        }
      ],
      "name": "safeTransferFrom",
      "outputs": [],
      "stateMutability": "nonpayable",
      "type": "function"
    },
    {
      "inputs": [
        {
          "internalType": "address",
          "name": "from",
          "type": "address"
        },
        {
          "internalType": "address",
          "name": "to",
          "type": "address"
        },
        {
          "internalType": "uint256",
          "name": "tokenId",
          "type": "uint256"
        },
        {
          "internalType": "bytes",
          "name": "data",
          "type": "bytes"
        }
      ],
      "name": "safeTransferFrom",
      "outputs": [],
      "stateMutability": "nonpayable",
      "type": "function"
    },
    {
      "inputs": [
        {
          "internalType": "address",
          "name": "operator",
          "type": "address"
        },
        {
          "internalType": "bool",
          "name": "approved",
          "type": "bool"
        }
      ],
      "name": "setApprovalForAll",
      "outputs": [],
      "stateMutability": "nonpayable",
      "type": "function"
    },
    {
      "inputs": [
        {
          "internalType": "address",
          "name": "_eventDeployer",
          "type": "address"
        }
      ],
      "name": "setEventDeployer",
      "outputs": [],
      "stateMutability": "nonpayable",
      "type": "function"
    },
    {
      "inputs": [
        {
          "internalType": "bytes4",
          "name": "interfaceId",
          "type": "bytes4"
        }
      ],
      "name": "supportsInterface",
      "outputs": [
        {
          "internalType": "bool",
          "name": "",
          "type": "bool"
        }
      ],
      "stateMutability": "view",
      "type": "function"
    },
    {
      "inputs": [],
      "name": "symbol",
      "outputs": [
        {
          "internalType": "string",
          "name": "",
          "type": "string"
        }
      ],
      "stateMutability": "view",
      "type": "function"
    },
    {
      "inputs": [
        {
          "internalType": "uint256",
          "name": "",
          "type": "uint256"
        }
      ],
      "name": "ticketInfo",
      "outputs": [
        {
          "internalType": "string",
          "name": "ticketType",
          "type": "string"
        },
        {
          "internalType": "uint256",
          "name": "quantity",
          "type": "uint256"
        },
        {
          "internalType": "uint256",
          "name": "price",
          "type": "uint256"
        }
      ],
      "stateMutability": "view",
      "type": "function"
    },
    {
      "inputs": [
        {
          "internalType": "uint256",
          "name": "tokenId",
          "type": "uint256"
        }
      ],
      "name": "tokenURI",
      "outputs": [
        {
          "internalType": "string",
          "name": "",
          "type": "string"
        }
      ],
      "stateMutability": "view",
      "type": "function"
    },
    {
      "inputs": [
        {
          "internalType": "address",
          "name": "from",
          "type": "address"
        },
        {
          "internalType": "address",
          "name": "to",
          "type": "address"
        },
        {
          "internalType": "uint256",
          "name": "tokenId",
          "type": "uint256"
        }
      ],
      "name": "transferFrom",
      "outputs": [],
      "stateMutability": "nonpayable",
      "type": "function"
    },
    {
      "inputs": [
        {
          "internalType": "address",
          "name": "newOwner",
          "type": "address"
        }
      ],
      "name": "transferOwnership",
      "outputs": [],
      "stateMutability": "nonpayable",
      "type": "function"
    },
    {
      "inputs": [],
      "name": "usdtToken",
      "outputs": [
        {
          "internalType": "contract IERC20",
          "name": "",
          "type": "address"
        }
      ],
      "stateMutability": "view",
      "type": "function"
    },
    {
      "inputs": [],
      "name": "withdrawFunds",
      "outputs": [],
      "stateMutability": "nonpayable",
      "type": "function"
    }
  ],
  "bytecode": "0x608080604052346015576124a9908161001b8239f35b600080fdfe608080604052600436101561001357600080fd5b60003560e01c90816301ffc9a714611af95750806306fdde0314611a37578063081812fc146119ec578063095ea7b3146118fa57806319e2a211146113f15780632194f3a2146113c857806323b872dd146113b157806324600fc314611188578063321db7261461108157806342842e0e146110515780634ed0262214610f2a5780636352211e14610efa57806370a0823114610ea8578063715018a614610e3e5780638da5cb5b14610e0857806395d89b4114610d215780639dec65ed14610cf8578063a22cb46514610c5c578063a87d8c0014610359578063a98ad46c14610330578063b88d4fde146102c5578063bda9060414610282578063c87b56dd14610216578063e985e9c5146101c8578063f2fde38b1461019d5763fa7130831461013d57600080fd5b34610198576020366003190112610198576004356000526009602052610189604060002061016a81611cf1565b9060026001820154910154604051938493606085526060850190611b64565b91602084015260408301520390f35b600080fd5b34610198576020366003190112610198576101c66101b9611ba5565b6101c16121f8565b612151565b005b34610198576040366003190112610198576101e1611ba5565b6101f26101ec611bbb565b91612118565b9060018060a01b0316600052602052602060ff604060002054166040519015158152f35b34610198576020366003190112610198576004356001600160a01b0361023b8261236b565b161561027157600052600a60205261026d6102596040600020611cf1565b604051918291602083526020830190611b64565b0390f35b63677510db60e11b60005260046000fd5b346101985760203660031901126101985761029b611ba5565b6102a36121f8565b600080546001600160a01b0319166001600160a01b0392909216919091179055005b34610198576080366003190112610198576102de611ba5565b6102e6611bbb565b90604435606435926001600160401b03841161019857366023850112156101985761031e6101c6943690602481600401359101611c28565b9261032a838383611f15565b3361222e565b34610198576000366003190112610198576007546040516001600160a01b039091168152602090f35b3461019857610180366003190112610198576004356001600160401b0381116101985761038a903690600401611c5f565b6024356001600160401b038111610198576103a9903690600401611c5f565b6044356001600160a01b0381169290839003610198576064356001600160401b038111610198576103de903690600401611c5f565b9261010435926001600160401b038411610198573660238501121561019857836004013561040b81611d95565b946104196040519687611bec565b8186526024602087019260051b820101903682116101985760248101925b828410610be757505050610124356001600160a01b03811693915083900361019857610144356001600160a01b038116810361019857610164356001600160a01b038116939084900361019857600080516020612434833981519152549560ff8760401c1615966001600160401b03811680159081610bdf575b6001149081610bd5575b159081610bcc575b50610bbb5767ffffffffffffffff1981166001176000805160206124348339815191525587610b8e575b506104f66123a5565b6104fe6123a5565b8051906001600160401b03821161096d576105276000805160206123d483398151915254611cb7565b601f8111610b1c575b50602090601f8311600114610a7c57610562929160009183610762575b50508160011b916000199060031b1c19161790565b6000805160206123d4833981519152555b8051906001600160401b03821161096d5761059c60008051602061245483398151915254611cb7565b601f8111610a0a575b50602090601f83116001146109835791806105db926105fc95946000926107625750508160011b916000199060031b1c19161790565b600080516020612454833981519152555b6105f46123a5565b6101c16123a5565b6001600160601b0360a01b60075416176007556001600160601b0360a01b60005416176000556001600160601b0360a01b600854161760085582516001600160401b03811161096d57610650600154611cb7565b601f8111610908575b506020601f821160011461088457819061068b9394956000926108795750508160011b916000199060031b1c19161790565b6001555b60843560025560a43560035560c43560045560e43560055560005b825181101561081457600060208260051b8501015160065468010000000000000000811015610800578060016106e39201600655611dac565b9290926107ec578151908151916001600160401b0383116107d8576107128361070c8754611cb7565b87611de1565b602091601f841160011461076d578360029460409460019998979461074b94926107625750508160011b916000199060031b1c19161790565b84555b6020810151868501550151910155016106aa565b015190508b8061054d565b9190601f198416868452828420935b8181106107c0575093604093600198979693899383600298106107a7575b505050811b01845561074e565b015160001960f88460031b161c191690558a808061079a565b9293602060018192878601518155019501930161077c565b634e487b7160e01b82526041600452602482fd5b634e487b7160e01b81526004819052602490fd5b634e487b7160e01b83526041600452602483fd5b506000600b5561082057005b68ff0000000000000000196000805160206124348339815191525416600080516020612434833981519152557fc7f505b2f371ae2175ee4913f4499e1f2633a7b5936321eed1cdaeb6115181d2602060405160018152a1005b01519050858061054d565b601f1982169060016000527fb10e2d527612073b26eecdfd717e6a320cf44b4afac2b0732d9fcbe2b7fa0cf69160005b8181106108f0575095836001959697106108d7575b505050811b0160015561068f565b015160001960f88460031b161c191690558480806108c9565b9192602060018192868b0151815501940192016108b4565b60016000527fb10e2d527612073b26eecdfd717e6a320cf44b4afac2b0732d9fcbe2b7fa0cf6601f830160051c81019160208410610963575b601f0160051c01905b8181106109575750610659565b6000815560010161094a565b9091508190610941565b634e487b7160e01b600052604160045260246000fd5b90601f19831691600080516020612454833981519152600052816000209260005b8181106109f257509160019391856105fc979694106109d9575b505050811b01600080516020612454833981519152556105ec565b015160001960f88460031b161c191690558a80806109be565b929360206001819287860151815501950193016109a4565b6000805160206124548339815191526000527ff4bad0a69248f59680a4f2b3000328cec71a413447c96781cfe5996daa8c456e601f840160051c81019160208510610a72575b601f0160051c01905b818110610a6657506105a5565b60008155600101610a59565b9091508190610a50565b90601f198316916000805160206123d48339815191526000527f37c58c799b6609234b945e882912ee9ad34948a1dfaa20a97485e1a7752bbf819260005b818110610b045750908460019594939210610aeb575b505050811b016000805160206123d483398151915255610573565b015160001960f88460031b161c191690558a8080610ad0565b92936020600181928786015181550195019301610aba565b6000805160206123d48339815191526000527f37c58c799b6609234b945e882912ee9ad34948a1dfaa20a97485e1a7752bbf81601f840160051c81019160208510610b84575b601f0160051c01905b818110610b785750610530565b60008155600101610b6b565b9091508190610b62565b68ffffffffffffffffff1916680100000000000000011760008051602061243483398151915255896104ed565b63f92ee8a960e01b60005260046000fd5b9050158b6104c3565b303b1591506104bb565b8991506104b1565b83356001600160401b038111610198578201606060231982360301126101985760405191610c1483611bd1565b6024820135926001600160401b03841161019857606460209493610c3f869560243691840101611c5f565b835260448101358584015201356040820152815201930192610437565b3461019857604036600319011261019857610c75611ba5565b60243590811515809203610198576001600160a01b0316908115610ce357610c9c33612118565b82600052602052604060002060ff1981541660ff83161790556040519081527f17307eab39ab6107e8899845ad3d59bd9653f200f220920489ca2b5937696c3160203392a3005b50630b61174360e31b60005260045260246000fd5b34610198576000366003190112610198576000546040516001600160a01b039091168152602090f35b3461019857600036600319011261019857604051600060008051602061245483398151915254610d5081611cb7565b8084529060018116908115610de45750600114610d78575b61026d8361025981850382611bec565b60008051602061245483398151915260009081527ff4bad0a69248f59680a4f2b3000328cec71a413447c96781cfe5996daa8c456e939250905b808210610dca57509091508101602001610259610d68565b919260018160209254838588010152019101909291610db2565b60ff191660208086019190915291151560051b840190910191506102599050610d68565b34610198576000366003190112610198576000805160206123f4833981519152546040516001600160a01b039091168152602090f35b3461019857600036600319011261019857610e576121f8565b6000805160206123f483398151915280546001600160a01b031981169091556000906001600160a01b03167f8be0079c531659141344cd1fd0a4f28419497f9722a3daafe3b4186f6b6457e08280a3005b3461019857602036600319011261019857610ec1611ba5565b6001600160a01b03811615610ee457610edb6020916120df565b54604051908152f35b6322718ad960e21b600052600060045260246000fd5b34610198576020366003190112610198576020610f186004356121c7565b6040516001600160a01b039091168152f35b3461019857600036600319011261019857600654610f4781611d95565b90610f556040519283611bec565b80825260208201908160066000527ff652222313e28459528d920b65115c16c04f3efc82aaedc97be59f3f377c0d3f6000915b83831061101357848660405191829160208301906020845251809152604083019060408160051b85010192916000905b828210610fc757505050500390f35b919360019193955060208091603f19898203018552875190604080610ff58451606085526060850190611b64565b93858101518685015201519101529601920192018594939192610fb8565b6003602060019260405161102681611bd1565b61102f86611cf1565b8152848601548382015260028601546040820152815201920192019190610f88565b34610198576101c661106236611c7d565b9060405192611072602085611bec565b6000845261032a838383611f15565b346101985760003660031901126101985760405160006001546110a381611cb7565b80845290600181169081156111645750600114611105575b6110ec836110cb81850382611bec565b6002546003546004546005549160405195869560a0875260a0870190611b64565b9360208601526040850152606084015260808301520390f35b600160009081527fb10e2d527612073b26eecdfd717e6a320cf44b4afac2b0732d9fcbe2b7fa0cf6939250905b80821061114a575090915081016020016110cb6110bb565b919260018160209254838588010152019101909291611132565b60ff191660208086019190915291151560051b840190910191506110cb90506110bb565b34610198576000366003190112610198576111a16121f8565b6000546040516326749ad760e01b815230600482015290602090829060249082906001600160a01b03165afa90811561129a5760009161136f575b5015611314576007546040516370a0823160e01b81523060048201526001600160a01b0390911690602081602481855afa90811561129a576000916112e2575b5080156112a657600060209160018060a01b036008541690604051908482019263a9059cbb60e01b8452602483015260448201526044815261125f606482611bec565b519082855af11561129a576000513d6112915750803b155b61127d57005b635274afe760e01b60005260045260246000fd5b60011415611277565b6040513d6000823e3d90fd5b60405162461bcd60e51b81526020600482015260146024820152734e6f2066756e647320746f20776974686472617760601b6044820152606490fd5b90506020813d60201161130c575b816112fd60209383611bec565b8101031261019857518261121c565b3d91506112f0565b60405162461bcd60e51b815260206004820152602d60248201527f5468697320636f6e7472616374206973206e6f7420617070726f76656420666f60448201526c72207769746864726177616c7360981b6064820152608490fd5b6020813d6020116113a9575b8161138860209383611bec565b810103126113a557519081151582036113a25750816111dc565b80fd5b5080fd5b3d915061137b565b34610198576101c66113c236611c7d565b91611f15565b34610198576000366003190112610198576008546040516001600160a01b039091168152602090f35b34610198576040366003190112610198576004356024356001600160401b03811161019857611424903690600401611c5f565b9060045442106118ab5760055442116118665760065481101561182b5761144a90611dac565b506001810191825480156117f45760001981019081116117de578355600b54600181018082116117de57600b556020916040516114878482611bec565b6000815233156117c85761149a8361236b565b6001600160a01b0381168015159190859083611789575b6114ba336120df565b8054600101905560008281527f80bb2b638cc20bc4d0a60d66940f3ab4a00c1d7b313497ca82fb0b4ab007930289526040812080546001600160a01b0319163390811790915591907fddf252ad1be2c89b69c2b068fc378daa952ba7f163c4a11628f55a4df523b3ef9080a45061177357333b61165a575b506001600160a01b036115448361236b565b16156102715781600052600a83526040600020908051906001600160401b03821161096d5761157d826115778554611cb7565b85611de1565b8490601f83116001146115ef5791806115b2926009979695946000926115e45750508160011b916000199060031b1c19161790565b90555b600052526040600020918183036115c857005b60029182916115d78286611e33565b5460018501550154910155005b01519050898061054d565b90601f1983169184600052866000209260005b8181106116435750916001939185600999989796941061162a575b505050811b0190556115b5565b015160001960f88460031b161c1916905588808061161d565b929388600181928786015181550195019301611602565b83611698916040979695975180938192630a85bd0160e11b835233600484015260006024840152876044840152608060648401526084830190611b64565b03816000335af18091600091611735575b50906116ff57853d156116f8573d6116c081611c0d565b906116ce6040519283611bec565b81523d60008383013e5b805191826116f557633250574960e11b6000523360045260246000fd5b01fd5b60606116d8565b939492936001600160e01b03191663757a42ff60e11b016117205785611532565b633250574960e11b6000523360045260246000fd5b8781813d831161176c575b61174a8183611bec565b810103126113a55751906001600160e01b0319821682036113a25750876116a9565b503d611740565b6339e3563760e11b600052600060045260246000fd5b60008281526000805160206124148339815191526020526040902080546001600160a01b03191690556117bb836120df565b80546000190190556114b1565b633250574960e11b600052600060045260246000fd5b634e487b7160e01b600052601160045260246000fd5b60405162461bcd60e51b815260206004820152600f60248201526e151a58dad95d081cdbdb19081bdd5d608a1b6044820152606490fd5b60405162461bcd60e51b8152602060048201526013602482015272496e76616c6964207469636b6574207479706560681b6044820152606490fd5b60405162461bcd60e51b815260206004820152601760248201527f5469636b65742073616c6573206861766520656e6465640000000000000000006044820152606490fd5b60405162461bcd60e51b815260206004820152602160248201527f5469636b65742073616c65732068617665206e6f7420737461727465642079656044820152601d60fa1b6064820152608490fd5b3461019857604036600319011261019857611913611ba5565b60243561191f816121c7565b331515806119d9575b806119b5575b6119a05781906001600160a01b0384811691167f8c5be1e5ebec7d5bd14f71427d1e84f3dd0314c0f7b2291e5b200ac8c7c3b925600080a460009081526000805160206124148339815191526020526040902080546001600160a01b0319166001600160a01b03909216919091179055005b63a9fbf51f60e01b6000523360045260246000fd5b506119bf81612118565b336000908152602091909152604090205460ff161561192e565b506001600160a01b038116331415611928565b34610198576020366003190112610198576020610f18600435611a0e816121c7565b50600090815260008051602061241483398151915260205260409020546001600160a01b031690565b346101985760003660031901126101985760405160006000805160206123d483398151915254611a6681611cb7565b8084529060018116908115610de45750600114611a8d5761026d8361025981850382611bec565b6000805160206123d483398151915260009081527f37c58c799b6609234b945e882912ee9ad34948a1dfaa20a97485e1a7752bbf81939250905b808210611adf57509091508101602001610259610d68565b919260018160209254838588010152019101909291611ac7565b34610198576020366003190112610198576004359063ffffffff60e01b8216809203610198576020916380ac58cd60e01b8114908115611b53575b8115611b42575b5015158152f35b6301ffc9a760e01b14905083611b3b565b635b5e139f60e01b81149150611b34565b919082519283825260005b848110611b90575050826000602080949584010152601f8019910116010190565b80602080928401015182828601015201611b6f565b600435906001600160a01b038216820361019857565b602435906001600160a01b038216820361019857565b606081019081106001600160401b0382111761096d57604052565b90601f801991011681019081106001600160401b0382111761096d57604052565b6001600160401b03811161096d57601f01601f191660200190565b929192611c3482611c0d565b91611c426040519384611bec565b829481845281830111610198578281602093846000960137010152565b9080601f8301121561019857816020611c7a93359101611c28565b90565b6060906003190112610198576004356001600160a01b038116810361019857906024356001600160a01b0381168103610198579060443590565b90600182811c92168015611ce7575b6020831014611cd157565b634e487b7160e01b600052602260045260246000fd5b91607f1691611cc6565b9060405191826000825492611d0584611cb7565b8084529360018116908115611d735750600114611d2c575b50611d2a92500383611bec565b565b90506000929192526020600020906000915b818310611d57575050906020611d2a9282010138611d1d565b6020919350806001915483858901015201910190918492611d3e565b905060209250611d2a94915060ff191682840152151560051b82010138611d1d565b6001600160401b03811161096d5760051b60200190565b600654811015611dcb5760066000526003602060002091020190600090565b634e487b7160e01b600052603260045260246000fd5b601f8211611dee57505050565b6000526020600020906020601f840160051c83019310611e29575b601f0160051c01905b818110611e1d575050565b60008155600101611e12565b9091508190611e09565b919091828114611f1057611e478354611cb7565b6001600160401b03811161096d57611e6981611e638454611cb7565b84611de1565b600093601f8211600114611eaa57611e9b9293948291600092611e9f5750508160011b916000199060031b1c19161790565b9055565b01549050388061054d565b845260208085208386529085209094601f198316815b818110611ef857509583600195969710611edf575b505050811b019055565b015460001960f88460031b161c19169055388080611ed5565b9192600180602092868b015481550194019201611ec0565b509050565b909291906001600160a01b03841680156117c857600094611f358461236b565b9533151580612033575b509184917fddf252ad1be2c89b69c2b068fc378daa952ba7f163c4a11628f55a4df523b3ef611f8097989460018060a01b03861698899384611ff4576120df565b805460010190558481527f80bb2b638cc20bc4d0a60d66940f3ab4a00c1d7b313497ca82fb0b4ab00793026020526040812080546001600160a01b0319168517905580a4506001600160a01b0316808303611fda57505050565b6364283d7b60e01b60005260045260245260445260646000fd5b60008781526000805160206124148339815191526020526040902080546001600160a01b0319169055612026886120df565b80546000190190556120df565b8061207c575b156120445738611f3f565b84906001600160a01b03881661206657602491637e27328960e01b8252600452fd5b60449163177e802f60e01b825233600452602452fd5b506001600160a01b038716331480156120c2575b806120395750600085815260008051602061241483398151915260205260409020546001600160a01b03163314612039565b506120cc87612118565b338252602052604081205460ff16612090565b6001600160a01b031660009081527f80bb2b638cc20bc4d0a60d66940f3ab4a00c1d7b313497ca82fb0b4ab00793036020526040902090565b6001600160a01b031660009081527f80bb2b638cc20bc4d0a60d66940f3ab4a00c1d7b313497ca82fb0b4ab00793056020526040902090565b6001600160a01b031680156121b1576000805160206123f483398151915280546001600160a01b0319811683179091556001600160a01b03167f8be0079c531659141344cd1fd0a4f28419497f9722a3daafe3b4186f6b6457e0600080a3565b631e4fbdf760e01b600052600060045260246000fd5b6121d08161236b565b906001600160a01b038216156121e4575090565b637e27328960e01b60005260045260246000fd5b6000805160206123f4833981519152546001600160a01b0316330361221957565b63118cdaa760e01b6000523360045260246000fd5b823b61223c575b5050505050565b604051630a85bd0160e11b81526001600160a01b039182166004820152918116602483015260448201939093526080606482015291169160209082908190612288906084830190611b64565b03816000865af18091600091612328575b50906122f257503d156122eb573d6122b081611c0d565b906122be6040519283611bec565b81523d6000602083013e5b805190816122e65782633250574960e11b60005260045260246000fd5b602001fd5b60606122c9565b6001600160e01b03191663757a42ff60e11b0161231457503880808080612235565b633250574960e11b60005260045260246000fd5b6020813d602011612363575b8161234160209383611bec565b810103126113a55751906001600160e01b0319821682036113a2575038612299565b3d9150612334565b60009081527f80bb2b638cc20bc4d0a60d66940f3ab4a00c1d7b313497ca82fb0b4ab007930260205260409020546001600160a01b031690565b60ff6000805160206124348339815191525460401c16156123c257565b631afcd79f60e31b60005260046000fdfe80bb2b638cc20bc4d0a60d66940f3ab4a00c1d7b313497ca82fb0b4ab00793009016d09d72d40fdae2fd8ceac6b6234c7706214fd39c1cd1e609a0528c19930080bb2b638cc20bc4d0a60d66940f3ab4a00c1d7b313497ca82fb0b4ab0079304f0c57e16840df040f15088dc2f81fe391c3923bec73e23a9662efc9c229c6a0080bb2b638cc20bc4d0a60d66940f3ab4a00c1d7b313497ca82fb0b4ab0079301a26469706673582212206552b3f64bd2cbe17261e3da47a7378865ea6cf91975799410d90cbe1bc41b7c64736f6c634300081a0033",
  "linkReferences": {},
  "deployedLinkReferences": {}
}