{
  "_format": "hh-sol-artifact-1",
  "contractName": "NatirumMarketplace",
  "sourceName": "contracts/Natrium-Nft-Marketplace.sol",
  "abi": [
    {
      "inputs": [],
      "name": "InvalidInitialization",
      "type": "error"
    },
    {
      "inputs": [],
      "name": "NotInitializing",
      "type": "error"
    },
    {
      "inputs": [
        {
          "internalType": "address",
          "name": "owner",
          "type": "address"
        }
      ],
      "name": "OwnableInvalidOwner",
      "type": "error"
    },
    {
      "inputs": [
        {
          "internalType": "address",
          "name": "account",
          "type": "address"
        }
      ],
      "name": "OwnableUnauthorizedAccount",
      "type": "error"
    },
    {
      "inputs": [],
      "name": "ReentrancyGuardReentrantCall",
      "type": "error"
    },
    {
      "anonymous": false,
      "inputs": [
        {
          "indexed": false,
          "internalType": "uint64",
          "name": "version",
          "type": "uint64"
        }
      ],
      "name": "Initialized",
      "type": "event"
    },
    {
      "anonymous": false,
      "inputs": [
        {
          "indexed": false,
          "internalType": "address",
          "name": "seller",
          "type": "address"
        },
        {
          "indexed": false,
          "internalType": "uint256",
          "name": "tokenID",
          "type": "uint256"
        },
        {
          "indexed": false,
          "internalType": "address",
          "name": "hostContract",
          "type": "address"
        },
        {
          "indexed": false,
          "internalType": "uint256",
          "name": "nftPrice",
          "type": "uint256"
        },
        {
          "indexed": false,
          "internalType": "bool",
          "name": "isListed",
          "type": "bool"
        }
      ],
      "name": "ListNFT",
      "type": "event"
    },
    {
      "anonymous": false,
      "inputs": [
        {
          "indexed": true,
          "internalType": "address",
          "name": "previousOwner",
          "type": "address"
        },
        {
          "indexed": true,
          "internalType": "address",
          "name": "newOwner",
          "type": "address"
        }
      ],
      "name": "OwnershipTransferred",
      "type": "event"
    },
    {
      "anonymous": false,
      "inputs": [
        {
          "indexed": false,
          "internalType": "address",
          "name": "buyer",
          "type": "address"
        },
        {
          "indexed": false,
          "internalType": "uint256",
          "name": "offerPrice",
          "type": "uint256"
        },
        {
          "indexed": false,
          "internalType": "bool",
          "name": "isRejected",
          "type": "bool"
        }
      ],
      "name": "RejectOffer",
      "type": "event"
    },
    {
      "anonymous": false,
      "inputs": [
        {
          "indexed": false,
          "internalType": "address",
          "name": "seller",
          "type": "address"
        },
        {
          "indexed": false,
          "internalType": "uint256",
          "name": "tokenID",
          "type": "uint256"
        },
        {
          "indexed": false,
          "internalType": "address",
          "name": "hostContract",
          "type": "address"
        },
        {
          "indexed": false,
          "internalType": "bool",
          "name": "isUnlisted",
          "type": "bool"
        }
      ],
      "name": "UnListNFT",
      "type": "event"
    },
    {
      "anonymous": false,
      "inputs": [
        {
          "indexed": false,
          "internalType": "address",
          "name": "buyer",
          "type": "address"
        },
        {
          "indexed": false,
          "internalType": "uint256",
          "name": "acceptedPrice",
          "type": "uint256"
        },
        {
          "indexed": false,
          "internalType": "uint256",
          "name": "tokenId",
          "type": "uint256"
        },
        {
          "indexed": false,
          "internalType": "bool",
          "name": "isAccepted",
          "type": "bool"
        }
      ],
      "name": "acceptOffer",
      "type": "event"
    },
    {
      "anonymous": false,
      "inputs": [
        {
          "indexed": false,
          "internalType": "address",
          "name": "buyer",
          "type": "address"
        },
        {
          "indexed": false,
          "internalType": "uint256",
          "name": "tokenID",
          "type": "uint256"
        },
        {
          "indexed": false,
          "internalType": "uint256",
          "name": "paidPrice",
          "type": "uint256"
        },
        {
          "indexed": false,
          "internalType": "uint256",
          "name": "timeStamp",
          "type": "uint256"
        }
      ],
      "name": "buyNFT",
      "type": "event"
    },
    {
      "anonymous": false,
      "inputs": [
        {
          "indexed": false,
          "internalType": "address",
          "name": "buyer",
          "type": "address"
        },
        {
          "indexed": false,
          "internalType": "uint256",
          "name": "offerPrice",
          "type": "uint256"
        }
      ],
      "name": "makeOffer",
      "type": "event"
    },
    {
      "anonymous": false,
      "inputs": [
        {
          "indexed": false,
          "internalType": "address",
          "name": "admin",
          "type": "address"
        },
        {
          "indexed": false,
          "internalType": "uint8",
          "name": "serviceFee",
          "type": "uint8"
        }
      ],
      "name": "servicePercentage",
      "type": "event"
    },
    {
      "anonymous": false,
      "inputs": [
        {
          "indexed": false,
          "internalType": "address",
          "name": "seller",
          "type": "address"
        },
        {
          "indexed": false,
          "internalType": "uint256",
          "name": "nftPrice",
          "type": "uint256"
        },
        {
          "indexed": false,
          "internalType": "uint256",
          "name": "timeStamp",
          "type": "uint256"
        }
      ],
      "name": "transferNftPrice",
      "type": "event"
    },
    {
      "anonymous": false,
      "inputs": [
        {
          "indexed": false,
          "internalType": "address",
          "name": "owner",
          "type": "address"
        },
        {
          "indexed": false,
          "internalType": "uint256",
          "name": "serviceFees",
          "type": "uint256"
        }
      ],
      "name": "transferServiceFees",
      "type": "event"
    },
    {
      "anonymous": false,
      "inputs": [
        {
          "indexed": false,
          "internalType": "address",
          "name": "buyer",
          "type": "address"
        },
        {
          "indexed": false,
          "internalType": "uint256",
          "name": "amount",
          "type": "uint256"
        },
        {
          "indexed": false,
          "internalType": "uint256",
          "name": "timeStamp",
          "type": "uint256"
        }
      ],
      "name": "withdraw",
      "type": "event"
    },
    {
      "inputs": [
        {
          "internalType": "uint256",
          "name": "_tokenId",
          "type": "uint256"
        },
        {
          "internalType": "address",
          "name": "_buyer",
          "type": "address"
        }
      ],
      "name": "acceptOffers",
      "outputs": [],
      "stateMutability": "nonpayable",
      "type": "function"
    },
    {
      "inputs": [
        {
          "internalType": "uint256",
          "name": "_tokenId",
          "type": "uint256"
        },
        {
          "internalType": "address",
          "name": "_seller",
          "type": "address"
        },
        {
          "internalType": "address",
          "name": "_hostContract",
          "type": "address"
        }
      ],
      "name": "buyNft",
      "outputs": [],
      "stateMutability": "payable",
      "type": "function"
    },
    {
      "inputs": [],
      "name": "contractOwner",
      "outputs": [
        {
          "internalType": "address",
          "name": "",
          "type": "address"
        }
      ],
      "stateMutability": "view",
      "type": "function"
    },
    {
      "inputs": [
        {
          "internalType": "uint256",
          "name": "_tokenId",
          "type": "uint256"
        },
        {
          "internalType": "uint256",
          "name": "_offerPrice",
          "type": "uint256"
        },
        {
          "internalType": "uint256",
          "name": "_offerExpiry",
          "type": "uint256"
        },
        {
          "internalType": "address",
          "name": "_seller",
          "type": "address"
        }
      ],
      "name": "createOffer",
      "outputs": [],
      "stateMutability": "payable",
      "type": "function"
    },
    {
      "inputs": [],
      "name": "getBalance",
      "outputs": [
        {
          "internalType": "uint256",
          "name": "ContractBalance",
          "type": "uint256"
        }
      ],
      "stateMutability": "view",
      "type": "function"
    },
    {
      "inputs": [],
      "name": "getNftDetails",
      "outputs": [
        {
          "components": [
            {
              "internalType": "address",
              "name": "seller",
              "type": "address"
            },
            {
              "internalType": "uint256",
              "name": "tokenID",
              "type": "uint256"
            },
            {
              "internalType": "address[]",
              "name": "offererAddress",
              "type": "address[]"
            },
            {
              "internalType": "uint256[]",
              "name": "offererPrice",
              "type": "uint256[]"
            },
            {
              "internalType": "address",
              "name": "hostContract",
              "type": "address"
            },
            {
              "internalType": "uint256",
              "name": "nftPrice",
              "type": "uint256"
            },
            {
              "internalType": "bool",
              "name": "isListed",
              "type": "bool"
            }
          ],
          "internalType": "struct NatirumMarketplace.NftDetails[]",
          "name": "",
          "type": "tuple[]"
        }
      ],
      "stateMutability": "view",
      "type": "function"
    },
    {
      "inputs": [
        {
          "internalType": "uint256",
          "name": "_tokenId",
          "type": "uint256"
        }
      ],
      "name": "getOfferDetails",
      "outputs": [
        {
          "components": [
            {
              "internalType": "address",
              "name": "buyer",
              "type": "address"
            },
            {
              "internalType": "uint256",
              "name": "tokenID",
              "type": "uint256"
            },
            {
              "internalType": "uint256",
              "name": "offerPrice",
              "type": "uint256"
            },
            {
              "internalType": "uint256",
              "name": "offerExpire",
              "type": "uint256"
            },
            {
              "internalType": "bool",
              "name": "offerPlaced",
              "type": "bool"
            }
          ],
          "internalType": "struct NatirumMarketplace.OfferDetails",
          "name": "",
          "type": "tuple"
        }
      ],
      "stateMutability": "view",
      "type": "function"
    },
    {
      "inputs": [
        {
          "internalType": "address",
          "name": "_seller",
          "type": "address"
        },
        {
          "internalType": "uint256",
          "name": "_tokenId",
          "type": "uint256"
        }
      ],
      "name": "getOfferDetails",
      "outputs": [
        {
          "internalType": "address[]",
          "name": "",
          "type": "address[]"
        },
        {
          "internalType": "uint256[]",
          "name": "",
          "type": "uint256[]"
        }
      ],
      "stateMutability": "view",
      "type": "function"
    },
    {
      "inputs": [],
      "name": "initialize",
      "outputs": [],
      "stateMutability": "nonpayable",
      "type": "function"
    },
    {
      "inputs": [
        {
          "internalType": "uint256",
          "name": "_tokenId",
          "type": "uint256"
        },
        {
          "internalType": "uint256",
          "name": "_price",
          "type": "uint256"
        },
        {
          "internalType": "address",
          "name": "_hostContract",
          "type": "address"
        }
      ],
      "name": "listNft",
      "outputs": [],
      "stateMutability": "nonpayable",
      "type": "function"
    },
    {
      "inputs": [
        {
          "internalType": "address",
          "name": "",
          "type": "address"
        },
        {
          "internalType": "address",
          "name": "",
          "type": "address"
        },
        {
          "internalType": "uint256",
          "name": "",
          "type": "uint256"
        },
        {
          "internalType": "bytes",
          "name": "",
          "type": "bytes"
        }
      ],
      "name": "onERC721Received",
      "outputs": [
        {
          "internalType": "bytes4",
          "name": "",
          "type": "bytes4"
        }
      ],
      "stateMutability": "nonpayable",
      "type": "function"
    },
    {
      "inputs": [],
      "name": "owner",
      "outputs": [
        {
          "internalType": "address",
          "name": "",
          "type": "address"
        }
      ],
      "stateMutability": "view",
      "type": "function"
    },
    {
      "inputs": [
        {
          "internalType": "uint256",
          "name": "_tokenId",
          "type": "uint256"
        },
        {
          "internalType": "address",
          "name": "_buyer",
          "type": "address"
        }
      ],
      "name": "rejectOffer",
      "outputs": [],
      "stateMutability": "nonpayable",
      "type": "function"
    },
    {
      "inputs": [],
      "name": "renounceOwnership",
      "outputs": [],
      "stateMutability": "nonpayable",
      "type": "function"
    },
    {
      "inputs": [
        {
          "internalType": "uint8",
          "name": "_serviceFees",
          "type": "uint8"
        }
      ],
      "name": "setServiceFees",
      "outputs": [],
      "stateMutability": "nonpayable",
      "type": "function"
    },
    {
      "inputs": [
        {
          "internalType": "address",
          "name": "",
          "type": "address"
        }
      ],
      "name": "trackOfferPrice",
      "outputs": [
        {
          "internalType": "uint256",
          "name": "",
          "type": "uint256"
        }
      ],
      "stateMutability": "view",
      "type": "function"
    },
    {
      "inputs": [
        {
          "internalType": "address",
          "name": "newOwner",
          "type": "address"
        }
      ],
      "name": "transferOwnership",
      "outputs": [],
      "stateMutability": "nonpayable",
      "type": "function"
    },
    {
      "inputs": [
        {
          "internalType": "uint256",
          "name": "_tokenId",
          "type": "uint256"
        }
      ],
      "name": "unListNft",
      "outputs": [],
      "stateMutability": "nonpayable",
      "type": "function"
    },
    {
      "inputs": [
        {
          "internalType": "uint256",
          "name": "_tokenId",
          "type": "uint256"
        }
      ],
      "name": "withDraw",
      "outputs": [],
      "stateMutability": "nonpayable",
      "type": "function"
    }
  ],
  "bytecode": "0x60808060405234601557612175908161001b8239f35b600080fdfe608080604052600436101561001357600080fd5b600090813560e01c90816312065fe014611a4e5750806314174f331461189f578063150b7a02146117ec578063292c30a2146117b357806340e250d3146113585780634370fb34146110ad5780634fb64be214610fed5780635df16e9414610f47578063715018a614610edd57806372a43b9c14610d255780637cde120214610a825780638129fc1c146108e35780638da5cb5b146108ad578063ab67b23614610677578063ce606ee014610650578063d35cfcd4146104b0578063db9371c2146101e6578063f24639c6146101215763f2fde38b146100f257600080fd5b3461011e57602036600319011261011e5761011b61010e611a68565b610116611e89565b611dd7565b80f35b80fd5b503461011e57602036600319011261011e5760043560ff81168091036101e257610149611e89565b801561018e576040817ffc893db7ca6eb178a7bd93cdeb99ea5fa6570d124b4f04b50f9a727e21cc91029260ff1960055416176005558151903382526020820152a180f35b60405162461bcd60e51b815260206004820152602660248201527f536572766963652046656573206d7573742062652067726561746572207468616044820152656e207a65726f60d01b6064820152608490fd5b5080fd5b503461011e57604036600319011261011e57600435610203611a83565b61020b611e4d565b60018060a01b0316808352600260205260408320828452602052604083206040519061023682611aaf565b60018060a01b03815416825260ff6004600183015492602085019384526002810154604086015260038101546060860152015416151560808301523385526001602052604085208486526020528361029060408720611c82565b9151036104785782855260036020526040852054156104275781516001600160a01b03168390036103ea57516001600160a01b0316330361039b5781845260036020528380808060408120548095878352600360205282604081205560018060a01b03905116828215610392575bf1156103875760607f16e834b19bcc6f577f7e0ed83bb4cb1df810ec798f673e5ca46faec8324d5a6b9160405190848252602082015260016040820152a182526002602052604082209082526020526103726040822060046000918281558260018201558260028201558260038201550155565b60016000805160206121008339815191525580f35b6040513d85823e3d90fd5b506108fc6102fe565b60405162461bcd60e51b815260206004820152602160248201527f4f6e6c792053656c6c65722063616e2072656a6563742074686973206f6666656044820152603960f91b6064820152608490fd5b60405162461bcd60e51b8152602060048201526015602482015274496e56616c6964204275796572204164647265737360581b6044820152606490fd5b60405162461bcd60e51b815260206004820152602360248201527f4e6f204f6666657220686173207265636569766564206f6e207468697320746f60448201526235b2b760e91b6064820152608490fd5b60405162461bcd60e51b815260206004820152601060248201526f125b9d985b1a59081d1bdad95b88125960821b6044820152606490fd5b503461011e578060031936011261011e5760045467ffffffffffffffff811161063c576040516104e660208360051b0182611ae1565b818152600483526020810191837f8a35acfbc15ff81a39ae7d344fd709f28e8600b4aa8c65c6b64bfe7fe36bd19b845b83831061061e5786858760405192839260208401906020855251809152604084019160408260051b8601019392815b8383106105525786860387f35b919395509193603f1987820301835285519060e0810160018060a01b0383511682526020830151602083015260408301519060e0604084015281518091526020610100840192019085905b8082106105fc575050508260209260c0806105c78695606060019901518582036060870152611b03565b93878060a01b03608082015116608085015260a081015160a08501520151151591015297019301930190928695949293610545565b82516001600160a01b031684526020938401939092019160019091019061059d565b6007602060019261062e85611c82565b815201920192019190610516565b634e487b7160e01b82526041600452602482fd5b503461011e578060031936011261011e57546040516001600160a01b039091168152602090f35b503461011e57602036600319011261011e57600435610694611e4d565b338083526001602090815260408085208486529091528320546001600160a01b03160361085d5733825260016020526040822081835260205260ff600660408420015416156108245733808352600160208181526040808620858752825280862060040154938652918152818520848652905283205483916001600160a01b039182169116803b1561082057604051632142170760e11b81523060048201526001600160a01b039290921660248301526044820184905282908290606490829084905af1801561081557610800575b50503382526001602052604082208183526020527f62a8c32d7e607200e5e6c5986d2407a01f983fe1af6d31899fb1e32c6fd1f2c2608060018060a01b0360408520541633855260016020526040852084865260205260018060a01b03600460408720015416604051918252846020830152604082015260016060820152a133825260016020526040822090825260205261037260408220611d93565b8161080a91611ae1565b6101e2578138610763565b6040513d84823e3d90fd5b8280fd5b60405162461bcd60e51b815260206004820152601160248201527013999d081a5cc81b9bdd08131a5cdd1959607a1b6044820152606490fd5b60405162461bcd60e51b815260206004820152602260248201527f4f6e6c792053656c6c65722063616e20756e4c69737420686973206f776e204e604482015261199d60f21b6064820152608490fd5b503461011e578060031936011261011e576000805160206120e0833981519152546040516001600160a01b039091168152602090f35b503461011e578060031936011261011e576000805160206121208339815191525460ff8160401c16159067ffffffffffffffff811680159081610a7a575b6001149081610a70575b159081610a67575b50610a585767ffffffffffffffff1981166001176000805160206121208339815191525581610a2b575b506109666120b1565b61096e6120b1565b61097733611dd7565b61097f6120b1565b81546001600160a01b031916331782556109976120b1565b61099f6120b1565b6109a833611dd7565b6109b06120b1565b6109b86120b1565b6001600080516020612100833981519152556109d15780f35b68ff0000000000000000196000805160206121208339815191525416600080516020612120833981519152557fc7f505b2f371ae2175ee4913f4499e1f2633a7b5936321eed1cdaeb6115181d2602060405160018152a180f35b68ffffffffffffffffff19166801000000000000000117600080516020612120833981519152553861095d565b63f92ee8a960e01b8352600483fd5b90501538610933565b303b15915061092b565b839150610921565b503461011e57604036600319011261011e57600435610a9f611a83565b610aa7611e4d565b338352600160205260408320828452602052610ac560408420611c82565b9060018060a01b0381169182855260026020526040852084865260205260408520604051610af281611aaf565b60018060a01b0382541681526001820154602082015260028201546040820152608060ff600460038501549460608501958652015416910190151581528487526003602052604087205415610ce8578251336001600160a01b0390911603610ca4575115610c5f5751421015610c2a577f2b0295c6245bbde9b0128fbea0ea5fe173b82a59a739f77c5fc7deba224dbffc91610bbc608092858852600360205260408820548093878a52600360205289604081205533928660018060a01b03910151169089611ebf565b60405190848252602082015284604082015260016060820152a1338352600160205260408320828452602052610bf460408420611d93565b82526002602052604082209082526020526103726040822060046000918281558260018201558260028201558260038201550155565b60405162461bcd60e51b815260206004820152600d60248201526c13d999995c88115e1c1a5c9959609a1b6044820152606490fd5b60405162461bcd60e51b815260206004820152601760248201527f5468697320746f6b656e20686173206e6f206f666665720000000000000000006044820152606490fd5b606460405162461bcd60e51b815260206004820152602060248201527f4f6e6c792053656c6c65722063616e2061636365707420746865206f666665726044820152fd5b60405162461bcd60e51b81526020600482015260156024820152742237b2b9b713ba103932b1b2b4bb329037b33332b960591b6044820152606490fd5b50606036600319011261011e57600435610d3d611a83565b610d45611a99565b610d4d611e4d565b60018060a01b0382169182855260016020526040852084865260205260056040862001548386526001602052604086208587526020528360018060a01b0360408820541603610ea75780341480610e9e575b15610e635783865260016020526040862085875260205260018060a01b036040872054163314610e2d57610dd4923386611ebf565b7fa8c8c76dcbc214f2bf1ff14e46e52c719da6477410ad492c29eb45fd05acb6246080604051338152846020820152346040820152426060820152a1825260016020526040822090825260205261037260408220611d93565b60405162461bcd60e51b815260206004820152600e60248201526d43616e27742053656c662062757960901b6044820152606490fd5b60405162461bcd60e51b8152602060048201526013602482015272125b94dd59999a58da595b9d08105b5bdd5b9d606a1b6044820152606490fd5b50801515610d9f565b60405162461bcd60e51b815260206004820152600e60248201526d24b73b30b634b21029b2b63632b960911b6044820152606490fd5b503461011e578060031936011261011e57610ef6611e89565b6000805160206120e083398151915280546001600160a01b0319811690915581906001600160a01b03167f8be0079c531659141344cd1fd0a4f28419497f9722a3daafe3b4186f6b6457e08280a380f35b503461011e57604036600319011261011e576001600160a01b03610f69611a68565b1681526001602052604081206024358252602052610f8960408220611c82565b906060604083015192015160405191604083016040845284518091526020606085019501915b818110610fce578480610fca88878382036020850152611b03565b0390f35b82516001600160a01b0316865260209586019590920191600101610faf565b503461011e57602036600319011261011e5760408160a0926080835161101281611aaf565b82815282602082015282858201528260608201520152338152600260205281812060043582526020522060405161104881611aaf565b600180841b038254169182825260018101546020830190815260028201549060408401918252608060ff600460038601549560608801968752015416940193151584526040519485525160208501525160408401525160608301525115156080820152f35b50608036600319011261011e576024356044356064356001600160a01b0381169060043590829003611354576110e1611e4d565b33855260026020526040852081865260205260408520918552600160205260408520818652602052604085209260ff6006850154161561130f57428111156112dd578434036112a757600483019260ff84541661126b576001913388526003602052346040892055828060a01b0333166bffffffffffffffffffffffff60a01b83541617825586600283015560038201550155600160ff1982541617905560028101805490600160401b82101561125757816111a591600160039594018155611c54565b81546001600160a01b0391851b91821b19163390911b17905501805490600160401b82101561124357906111de91600182018155611c54565b815460001960039290921b91821b191692901b919091179055604080513381523460208201527fb2a4706eb30fbca70b94141708a50a456d89844927f443dadcde61e3920ab6af91819081015b0390a160016000805160206121008339815191525580f35b634e487b7160e01b84526041600452602484fd5b634e487b7160e01b85526041600452602485fd5b60405162461bcd60e51b815260206004820152601460248201527320b63932b0b23c90283630b1b2b21027b33332b960611b6044820152606490fd5b60405162461bcd60e51b815260206004820152600e60248201526d125b9d985b1a5908185b5bdd5b9d60921b6044820152606490fd5b60405162461bcd60e51b815260206004820152600a6024820152692a34b6b29022b93937b960b11b6044820152606490fd5b60405162461bcd60e51b815260206004820152601860248201527f5468697320746f6b656e206973206e6f74204c697374656400000000000000006044820152606490fd5b8480fd5b503461011e57606036600319011261011e57600435602435611378611a99565b611380611e4d565b60018060a01b03169033845260016020526040842083855260205260408420600681019060ff82541661177d576040516331a9108f60e11b815260048101869052602081602481885afa90811561177257879161172c575b50336001600160a01b03909116036116dd57600481810180546001600160a01b03199081168717825583541633178355600583018581556001808501898155865460ff191690911786559254909190600160401b8110156116c95760018101806004558110156116b55760079060048b520292837f8a35acfbc15ff81a39ae7d344fd709f28e8600b4aa8c65c6b64bfe7fe36bd19b01858103611562575b505050505050823b1561135457604051632142170760e11b815233600482015230602482015260448101859052858160648183885af1801561155757611517575b50917fa704c2f7861cb3e3fe5f14f2130761e59fbecf01cb35680cc00620ca3c02c16f939160ff60a0945416916040519333855260208501526040840152606083015215156080820152a160016000805160206121008339815191525580f35b9160ff8661154b60a09694987fa704c2f7861cb3e3fe5f14f2130761e59fbecf01cb35680cc00620ca3c02c16f9896611ae1565b969294505091936114b7565b6040513d88823e3d90fd5b855481546001600160a01b0319166001600160a01b0391909116179055547f8a35acfbc15ff81a39ae7d344fd709f28e8600b4aa8c65c6b64bfe7fe36bd19c8401557f8a35acfbc15ff81a39ae7d344fd709f28e8600b4aa8c65c6b64bfe7fe36bd1a193611625906003906115fc600282017f8a35acfbc15ff81a39ae7d344fd709f28e8600b4aa8c65c6b64bfe7fe36bd19d8801611b87565b017f8a35acfbc15ff81a39ae7d344fd709f28e8600b4aa8c65c6b64bfe7fe36bd19e8501611bf5565b60018060a01b039054167f8a35acfbc15ff81a39ae7d344fd709f28e8600b4aa8c65c6b64bfe7fe36bd19f83019060018060a01b03166bffffffffffffffffffffffff60a01b825416179055547f8a35acfbc15ff81a39ae7d344fd709f28e8600b4aa8c65c6b64bfe7fe36bd1a08201550160ff825416151560ff80198354169116179055388080808080611476565b634e487b7160e01b8a52603260045260248afd5b634e487b7160e01b8a52604160045260248afd5b60405162461bcd60e51b815260206004820152602160248201527f596f7520617265206e6f7420746865206f776e6572206f662074686973204e666044820152601d60fa1b6064820152608490fd5b90506020813d60201161176a575b8161174760209383611ae1565b8101031261176657516001600160a01b038116810361176657386113d8565b8680fd5b3d915061173a565b6040513d89823e3d90fd5b60405162461bcd60e51b815260206004820152600e60248201526d105b1c9958591e48131a5cdd195960921b6044820152606490fd5b503461011e57602036600319011261011e576020906040906001600160a01b036117db611a68565b168152600383522054604051908152f35b503461011e57608036600319011261011e57611806611a68565b5061180f611a83565b5060643567ffffffffffffffff81116101e257366023820112156101e257806004013567ffffffffffffffff811161188b57604051611858601f8301601f191660200182611ae1565b8181523660248385010111611887578160246020940184830137010152604051630a85bd0160e11b8152602090f35b8380fd5b634e487b7160e01b83526041600452602483fd5b503461011e57602036600319011261011e576118b9611e4d565b3381526002602052604081206004358252602052604081206040516118dd81611aaf565b608060ff600460018060a01b0385541694858552600181015460208601526002810154604086015260038101546060860152015416151591015233036119fe5733815260036020526040812054156119b95733815260036020526040812054338252600360205281604081205581808280156119af575b8280929181923390f1156119a25760408051338152602081019290925242908201527fb5c5f6724bdc9de2302196ac349f18e17fc199e7f3e9a1adbb788e22b98d429890806060810161122b565b50604051903d90823e3d90fd5b6108fc9150611954565b60405162461bcd60e51b815260206004820152601860248201527f416c726561647920576974682d4472617720416d6f756e7400000000000000006044820152606490fd5b60405162461bcd60e51b815260206004820152602260248201527f4f6e6c7920627579657220776974686472617720686973206f776e20616d6f756044820152611b9d60f21b6064820152608490fd5b9050346101e257816003193601126101e257602090478152f35b600435906001600160a01b0382168203611a7e57565b600080fd5b602435906001600160a01b0382168203611a7e57565b604435906001600160a01b0382168203611a7e57565b60a0810190811067ffffffffffffffff821117611acb57604052565b634e487b7160e01b600052604160045260246000fd5b90601f8019910116810190811067ffffffffffffffff821117611acb57604052565b906020808351928381520192019060005b818110611b215750505090565b8251845260209384019390920191600101611b14565b919091828210611b4657505050565b600052602060002091820191015b818110611b5f575050565b60008155600101611b54565b90600160401b8111611acb578154818355611b8592611b37565b565b818114611bf15781549167ffffffffffffffff8311611acb57611baa8383611b6b565b60005260206000209060005260206000208154916000925b848410611bd0575050505050565b600191820180546001600160a01b0390921684860155939091019290611bc2565b5050565b818114611bf15781549167ffffffffffffffff8311611acb57611c188383611b6b565b60005260206000209060005260206000208154916000925b848410611c3e575050505050565b6001809192019384549281850155019290611c30565b8054821015611c6c5760005260206000200190600090565b634e487b7160e01b600052603260045260246000fd5b9060405160e0810181811067ffffffffffffffff821117611acb57604052809260018060a01b03815416825260018101546020830152600281016040518082602082945493848152019060005260206000209260005b818110611d71575050611ced92500382611ae1565b60408301526003810160405190816020825491828152019160005260206000209060005b818110611d5b5750505060c09282611d2f60ff946006940382611ae1565b606086015260048101546001600160a01b03166080860152600581015460a08601520154161515910152565b8254845260209093019260019283019201611d11565b84546001600160a01b0316835260019485019486945060209093019201611cd8565b6006600091828155826001820155611db48360028301805490828155611b37565b611dc78360038301805490828155611b37565b8260048201558260058201550155565b6001600160a01b03168015611e37576000805160206120e083398151915280546001600160a01b0319811683179091556001600160a01b03167f8be0079c531659141344cd1fd0a4f28419497f9722a3daafe3b4186f6b6457e0600080a3565b631e4fbdf760e01b600052600060045260246000fd5b60026000805160206121008339815191525414611e7857600260008051602061210083398151915255565b633ee5aeb560e01b60005260046000fd5b6000805160206120e0833981519152546001600160a01b03163303611eaa57565b63118cdaa760e01b6000523360045260246000fd5b60055460009591946001600160a01b03909416939060ff1680156120605780820290828204148215171561204c576064900490868080808560018060a01b03825416828215612043575bf115611557578654604080516001600160a01b039092168252602082018490527f56a87afabcc5be804fc847379d1f4e3408f49b3016cc7dcea295265f59a0bd5791a18181039181831161202f5790828892839214612025575b8291829182916001600160a01b03881690f11561201a57604080516001600160a01b03939093168352602083019190915242908201527ff474f1647716b20d13fea8c36a785eabe9a98725dd210a911b9e0fc1508a6af490606090a1813b1561188757604051632142170760e11b81523060048201526001600160a01b03919091166024820152604481019290925282908290606490829084905af180156108155761200d575050565b8161201791611ae1565b50565b6040513d87823e3d90fd5b6108fc9150611f63565b634e487b7160e01b88526011600452602488fd5b506108fc611f09565b634e487b7160e01b87526011600452602487fd5b60405162461bcd60e51b8152602060048201526024808201527f4d61726b6574506c616365206e6f742073657420736572766963652066656573604482015263081e595d60e21b6064820152608490fd5b60ff6000805160206121208339815191525460401c16156120ce57565b631afcd79f60e31b60005260046000fdfe9016d09d72d40fdae2fd8ceac6b6234c7706214fd39c1cd1e609a0528c1993009b779b17422d0df92223018b32b4d1fa46e071723d6817e2486d003becc55f00f0c57e16840df040f15088dc2f81fe391c3923bec73e23a9662efc9c229c6a00a2646970667358221220e4a419c0926bbae3ade5ebf97f88d9a1737ecbb3a53cfdbc2abdb9a5aa2d32a264736f6c634300081a0033",
  "linkReferences": {},
  "deployedLinkReferences": {}
}