{
  "_format": "hh-sol-artifact-1",
  "contractName": "NatirumMarketplace",
  "sourceName": "contracts/Natrium-Nft-Marketplace.sol",
  "abi": [
    {
      "inputs": [],
      "name": "InvalidInitialization",
      "type": "error"
    },
    {
      "inputs": [],
      "name": "NotInitializing",
      "type": "error"
    },
    {
      "inputs": [
        {
          "internalType": "address",
          "name": "owner",
          "type": "address"
        }
      ],
      "name": "OwnableInvalidOwner",
      "type": "error"
    },
    {
      "inputs": [
        {
          "internalType": "address",
          "name": "account",
          "type": "address"
        }
      ],
      "name": "OwnableUnauthorizedAccount",
      "type": "error"
    },
    {
      "inputs": [],
      "name": "ReentrancyGuardReentrantCall",
      "type": "error"
    },
    {
      "anonymous": false,
      "inputs": [
        {
          "indexed": false,
          "internalType": "address",
          "name": "buyer",
          "type": "address"
        },
        {
          "indexed": false,
          "internalType": "uint256",
          "name": "offerPrice",
          "type": "uint256"
        },
        {
          "indexed": false,
          "internalType": "bool",
          "name": "isCancel",
          "type": "bool"
        }
      ],
      "name": "CancelOffer",
      "type": "event"
    },
    {
      "anonymous": false,
      "inputs": [
        {
          "indexed": false,
          "internalType": "uint64",
          "name": "version",
          "type": "uint64"
        }
      ],
      "name": "Initialized",
      "type": "event"
    },
    {
      "anonymous": false,
      "inputs": [
        {
          "indexed": false,
          "internalType": "address",
          "name": "seller",
          "type": "address"
        },
        {
          "indexed": false,
          "internalType": "uint256",
          "name": "tokenID",
          "type": "uint256"
        },
        {
          "indexed": false,
          "internalType": "address",
          "name": "hostContract",
          "type": "address"
        },
        {
          "indexed": false,
          "internalType": "uint256",
          "name": "nftPrice",
          "type": "uint256"
        },
        {
          "indexed": false,
          "internalType": "bool",
          "name": "isListed",
          "type": "bool"
        }
      ],
      "name": "ListNFT",
      "type": "event"
    },
    {
      "anonymous": false,
      "inputs": [
        {
          "indexed": true,
          "internalType": "address",
          "name": "previousOwner",
          "type": "address"
        },
        {
          "indexed": true,
          "internalType": "address",
          "name": "newOwner",
          "type": "address"
        }
      ],
      "name": "OwnershipTransferred",
      "type": "event"
    },
    {
      "anonymous": false,
      "inputs": [
        {
          "indexed": false,
          "internalType": "address",
          "name": "seller",
          "type": "address"
        },
        {
          "indexed": false,
          "internalType": "uint256",
          "name": "tokenID",
          "type": "uint256"
        },
        {
          "indexed": false,
          "internalType": "address",
          "name": "hostContract",
          "type": "address"
        },
        {
          "indexed": false,
          "internalType": "bool",
          "name": "isUnlisted",
          "type": "bool"
        }
      ],
      "name": "UnListNFT",
      "type": "event"
    },
    {
      "anonymous": false,
      "inputs": [
        {
          "indexed": false,
          "internalType": "address",
          "name": "buyer",
          "type": "address"
        },
        {
          "indexed": false,
          "internalType": "uint256",
          "name": "acceptedPrice",
          "type": "uint256"
        },
        {
          "indexed": false,
          "internalType": "uint256",
          "name": "tokenId",
          "type": "uint256"
        },
        {
          "indexed": false,
          "internalType": "bool",
          "name": "isAccepted",
          "type": "bool"
        }
      ],
      "name": "acceptOffer",
      "type": "event"
    },
    {
      "anonymous": false,
      "inputs": [
        {
          "indexed": false,
          "internalType": "address",
          "name": "buyer",
          "type": "address"
        },
        {
          "indexed": false,
          "internalType": "uint256",
          "name": "tokenID",
          "type": "uint256"
        },
        {
          "indexed": false,
          "internalType": "uint256",
          "name": "paidPrice",
          "type": "uint256"
        },
        {
          "indexed": false,
          "internalType": "uint256",
          "name": "timeStamp",
          "type": "uint256"
        }
      ],
      "name": "buyNFT",
      "type": "event"
    },
    {
      "anonymous": false,
      "inputs": [
        {
          "indexed": false,
          "internalType": "address",
          "name": "buyer",
          "type": "address"
        },
        {
          "indexed": false,
          "internalType": "uint256",
          "name": "offerPrice",
          "type": "uint256"
        }
      ],
      "name": "makeOffer",
      "type": "event"
    },
    {
      "anonymous": false,
      "inputs": [
        {
          "indexed": false,
          "internalType": "address",
          "name": "admin",
          "type": "address"
        },
        {
          "indexed": false,
          "internalType": "uint8",
          "name": "serviceFee",
          "type": "uint8"
        }
      ],
      "name": "servicePercentage",
      "type": "event"
    },
    {
      "anonymous": false,
      "inputs": [
        {
          "indexed": false,
          "internalType": "address",
          "name": "seller",
          "type": "address"
        },
        {
          "indexed": false,
          "internalType": "uint256",
          "name": "nftPrice",
          "type": "uint256"
        },
        {
          "indexed": false,
          "internalType": "uint256",
          "name": "timeStamp",
          "type": "uint256"
        }
      ],
      "name": "transferNftPrice",
      "type": "event"
    },
    {
      "anonymous": false,
      "inputs": [
        {
          "indexed": false,
          "internalType": "address",
          "name": "owner",
          "type": "address"
        },
        {
          "indexed": false,
          "internalType": "uint256",
          "name": "serviceFees",
          "type": "uint256"
        }
      ],
      "name": "transferServiceFees",
      "type": "event"
    },
    {
      "inputs": [
        {
          "internalType": "uint256",
          "name": "_tokenId",
          "type": "uint256"
        },
        {
          "internalType": "address",
          "name": "_buyer",
          "type": "address"
        }
      ],
      "name": "acceptOffers",
      "outputs": [],
      "stateMutability": "nonpayable",
      "type": "function"
    },
    {
      "inputs": [
        {
          "internalType": "address",
          "name": "contractAddress",
          "type": "address"
        }
      ],
      "name": "approveContract",
      "outputs": [],
      "stateMutability": "nonpayable",
      "type": "function"
    },
    {
      "inputs": [
        {
          "internalType": "address",
          "name": "",
          "type": "address"
        }
      ],
      "name": "approvedContracts",
      "outputs": [
        {
          "internalType": "bool",
          "name": "",
          "type": "bool"
        }
      ],
      "stateMutability": "view",
      "type": "function"
    },
    {
      "inputs": [
        {
          "internalType": "uint256",
          "name": "_tokenId",
          "type": "uint256"
        },
        {
          "internalType": "address",
          "name": "_seller",
          "type": "address"
        },
        {
          "internalType": "address",
          "name": "_hostContract",
          "type": "address"
        }
      ],
      "name": "buyNft",
      "outputs": [],
      "stateMutability": "payable",
      "type": "function"
    },
    {
      "inputs": [
        {
          "internalType": "uint256",
          "name": "",
          "type": "uint256"
        }
      ],
      "name": "contractAddresses",
      "outputs": [
        {
          "internalType": "address",
          "name": "",
          "type": "address"
        }
      ],
      "stateMutability": "view",
      "type": "function"
    },
    {
      "inputs": [],
      "name": "contractCount",
      "outputs": [
        {
          "internalType": "uint256",
          "name": "",
          "type": "uint256"
        }
      ],
      "stateMutability": "view",
      "type": "function"
    },
    {
      "inputs": [],
      "name": "contractOwner",
      "outputs": [
        {
          "internalType": "address",
          "name": "",
          "type": "address"
        }
      ],
      "stateMutability": "view",
      "type": "function"
    },
    {
      "inputs": [
        {
          "internalType": "uint256",
          "name": "_tokenId",
          "type": "uint256"
        },
        {
          "internalType": "uint256",
          "name": "_offerPrice",
          "type": "uint256"
        },
        {
          "internalType": "uint256",
          "name": "_offerExpiry",
          "type": "uint256"
        },
        {
          "internalType": "address",
          "name": "_seller",
          "type": "address"
        }
      ],
      "name": "createOffer",
      "outputs": [],
      "stateMutability": "payable",
      "type": "function"
    },
    {
      "inputs": [],
      "name": "currentOffer",
      "outputs": [
        {
          "internalType": "enum NatirumMarketplace.Offer",
          "name": "",
          "type": "uint8"
        }
      ],
      "stateMutability": "view",
      "type": "function"
    },
    {
      "inputs": [
        {
          "internalType": "string",
          "name": "name",
          "type": "string"
        },
        {
          "internalType": "string",
          "name": "symbol",
          "type": "string"
        },
        {
          "internalType": "string",
          "name": "eventName",
          "type": "string"
        },
        {
          "internalType": "uint256",
          "name": "startTime",
          "type": "uint256"
        },
        {
          "internalType": "uint256",
          "name": "endTime",
          "type": "uint256"
        },
        {
          "internalType": "uint256",
          "name": "ticketStartBuyDate",
          "type": "uint256"
        },
        {
          "internalType": "uint256",
          "name": "ticketEndBuyDate",
          "type": "uint256"
        },
        {
          "components": [
            {
              "internalType": "string",
              "name": "ticketType",
              "type": "string"
            },
            {
              "internalType": "uint256",
              "name": "quantity",
              "type": "uint256"
            },
            {
              "internalType": "uint256",
              "name": "price",
              "type": "uint256"
            }
          ],
          "internalType": "struct EventTicket.Ticket[]",
          "name": "tickets",
          "type": "tuple[]"
        },
        {
          "internalType": "contract IERC20",
          "name": "_Token",
          "type": "address"
        },
        {
          "internalType": "address",
          "name": "_fundsWallet",
          "type": "address"
        }
      ],
      "name": "deployNewCollection",
      "outputs": [
        {
          "internalType": "address",
          "name": "",
          "type": "address"
        }
      ],
      "stateMutability": "nonpayable",
      "type": "function"
    },
    {
      "inputs": [],
      "name": "deploymentFee",
      "outputs": [
        {
          "internalType": "uint256",
          "name": "",
          "type": "uint256"
        }
      ],
      "stateMutability": "view",
      "type": "function"
    },
    {
      "inputs": [],
      "name": "fundsWallet",
      "outputs": [
        {
          "internalType": "address",
          "name": "",
          "type": "address"
        }
      ],
      "stateMutability": "view",
      "type": "function"
    },
    {
      "inputs": [
        {
          "internalType": "address",
          "name": "listerAddress",
          "type": "address"
        }
      ],
      "name": "getNftDetails",
      "outputs": [
        {
          "components": [
            {
              "internalType": "address",
              "name": "seller",
              "type": "address"
            },
            {
              "internalType": "uint256",
              "name": "tokenID",
              "type": "uint256"
            },
            {
              "internalType": "address",
              "name": "hostContract",
              "type": "address"
            },
            {
              "internalType": "uint256",
              "name": "nftPrice",
              "type": "uint256"
            },
            {
              "internalType": "bool",
              "name": "isListed",
              "type": "bool"
            }
          ],
          "internalType": "struct NatirumMarketplace.NftDetails",
          "name": "",
          "type": "tuple"
        }
      ],
      "stateMutability": "view",
      "type": "function"
    },
    {
      "inputs": [
        {
          "internalType": "address",
          "name": "_buyer",
          "type": "address"
        }
      ],
      "name": "getOfferDetails",
      "outputs": [
        {
          "components": [
            {
              "internalType": "address",
              "name": "buyer",
              "type": "address"
            },
            {
              "internalType": "uint256",
              "name": "tokenID",
              "type": "uint256"
            },
            {
              "internalType": "uint256",
              "name": "offerPrice",
              "type": "uint256"
            },
            {
              "internalType": "uint256",
              "name": "offerExpire",
              "type": "uint256"
            },
            {
              "internalType": "enum NatirumMarketplace.Offer",
              "name": "currentOffer",
              "type": "uint8"
            }
          ],
          "internalType": "struct NatirumMarketplace.OfferDetails",
          "name": "",
          "type": "tuple"
        }
      ],
      "stateMutability": "view",
      "type": "function"
    },
    {
      "inputs": [
        {
          "internalType": "address",
          "name": "_tokenAddress",
          "type": "address"
        },
        {
          "internalType": "address",
          "name": "_fundsWallet",
          "type": "address"
        }
      ],
      "name": "initialize",
      "outputs": [],
      "stateMutability": "nonpayable",
      "type": "function"
    },
    {
      "inputs": [],
      "name": "initialize",
      "outputs": [],
      "stateMutability": "nonpayable",
      "type": "function"
    },
    {
      "inputs": [
        {
          "internalType": "uint256",
          "name": "_tokenId",
          "type": "uint256"
        },
        {
          "internalType": "uint256",
          "name": "_price",
          "type": "uint256"
        },
        {
          "internalType": "address",
          "name": "_hostContract",
          "type": "address"
        },
        {
          "internalType": "address",
          "name": "_newCollectionAddress",
          "type": "address"
        }
      ],
      "name": "listNft",
      "outputs": [],
      "stateMutability": "nonpayable",
      "type": "function"
    },
    {
      "inputs": [
        {
          "internalType": "address",
          "name": "",
          "type": "address"
        },
        {
          "internalType": "address",
          "name": "",
          "type": "address"
        },
        {
          "internalType": "uint256",
          "name": "",
          "type": "uint256"
        },
        {
          "internalType": "bytes",
          "name": "",
          "type": "bytes"
        }
      ],
      "name": "onERC721Received",
      "outputs": [
        {
          "internalType": "bytes4",
          "name": "",
          "type": "bytes4"
        }
      ],
      "stateMutability": "nonpayable",
      "type": "function"
    },
    {
      "inputs": [],
      "name": "owner",
      "outputs": [
        {
          "internalType": "address",
          "name": "",
          "type": "address"
        }
      ],
      "stateMutability": "view",
      "type": "function"
    },
    {
      "inputs": [
        {
          "internalType": "uint256",
          "name": "_tokenId",
          "type": "uint256"
        },
        {
          "internalType": "address",
          "name": "_buyer",
          "type": "address"
        }
      ],
      "name": "rejectOffer",
      "outputs": [],
      "stateMutability": "nonpayable",
      "type": "function"
    },
    {
      "inputs": [],
      "name": "renounceOwnership",
      "outputs": [],
      "stateMutability": "nonpayable",
      "type": "function"
    },
    {
      "inputs": [
        {
          "internalType": "address",
          "name": "contractAddress",
          "type": "address"
        }
      ],
      "name": "revokeContract",
      "outputs": [],
      "stateMutability": "nonpayable",
      "type": "function"
    },
    {
      "inputs": [
        {
          "internalType": "uint256",
          "name": "_deploymentFee",
          "type": "uint256"
        }
      ],
      "name": "setDeploymentFee",
      "outputs": [],
      "stateMutability": "nonpayable",
      "type": "function"
    },
    {
      "inputs": [
        {
          "internalType": "address",
          "name": "_fundsWallet",
          "type": "address"
        }
      ],
      "name": "setFundsWallet",
      "outputs": [],
      "stateMutability": "nonpayable",
      "type": "function"
    },
    {
      "inputs": [
        {
          "internalType": "uint8",
          "name": "_serviceFees",
          "type": "uint8"
        }
      ],
      "name": "setServiceFees",
      "outputs": [],
      "stateMutability": "nonpayable",
      "type": "function"
    },
    {
      "inputs": [
        {
          "internalType": "address",
          "name": "_tokenAddress",
          "type": "address"
        }
      ],
      "name": "setTokenAddress",
      "outputs": [],
      "stateMutability": "nonpayable",
      "type": "function"
    },
    {
      "inputs": [],
      "name": "tokenAddress",
      "outputs": [
        {
          "internalType": "contract IERC20",
          "name": "",
          "type": "address"
        }
      ],
      "stateMutability": "view",
      "type": "function"
    },
    {
      "inputs": [
        {
          "internalType": "address",
          "name": "newOwner",
          "type": "address"
        }
      ],
      "name": "transferOwnership",
      "outputs": [],
      "stateMutability": "nonpayable",
      "type": "function"
    },
    {
      "inputs": [
        {
          "internalType": "uint256",
          "name": "_tokenId",
          "type": "uint256"
        }
      ],
      "name": "unListNft",
      "outputs": [],
      "stateMutability": "nonpayable",
      "type": "function"
    }
  ],
  "bytecode": "0x6080806040523460195760018055614668908161001f8239f35b600080fdfe6080604052600436101561001257600080fd5b6000803560e01c806307f7aafb14611c685780630fe9a094146118ad578063150b7a02146118465780632194f3a21461181d57806322d868cb1461176657806326749ad71461172757806326a4e8d2146116e75780633263b545146116b45780634370fb3414611476578063485cc9551461133d57806364e39b87146112fd578063715018a61461129357806372a43b9c146110955780637cde120214610d805780638129fc1c14610c045780638736381a14610be65780638da5cb5b14610bb05780639d76ea5814610b87578063a0aa5cca146108da578063aa4b27a814610800578063ab67b236146105f7578063cc2e3ee1146105b6578063ce606ee01461058f578063d002462b1461056c578063db9371c214610296578063f24639c6146101d1578063f2cff57f146101b3578063f2fde38b146101865763fa4e28f61461015c57600080fd5b34610183578060031936011261018357602060ff600854166101816040518092611dbf565bf35b80fd5b5034610183576020366003190112610183576101b06101a3611cac565b6101ab611ec4565b611e4e565b80f35b50346101835780600319360112610183576020600454604051908152f35b50346101835760203660031901126101835760043560ff8116809103610292576101f9611ec4565b801561023e576040817ffc893db7ca6eb178a7bd93cdeb99ea5fa6570d124b4f04b50f9a727e21cc91029260ff19600c541617600c558151903382526020820152a180f35b60405162461bcd60e51b815260206004820152602660248201527f536572766963652046656573206d7573742062652067726561746572207468616044820152656e207a65726f60d01b6064820152608490fd5b5080fd5b5034610183576040366003190112610183576102b0611cc7565b6102b8611efa565b6001600160a01b0316808252600a60205260408083209051906102da82611d09565b60018060a01b0381541682526001810154906020830191825260ff6004600283015492604086019384526003810154606087015201541660038110156105585760808401523385526009602052604085209060ff60046040519361033d85611d09565b80546001600160a01b039081168652600182015460208701526002820154166040860152600381015460608601520154161515608083015251156105075782516001600160a01b03168490036104ca57516001600160a01b0316330361047b57600435905103610443578280808093858252600a60205260046040832001600260ff19825416179055858252600b602052604082205490868352600b60205282604081205560018060a01b0390511682821561043a575bf11561042d578152600a6020526104266040822060046000918281558260018201558260028201558260038201550155565b6001805580f35b50604051903d90823e3d90fd5b506108fc6103f4565b60405162461bcd60e51b815260206004820152601060248201526f125b95985b1a59081d1bdad95b88125960821b6044820152606490fd5b60405162461bcd60e51b815260206004820152602160248201527f4f6e6c792053656c6c65722063616e2072656a6563742074686973206f6666656044820152603960f91b6064820152608490fd5b60405162461bcd60e51b8152602060048201526015602482015274496e56616c6964204275796572204164647265737360581b6044820152606490fd5b60405162461bcd60e51b815260206004820152602360248201527f4e6f204f6666657220686173207265636569766564206f6e207468697320746f60448201526235b2b760e91b6064820152608490fd5b634e487b7160e01b86526021600452602486fd5b503461018357602036600319011261018357610586611ec4565b60043560045580f35b5034610183578060031936011261018357546040516001600160a01b039091168152602090f35b5034610183576020366003190112610183576105d0611cac565b6105d8611ec4565b6001600160a01b03168152600660205260408120805460ff1916905580f35b503461018357602036600319011261018357600435610614611efa565b33808352600960205260408320546001600160a01b0316036107b057338252600960205260ff6004604084200154161561077757338083526009602081815260408086206002015493865291905283205483916001600160a01b039182169116803b1561077357604051632142170760e11b81523060048201526001600160a01b039290921660248301526044820184905282908290606490829084905af1801561076857610753575b5033808252600960208181526040808520549385529181528184206002015482516001600160a01b03948516815291820186905290921690820152600160608201527f62a8c32d7e607200e5e6c5986d2407a01f983fe1af6d31899fb1e32c6fd1f2c290608090a133815260096020526104266040822060046000918281558260018201558260028201558260038201550155565b8161075d91611d3a565b6102925781386106be565b6040513d84823e3d90fd5b8280fd5b60405162461bcd60e51b815260206004820152601160248201527013999d081a5cc81b9bdd08131a5cdd1959607a1b6044820152606490fd5b60405162461bcd60e51b815260206004820152602260248201527f4f6e6c792053656c6c65722063616e20756e4c69737420686973206f776e204e604482015261199d60f21b6064820152608490fd5b50346101835760203660031901126101835761081a611cac565b610822611e23565b506001600160a01b03168152600a602052604080822090519061084482611d09565b60018060a01b0381541682526001810154602083019081526002820154906040840191825260ff600460038501549460608701958652015416608085019560038210156108c6575085526040805194516001600160a01b0316855290516020850152905190830152516060820152905160a09190610181906080830190611dbf565b634e487b7160e01b81526021600452602490fd5b5034610183576080366003190112610183576024356004356108fa611cf3565b610902611cdd565b9061090b611efa565b3385526009602090815260408087206001600160a01b039485168852600690925286205491909216919060ff1615610b42576040516331a9108f60e11b815260048101849052602081602481865afa908115610b37578691610af1575b50336001600160a01b0390911603610aa257600481019060ff825416610a6c576002810180546001600160a01b0319908116851790915581541633178155600381018590556001908101849055815460ff1916178155813b15610a6857604051632142170760e11b8152336004820152306024820152604481018490528590818160648183885af1801561076857610a4d575b50927fa704c2f7861cb3e3fe5f14f2130761e59fbecf01cb35680cc00620ca3c02c16f928560ff60a0945416916040519333855260208501526040840152606083015215156080820152a16001805580f35b81610a5b9195949395611d3a565b610a6857909184386109fb565b8480fd5b60405162461bcd60e51b815260206004820152600e60248201526d105b1c9958591e48131a5cdd195960921b6044820152606490fd5b60405162461bcd60e51b815260206004820152602160248201527f596f7520617265206e6f7420746865206f776e6572206f662074686973204e666044820152601d60fa1b6064820152608490fd5b90506020813d602011610b2f575b81610b0c60209383611d3a565b81010312610b2b57516001600160a01b0381168103610b2b5738610968565b8580fd5b3d9150610aff565b6040513d88823e3d90fd5b60405162461bcd60e51b815260206004820152601f60248201527f4e6f7420617070726f766520627920666163746f727920636f6e7472616374006044820152606490fd5b50346101835780600319360112610183576002546040516001600160a01b039091168152602090f35b50346101835780600319360112610183576000805160206145f3833981519152546040516001600160a01b039091168152602090f35b50346101835780600319360112610183576020600754604051908152f35b50346101835780600319360112610183576000805160206146138339815191525460ff8160401c1615906001600160401b03811680159081610d78575b6001149081610d6e575b159081610d65575b50610d565767ffffffffffffffff1981166001176000805160206146138339815191525581610d29575b50610c86612100565b610c8e612100565b610c9733611e4e565b610c9f612100565b81546001600160a01b03191633178255610cb7612100565b610cbf612100565b610cc833611e4e565b610ccf5780f35b68ff0000000000000000196000805160206146138339815191525416600080516020614613833981519152557fc7f505b2f371ae2175ee4913f4499e1f2633a7b5936321eed1cdaeb6115181d2602060405160018152a180f35b68ffffffffffffffffff191668010000000000000001176000805160206146138339815191525538610c7d565b63f92ee8a960e01b8352600483fd5b90501538610c53565b303b159150610c4b565b839150610c41565b503461018357604036600319011261018357600435610d9d611cc7565b610da5611efa565b33835260096020526040832060405192610dbe84611d09565b60018060a01b0382541684526001820154602085015260ff600460018060a01b036002850154169360408701948552600381015460608801520154161515608085015260018060a01b03831693848652600a602052604086209060405191610e2583611d09565b60018060a01b038154168352600181015491602084019283526002820154936040810194855260ff600460038501549460608401958652015416906003821015611081576080015251336001600160a01b039091160361103d57868852600b6020526040882054156110005751421015610fcb5782905103610f8657610f126080937f2b0295c6245bbde9b0128fbea0ea5fe173b82a59a739f77c5fc7deba224dbffc95878952600a602052600460408a2001600160ff19825416179055878952600b602052604089205490888a52600b602052896040812055339260018060a01b039051169086611f1c565b5190604051918583526020830152604082015260016060820152a13382526009602052610f5a6040832060046000918281558260018201558260028201558260038201550155565b8152600a6020526104266040822060046000918281558260018201558260028201558260038201550155565b60405162461bcd60e51b815260206004820152601760248201527f5468697320746f6b656e20686173206e6f206f666665720000000000000000006044820152606490fd5b60405162461bcd60e51b815260206004820152600d60248201526c13d999995c88115e1c1a5c9959609a1b6044820152606490fd5b60405162461bcd60e51b81526020600482015260156024820152742237b2b9b713ba103932b1b2b4bb329037b33332b960591b6044820152606490fd5b606460405162461bcd60e51b815260206004820152602060248201527f4f6e6c792053656c6c65722063616e2061636365707420746865206f666665726044820152fd5b634e487b7160e01b8b52602160045260248bfd5b506060366003190112610183576004356110ad611cc7565b6110b5611cf3565b6110bd611efa565b60018060a01b038216928385526009602052600360408620015491848652600960205260ff6004604088200154161561125c57848652600960205260408620546001600160a01b0316859003611226578234148061121d575b156111e257848652600960205260408620546001600160a01b031633146111ac577fa8c8c76dcbc214f2bf1ff14e46e52c719da6477410ad492c29eb45fd05acb62493608093611167923385611f1c565b604051903382526020820152346040820152426060820152a1815260096020526104266040822060046000918281558260018201558260028201558260038201550155565b60405162461bcd60e51b815260206004820152600e60248201526d43616e27742053656c662062757960901b6044820152606490fd5b60405162461bcd60e51b8152602060048201526013602482015272125b94dd59999a58da595b9d08105b5bdd5b9d606a1b6044820152606490fd5b50821515611116565b60405162461bcd60e51b815260206004820152600e60248201526d24b73b30b634b21029b2b63632b960911b6044820152606490fd5b60405162461bcd60e51b815260206004820152600f60248201526e13999d0e88139bdd08131a5cdd1959608a1b6044820152606490fd5b50346101835780600319360112610183576112ac611ec4565b6000805160206145f383398151915280546001600160a01b0319811690915581906001600160a01b03167f8be0079c531659141344cd1fd0a4f28419497f9722a3daafe3b4186f6b6457e08280a380f35b503461018357602036600319011261018357611317611cac565b61131f611ec4565b60018060a01b03166001600160601b0360a01b600354161760035580f35b503461018357604036600319011261018357611357611cac565b61135f611cc7565b600080516020614613833981519152549160ff8360401c1615926001600160401b0381168015908161146e575b6001149081611464575b15908161145b575b5061144c5767ffffffffffffffff198116600117600080516020614613833981519152558361141f575b506113d1612100565b6113d9612100565b6113e233611e4e565b60018060a01b03166001600160601b0360a01b600254161760025560018060a01b03166001600160601b0360a01b6003541617600355610ccf5780f35b68ffffffffffffffffff1916680100000000000000011760008051602061461383398151915255386113c8565b63f92ee8a960e01b8552600485fd5b9050153861139e565b303b159150611396565b85915061138c565b5060803660031901126101835760243590604435600435611495611cdd565b61149d611efa565b6001600160a01b0316808452600960205260408085209051909391906114c281611d09565b60018060a01b03855416815260ff60046001870154966020840197885260018060a01b0360028201541660408501526003810154606085015201541615156080820152338652600a602052836040872095510361166f57516001600160a01b0316036116385742811115611606578434036115d057338452600b602052604084209485543481018091116115bc5790955582546001600160a01b031916339081178455600284019590955560038301556001820155600401805460ff191690556040805192835234602084015290917fb2a4706eb30fbca70b94141708a50a456d89844927f443dadcde61e3920ab6af9190a16001805580f35b634e487b7160e01b86526011600452602486fd5b60405162461bcd60e51b815260206004820152600e60248201526d125b9d985b1a5908185b5bdd5b9d60921b6044820152606490fd5b60405162461bcd60e51b815260206004820152600a6024820152692a34b6b29022b93937b960b11b6044820152606490fd5b60405162461bcd60e51b815260206004820152600f60248201526e496e76616c6964204164647265737360881b6044820152606490fd5b60405162461bcd60e51b815260206004820152601860248201527f5468697320746f6b656e206973206e6f74204c697374656400000000000000006044820152606490fd5b503461018357602036600319011261018357602090600435815260058252604060018060a01b0391205416604051908152f35b503461018357602036600319011261018357611701611cac565b611709611ec4565b60018060a01b03166001600160601b0360a01b600254161760025580f35b50346101835760203660031901126101835760209060ff906040906001600160a01b03611752611cac565b168152600684522054166040519015158152f35b503461018357602036600319011261018357604060a091611785611cac565b61178d611e23565b50600180851b031681526009602052206040516117a981611d09565b600180841b0382541691828252600181015460208301908152600180861b036002830154169060408401918252608060ff60046003860154956060880196875201541694019315158452604051948552516020850152600180861b0390511660408401525160608301525115156080820152f35b50346101835780600319360112610183576003546040516001600160a01b039091168152602090f35b503461018357608036600319011261018357611860611cac565b50611869611cc7565b506064356001600160401b03811161029257366023820112156102925761189a903690602481600401359101611d5b565b50604051630a85bd0160e11b8152602090f35b503461018357610140366003190112610183576004356001600160401b038111610292576118df903690600401611da1565b906024356001600160401b038111610292576118ff903690600401611da1565b916044356001600160401b0381116107735761191f903690600401611da1565b60e435906001600160401b038211611c645736602383011215611c645781600401356001600160401b038111611c50578060051b92604051916119656020860184611d3a565b825260208201906024829582010190368211611b885760248101925b828410611baf57505050610104356001600160a01b0381169150819003610b2b57610124356001600160a01b0381169390849003611bab576040516124c4808201908282106001600160401b03831117611b975790829161212f8339039088f08015611b8c576001600160a01b031697883b15611b8857611a2b96939592889592611a3d611a54936040519a8b98622a1f6360ea1b8a5261018060048b01526101848a0190611de2565b8881036003190160248a015290611de2565b916044870152600319868303016064870152611de2565b94606435608485015260843560a485015260a43560c485015260c43560e48501526003198487030161010485015251808652602086019560208260051b820101939686915b838310611b385750505050829394506101248301523361014483015230610164830152038183875af1801561076857611b28575b5060078054825260056020526040822080546001600160a01b0319166001600160a01b0385161790555491906000198314611b145750600160209201600755604051908152f35b634e487b7160e01b81526011600452602490fd5b81611b3291611d3a565b38611acd565b92955092955092602080600192601f19858203018652895190604080611b678451606085526060850190611de2565b93858101518685015201519101529801930193018895929693889592611a99565b8780fd5b6040513d89823e3d90fd5b634e487b7160e01b8a52604160045260248afd5b8680fd5b83356001600160401b038111611c4c57820160606023198236030112611c4c5760405190606082018281106001600160401b03821117611c385760405260248101356001600160401b038111611c345791606460209492611c17869560243691840101611da1565b835260448101358584015201356040820152815201930192611981565b8b80fd5b634e487b7160e01b8c52604160045260248cfd5b8980fd5b634e487b7160e01b85526041600452602485fd5b8380fd5b503461018357602036600319011261018357611c82611cac565b611c8a611ec4565b6001600160a01b03168152600660205260408120805460ff1916600117905580f35b600435906001600160a01b0382168203611cc257565b600080fd5b602435906001600160a01b0382168203611cc257565b606435906001600160a01b0382168203611cc257565b604435906001600160a01b0382168203611cc257565b60a081019081106001600160401b03821117611d2457604052565b634e487b7160e01b600052604160045260246000fd5b90601f801991011681019081106001600160401b03821117611d2457604052565b9291926001600160401b038211611d245760405191611d84601f8201601f191660200184611d3a565b829481845281830111611cc2578281602093846000960137010152565b9080601f83011215611cc257816020611dbc93359101611d5b565b90565b906003821015611dcc5752565b634e487b7160e01b600052602160045260246000fd5b919082519283825260005b848110611e0e575050826000602080949584010152601f8019910116010190565b80602080928401015182828601015201611ded565b60405190611e3082611d09565b60006080838281528260208201528260408201528260608201520152565b6001600160a01b03168015611eae576000805160206145f383398151915280546001600160a01b0319811683179091556001600160a01b03167f8be0079c531659141344cd1fd0a4f28419497f9722a3daafe3b4186f6b6457e0600080a3565b631e4fbdf760e01b600052600060045260246000fd5b6000805160206145f3833981519152546001600160a01b03163303611ee557565b63118cdaa760e01b6000523360045260246000fd5b600260015414611f0b576002600155565b633ee5aeb560e01b60005260046000fd5b600c5460009591946001600160a01b0390941693919060ff1680156120af5780830290838204148315171561209b5760649004868080808460018060a01b03825416828215612092575bf115610b37578654604080516001600160a01b039092168252602082018390527f56a87afabcc5be804fc847379d1f4e3408f49b3016cc7dcea295265f59a0bd5791a18083039183831161207e576001600160a01b031692879183918591849114612075575b839283928392f11561206a577ff474f1647716b20d13fea8c36a785eabe9a98725dd210a911b9e0fc1508a6af4916060916040519182526020820152426040820152a1813b15611c6457604051632142170760e11b81523060048201526001600160a01b03919091166024820152604481019290925282908290606490829084905af180156107685761205d575050565b8161206791611d3a565b50565b6040513d87823e3d90fd5b506108fc611fcc565b634e487b7160e01b88526011600452602488fd5b506108fc611f66565b634e487b7160e01b87526011600452602487fd5b60405162461bcd60e51b8152602060048201526024808201527f4d61726b6574506c616365206e6f742073657420736572766963652066656573604482015263081e595d60e21b6064820152608490fd5b60ff6000805160206146138339815191525460401c161561211d57565b631afcd79f60e31b60005260046000fdfe608080604052346015576124a9908161001b8239f35b600080fdfe608080604052600436101561001357600080fd5b60003560e01c90816301ffc9a714611af95750806306fdde0314611a37578063081812fc146119ec578063095ea7b3146118fa57806319e2a211146113f15780632194f3a2146113c857806323b872dd146113b157806324600fc314611188578063321db7261461108157806342842e0e146110515780634ed0262214610f2a5780636352211e14610efa57806370a0823114610ea8578063715018a614610e3e5780638da5cb5b14610e0857806395d89b4114610d215780639dec65ed14610cf8578063a22cb46514610c5c578063a87d8c0014610359578063a98ad46c14610330578063b88d4fde146102c5578063bda9060414610282578063c87b56dd14610216578063e985e9c5146101c8578063f2fde38b1461019d5763fa7130831461013d57600080fd5b34610198576020366003190112610198576004356000526009602052610189604060002061016a81611cf1565b9060026001820154910154604051938493606085526060850190611b64565b91602084015260408301520390f35b600080fd5b34610198576020366003190112610198576101c66101b9611ba5565b6101c16121f8565b612151565b005b34610198576040366003190112610198576101e1611ba5565b6101f26101ec611bbb565b91612118565b9060018060a01b0316600052602052602060ff604060002054166040519015158152f35b34610198576020366003190112610198576004356001600160a01b0361023b8261236b565b161561027157600052600a60205261026d6102596040600020611cf1565b604051918291602083526020830190611b64565b0390f35b63677510db60e11b60005260046000fd5b346101985760203660031901126101985761029b611ba5565b6102a36121f8565b600080546001600160a01b0319166001600160a01b0392909216919091179055005b34610198576080366003190112610198576102de611ba5565b6102e6611bbb565b90604435606435926001600160401b03841161019857366023850112156101985761031e6101c6943690602481600401359101611c28565b9261032a838383611f15565b3361222e565b34610198576000366003190112610198576007546040516001600160a01b039091168152602090f35b3461019857610180366003190112610198576004356001600160401b0381116101985761038a903690600401611c5f565b6024356001600160401b038111610198576103a9903690600401611c5f565b6044356001600160a01b0381169290839003610198576064356001600160401b038111610198576103de903690600401611c5f565b9261010435926001600160401b038411610198573660238501121561019857836004013561040b81611d95565b946104196040519687611bec565b8186526024602087019260051b820101903682116101985760248101925b828410610be757505050610124356001600160a01b03811693915083900361019857610144356001600160a01b038116810361019857610164356001600160a01b038116939084900361019857600080516020612434833981519152549560ff8760401c1615966001600160401b03811680159081610bdf575b6001149081610bd5575b159081610bcc575b50610bbb5767ffffffffffffffff1981166001176000805160206124348339815191525587610b8e575b506104f66123a5565b6104fe6123a5565b8051906001600160401b03821161096d576105276000805160206123d483398151915254611cb7565b601f8111610b1c575b50602090601f8311600114610a7c57610562929160009183610762575b50508160011b916000199060031b1c19161790565b6000805160206123d4833981519152555b8051906001600160401b03821161096d5761059c60008051602061245483398151915254611cb7565b601f8111610a0a575b50602090601f83116001146109835791806105db926105fc95946000926107625750508160011b916000199060031b1c19161790565b600080516020612454833981519152555b6105f46123a5565b6101c16123a5565b6001600160601b0360a01b60075416176007556001600160601b0360a01b60005416176000556001600160601b0360a01b600854161760085582516001600160401b03811161096d57610650600154611cb7565b601f8111610908575b506020601f821160011461088457819061068b9394956000926108795750508160011b916000199060031b1c19161790565b6001555b60843560025560a43560035560c43560045560e43560055560005b825181101561081457600060208260051b8501015160065468010000000000000000811015610800578060016106e39201600655611dac565b9290926107ec578151908151916001600160401b0383116107d8576107128361070c8754611cb7565b87611de1565b602091601f841160011461076d578360029460409460019998979461074b94926107625750508160011b916000199060031b1c19161790565b84555b6020810151868501550151910155016106aa565b015190508b8061054d565b9190601f198416868452828420935b8181106107c0575093604093600198979693899383600298106107a7575b505050811b01845561074e565b015160001960f88460031b161c191690558a808061079a565b9293602060018192878601518155019501930161077c565b634e487b7160e01b82526041600452602482fd5b634e487b7160e01b81526004819052602490fd5b634e487b7160e01b83526041600452602483fd5b506000600b5561082057005b68ff0000000000000000196000805160206124348339815191525416600080516020612434833981519152557fc7f505b2f371ae2175ee4913f4499e1f2633a7b5936321eed1cdaeb6115181d2602060405160018152a1005b01519050858061054d565b601f1982169060016000527fb10e2d527612073b26eecdfd717e6a320cf44b4afac2b0732d9fcbe2b7fa0cf69160005b8181106108f0575095836001959697106108d7575b505050811b0160015561068f565b015160001960f88460031b161c191690558480806108c9565b9192602060018192868b0151815501940192016108b4565b60016000527fb10e2d527612073b26eecdfd717e6a320cf44b4afac2b0732d9fcbe2b7fa0cf6601f830160051c81019160208410610963575b601f0160051c01905b8181106109575750610659565b6000815560010161094a565b9091508190610941565b634e487b7160e01b600052604160045260246000fd5b90601f19831691600080516020612454833981519152600052816000209260005b8181106109f257509160019391856105fc979694106109d9575b505050811b01600080516020612454833981519152556105ec565b015160001960f88460031b161c191690558a80806109be565b929360206001819287860151815501950193016109a4565b6000805160206124548339815191526000527ff4bad0a69248f59680a4f2b3000328cec71a413447c96781cfe5996daa8c456e601f840160051c81019160208510610a72575b601f0160051c01905b818110610a6657506105a5565b60008155600101610a59565b9091508190610a50565b90601f198316916000805160206123d48339815191526000527f37c58c799b6609234b945e882912ee9ad34948a1dfaa20a97485e1a7752bbf819260005b818110610b045750908460019594939210610aeb575b505050811b016000805160206123d483398151915255610573565b015160001960f88460031b161c191690558a8080610ad0565b92936020600181928786015181550195019301610aba565b6000805160206123d48339815191526000527f37c58c799b6609234b945e882912ee9ad34948a1dfaa20a97485e1a7752bbf81601f840160051c81019160208510610b84575b601f0160051c01905b818110610b785750610530565b60008155600101610b6b565b9091508190610b62565b68ffffffffffffffffff1916680100000000000000011760008051602061243483398151915255896104ed565b63f92ee8a960e01b60005260046000fd5b9050158b6104c3565b303b1591506104bb565b8991506104b1565b83356001600160401b038111610198578201606060231982360301126101985760405191610c1483611bd1565b6024820135926001600160401b03841161019857606460209493610c3f869560243691840101611c5f565b835260448101358584015201356040820152815201930192610437565b3461019857604036600319011261019857610c75611ba5565b60243590811515809203610198576001600160a01b0316908115610ce357610c9c33612118565b82600052602052604060002060ff1981541660ff83161790556040519081527f17307eab39ab6107e8899845ad3d59bd9653f200f220920489ca2b5937696c3160203392a3005b50630b61174360e31b60005260045260246000fd5b34610198576000366003190112610198576000546040516001600160a01b039091168152602090f35b3461019857600036600319011261019857604051600060008051602061245483398151915254610d5081611cb7565b8084529060018116908115610de45750600114610d78575b61026d8361025981850382611bec565b60008051602061245483398151915260009081527ff4bad0a69248f59680a4f2b3000328cec71a413447c96781cfe5996daa8c456e939250905b808210610dca57509091508101602001610259610d68565b919260018160209254838588010152019101909291610db2565b60ff191660208086019190915291151560051b840190910191506102599050610d68565b34610198576000366003190112610198576000805160206123f4833981519152546040516001600160a01b039091168152602090f35b3461019857600036600319011261019857610e576121f8565b6000805160206123f483398151915280546001600160a01b031981169091556000906001600160a01b03167f8be0079c531659141344cd1fd0a4f28419497f9722a3daafe3b4186f6b6457e08280a3005b3461019857602036600319011261019857610ec1611ba5565b6001600160a01b03811615610ee457610edb6020916120df565b54604051908152f35b6322718ad960e21b600052600060045260246000fd5b34610198576020366003190112610198576020610f186004356121c7565b6040516001600160a01b039091168152f35b3461019857600036600319011261019857600654610f4781611d95565b90610f556040519283611bec565b80825260208201908160066000527ff652222313e28459528d920b65115c16c04f3efc82aaedc97be59f3f377c0d3f6000915b83831061101357848660405191829160208301906020845251809152604083019060408160051b85010192916000905b828210610fc757505050500390f35b919360019193955060208091603f19898203018552875190604080610ff58451606085526060850190611b64565b93858101518685015201519101529601920192018594939192610fb8565b6003602060019260405161102681611bd1565b61102f86611cf1565b8152848601548382015260028601546040820152815201920192019190610f88565b34610198576101c661106236611c7d565b9060405192611072602085611bec565b6000845261032a838383611f15565b346101985760003660031901126101985760405160006001546110a381611cb7565b80845290600181169081156111645750600114611105575b6110ec836110cb81850382611bec565b6002546003546004546005549160405195869560a0875260a0870190611b64565b9360208601526040850152606084015260808301520390f35b600160009081527fb10e2d527612073b26eecdfd717e6a320cf44b4afac2b0732d9fcbe2b7fa0cf6939250905b80821061114a575090915081016020016110cb6110bb565b919260018160209254838588010152019101909291611132565b60ff191660208086019190915291151560051b840190910191506110cb90506110bb565b34610198576000366003190112610198576111a16121f8565b6000546040516326749ad760e01b815230600482015290602090829060249082906001600160a01b03165afa90811561129a5760009161136f575b5015611314576007546040516370a0823160e01b81523060048201526001600160a01b0390911690602081602481855afa90811561129a576000916112e2575b5080156112a657600060209160018060a01b036008541690604051908482019263a9059cbb60e01b8452602483015260448201526044815261125f606482611bec565b519082855af11561129a576000513d6112915750803b155b61127d57005b635274afe760e01b60005260045260246000fd5b60011415611277565b6040513d6000823e3d90fd5b60405162461bcd60e51b81526020600482015260146024820152734e6f2066756e647320746f20776974686472617760601b6044820152606490fd5b90506020813d60201161130c575b816112fd60209383611bec565b8101031261019857518261121c565b3d91506112f0565b60405162461bcd60e51b815260206004820152602d60248201527f5468697320636f6e7472616374206973206e6f7420617070726f76656420666f60448201526c72207769746864726177616c7360981b6064820152608490fd5b6020813d6020116113a9575b8161138860209383611bec565b810103126113a557519081151582036113a25750816111dc565b80fd5b5080fd5b3d915061137b565b34610198576101c66113c236611c7d565b91611f15565b34610198576000366003190112610198576008546040516001600160a01b039091168152602090f35b34610198576040366003190112610198576004356024356001600160401b03811161019857611424903690600401611c5f565b9060045442106118ab5760055442116118665760065481101561182b5761144a90611dac565b506001810191825480156117f45760001981019081116117de578355600b54600181018082116117de57600b556020916040516114878482611bec565b6000815233156117c85761149a8361236b565b6001600160a01b0381168015159190859083611789575b6114ba336120df565b8054600101905560008281527f80bb2b638cc20bc4d0a60d66940f3ab4a00c1d7b313497ca82fb0b4ab007930289526040812080546001600160a01b0319163390811790915591907fddf252ad1be2c89b69c2b068fc378daa952ba7f163c4a11628f55a4df523b3ef9080a45061177357333b61165a575b506001600160a01b036115448361236b565b16156102715781600052600a83526040600020908051906001600160401b03821161096d5761157d826115778554611cb7565b85611de1565b8490601f83116001146115ef5791806115b2926009979695946000926115e45750508160011b916000199060031b1c19161790565b90555b600052526040600020918183036115c857005b60029182916115d78286611e33565b5460018501550154910155005b01519050898061054d565b90601f1983169184600052866000209260005b8181106116435750916001939185600999989796941061162a575b505050811b0190556115b5565b015160001960f88460031b161c1916905588808061161d565b929388600181928786015181550195019301611602565b83611698916040979695975180938192630a85bd0160e11b835233600484015260006024840152876044840152608060648401526084830190611b64565b03816000335af18091600091611735575b50906116ff57853d156116f8573d6116c081611c0d565b906116ce6040519283611bec565b81523d60008383013e5b805191826116f557633250574960e11b6000523360045260246000fd5b01fd5b60606116d8565b939492936001600160e01b03191663757a42ff60e11b016117205785611532565b633250574960e11b6000523360045260246000fd5b8781813d831161176c575b61174a8183611bec565b810103126113a55751906001600160e01b0319821682036113a25750876116a9565b503d611740565b6339e3563760e11b600052600060045260246000fd5b60008281526000805160206124148339815191526020526040902080546001600160a01b03191690556117bb836120df565b80546000190190556114b1565b633250574960e11b600052600060045260246000fd5b634e487b7160e01b600052601160045260246000fd5b60405162461bcd60e51b815260206004820152600f60248201526e151a58dad95d081cdbdb19081bdd5d608a1b6044820152606490fd5b60405162461bcd60e51b8152602060048201526013602482015272496e76616c6964207469636b6574207479706560681b6044820152606490fd5b60405162461bcd60e51b815260206004820152601760248201527f5469636b65742073616c6573206861766520656e6465640000000000000000006044820152606490fd5b60405162461bcd60e51b815260206004820152602160248201527f5469636b65742073616c65732068617665206e6f7420737461727465642079656044820152601d60fa1b6064820152608490fd5b3461019857604036600319011261019857611913611ba5565b60243561191f816121c7565b331515806119d9575b806119b5575b6119a05781906001600160a01b0384811691167f8c5be1e5ebec7d5bd14f71427d1e84f3dd0314c0f7b2291e5b200ac8c7c3b925600080a460009081526000805160206124148339815191526020526040902080546001600160a01b0319166001600160a01b03909216919091179055005b63a9fbf51f60e01b6000523360045260246000fd5b506119bf81612118565b336000908152602091909152604090205460ff161561192e565b506001600160a01b038116331415611928565b34610198576020366003190112610198576020610f18600435611a0e816121c7565b50600090815260008051602061241483398151915260205260409020546001600160a01b031690565b346101985760003660031901126101985760405160006000805160206123d483398151915254611a6681611cb7565b8084529060018116908115610de45750600114611a8d5761026d8361025981850382611bec565b6000805160206123d483398151915260009081527f37c58c799b6609234b945e882912ee9ad34948a1dfaa20a97485e1a7752bbf81939250905b808210611adf57509091508101602001610259610d68565b919260018160209254838588010152019101909291611ac7565b34610198576020366003190112610198576004359063ffffffff60e01b8216809203610198576020916380ac58cd60e01b8114908115611b53575b8115611b42575b5015158152f35b6301ffc9a760e01b14905083611b3b565b635b5e139f60e01b81149150611b34565b919082519283825260005b848110611b90575050826000602080949584010152601f8019910116010190565b80602080928401015182828601015201611b6f565b600435906001600160a01b038216820361019857565b602435906001600160a01b038216820361019857565b606081019081106001600160401b0382111761096d57604052565b90601f801991011681019081106001600160401b0382111761096d57604052565b6001600160401b03811161096d57601f01601f191660200190565b929192611c3482611c0d565b91611c426040519384611bec565b829481845281830111610198578281602093846000960137010152565b9080601f8301121561019857816020611c7a93359101611c28565b90565b6060906003190112610198576004356001600160a01b038116810361019857906024356001600160a01b0381168103610198579060443590565b90600182811c92168015611ce7575b6020831014611cd157565b634e487b7160e01b600052602260045260246000fd5b91607f1691611cc6565b9060405191826000825492611d0584611cb7565b8084529360018116908115611d735750600114611d2c575b50611d2a92500383611bec565b565b90506000929192526020600020906000915b818310611d57575050906020611d2a9282010138611d1d565b6020919350806001915483858901015201910190918492611d3e565b905060209250611d2a94915060ff191682840152151560051b82010138611d1d565b6001600160401b03811161096d5760051b60200190565b600654811015611dcb5760066000526003602060002091020190600090565b634e487b7160e01b600052603260045260246000fd5b601f8211611dee57505050565b6000526020600020906020601f840160051c83019310611e29575b601f0160051c01905b818110611e1d575050565b60008155600101611e12565b9091508190611e09565b919091828114611f1057611e478354611cb7565b6001600160401b03811161096d57611e6981611e638454611cb7565b84611de1565b600093601f8211600114611eaa57611e9b9293948291600092611e9f5750508160011b916000199060031b1c19161790565b9055565b01549050388061054d565b845260208085208386529085209094601f198316815b818110611ef857509583600195969710611edf575b505050811b019055565b015460001960f88460031b161c19169055388080611ed5565b9192600180602092868b015481550194019201611ec0565b509050565b909291906001600160a01b03841680156117c857600094611f358461236b565b9533151580612033575b509184917fddf252ad1be2c89b69c2b068fc378daa952ba7f163c4a11628f55a4df523b3ef611f8097989460018060a01b03861698899384611ff4576120df565b805460010190558481527f80bb2b638cc20bc4d0a60d66940f3ab4a00c1d7b313497ca82fb0b4ab00793026020526040812080546001600160a01b0319168517905580a4506001600160a01b0316808303611fda57505050565b6364283d7b60e01b60005260045260245260445260646000fd5b60008781526000805160206124148339815191526020526040902080546001600160a01b0319169055612026886120df565b80546000190190556120df565b8061207c575b156120445738611f3f565b84906001600160a01b03881661206657602491637e27328960e01b8252600452fd5b60449163177e802f60e01b825233600452602452fd5b506001600160a01b038716331480156120c2575b806120395750600085815260008051602061241483398151915260205260409020546001600160a01b03163314612039565b506120cc87612118565b338252602052604081205460ff16612090565b6001600160a01b031660009081527f80bb2b638cc20bc4d0a60d66940f3ab4a00c1d7b313497ca82fb0b4ab00793036020526040902090565b6001600160a01b031660009081527f80bb2b638cc20bc4d0a60d66940f3ab4a00c1d7b313497ca82fb0b4ab00793056020526040902090565b6001600160a01b031680156121b1576000805160206123f483398151915280546001600160a01b0319811683179091556001600160a01b03167f8be0079c531659141344cd1fd0a4f28419497f9722a3daafe3b4186f6b6457e0600080a3565b631e4fbdf760e01b600052600060045260246000fd5b6121d08161236b565b906001600160a01b038216156121e4575090565b637e27328960e01b60005260045260246000fd5b6000805160206123f4833981519152546001600160a01b0316330361221957565b63118cdaa760e01b6000523360045260246000fd5b823b61223c575b5050505050565b604051630a85bd0160e11b81526001600160a01b039182166004820152918116602483015260448201939093526080606482015291169160209082908190612288906084830190611b64565b03816000865af18091600091612328575b50906122f257503d156122eb573d6122b081611c0d565b906122be6040519283611bec565b81523d6000602083013e5b805190816122e65782633250574960e11b60005260045260246000fd5b602001fd5b60606122c9565b6001600160e01b03191663757a42ff60e11b0161231457503880808080612235565b633250574960e11b60005260045260246000fd5b6020813d602011612363575b8161234160209383611bec565b810103126113a55751906001600160e01b0319821682036113a2575038612299565b3d9150612334565b60009081527f80bb2b638cc20bc4d0a60d66940f3ab4a00c1d7b313497ca82fb0b4ab007930260205260409020546001600160a01b031690565b60ff6000805160206124348339815191525460401c16156123c257565b631afcd79f60e31b60005260046000fdfe80bb2b638cc20bc4d0a60d66940f3ab4a00c1d7b313497ca82fb0b4ab00793009016d09d72d40fdae2fd8ceac6b6234c7706214fd39c1cd1e609a0528c19930080bb2b638cc20bc4d0a60d66940f3ab4a00c1d7b313497ca82fb0b4ab0079304f0c57e16840df040f15088dc2f81fe391c3923bec73e23a9662efc9c229c6a0080bb2b638cc20bc4d0a60d66940f3ab4a00c1d7b313497ca82fb0b4ab0079301a26469706673582212206552b3f64bd2cbe17261e3da47a7378865ea6cf91975799410d90cbe1bc41b7c64736f6c634300081a00339016d09d72d40fdae2fd8ceac6b6234c7706214fd39c1cd1e609a0528c199300f0c57e16840df040f15088dc2f81fe391c3923bec73e23a9662efc9c229c6a00a26469706673582212208a6a48481e15e048b43b0c8339c5f9ae8313b16dbd33836bf7a25fbe58fa0fd264736f6c634300081a0033",
  "linkReferences": {},
  "deployedLinkReferences": {}
}