{
  "_format": "hh-sol-artifact-1",
  "contractName": "NatirumMarketplace",
  "sourceName": "contracts/Natrium-Nft-Marketplace.sol",
  "abi": [
    {
      "inputs": [],
      "name": "InvalidInitialization",
      "type": "error"
    },
    {
      "inputs": [],
      "name": "NotInitializing",
      "type": "error"
    },
    {
      "inputs": [
        {
          "internalType": "address",
          "name": "owner",
          "type": "address"
        }
      ],
      "name": "OwnableInvalidOwner",
      "type": "error"
    },
    {
      "inputs": [
        {
          "internalType": "address",
          "name": "account",
          "type": "address"
        }
      ],
      "name": "OwnableUnauthorizedAccount",
      "type": "error"
    },
    {
      "inputs": [],
      "name": "ReentrancyGuardReentrantCall",
      "type": "error"
    },
    {
      "anonymous": false,
      "inputs": [
        {
          "indexed": false,
          "internalType": "address",
          "name": "buyer",
          "type": "address"
        },
        {
          "indexed": false,
          "internalType": "uint256",
          "name": "offerPrice",
          "type": "uint256"
        },
        {
          "indexed": false,
          "internalType": "bool",
          "name": "isCancel",
          "type": "bool"
        }
      ],
      "name": "CancelOffer",
      "type": "event"
    },
    {
      "anonymous": false,
      "inputs": [
        {
          "indexed": false,
          "internalType": "uint64",
          "name": "version",
          "type": "uint64"
        }
      ],
      "name": "Initialized",
      "type": "event"
    },
    {
      "anonymous": false,
      "inputs": [
        {
          "indexed": false,
          "internalType": "address",
          "name": "seller",
          "type": "address"
        },
        {
          "indexed": false,
          "internalType": "uint256",
          "name": "tokenID",
          "type": "uint256"
        },
        {
          "indexed": false,
          "internalType": "address",
          "name": "hostContract",
          "type": "address"
        },
        {
          "indexed": false,
          "internalType": "uint256",
          "name": "nftPrice",
          "type": "uint256"
        },
        {
          "indexed": false,
          "internalType": "bool",
          "name": "isListed",
          "type": "bool"
        }
      ],
      "name": "ListNFT",
      "type": "event"
    },
    {
      "anonymous": false,
      "inputs": [
        {
          "indexed": true,
          "internalType": "address",
          "name": "previousOwner",
          "type": "address"
        },
        {
          "indexed": true,
          "internalType": "address",
          "name": "newOwner",
          "type": "address"
        }
      ],
      "name": "OwnershipTransferred",
      "type": "event"
    },
    {
      "anonymous": false,
      "inputs": [
        {
          "indexed": false,
          "internalType": "address",
          "name": "seller",
          "type": "address"
        },
        {
          "indexed": false,
          "internalType": "uint256",
          "name": "tokenID",
          "type": "uint256"
        },
        {
          "indexed": false,
          "internalType": "address",
          "name": "hostContract",
          "type": "address"
        },
        {
          "indexed": false,
          "internalType": "bool",
          "name": "isUnlisted",
          "type": "bool"
        }
      ],
      "name": "UnListNFT",
      "type": "event"
    },
    {
      "anonymous": false,
      "inputs": [
        {
          "indexed": false,
          "internalType": "address",
          "name": "buyer",
          "type": "address"
        },
        {
          "indexed": false,
          "internalType": "uint256",
          "name": "acceptedPrice",
          "type": "uint256"
        },
        {
          "indexed": false,
          "internalType": "uint256",
          "name": "tokenId",
          "type": "uint256"
        },
        {
          "indexed": false,
          "internalType": "bool",
          "name": "isAccepted",
          "type": "bool"
        }
      ],
      "name": "acceptOffer",
      "type": "event"
    },
    {
      "anonymous": false,
      "inputs": [
        {
          "indexed": false,
          "internalType": "address",
          "name": "buyer",
          "type": "address"
        },
        {
          "indexed": false,
          "internalType": "uint256",
          "name": "tokenID",
          "type": "uint256"
        },
        {
          "indexed": false,
          "internalType": "uint256",
          "name": "paidPrice",
          "type": "uint256"
        },
        {
          "indexed": false,
          "internalType": "uint256",
          "name": "timeStamp",
          "type": "uint256"
        }
      ],
      "name": "buyNFT",
      "type": "event"
    },
    {
      "anonymous": false,
      "inputs": [
        {
          "indexed": false,
          "internalType": "address",
          "name": "buyer",
          "type": "address"
        },
        {
          "indexed": false,
          "internalType": "uint256",
          "name": "offerPrice",
          "type": "uint256"
        }
      ],
      "name": "makeOffer",
      "type": "event"
    },
    {
      "anonymous": false,
      "inputs": [
        {
          "indexed": false,
          "internalType": "address",
          "name": "admin",
          "type": "address"
        },
        {
          "indexed": false,
          "internalType": "uint8",
          "name": "serviceFee",
          "type": "uint8"
        }
      ],
      "name": "servicePercentage",
      "type": "event"
    },
    {
      "anonymous": false,
      "inputs": [
        {
          "indexed": false,
          "internalType": "address",
          "name": "seller",
          "type": "address"
        },
        {
          "indexed": false,
          "internalType": "uint256",
          "name": "nftPrice",
          "type": "uint256"
        },
        {
          "indexed": false,
          "internalType": "uint256",
          "name": "timeStamp",
          "type": "uint256"
        }
      ],
      "name": "transferNftPrice",
      "type": "event"
    },
    {
      "anonymous": false,
      "inputs": [
        {
          "indexed": false,
          "internalType": "address",
          "name": "owner",
          "type": "address"
        },
        {
          "indexed": false,
          "internalType": "uint256",
          "name": "serviceFees",
          "type": "uint256"
        }
      ],
      "name": "transferServiceFees",
      "type": "event"
    },
    {
      "inputs": [
        {
          "internalType": "uint256",
          "name": "_tokenId",
          "type": "uint256"
        },
        {
          "internalType": "address",
          "name": "_buyer",
          "type": "address"
        }
      ],
      "name": "acceptOffers",
      "outputs": [],
      "stateMutability": "nonpayable",
      "type": "function"
    },
    {
      "inputs": [
        {
          "internalType": "uint256",
          "name": "_tokenId",
          "type": "uint256"
        },
        {
          "internalType": "address",
          "name": "_seller",
          "type": "address"
        },
        {
          "internalType": "address",
          "name": "_hostContract",
          "type": "address"
        }
      ],
      "name": "buyNft",
      "outputs": [],
      "stateMutability": "payable",
      "type": "function"
    },
    {
      "inputs": [
        {
          "internalType": "uint256",
          "name": "_tokenId",
          "type": "uint256"
        }
      ],
      "name": "cancelOffer",
      "outputs": [],
      "stateMutability": "nonpayable",
      "type": "function"
    },
    {
      "inputs": [
        {
          "internalType": "address",
          "name": "user",
          "type": "address"
        }
      ],
      "name": "checkBalance",
      "outputs": [
        {
          "internalType": "uint256",
          "name": "",
          "type": "uint256"
        }
      ],
      "stateMutability": "view",
      "type": "function"
    },
    {
      "inputs": [],
      "name": "contractOwner",
      "outputs": [
        {
          "internalType": "address",
          "name": "",
          "type": "address"
        }
      ],
      "stateMutability": "view",
      "type": "function"
    },
    {
      "inputs": [
        {
          "internalType": "uint256",
          "name": "_tokenId",
          "type": "uint256"
        },
        {
          "internalType": "uint256",
          "name": "_offerPrice",
          "type": "uint256"
        },
        {
          "internalType": "uint256",
          "name": "_offerExpiry",
          "type": "uint256"
        },
        {
          "internalType": "address",
          "name": "_seller",
          "type": "address"
        }
      ],
      "name": "createOffer",
      "outputs": [],
      "stateMutability": "payable",
      "type": "function"
    },
    {
      "inputs": [],
      "name": "currentOffer",
      "outputs": [
        {
          "internalType": "enum NatirumMarketplace.Offer",
          "name": "",
          "type": "uint8"
        }
      ],
      "stateMutability": "view",
      "type": "function"
    },
    {
      "inputs": [
        {
          "internalType": "uint256",
          "name": "_tokenId",
          "type": "uint256"
        }
      ],
      "name": "getNftDetails",
      "outputs": [
        {
          "components": [
            {
              "internalType": "address",
              "name": "seller",
              "type": "address"
            },
            {
              "internalType": "uint256",
              "name": "tokenID",
              "type": "uint256"
            },
            {
              "internalType": "address",
              "name": "hostContract",
              "type": "address"
            },
            {
              "internalType": "uint256",
              "name": "nftPrice",
              "type": "uint256"
            },
            {
              "internalType": "bool",
              "name": "isListed",
              "type": "bool"
            }
          ],
          "internalType": "struct NatirumMarketplace.NftDetails",
          "name": "",
          "type": "tuple"
        }
      ],
      "stateMutability": "view",
      "type": "function"
    },
    {
      "inputs": [
        {
          "internalType": "address",
          "name": "_buyer",
          "type": "address"
        }
      ],
      "name": "getOfferDetails",
      "outputs": [
        {
          "components": [
            {
              "internalType": "address",
              "name": "buyer",
              "type": "address"
            },
            {
              "internalType": "uint256",
              "name": "tokenID",
              "type": "uint256"
            },
            {
              "internalType": "uint256",
              "name": "offerPrice",
              "type": "uint256"
            },
            {
              "internalType": "uint256",
              "name": "offerExpire",
              "type": "uint256"
            },
            {
              "internalType": "enum NatirumMarketplace.Offer",
              "name": "currentOffer",
              "type": "uint8"
            }
          ],
          "internalType": "struct NatirumMarketplace.OfferDetails",
          "name": "",
          "type": "tuple"
        }
      ],
      "stateMutability": "view",
      "type": "function"
    },
    {
      "inputs": [],
      "name": "initialize",
      "outputs": [],
      "stateMutability": "nonpayable",
      "type": "function"
    },
    {
      "inputs": [
        {
          "internalType": "uint256",
          "name": "_tokenId",
          "type": "uint256"
        },
        {
          "internalType": "uint256",
          "name": "_price",
          "type": "uint256"
        },
        {
          "internalType": "address",
          "name": "_hostContract",
          "type": "address"
        }
      ],
      "name": "listNft",
      "outputs": [],
      "stateMutability": "nonpayable",
      "type": "function"
    },
    {
      "inputs": [
        {
          "internalType": "address",
          "name": "",
          "type": "address"
        },
        {
          "internalType": "uint256",
          "name": "",
          "type": "uint256"
        }
      ],
      "name": "nftInfo",
      "outputs": [
        {
          "internalType": "address",
          "name": "seller",
          "type": "address"
        },
        {
          "internalType": "uint256",
          "name": "tokenID",
          "type": "uint256"
        },
        {
          "internalType": "address",
          "name": "hostContract",
          "type": "address"
        },
        {
          "internalType": "uint256",
          "name": "nftPrice",
          "type": "uint256"
        },
        {
          "internalType": "bool",
          "name": "isListed",
          "type": "bool"
        }
      ],
      "stateMutability": "view",
      "type": "function"
    },
    {
      "inputs": [
        {
          "internalType": "address",
          "name": "",
          "type": "address"
        }
      ],
      "name": "offererInfo",
      "outputs": [
        {
          "internalType": "address",
          "name": "buyer",
          "type": "address"
        },
        {
          "internalType": "uint256",
          "name": "tokenID",
          "type": "uint256"
        },
        {
          "internalType": "uint256",
          "name": "offerPrice",
          "type": "uint256"
        },
        {
          "internalType": "uint256",
          "name": "offerExpire",
          "type": "uint256"
        },
        {
          "internalType": "enum NatirumMarketplace.Offer",
          "name": "currentOffer",
          "type": "uint8"
        }
      ],
      "stateMutability": "view",
      "type": "function"
    },
    {
      "inputs": [
        {
          "internalType": "address",
          "name": "",
          "type": "address"
        },
        {
          "internalType": "address",
          "name": "",
          "type": "address"
        },
        {
          "internalType": "uint256",
          "name": "",
          "type": "uint256"
        },
        {
          "internalType": "bytes",
          "name": "",
          "type": "bytes"
        }
      ],
      "name": "onERC721Received",
      "outputs": [
        {
          "internalType": "bytes4",
          "name": "",
          "type": "bytes4"
        }
      ],
      "stateMutability": "nonpayable",
      "type": "function"
    },
    {
      "inputs": [],
      "name": "owner",
      "outputs": [
        {
          "internalType": "address",
          "name": "",
          "type": "address"
        }
      ],
      "stateMutability": "view",
      "type": "function"
    },
    {
      "inputs": [
        {
          "internalType": "uint256",
          "name": "_tokenId",
          "type": "uint256"
        },
        {
          "internalType": "address",
          "name": "_buyer",
          "type": "address"
        }
      ],
      "name": "rejectOffer",
      "outputs": [],
      "stateMutability": "nonpayable",
      "type": "function"
    },
    {
      "inputs": [],
      "name": "renounceOwnership",
      "outputs": [],
      "stateMutability": "nonpayable",
      "type": "function"
    },
    {
      "inputs": [
        {
          "internalType": "uint8",
          "name": "_serviceFees",
          "type": "uint8"
        }
      ],
      "name": "setServiceFees",
      "outputs": [],
      "stateMutability": "nonpayable",
      "type": "function"
    },
    {
      "inputs": [
        {
          "internalType": "address",
          "name": "newOwner",
          "type": "address"
        }
      ],
      "name": "transferOwnership",
      "outputs": [],
      "stateMutability": "nonpayable",
      "type": "function"
    },
    {
      "inputs": [
        {
          "internalType": "uint256",
          "name": "_tokenId",
          "type": "uint256"
        }
      ],
      "name": "unListNft",
      "outputs": [],
      "stateMutability": "nonpayable",
      "type": "function"
    }
  ],
  "bytecode": "0x6080604052348015600f57600080fd5b506122f58061001f6000396000f3fe60806040526004361061011f5760003560e01c8063aa4b27a8116100a0578063ef706adf11610064578063ef706adf146104aa578063f24639c6146104ca578063f2fde38b146104ea578063f6ae72e81461050a578063fa4e28f61461057257600080fd5b8063aa4b27a814610322578063ab67b2361461034f578063ce606ee01461036f578063db9371c21461038f578063e85cd748146103af57600080fd5b8063715018a6116100e7578063715018a61461027457806372a43b9c146102895780637cde12021461029c5780638129fc1c146102bc5780638da5cb5b146102d157600080fd5b8063150b7a02146101245780631d62fa051461016d57806340e250d3146102095780634370fb341461022b5780635f5152261461023e575b600080fd5b34801561013057600080fd5b5061014f61013f366004611f00565b630a85bd0160e11b949350505050565b6040516001600160e01b031990911681526020015b60405180910390f35b34801561017957600080fd5b506101d0610188366004611fe8565b60016020818152600093845260408085209091529183529120805491810154600282015460038301546004909301546001600160a01b03948516949293919092169160ff1685565b604080516001600160a01b039687168152602081019590955292909416918301919091526060820152901515608082015260a001610164565b34801561021557600080fd5b50610229610224366004612014565b6105a0565b005b61022961023936600461204d565b610808565b34801561024a57600080fd5b5061026661025936600461208e565b6001600160a01b03163190565b604051908152602001610164565b34801561028057600080fd5b50610229610a40565b6102296102973660046120b2565b610a54565b3480156102a857600080fd5b506102296102b73660046120e9565b610ce4565b3480156102c857600080fd5b50610229611035565b3480156102dd57600080fd5b507f9016d09d72d40fdae2fd8ceac6b6234c7706214fd39c1cd1e609a0528c199300546001600160a01b03165b6040516001600160a01b039091168152602001610164565b34801561032e57600080fd5b5061034261033d36600461208e565b611155565b6040516101649190612151565b34801561035b57600080fd5b5061022961036a36600461219a565b6111e3565b34801561037b57600080fd5b5060005461030a906001600160a01b031681565b34801561039b57600080fd5b506102296103aa3660046120e9565b61133a565b3480156103bb57600080fd5b506104606103ca36600461219a565b6040805160a0810182526000808252602082018190529181018290526060810182905260808101919091525033600090815260016020818152604080842094845293815291839020835160a08101855281546001600160a01b03908116825292820154938101939093526002810154909116928201929092526003820154606082015260049091015460ff161515608082015290565b6040805182516001600160a01b039081168252602080850151908301528383015116918101919091526060808301519082015260809182015115159181019190915260a001610164565b3480156104b657600080fd5b506102296104c536600461219a565b611646565b3480156104d657600080fd5b506102296104e53660046121b3565b6118b5565b3480156104f657600080fd5b5061022961050536600461208e565b61196e565b34801561051657600080fd5b5061056161052536600461208e565b6002602081905260009182526040909120805460018201549282015460038301546004909301546001600160a01b039092169392909160ff1685565b6040516101649594939291906121d6565b34801561057e57600080fd5b5060005461059390600160a01b900460ff1681565b6040516101649190612212565b6105a86119a9565b3360009081526001602090815260408083208684529091529020600481015482919060ff16156106105760405162461bcd60e51b815260206004820152600e60248201526d105b1c9958591e48131a5cdd195960921b60448201526064015b60405180910390fd5b6040516331a9108f60e11b81526004810186905233906001600160a01b03841690636352211e90602401602060405180830381865afa158015610657573d6000803e3d6000fd5b505050506040513d601f19601f8201168201806040525081019061067b9190612220565b6001600160a01b0316146106db5760405162461bcd60e51b815260206004820152602160248201527f596f7520617265206e6f7420746865206f776e6572206f662074686973204e666044820152601d60fa1b6064820152608401610607565b6002810180546001600160a01b038581166001600160a01b0319928316179092558254163390811783556003830186905560018084018890556004808501805460ff1916909217909155604051632142170760e11b81529081019190915230602482015260448101879052908316906342842e0e90606401600060405180830381600087803b15801561076d57600080fd5b505af1158015610781573d6000803e3d6000fd5b50505050600181015460048201546040805133815260208101939093526001600160a01b038616908301526060820186905260ff16151560808201527fa704c2f7861cb3e3fe5f14f2130761e59fbecf01cb35680cc00620ca3c02c16f9060a00160405180910390a1505061080360016000805160206122a083398151915255565b505050565b6108106119a9565b6001600160a01b0380821660009081526001602081815260408084208985528252808420815160a081018352815487168152938101548484015260028082015490961684830152600381015460608501526004015460ff161515608084019081523385529490915290912091519091906108cc5760405162461bcd60e51b815260206004820152601860248201527f5468697320746f6b656e206973206e6f74204c697374656400000000000000006044820152606401610607565b826001600160a01b031682600001516001600160a01b0316146109235760405162461bcd60e51b815260206004820152600f60248201526e496e56616c6964204164647265737360881b6044820152606401610607565b42841161095f5760405162461bcd60e51b815260206004820152600a6024820152692a34b6b29022b93937b960b11b6044820152606401610607565b84341461099f5760405162461bcd60e51b815260206004820152600e60248201526d125b9d985b1a5908185b5bdd5b9d60921b6044820152606401610607565b80546001600160a01b03191633178155600281018590556003810184905560018101869055600060048201805460ff191660018360028111156109e4576109e4612119565b0217905550604080513381523460208201527fb2a4706eb30fbca70b94141708a50a456d89844927f443dadcde61e3920ab6af910160405180910390a15050610a3a60016000805160206122a083398151915255565b50505050565b610a486119f5565b610a526000611a50565b565b610a5c6119a9565b6001600160a01b038216600090815260016020818152604080842087855290915290912001548314610ac35760405162461bcd60e51b815260206004820152601060248201526f125b9d985b1a5908151bdad95b88125160821b6044820152606401610607565b6001600160a01b03808316600081815260016020908152604080832088845290915290205490911614610b295760405162461bcd60e51b815260206004820152600e60248201526d24b72b30b634b21029b2b63632b960911b6044820152606401610607565b6001600160a01b03821660009081526001602090815260408083208684529091529020600301543414610b945760405162461bcd60e51b8152602060048201526013602482015272125b94dd59999a58da595b9d08105b5bdd5b9d606a1b6044820152606401610607565b6001600160a01b038083166000908152600160209081526040808320878452909152902054163303610bf95760405162461bcd60e51b815260206004820152600e60248201526d43616e27742053656c662062757960901b6044820152606401610607565b6001600160a01b0382166000908152600160209081526040808320868452909152902060030154610c309084903390849086611ac1565b6040805133815260208101859052348183015242606082015290517fa8c8c76dcbc214f2bf1ff14e46e52c719da6477410ad492c29eb45fd05acb6249181900360800190a16001600160a01b0382166000908152600160208181526040808420878552909152822080546001600160a01b031990811682559181018390556002810180549092169091556003810191909155600401805460ff1916905561080360016000805160206122a083398151915255565b610cec6119a9565b3360009081526001602081815260408084208685528252808420815160a0808201845282546001600160a01b039081168352838701548387015260028085015482168487015260038086015460608087019190915260049687015460ff90811615156080808901919091528d86168d52848b52898d208a519788018b52805490961687529a850154998601999099528383015497850197909752820154958301959095529283015491969590949293908501929190911690811115610db357610db3612119565b6002811115610dc457610dc4612119565b90525082519091506001600160a01b03163314610e235760405162461bcd60e51b815260206004820181905260248201527f4f6e6c792053656c6c65722063616e2061636365707420746865206f666665726044820152606401610607565b6000816040015111610e685760405162461bcd60e51b815260206004820152600e60248201526d13d999995c881c995a9958dd195960921b6044820152606401610607565b80606001514210610eab5760405162461bcd60e51b815260206004820152600d60248201526c13d999995c88115e1c1a5c9959609a1b6044820152606401610607565b83816020015114610ef85760405162461bcd60e51b81526020600482015260176024820152762a3434b9903a37b5b2b7103430b99037379037b33332b960491b6044820152606401610607565b6001600160a01b038316600090815260026020526040902060040180546001919060ff191682800217905550610f3984848460400151846040015133611ac1565b60408082015181516001600160a01b03861681526020810191909152908101859052600160608201527f2b0295c6245bbde9b0128fbea0ea5fe173b82a59a739f77c5fc7deba224dbffc9060800160405180910390a15050336000908152600160208181526040808420868552825280842080546001600160a01b03199081168255818501869055600280830180548316905560038084018890556004938401805460ff199081169091556001600160a01b038a16895295829052938720805490921682559481018690559384018590559083019390935591018054909116905561103160016000805160206122a083398151915255565b5050565b7ff0c57e16840df040f15088dc2f81fe391c3923bec73e23a9662efc9c229c6a008054600160401b810460ff16159067ffffffffffffffff1660008115801561107b5750825b905060008267ffffffffffffffff1660011480156110985750303b155b9050811580156110a6575080155b156110c45760405163f92ee8a960e01b815260040160405180910390fd5b845467ffffffffffffffff1916600117855583156110ee57845460ff60401b1916600160401b1785555b6110f733611b45565b6110ff611b56565b611107611b66565b831561114e57845460ff60401b19168555604051600181527fc7f505b2f371ae2175ee4913f4499e1f2633a7b5936321eed1cdaeb6115181d2906020015b60405180910390a15b5050505050565b61115d611e8d565b6001600160a01b03808316600090815260026020818152604092839020835160a081018552815490951685526001810154918501919091528082015492840192909252600382015460608401526004820154608084019160ff909116908111156111c9576111c9612119565b60028111156111da576111da612119565b90525092915050565b6111eb6119a9565b3360008181526001602090815260408083208584529091529020546001600160a01b0316146112675760405162461bcd60e51b815260206004820152602260248201527f4f6e6c792053656c6c65722063616e20756e4c69737420686973206f776e204e604482015261199d60f21b6064820152608401610607565b33600090815260016020908152604080832084845290915290206004015460ff166112c85760405162461bcd60e51b815260206004820152601160248201527013999d081a5cc81b9bdd08131a5cdd1959607a1b6044820152606401610607565b6112d181611b8c565b336000908152600160208181526040808420858552909152822080546001600160a01b031990811682559181018390556002810180549092169091556003810191909155600401805460ff1916905561133760016000805160206122a083398151915255565b50565b6113426119a9565b6001600160a01b038082166000908152600260208181526040808420815160a0810183528154909616865260018101549286019290925281830154908501526003810154606085015260048101549293929091608084019160ff16908111156113ad576113ad612119565b60028111156113be576113be612119565b905250336000908152600160208181526040808420888552825292839020835160a08101855281546001600160a01b03908116825293820154928101929092526002810154909216818401526003820154606082015260049091015460ff161515608082015290820151919250906114845760405162461bcd60e51b815260206004820152602360248201527f4e6f204f6666657220686173207265636569766564206f6e207468697320746f60448201526235b2b760e91b6064820152608401610607565b826001600160a01b031682600001516001600160a01b0316146114e15760405162461bcd60e51b8152602060048201526015602482015274496e56616c6964204275796572204164647265737360581b6044820152606401610607565b80516001600160a01b031633146115445760405162461bcd60e51b815260206004820152602160248201527f4f6e6c792053656c6c65722063616e2072656a6563742074686973206f6666656044820152603960f91b6064820152608401610607565b8382602001511461158a5760405162461bcd60e51b815260206004820152601060248201526f125b95985b1a59081d1bdad95b88125960821b6044820152606401610607565b6001600160a01b038381166000908152600260208190526040808320600401805460ff191690921790915584518582015191519316926108fc82150292818181858888f193505050501580156115e4573d6000803e3d6000fd5b5050506001600160a01b0381166000908152600260208190526040822080546001600160a01b0319168155600181018390559081018290556003810191909155600401805460ff1916905561103160016000805160206122a083398151915255565b61164e6119a9565b336000908152600260208181526040808420815160a08101835281546001600160a01b03168152600182015493810193909352808401549183019190915260038101546060830152600481015491929091608084019160ff909116908111156116b9576116b9612119565b60028111156116ca576116ca612119565b8152505090508181602001511461171d5760405162461bcd60e51b81526020600482015260176024820152762a3434b9903a37b5b2b7103430b99037379037b33332b960491b6044820152606401610607565b60008160400151116117715760405162461bcd60e51b815260206004820152601a60248201527f4572726f723a204f666665722063616e6e6f742043616e63656c0000000000006044820152606401610607565b80516001600160a01b031633146117db5760405162461bcd60e51b815260206004820152602860248201527f4f6e6c79204f6666657220706c6163656420757365722063616e63656c20746860448201526734b99037b33332b960c11b6064820152608401610607565b805160408083015190516001600160a01b039092169181156108fc0291906000818181858888f19350505050158015611818573d6000803e3d6000fd5b506040818101518151338152602081019190915260018183015290517fc84881cb17babe3d0cb1eed4d780ad627be071894011b3b4d1bde2689f7fa7b29181900360600190a150336000908152600260208190526040822080546001600160a01b0319168155600181018390559081018290556003810191909155600401805460ff1916905561133760016000805160206122a083398151915255565b6118bd6119f5565b60008160ff161161191f5760405162461bcd60e51b815260206004820152602660248201527f536572766963652046656573206d7573742062652067726561746572207468616044820152656e207a65726f60d01b6064820152608401610607565b6003805460ff191660ff83169081179091556040805133815260208101929092527ffc893db7ca6eb178a7bd93cdeb99ea5fa6570d124b4f04b50f9a727e21cc9102910160405180910390a150565b6119766119f5565b6001600160a01b0381166119a057604051631e4fbdf760e01b815260006004820152602401610607565b61133781611a50565b6000805160206122a08339815191528054600119016119db57604051633ee5aeb560e01b815260040160405180910390fd5b60029055565b60016000805160206122a083398151915255565b33611a277f9016d09d72d40fdae2fd8ceac6b6234c7706214fd39c1cd1e609a0528c199300546001600160a01b031690565b6001600160a01b031614610a525760405163118cdaa760e01b8152336004820152602401610607565b7f9016d09d72d40fdae2fd8ceac6b6234c7706214fd39c1cd1e609a0528c19930080546001600160a01b031981166001600160a01b03848116918217845560405192169182907f8be0079c531659141344cd1fd0a4f28419497f9722a3daafe3b4186f6b6457e090600090a3505050565b6003548390611ad590849060ff1684611c92565b604051632142170760e11b81523060048201526001600160a01b038681166024830152604482018890528216906342842e0e90606401600060405180830381600087803b158015611b2557600080fd5b505af1158015611b39573d6000803e3d6000fd5b50505050505050505050565b611b4d611d8d565b61133781611dd6565b611b5e611d8d565b610a52611dde565b611b6e611d8d565b600080546001600160a01b03191633908117909155610a5290611b45565b33600090815260016020908152604080832084845290915290819020600281015490549151632142170760e11b81523060048201526001600160a01b03928316602482015260448101849052911690819081906342842e0e90606401600060405180830381600087803b158015611c0257600080fd5b505af1158015611c16573d6000803e3d6000fd5b5050336000908152600160208181526040808420898552825292839020805460029091015484516001600160a01b0392831681529283018a9052169281019290925260608201527f62a8c32d7e607200e5e6c5986d2407a01f983fe1af6d31899fb1e32c6fd1f2c29250608001905060405180910390a1505050565b60008260ff1611611cf15760405162461bcd60e51b8152602060048201526024808201527f4d61726b6574506c616365206e6f742073657420736572766963652066656573604482015263081e595d60e21b6064820152608401610607565b826000611cfe8285611de6565b9050611d0a8183612253565b6040519092506001600160a01b0384169083156108fc029084906000818181858888f19350505050158015611d43573d6000803e3d6000fd5b50604080516001600160a01b03851681526020810184905242918101919091527ff474f1647716b20d13fea8c36a785eabe9a98725dd210a911b9e0fc1508a6af490606001611145565b7ff0c57e16840df040f15088dc2f81fe391c3923bec73e23a9662efc9c229c6a0054600160401b900460ff16610a5257604051631afcd79f60e31b815260040160405180910390fd5b611976611d8d565b6119e1611d8d565b6000806064611df860ff851686612266565b611e02919061227d565b600080546040519293506001600160a01b03169183156108fc0291849190818181858888f19350505050158015611e3d573d6000803e3d6000fd5b50600054604080516001600160a01b039092168252602082018390527f56a87afabcc5be804fc847379d1f4e3408f49b3016cc7dcea295265f59a0bd57910160405180910390a190505b92915050565b6040518060a0016040528060006001600160a01b0316815260200160008152602001600081526020016000815260200160006002811115611ed057611ed0612119565b905290565b6001600160a01b038116811461133757600080fd5b634e487b7160e01b600052604160045260246000fd5b60008060008060808587031215611f1657600080fd5b8435611f2181611ed5565b93506020850135611f3181611ed5565b925060408501359150606085013567ffffffffffffffff811115611f5457600080fd5b8501601f81018713611f6557600080fd5b803567ffffffffffffffff811115611f7f57611f7f611eea565b604051601f8201601f19908116603f0116810167ffffffffffffffff81118282101715611fae57611fae611eea565b604052818152828201602001891015611fc657600080fd5b8160208401602083013760006020838301015280935050505092959194509250565b60008060408385031215611ffb57600080fd5b823561200681611ed5565b946020939093013593505050565b60008060006060848603121561202957600080fd5b8335925060208401359150604084013561204281611ed5565b809150509250925092565b6000806000806080858703121561206357600080fd5b843593506020850135925060408501359150606085013561208381611ed5565b939692955090935050565b6000602082840312156120a057600080fd5b81356120ab81611ed5565b9392505050565b6000806000606084860312156120c757600080fd5b8335925060208401356120d981611ed5565b9150604084013561204281611ed5565b600080604083850312156120fc57600080fd5b82359150602083013561210e81611ed5565b809150509250929050565b634e487b7160e01b600052602160045260246000fd5b6003811061214d57634e487b7160e01b600052602160045260246000fd5b9052565b81516001600160a01b0316815260208083015190820152604080830151908201526060808301519082015260808083015160a08301916121939084018261212f565b5092915050565b6000602082840312156121ac57600080fd5b5035919050565b6000602082840312156121c557600080fd5b813560ff811681146120ab57600080fd5b6001600160a01b038616815260208101859052604081018490526060810183905260a08101612208608083018461212f565b9695505050505050565b60208101611e87828461212f565b60006020828403121561223257600080fd5b81516120ab81611ed5565b634e487b7160e01b600052601160045260246000fd5b81810381811115611e8757611e8761223d565b8082028115828204841417611e8757611e8761223d565b60008261229a57634e487b7160e01b600052601260045260246000fd5b50049056fe9b779b17422d0df92223018b32b4d1fa46e071723d6817e2486d003becc55f00a26469706673582212208464e686f1c3da1c1ad815c974ace1450617d631b9502d676bc5ab24f8a77c4c64736f6c634300081a0033",
  "linkReferences": {},
  "deployedLinkReferences": {}
}