{
  "_format": "hh-sol-artifact-1",
  "contractName": "NatirumMarketplace",
  "sourceName": "contracts/Natrium-Nft-Marketplace.sol",
  "abi": [
    {
      "inputs": [],
      "name": "InvalidInitialization",
      "type": "error"
    },
    {
      "inputs": [],
      "name": "NotInitializing",
      "type": "error"
    },
    {
      "inputs": [
        {
          "internalType": "address",
          "name": "owner",
          "type": "address"
        }
      ],
      "name": "OwnableInvalidOwner",
      "type": "error"
    },
    {
      "inputs": [
        {
          "internalType": "address",
          "name": "account",
          "type": "address"
        }
      ],
      "name": "OwnableUnauthorizedAccount",
      "type": "error"
    },
    {
      "inputs": [],
      "name": "ReentrancyGuardReentrantCall",
      "type": "error"
    },
    {
      "anonymous": false,
      "inputs": [
        {
          "indexed": false,
          "internalType": "address",
          "name": "buyer",
          "type": "address"
        },
        {
          "indexed": false,
          "internalType": "uint256",
          "name": "offerPrice",
          "type": "uint256"
        },
        {
          "indexed": false,
          "internalType": "bool",
          "name": "isCancel",
          "type": "bool"
        }
      ],
      "name": "CancelOffer",
      "type": "event"
    },
    {
      "anonymous": false,
      "inputs": [
        {
          "indexed": false,
          "internalType": "uint64",
          "name": "version",
          "type": "uint64"
        }
      ],
      "name": "Initialized",
      "type": "event"
    },
    {
      "anonymous": false,
      "inputs": [
        {
          "indexed": false,
          "internalType": "address",
          "name": "seller",
          "type": "address"
        },
        {
          "indexed": false,
          "internalType": "uint256",
          "name": "tokenID",
          "type": "uint256"
        },
        {
          "indexed": false,
          "internalType": "address",
          "name": "hostContract",
          "type": "address"
        },
        {
          "indexed": false,
          "internalType": "uint256",
          "name": "nftPrice",
          "type": "uint256"
        },
        {
          "indexed": false,
          "internalType": "bool",
          "name": "isListed",
          "type": "bool"
        }
      ],
      "name": "ListNFT",
      "type": "event"
    },
    {
      "anonymous": false,
      "inputs": [
        {
          "indexed": true,
          "internalType": "address",
          "name": "previousOwner",
          "type": "address"
        },
        {
          "indexed": true,
          "internalType": "address",
          "name": "newOwner",
          "type": "address"
        }
      ],
      "name": "OwnershipTransferred",
      "type": "event"
    },
    {
      "anonymous": false,
      "inputs": [
        {
          "indexed": false,
          "internalType": "address",
          "name": "seller",
          "type": "address"
        },
        {
          "indexed": false,
          "internalType": "uint256",
          "name": "tokenID",
          "type": "uint256"
        },
        {
          "indexed": false,
          "internalType": "address",
          "name": "hostContract",
          "type": "address"
        },
        {
          "indexed": false,
          "internalType": "bool",
          "name": "isUnlisted",
          "type": "bool"
        }
      ],
      "name": "UnListNFT",
      "type": "event"
    },
    {
      "anonymous": false,
      "inputs": [
        {
          "indexed": false,
          "internalType": "address",
          "name": "buyer",
          "type": "address"
        },
        {
          "indexed": false,
          "internalType": "uint256",
          "name": "acceptedPrice",
          "type": "uint256"
        },
        {
          "indexed": false,
          "internalType": "uint256",
          "name": "tokenId",
          "type": "uint256"
        },
        {
          "indexed": false,
          "internalType": "bool",
          "name": "isAccepted",
          "type": "bool"
        }
      ],
      "name": "acceptOffer",
      "type": "event"
    },
    {
      "anonymous": false,
      "inputs": [
        {
          "indexed": false,
          "internalType": "address",
          "name": "buyer",
          "type": "address"
        },
        {
          "indexed": false,
          "internalType": "uint256",
          "name": "tokenID",
          "type": "uint256"
        },
        {
          "indexed": false,
          "internalType": "uint256",
          "name": "paidPrice",
          "type": "uint256"
        },
        {
          "indexed": false,
          "internalType": "uint256",
          "name": "timeStamp",
          "type": "uint256"
        }
      ],
      "name": "buyNFT",
      "type": "event"
    },
    {
      "anonymous": false,
      "inputs": [
        {
          "indexed": false,
          "internalType": "address",
          "name": "buyer",
          "type": "address"
        },
        {
          "indexed": false,
          "internalType": "uint256",
          "name": "offerPrice",
          "type": "uint256"
        }
      ],
      "name": "makeOffer",
      "type": "event"
    },
    {
      "anonymous": false,
      "inputs": [
        {
          "indexed": false,
          "internalType": "address",
          "name": "admin",
          "type": "address"
        },
        {
          "indexed": false,
          "internalType": "uint8",
          "name": "serviceFee",
          "type": "uint8"
        }
      ],
      "name": "servicePercentage",
      "type": "event"
    },
    {
      "anonymous": false,
      "inputs": [
        {
          "indexed": false,
          "internalType": "address",
          "name": "seller",
          "type": "address"
        },
        {
          "indexed": false,
          "internalType": "uint256",
          "name": "nftPrice",
          "type": "uint256"
        },
        {
          "indexed": false,
          "internalType": "uint256",
          "name": "timeStamp",
          "type": "uint256"
        }
      ],
      "name": "transferNftPrice",
      "type": "event"
    },
    {
      "anonymous": false,
      "inputs": [
        {
          "indexed": false,
          "internalType": "address",
          "name": "owner",
          "type": "address"
        },
        {
          "indexed": false,
          "internalType": "uint256",
          "name": "serviceFees",
          "type": "uint256"
        }
      ],
      "name": "transferServiceFees",
      "type": "event"
    },
    {
      "inputs": [
        {
          "internalType": "uint256",
          "name": "_tokenId",
          "type": "uint256"
        },
        {
          "internalType": "address",
          "name": "_buyer",
          "type": "address"
        }
      ],
      "name": "acceptOffers",
      "outputs": [],
      "stateMutability": "nonpayable",
      "type": "function"
    },
    {
      "inputs": [
        {
          "internalType": "uint256",
          "name": "_tokenId",
          "type": "uint256"
        },
        {
          "internalType": "address",
          "name": "_seller",
          "type": "address"
        },
        {
          "internalType": "address",
          "name": "_hostContract",
          "type": "address"
        }
      ],
      "name": "buyNft",
      "outputs": [],
      "stateMutability": "payable",
      "type": "function"
    },
    {
      "inputs": [
        {
          "internalType": "uint256",
          "name": "_tokenId",
          "type": "uint256"
        }
      ],
      "name": "cancelOffer",
      "outputs": [],
      "stateMutability": "nonpayable",
      "type": "function"
    },
    {
      "inputs": [
        {
          "internalType": "address",
          "name": "user",
          "type": "address"
        }
      ],
      "name": "checkBalance",
      "outputs": [
        {
          "internalType": "uint256",
          "name": "",
          "type": "uint256"
        }
      ],
      "stateMutability": "view",
      "type": "function"
    },
    {
      "inputs": [],
      "name": "contractOwner",
      "outputs": [
        {
          "internalType": "address",
          "name": "",
          "type": "address"
        }
      ],
      "stateMutability": "view",
      "type": "function"
    },
    {
      "inputs": [
        {
          "internalType": "uint256",
          "name": "_tokenId",
          "type": "uint256"
        },
        {
          "internalType": "uint256",
          "name": "_offerPrice",
          "type": "uint256"
        },
        {
          "internalType": "uint256",
          "name": "_offerExpiry",
          "type": "uint256"
        },
        {
          "internalType": "address",
          "name": "_seller",
          "type": "address"
        }
      ],
      "name": "createOffer",
      "outputs": [],
      "stateMutability": "payable",
      "type": "function"
    },
    {
      "inputs": [],
      "name": "currentOffer",
      "outputs": [
        {
          "internalType": "enum NatirumMarketplace.Offer",
          "name": "",
          "type": "uint8"
        }
      ],
      "stateMutability": "view",
      "type": "function"
    },
    {
      "inputs": [
        {
          "internalType": "uint256",
          "name": "_tokenId",
          "type": "uint256"
        },
        {
          "internalType": "address",
          "name": "listerAddress",
          "type": "address"
        }
      ],
      "name": "getNftDetails",
      "outputs": [
        {
          "components": [
            {
              "internalType": "address",
              "name": "seller",
              "type": "address"
            },
            {
              "internalType": "uint256",
              "name": "tokenID",
              "type": "uint256"
            },
            {
              "internalType": "address",
              "name": "hostContract",
              "type": "address"
            },
            {
              "internalType": "uint256",
              "name": "nftPrice",
              "type": "uint256"
            },
            {
              "internalType": "bool",
              "name": "isListed",
              "type": "bool"
            }
          ],
          "internalType": "struct NatirumMarketplace.NftDetails",
          "name": "",
          "type": "tuple"
        }
      ],
      "stateMutability": "view",
      "type": "function"
    },
    {
      "inputs": [
        {
          "internalType": "address",
          "name": "_buyer",
          "type": "address"
        }
      ],
      "name": "getOfferDetails",
      "outputs": [
        {
          "components": [
            {
              "internalType": "address",
              "name": "buyer",
              "type": "address"
            },
            {
              "internalType": "uint256",
              "name": "tokenID",
              "type": "uint256"
            },
            {
              "internalType": "uint256",
              "name": "offerPrice",
              "type": "uint256"
            },
            {
              "internalType": "uint256",
              "name": "offerExpire",
              "type": "uint256"
            },
            {
              "internalType": "enum NatirumMarketplace.Offer",
              "name": "currentOffer",
              "type": "uint8"
            }
          ],
          "internalType": "struct NatirumMarketplace.OfferDetails",
          "name": "",
          "type": "tuple"
        }
      ],
      "stateMutability": "view",
      "type": "function"
    },
    {
      "inputs": [],
      "name": "initialize",
      "outputs": [],
      "stateMutability": "nonpayable",
      "type": "function"
    },
    {
      "inputs": [
        {
          "internalType": "uint256",
          "name": "_tokenId",
          "type": "uint256"
        },
        {
          "internalType": "uint256",
          "name": "_price",
          "type": "uint256"
        },
        {
          "internalType": "address",
          "name": "_hostContract",
          "type": "address"
        }
      ],
      "name": "listNft",
      "outputs": [],
      "stateMutability": "nonpayable",
      "type": "function"
    },
    {
      "inputs": [
        {
          "internalType": "address",
          "name": "",
          "type": "address"
        },
        {
          "internalType": "uint256",
          "name": "",
          "type": "uint256"
        }
      ],
      "name": "nftInfo",
      "outputs": [
        {
          "internalType": "address",
          "name": "seller",
          "type": "address"
        },
        {
          "internalType": "uint256",
          "name": "tokenID",
          "type": "uint256"
        },
        {
          "internalType": "address",
          "name": "hostContract",
          "type": "address"
        },
        {
          "internalType": "uint256",
          "name": "nftPrice",
          "type": "uint256"
        },
        {
          "internalType": "bool",
          "name": "isListed",
          "type": "bool"
        }
      ],
      "stateMutability": "view",
      "type": "function"
    },
    {
      "inputs": [
        {
          "internalType": "address",
          "name": "",
          "type": "address"
        }
      ],
      "name": "offererInfo",
      "outputs": [
        {
          "internalType": "address",
          "name": "buyer",
          "type": "address"
        },
        {
          "internalType": "uint256",
          "name": "tokenID",
          "type": "uint256"
        },
        {
          "internalType": "uint256",
          "name": "offerPrice",
          "type": "uint256"
        },
        {
          "internalType": "uint256",
          "name": "offerExpire",
          "type": "uint256"
        },
        {
          "internalType": "enum NatirumMarketplace.Offer",
          "name": "currentOffer",
          "type": "uint8"
        }
      ],
      "stateMutability": "view",
      "type": "function"
    },
    {
      "inputs": [
        {
          "internalType": "address",
          "name": "",
          "type": "address"
        },
        {
          "internalType": "address",
          "name": "",
          "type": "address"
        },
        {
          "internalType": "uint256",
          "name": "",
          "type": "uint256"
        },
        {
          "internalType": "bytes",
          "name": "",
          "type": "bytes"
        }
      ],
      "name": "onERC721Received",
      "outputs": [
        {
          "internalType": "bytes4",
          "name": "",
          "type": "bytes4"
        }
      ],
      "stateMutability": "nonpayable",
      "type": "function"
    },
    {
      "inputs": [],
      "name": "owner",
      "outputs": [
        {
          "internalType": "address",
          "name": "",
          "type": "address"
        }
      ],
      "stateMutability": "view",
      "type": "function"
    },
    {
      "inputs": [
        {
          "internalType": "uint256",
          "name": "_tokenId",
          "type": "uint256"
        },
        {
          "internalType": "address",
          "name": "_buyer",
          "type": "address"
        }
      ],
      "name": "rejectOffer",
      "outputs": [],
      "stateMutability": "nonpayable",
      "type": "function"
    },
    {
      "inputs": [],
      "name": "renounceOwnership",
      "outputs": [],
      "stateMutability": "nonpayable",
      "type": "function"
    },
    {
      "inputs": [
        {
          "internalType": "uint8",
          "name": "_serviceFees",
          "type": "uint8"
        }
      ],
      "name": "setServiceFees",
      "outputs": [],
      "stateMutability": "nonpayable",
      "type": "function"
    },
    {
      "inputs": [
        {
          "internalType": "address",
          "name": "newOwner",
          "type": "address"
        }
      ],
      "name": "transferOwnership",
      "outputs": [],
      "stateMutability": "nonpayable",
      "type": "function"
    },
    {
      "inputs": [
        {
          "internalType": "uint256",
          "name": "_tokenId",
          "type": "uint256"
        }
      ],
      "name": "unListNft",
      "outputs": [],
      "stateMutability": "nonpayable",
      "type": "function"
    }
  ],
  "bytecode": "0x6080604052348015600f57600080fd5b506122fc8061001f6000396000f3fe60806040526004361061011f5760003560e01c80638da5cb5b116100a0578063ef706adf11610064578063ef706adf14610419578063f24639c614610439578063f2fde38b14610459578063f6ae72e814610479578063fa4e28f6146104e157600080fd5b80638da5cb5b1461033b578063aa4b27a81461038c578063ab67b236146103b9578063ce606ee0146103d9578063db9371c2146103f957600080fd5b80635f515226116100e75780635f515226146102a8578063715018a6146102de57806372a43b9c146102f35780637cde1202146103065780638129fc1c1461032657600080fd5b8063150b7a0214610124578063160a95b31461016d5780631d62fa05146101d757806340e250d3146102735780634370fb3414610295575b600080fd5b34801561013057600080fd5b5061014f61013f366004611f07565b630a85bd0160e11b949350505050565b6040516001600160e01b031990911681526020015b60405180910390f35b34801561017957600080fd5b5061018d610188366004611fef565b61050f565b6040805182516001600160a01b039081168252602080850151908301528383015116918101919091526060808301519082015260809182015115159181019190915260a001610164565b3480156101e357600080fd5b5061023a6101f236600461201f565b60016020818152600093845260408085209091529183529120805491810154600282015460038301546004909301546001600160a01b03948516949293919092169160ff1685565b604080516001600160a01b039687168152602081019590955292909416918301919091526060820152901515608082015260a001610164565b34801561027f57600080fd5b5061029361028e36600461204b565b6105a9565b005b6102936102a3366004612084565b610811565b3480156102b457600080fd5b506102d06102c33660046120c5565b6001600160a01b03163190565b604051908152602001610164565b3480156102ea57600080fd5b50610293610a49565b6102936103013660046120e9565b610a5d565b34801561031257600080fd5b50610293610321366004611fef565b610ced565b34801561033257600080fd5b5061029361103e565b34801561034757600080fd5b507f9016d09d72d40fdae2fd8ceac6b6234c7706214fd39c1cd1e609a0528c199300546001600160a01b03165b6040516001600160a01b039091168152602001610164565b34801561039857600080fd5b506103ac6103a73660046120c5565b61115e565b6040516101649190612158565b3480156103c557600080fd5b506102936103d43660046121a1565b6111ec565b3480156103e557600080fd5b50600054610374906001600160a01b031681565b34801561040557600080fd5b50610293610414366004611fef565b611343565b34801561042557600080fd5b506102936104343660046121a1565b61164f565b34801561044557600080fd5b506102936104543660046121ba565b6118be565b34801561046557600080fd5b506102936104743660046120c5565b611977565b34801561048557600080fd5b506104d06104943660046120c5565b6002602081905260009182526040909120805460018201549282015460038301546004909301546001600160a01b039092169392909160ff1685565b6040516101649594939291906121dd565b3480156104ed57600080fd5b5060005461050290600160a01b900460ff1681565b6040516101649190612219565b6040805160a081018252600080825260208201819052918101829052606081018290526080810191909152506001600160a01b038082166000908152600160208181526040808420878552825292839020835160a08101855281548616815292810154918301919091526002810154909316918101919091526003820154606082015260049091015460ff16151560808201525b92915050565b6105b16119b2565b3360009081526001602090815260408083208684529091529020600481015482919060ff16156106195760405162461bcd60e51b815260206004820152600e60248201526d105b1c9958591e48131a5cdd195960921b60448201526064015b60405180910390fd5b6040516331a9108f60e11b81526004810186905233906001600160a01b03841690636352211e90602401602060405180830381865afa158015610660573d6000803e3d6000fd5b505050506040513d601f19601f820116820180604052508101906106849190612227565b6001600160a01b0316146106e45760405162461bcd60e51b815260206004820152602160248201527f596f7520617265206e6f7420746865206f776e6572206f662074686973204e666044820152601d60fa1b6064820152608401610610565b6002810180546001600160a01b038581166001600160a01b0319928316179092558254163390811783556003830186905560018084018890556004808501805460ff1916909217909155604051632142170760e11b81529081019190915230602482015260448101879052908316906342842e0e90606401600060405180830381600087803b15801561077657600080fd5b505af115801561078a573d6000803e3d6000fd5b50505050600181015460048201546040805133815260208101939093526001600160a01b038616908301526060820186905260ff16151560808201527fa704c2f7861cb3e3fe5f14f2130761e59fbecf01cb35680cc00620ca3c02c16f9060a00160405180910390a1505061080c60016000805160206122a783398151915255565b505050565b6108196119b2565b6001600160a01b0380821660009081526001602081815260408084208985528252808420815160a081018352815487168152938101548484015260028082015490961684830152600381015460608501526004015460ff161515608084019081523385529490915290912091519091906108d55760405162461bcd60e51b815260206004820152601860248201527f5468697320746f6b656e206973206e6f74204c697374656400000000000000006044820152606401610610565b826001600160a01b031682600001516001600160a01b03161461092c5760405162461bcd60e51b815260206004820152600f60248201526e496e56616c6964204164647265737360881b6044820152606401610610565b4284116109685760405162461bcd60e51b815260206004820152600a6024820152692a34b6b29022b93937b960b11b6044820152606401610610565b8434146109a85760405162461bcd60e51b815260206004820152600e60248201526d125b9d985b1a5908185b5bdd5b9d60921b6044820152606401610610565b80546001600160a01b03191633178155600281018590556003810184905560018101869055600060048201805460ff191660018360028111156109ed576109ed612120565b0217905550604080513381523460208201527fb2a4706eb30fbca70b94141708a50a456d89844927f443dadcde61e3920ab6af910160405180910390a15050610a4360016000805160206122a783398151915255565b50505050565b610a516119fe565b610a5b6000611a59565b565b610a656119b2565b6001600160a01b038216600090815260016020818152604080842087855290915290912001548314610acc5760405162461bcd60e51b815260206004820152601060248201526f125b9d985b1a5908151bdad95b88125160821b6044820152606401610610565b6001600160a01b03808316600081815260016020908152604080832088845290915290205490911614610b325760405162461bcd60e51b815260206004820152600e60248201526d24b72b30b634b21029b2b63632b960911b6044820152606401610610565b6001600160a01b03821660009081526001602090815260408083208684529091529020600301543414610b9d5760405162461bcd60e51b8152602060048201526013602482015272125b94dd59999a58da595b9d08105b5bdd5b9d606a1b6044820152606401610610565b6001600160a01b038083166000908152600160209081526040808320878452909152902054163303610c025760405162461bcd60e51b815260206004820152600e60248201526d43616e27742053656c662062757960901b6044820152606401610610565b6001600160a01b0382166000908152600160209081526040808320868452909152902060030154610c399084903390849086611aca565b6040805133815260208101859052348183015242606082015290517fa8c8c76dcbc214f2bf1ff14e46e52c719da6477410ad492c29eb45fd05acb6249181900360800190a16001600160a01b0382166000908152600160208181526040808420878552909152822080546001600160a01b031990811682559181018390556002810180549092169091556003810191909155600401805460ff1916905561080c60016000805160206122a783398151915255565b610cf56119b2565b3360009081526001602081815260408084208685528252808420815160a0808201845282546001600160a01b039081168352838701548387015260028085015482168487015260038086015460608087019190915260049687015460ff90811615156080808901919091528d86168d52848b52898d208a519788018b52805490961687529a850154998601999099528383015497850197909752820154958301959095529283015491969590949293908501929190911690811115610dbc57610dbc612120565b6002811115610dcd57610dcd612120565b90525082519091506001600160a01b03163314610e2c5760405162461bcd60e51b815260206004820181905260248201527f4f6e6c792053656c6c65722063616e2061636365707420746865206f666665726044820152606401610610565b6000816040015111610e715760405162461bcd60e51b815260206004820152600e60248201526d13d999995c881c995a9958dd195960921b6044820152606401610610565b80606001514210610eb45760405162461bcd60e51b815260206004820152600d60248201526c13d999995c88115e1c1a5c9959609a1b6044820152606401610610565b83816020015114610f015760405162461bcd60e51b81526020600482015260176024820152762a3434b9903a37b5b2b7103430b99037379037b33332b960491b6044820152606401610610565b6001600160a01b038316600090815260026020526040902060040180546001919060ff191682800217905550610f4284848460400151846040015133611aca565b60408082015181516001600160a01b03861681526020810191909152908101859052600160608201527f2b0295c6245bbde9b0128fbea0ea5fe173b82a59a739f77c5fc7deba224dbffc9060800160405180910390a15050336000908152600160208181526040808420868552825280842080546001600160a01b03199081168255818501869055600280830180548316905560038084018890556004938401805460ff199081169091556001600160a01b038a16895295829052938720805490921682559481018690559384018590559083019390935591018054909116905561103a60016000805160206122a783398151915255565b5050565b7ff0c57e16840df040f15088dc2f81fe391c3923bec73e23a9662efc9c229c6a008054600160401b810460ff16159067ffffffffffffffff166000811580156110845750825b905060008267ffffffffffffffff1660011480156110a15750303b155b9050811580156110af575080155b156110cd5760405163f92ee8a960e01b815260040160405180910390fd5b845467ffffffffffffffff1916600117855583156110f757845460ff60401b1916600160401b1785555b61110033611b4e565b611108611b5f565b611110611b6f565b831561115757845460ff60401b19168555604051600181527fc7f505b2f371ae2175ee4913f4499e1f2633a7b5936321eed1cdaeb6115181d2906020015b60405180910390a15b5050505050565b611166611e94565b6001600160a01b03808316600090815260026020818152604092839020835160a081018552815490951685526001810154918501919091528082015492840192909252600382015460608401526004820154608084019160ff909116908111156111d2576111d2612120565b60028111156111e3576111e3612120565b90525092915050565b6111f46119b2565b3360008181526001602090815260408083208584529091529020546001600160a01b0316146112705760405162461bcd60e51b815260206004820152602260248201527f4f6e6c792053656c6c65722063616e20756e4c69737420686973206f776e204e604482015261199d60f21b6064820152608401610610565b33600090815260016020908152604080832084845290915290206004015460ff166112d15760405162461bcd60e51b815260206004820152601160248201527013999d081a5cc81b9bdd08131a5cdd1959607a1b6044820152606401610610565b6112da81611b95565b336000908152600160208181526040808420858552909152822080546001600160a01b031990811682559181018390556002810180549092169091556003810191909155600401805460ff1916905561134060016000805160206122a783398151915255565b50565b61134b6119b2565b6001600160a01b038082166000908152600260208181526040808420815160a0810183528154909616865260018101549286019290925281830154908501526003810154606085015260048101549293929091608084019160ff16908111156113b6576113b6612120565b60028111156113c7576113c7612120565b905250336000908152600160208181526040808420888552825292839020835160a08101855281546001600160a01b03908116825293820154928101929092526002810154909216818401526003820154606082015260049091015460ff1615156080820152908201519192509061148d5760405162461bcd60e51b815260206004820152602360248201527f4e6f204f6666657220686173207265636569766564206f6e207468697320746f60448201526235b2b760e91b6064820152608401610610565b826001600160a01b031682600001516001600160a01b0316146114ea5760405162461bcd60e51b8152602060048201526015602482015274496e56616c6964204275796572204164647265737360581b6044820152606401610610565b80516001600160a01b0316331461154d5760405162461bcd60e51b815260206004820152602160248201527f4f6e6c792053656c6c65722063616e2072656a6563742074686973206f6666656044820152603960f91b6064820152608401610610565b838260200151146115935760405162461bcd60e51b815260206004820152601060248201526f125b95985b1a59081d1bdad95b88125960821b6044820152606401610610565b6001600160a01b038381166000908152600260208190526040808320600401805460ff191690921790915584518582015191519316926108fc82150292818181858888f193505050501580156115ed573d6000803e3d6000fd5b5050506001600160a01b0381166000908152600260208190526040822080546001600160a01b0319168155600181018390559081018290556003810191909155600401805460ff1916905561103a60016000805160206122a783398151915255565b6116576119b2565b336000908152600260208181526040808420815160a08101835281546001600160a01b03168152600182015493810193909352808401549183019190915260038101546060830152600481015491929091608084019160ff909116908111156116c2576116c2612120565b60028111156116d3576116d3612120565b815250509050818160200151146117265760405162461bcd60e51b81526020600482015260176024820152762a3434b9903a37b5b2b7103430b99037379037b33332b960491b6044820152606401610610565b600081604001511161177a5760405162461bcd60e51b815260206004820152601a60248201527f4572726f723a204f666665722063616e6e6f742043616e63656c0000000000006044820152606401610610565b80516001600160a01b031633146117e45760405162461bcd60e51b815260206004820152602860248201527f4f6e6c79204f6666657220706c6163656420757365722063616e63656c20746860448201526734b99037b33332b960c11b6064820152608401610610565b805160408083015190516001600160a01b039092169181156108fc0291906000818181858888f19350505050158015611821573d6000803e3d6000fd5b506040818101518151338152602081019190915260018183015290517fc84881cb17babe3d0cb1eed4d780ad627be071894011b3b4d1bde2689f7fa7b29181900360600190a150336000908152600260208190526040822080546001600160a01b0319168155600181018390559081018290556003810191909155600401805460ff1916905561134060016000805160206122a783398151915255565b6118c66119fe565b60008160ff16116119285760405162461bcd60e51b815260206004820152602660248201527f536572766963652046656573206d7573742062652067726561746572207468616044820152656e207a65726f60d01b6064820152608401610610565b6003805460ff191660ff83169081179091556040805133815260208101929092527ffc893db7ca6eb178a7bd93cdeb99ea5fa6570d124b4f04b50f9a727e21cc9102910160405180910390a150565b61197f6119fe565b6001600160a01b0381166119a957604051631e4fbdf760e01b815260006004820152602401610610565b61134081611a59565b6000805160206122a78339815191528054600119016119e457604051633ee5aeb560e01b815260040160405180910390fd5b60029055565b60016000805160206122a783398151915255565b33611a307f9016d09d72d40fdae2fd8ceac6b6234c7706214fd39c1cd1e609a0528c199300546001600160a01b031690565b6001600160a01b031614610a5b5760405163118cdaa760e01b8152336004820152602401610610565b7f9016d09d72d40fdae2fd8ceac6b6234c7706214fd39c1cd1e609a0528c19930080546001600160a01b031981166001600160a01b03848116918217845560405192169182907f8be0079c531659141344cd1fd0a4f28419497f9722a3daafe3b4186f6b6457e090600090a3505050565b6003548390611ade90849060ff1684611c9b565b604051632142170760e11b81523060048201526001600160a01b038681166024830152604482018890528216906342842e0e90606401600060405180830381600087803b158015611b2e57600080fd5b505af1158015611b42573d6000803e3d6000fd5b50505050505050505050565b611b56611d96565b61134081611ddf565b611b67611d96565b610a5b611de7565b611b77611d96565b600080546001600160a01b03191633908117909155610a5b90611b4e565b33600090815260016020908152604080832084845290915290819020600281015490549151632142170760e11b81523060048201526001600160a01b03928316602482015260448101849052911690819081906342842e0e90606401600060405180830381600087803b158015611c0b57600080fd5b505af1158015611c1f573d6000803e3d6000fd5b5050336000908152600160208181526040808420898552825292839020805460029091015484516001600160a01b0392831681529283018a9052169281019290925260608201527f62a8c32d7e607200e5e6c5986d2407a01f983fe1af6d31899fb1e32c6fd1f2c29250608001905060405180910390a1505050565b60008260ff1611611cfa5760405162461bcd60e51b8152602060048201526024808201527f4d61726b6574506c616365206e6f742073657420736572766963652066656573604482015263081e595d60e21b6064820152608401610610565b826000611d078285611def565b9050611d13818361225a565b6040519092506001600160a01b0384169083156108fc029084906000818181858888f19350505050158015611d4c573d6000803e3d6000fd5b50604080516001600160a01b03851681526020810184905242918101919091527ff474f1647716b20d13fea8c36a785eabe9a98725dd210a911b9e0fc1508a6af49060600161114e565b7ff0c57e16840df040f15088dc2f81fe391c3923bec73e23a9662efc9c229c6a0054600160401b900460ff16610a5b57604051631afcd79f60e31b815260040160405180910390fd5b61197f611d96565b6119ea611d96565b6000806064611e0160ff85168661226d565b611e0b9190612284565b600080546040519293506001600160a01b03169183156108fc0291849190818181858888f19350505050158015611e46573d6000803e3d6000fd5b50600054604080516001600160a01b039092168252602082018390527f56a87afabcc5be804fc847379d1f4e3408f49b3016cc7dcea295265f59a0bd57910160405180910390a19392505050565b6040518060a0016040528060006001600160a01b0316815260200160008152602001600081526020016000815260200160006002811115611ed757611ed7612120565b905290565b6001600160a01b038116811461134057600080fd5b634e487b7160e01b600052604160045260246000fd5b60008060008060808587031215611f1d57600080fd5b8435611f2881611edc565b93506020850135611f3881611edc565b925060408501359150606085013567ffffffffffffffff811115611f5b57600080fd5b8501601f81018713611f6c57600080fd5b803567ffffffffffffffff811115611f8657611f86611ef1565b604051601f8201601f19908116603f0116810167ffffffffffffffff81118282101715611fb557611fb5611ef1565b604052818152828201602001891015611fcd57600080fd5b8160208401602083013760006020838301015280935050505092959194509250565b6000806040838503121561200257600080fd5b82359150602083013561201481611edc565b809150509250929050565b6000806040838503121561203257600080fd5b823561203d81611edc565b946020939093013593505050565b60008060006060848603121561206057600080fd5b8335925060208401359150604084013561207981611edc565b809150509250925092565b6000806000806080858703121561209a57600080fd5b84359350602085013592506040850135915060608501356120ba81611edc565b939692955090935050565b6000602082840312156120d757600080fd5b81356120e281611edc565b9392505050565b6000806000606084860312156120fe57600080fd5b83359250602084013561211081611edc565b9150604084013561207981611edc565b634e487b7160e01b600052602160045260246000fd5b6003811061215457634e487b7160e01b600052602160045260246000fd5b9052565b81516001600160a01b0316815260208083015190820152604080830151908201526060808301519082015260808083015160a083019161219a90840182612136565b5092915050565b6000602082840312156121b357600080fd5b5035919050565b6000602082840312156121cc57600080fd5b813560ff811681146120e257600080fd5b6001600160a01b038616815260208101859052604081018490526060810183905260a0810161220f6080830184612136565b9695505050505050565b602081016105a38284612136565b60006020828403121561223957600080fd5b81516120e281611edc565b634e487b7160e01b600052601160045260246000fd5b818103818111156105a3576105a3612244565b80820281158282048414176105a3576105a3612244565b6000826122a157634e487b7160e01b600052601260045260246000fd5b50049056fe9b779b17422d0df92223018b32b4d1fa46e071723d6817e2486d003becc55f00a2646970667358221220e77cc27c23440fca102759fda3617788bba8456844d199b29481a514f2c6ca9164736f6c634300081a0033",
  "linkReferences": {},
  "deployedLinkReferences": {}
}