{
  "_format": "hh-sol-artifact-1",
  "contractName": "NatirumMarketplace",
  "sourceName": "contracts/Natrium-Nft-Marketplace.sol",
  "abi": [
    {
      "inputs": [],
      "name": "InvalidInitialization",
      "type": "error"
    },
    {
      "inputs": [],
      "name": "NotInitializing",
      "type": "error"
    },
    {
      "inputs": [
        {
          "internalType": "address",
          "name": "owner",
          "type": "address"
        }
      ],
      "name": "OwnableInvalidOwner",
      "type": "error"
    },
    {
      "inputs": [
        {
          "internalType": "address",
          "name": "account",
          "type": "address"
        }
      ],
      "name": "OwnableUnauthorizedAccount",
      "type": "error"
    },
    {
      "inputs": [],
      "name": "ReentrancyGuardReentrantCall",
      "type": "error"
    },
    {
      "anonymous": false,
      "inputs": [
        {
          "indexed": false,
          "internalType": "uint64",
          "name": "version",
          "type": "uint64"
        }
      ],
      "name": "Initialized",
      "type": "event"
    },
    {
      "anonymous": false,
      "inputs": [
        {
          "indexed": false,
          "internalType": "address",
          "name": "seller",
          "type": "address"
        },
        {
          "indexed": false,
          "internalType": "uint256",
          "name": "tokenID",
          "type": "uint256"
        },
        {
          "indexed": false,
          "internalType": "address",
          "name": "hostContract",
          "type": "address"
        },
        {
          "indexed": false,
          "internalType": "uint256",
          "name": "nftPrice",
          "type": "uint256"
        },
        {
          "indexed": false,
          "internalType": "bool",
          "name": "isListed",
          "type": "bool"
        }
      ],
      "name": "ListNFT",
      "type": "event"
    },
    {
      "anonymous": false,
      "inputs": [
        {
          "indexed": true,
          "internalType": "address",
          "name": "previousOwner",
          "type": "address"
        },
        {
          "indexed": true,
          "internalType": "address",
          "name": "newOwner",
          "type": "address"
        }
      ],
      "name": "OwnershipTransferred",
      "type": "event"
    },
    {
      "anonymous": false,
      "inputs": [
        {
          "indexed": false,
          "internalType": "address",
          "name": "buyer",
          "type": "address"
        },
        {
          "indexed": false,
          "internalType": "uint256",
          "name": "offerPrice",
          "type": "uint256"
        },
        {
          "indexed": false,
          "internalType": "bool",
          "name": "isRejected",
          "type": "bool"
        }
      ],
      "name": "RejectOffer",
      "type": "event"
    },
    {
      "anonymous": false,
      "inputs": [
        {
          "indexed": false,
          "internalType": "address",
          "name": "seller",
          "type": "address"
        },
        {
          "indexed": false,
          "internalType": "uint256",
          "name": "tokenID",
          "type": "uint256"
        },
        {
          "indexed": false,
          "internalType": "address",
          "name": "hostContract",
          "type": "address"
        },
        {
          "indexed": false,
          "internalType": "bool",
          "name": "isUnlisted",
          "type": "bool"
        }
      ],
      "name": "UnListNFT",
      "type": "event"
    },
    {
      "anonymous": false,
      "inputs": [
        {
          "indexed": false,
          "internalType": "address",
          "name": "buyer",
          "type": "address"
        },
        {
          "indexed": false,
          "internalType": "uint256",
          "name": "acceptedPrice",
          "type": "uint256"
        },
        {
          "indexed": false,
          "internalType": "uint256",
          "name": "tokenId",
          "type": "uint256"
        },
        {
          "indexed": false,
          "internalType": "bool",
          "name": "isAccepted",
          "type": "bool"
        }
      ],
      "name": "acceptOffer",
      "type": "event"
    },
    {
      "anonymous": false,
      "inputs": [
        {
          "indexed": false,
          "internalType": "address",
          "name": "buyer",
          "type": "address"
        },
        {
          "indexed": false,
          "internalType": "uint256",
          "name": "tokenID",
          "type": "uint256"
        },
        {
          "indexed": false,
          "internalType": "uint256",
          "name": "paidPrice",
          "type": "uint256"
        },
        {
          "indexed": false,
          "internalType": "uint256",
          "name": "timeStamp",
          "type": "uint256"
        }
      ],
      "name": "buyNFT",
      "type": "event"
    },
    {
      "anonymous": false,
      "inputs": [
        {
          "indexed": false,
          "internalType": "address",
          "name": "buyer",
          "type": "address"
        },
        {
          "indexed": false,
          "internalType": "uint256",
          "name": "offerPrice",
          "type": "uint256"
        }
      ],
      "name": "makeOffer",
      "type": "event"
    },
    {
      "anonymous": false,
      "inputs": [
        {
          "indexed": false,
          "internalType": "address",
          "name": "admin",
          "type": "address"
        },
        {
          "indexed": false,
          "internalType": "uint8",
          "name": "serviceFee",
          "type": "uint8"
        },
        {
          "indexed": false,
          "internalType": "address",
          "name": "FactoryAddress",
          "type": "address"
        }
      ],
      "name": "serviceFeesAndFactoryContract",
      "type": "event"
    },
    {
      "anonymous": false,
      "inputs": [
        {
          "indexed": false,
          "internalType": "address",
          "name": "seller",
          "type": "address"
        },
        {
          "indexed": false,
          "internalType": "uint256",
          "name": "nftPrice",
          "type": "uint256"
        },
        {
          "indexed": false,
          "internalType": "uint256",
          "name": "timeStamp",
          "type": "uint256"
        }
      ],
      "name": "transferNftPrice",
      "type": "event"
    },
    {
      "anonymous": false,
      "inputs": [
        {
          "indexed": false,
          "internalType": "address",
          "name": "owner",
          "type": "address"
        },
        {
          "indexed": false,
          "internalType": "uint256",
          "name": "serviceFees",
          "type": "uint256"
        }
      ],
      "name": "transferServiceFees",
      "type": "event"
    },
    {
      "anonymous": false,
      "inputs": [
        {
          "indexed": false,
          "internalType": "address",
          "name": "buyer",
          "type": "address"
        },
        {
          "indexed": false,
          "internalType": "uint256",
          "name": "amount",
          "type": "uint256"
        },
        {
          "indexed": false,
          "internalType": "uint256",
          "name": "timeStamp",
          "type": "uint256"
        }
      ],
      "name": "withdraw",
      "type": "event"
    },
    {
      "inputs": [
        {
          "internalType": "uint256",
          "name": "_tokenId",
          "type": "uint256"
        },
        {
          "internalType": "address",
          "name": "_buyer",
          "type": "address"
        }
      ],
      "name": "acceptOffers",
      "outputs": [],
      "stateMutability": "nonpayable",
      "type": "function"
    },
    {
      "inputs": [
        {
          "internalType": "uint256",
          "name": "_tokenId",
          "type": "uint256"
        },
        {
          "internalType": "address",
          "name": "_seller",
          "type": "address"
        }
      ],
      "name": "buyNft",
      "outputs": [],
      "stateMutability": "payable",
      "type": "function"
    },
    {
      "inputs": [],
      "name": "contractOwner",
      "outputs": [
        {
          "internalType": "address",
          "name": "",
          "type": "address"
        }
      ],
      "stateMutability": "view",
      "type": "function"
    },
    {
      "inputs": [
        {
          "internalType": "uint256",
          "name": "_tokenId",
          "type": "uint256"
        },
        {
          "internalType": "uint256",
          "name": "_offerPrice",
          "type": "uint256"
        },
        {
          "internalType": "uint256",
          "name": "_offerExpiry",
          "type": "uint256"
        },
        {
          "internalType": "address",
          "name": "_seller",
          "type": "address"
        }
      ],
      "name": "createOffer",
      "outputs": [],
      "stateMutability": "payable",
      "type": "function"
    },
    {
      "inputs": [
        {
          "internalType": "address",
          "name": "_seller",
          "type": "address"
        },
        {
          "internalType": "uint256",
          "name": "_tokenId",
          "type": "uint256"
        }
      ],
      "name": "getNftDetails",
      "outputs": [
        {
          "internalType": "address",
          "name": "Seller",
          "type": "address"
        },
        {
          "internalType": "uint256",
          "name": "TokenId",
          "type": "uint256"
        },
        {
          "internalType": "address[]",
          "name": "OffererAddress",
          "type": "address[]"
        },
        {
          "internalType": "uint256[]",
          "name": "OffererAmount",
          "type": "uint256[]"
        },
        {
          "internalType": "address",
          "name": "hostContract",
          "type": "address"
        },
        {
          "internalType": "uint256",
          "name": "NftPrice",
          "type": "uint256"
        },
        {
          "internalType": "bool",
          "name": "Listed",
          "type": "bool"
        }
      ],
      "stateMutability": "view",
      "type": "function"
    },
    {
      "inputs": [
        {
          "internalType": "uint256",
          "name": "_tokenId",
          "type": "uint256"
        }
      ],
      "name": "getOfferDetails",
      "outputs": [
        {
          "components": [
            {
              "internalType": "address",
              "name": "buyer",
              "type": "address"
            },
            {
              "internalType": "uint256",
              "name": "tokenID",
              "type": "uint256"
            },
            {
              "internalType": "uint256",
              "name": "offerPrice",
              "type": "uint256"
            },
            {
              "internalType": "uint256",
              "name": "offerExpire",
              "type": "uint256"
            },
            {
              "internalType": "bool",
              "name": "offerPlaced",
              "type": "bool"
            }
          ],
          "internalType": "struct NatirumMarketplace.OfferDetails",
          "name": "",
          "type": "tuple"
        }
      ],
      "stateMutability": "view",
      "type": "function"
    },
    {
      "inputs": [],
      "name": "initialize",
      "outputs": [],
      "stateMutability": "nonpayable",
      "type": "function"
    },
    {
      "inputs": [
        {
          "internalType": "uint256",
          "name": "_tokenId",
          "type": "uint256"
        },
        {
          "internalType": "uint256",
          "name": "_price",
          "type": "uint256"
        },
        {
          "internalType": "address",
          "name": "collection",
          "type": "address"
        },
        {
          "internalType": "address",
          "name": "_hostContract",
          "type": "address"
        }
      ],
      "name": "listNft",
      "outputs": [],
      "stateMutability": "nonpayable",
      "type": "function"
    },
    {
      "inputs": [
        {
          "internalType": "address",
          "name": "",
          "type": "address"
        },
        {
          "internalType": "address",
          "name": "",
          "type": "address"
        },
        {
          "internalType": "uint256",
          "name": "",
          "type": "uint256"
        },
        {
          "internalType": "bytes",
          "name": "",
          "type": "bytes"
        }
      ],
      "name": "onERC721Received",
      "outputs": [
        {
          "internalType": "bytes4",
          "name": "",
          "type": "bytes4"
        }
      ],
      "stateMutability": "nonpayable",
      "type": "function"
    },
    {
      "inputs": [],
      "name": "owner",
      "outputs": [
        {
          "internalType": "address",
          "name": "",
          "type": "address"
        }
      ],
      "stateMutability": "view",
      "type": "function"
    },
    {
      "inputs": [
        {
          "internalType": "uint256",
          "name": "_tokenId",
          "type": "uint256"
        },
        {
          "internalType": "address",
          "name": "_buyer",
          "type": "address"
        }
      ],
      "name": "rejectOffer",
      "outputs": [],
      "stateMutability": "nonpayable",
      "type": "function"
    },
    {
      "inputs": [],
      "name": "renounceOwnership",
      "outputs": [],
      "stateMutability": "nonpayable",
      "type": "function"
    },
    {
      "inputs": [
        {
          "internalType": "uint8",
          "name": "_serviceFees",
          "type": "uint8"
        },
        {
          "internalType": "address",
          "name": "_factoryAddress",
          "type": "address"
        }
      ],
      "name": "setServiceFeesAndFactoryContract",
      "outputs": [],
      "stateMutability": "nonpayable",
      "type": "function"
    },
    {
      "inputs": [
        {
          "internalType": "address",
          "name": "",
          "type": "address"
        }
      ],
      "name": "trackOfferPrice",
      "outputs": [
        {
          "internalType": "uint256",
          "name": "",
          "type": "uint256"
        }
      ],
      "stateMutability": "view",
      "type": "function"
    },
    {
      "inputs": [
        {
          "internalType": "address",
          "name": "newOwner",
          "type": "address"
        }
      ],
      "name": "transferOwnership",
      "outputs": [],
      "stateMutability": "nonpayable",
      "type": "function"
    },
    {
      "inputs": [
        {
          "internalType": "uint256",
          "name": "_tokenId",
          "type": "uint256"
        }
      ],
      "name": "unListNft",
      "outputs": [],
      "stateMutability": "nonpayable",
      "type": "function"
    },
    {
      "inputs": [
        {
          "internalType": "uint256",
          "name": "_tokenId",
          "type": "uint256"
        }
      ],
      "name": "withDraw",
      "outputs": [],
      "stateMutability": "nonpayable",
      "type": "function"
    }
  ],
  "bytecode": "0x60808060405234601557612048908161001b8239f35b600080fdfe6080604052600436101561001257600080fd5b6000803560e01c806314174f33146119a7578063150b7a02146118f8578063292c30a2146118bf5780634370fb34146116165780634c936224146114d35780634fb64be214611413578063715018a6146113a95780637cde1202146110165780638129fc1c14610e775780638da5cb5b14610e41578063a0aa5cca14610ad0578063ab67b23614610896578063bc3ad145146106ce578063c5a26fda146104e9578063ce606ee0146104c2578063db9371c2146101075763f2fde38b146100d857600080fd5b34610104576020366003190112610104576101016100f4611b56565b6100fc611d5c565b611caa565b80f35b80fd5b503461010457604036600319011261010457600435610124611b71565b61012c611d20565b60018060a01b0316808352600260205260408320828452602052604083206040519061015782611b9d565b60018060a01b03815416825260ff600460018301549260208501938452600281015460408601526003810154606086015201541615156080830152338552600160205260408520848652602052836040862091604051926101b784611bcf565b60018060a01b03815416845260018101546020850152600281016040519081602082549182815201918b5260208b20908b5b8181106104a057505050816101ff910382611beb565b6040850152600381016040519081602082549182815201918b5260208b20908b5b81811061048757505050918161023c60069360ff950382611beb565b606087015260048101546001600160a01b03166080870152600581015460a0870152015416151560c0840152510361044f5782855260036020526040852054156103fe5781516001600160a01b03168390036103c157516001600160a01b031633036103725781845260036020528380808060408120548095878352600360205282604081205560018060a01b03905116828215610369575bf11561035e5760607f16e834b19bcc6f577f7e0ed83bb4cb1df810ec798f673e5ca46faec8324d5a6b9160405190848252602082015260016040820152a182526002602052604082209082526020526103496040822060046000918281558260018201558260028201558260038201550155565b6001600080516020611fd38339815191525580f35b6040513d85823e3d90fd5b506108fc6102d5565b60405162461bcd60e51b815260206004820152602160248201527f4f6e6c792053656c6c65722063616e2072656a6563742074686973206f6666656044820152603960f91b6064820152608490fd5b60405162461bcd60e51b8152602060048201526015602482015274496e56616c6964204275796572204164647265737360581b6044820152606490fd5b60405162461bcd60e51b815260206004820152602360248201527f4e6f204f6666657220686173207265636569766564206f6e207468697320746f60448201526235b2b760e91b6064820152608490fd5b60405162461bcd60e51b815260206004820152601060248201526f125b9d985b1a59081d1bdad95b88125960821b6044820152606490fd5b825484528b975060209093019260019283019201610220565b82546001600160a01b031684528b9750602090930192600192830192016101e9565b5034610104578060031936011261010457546040516001600160a01b039091168152602090f35b5034610104576040366003190112610104576001600160a01b0361050b611b56565b1681526001602052604081206024358252602052604081206040519161053083611bcf565b60018060a01b03825416835260018201549260208101938452600283019260405193846020825491828152019185526020852090855b8181106106af575050508461057c910385611beb565b604082019384526003810192604051908160208654918281520190819683526020832090835b81811061069957505050826105b8910383611beb565b81606085015260018060a01b036004840154169182608086015260ff60066005860154958660a08901520154161515948560c082015260018060a01b0390511697519651976040519760e08901918952602089015260e06040890152885180915260206101008901990190835b81811061067a57505050868803606088015251808852909660200194905b808810610662575050849550608085015260a084015260c08301520390f35b90946020806001928851815201960197019690610643565b82516001600160a01b03168b5260209a8b019a90920191600101610625565b82548452602090930192600192830192016105a2565b82546001600160a01b0316845260209093019260019283019201610566565b506040366003190112610104576004356106e6611b71565b6106ee611d20565b6001600160a01b03818116808552600160208181526040808820878952825280882060050154848952838352818920888a52835281892060040154858a52938352818920888a5290925287205492949184169391929091168490036108605780341480610857575b1561081c5783865260016020526040862085875260205260018060a01b0360408720541633146107e6576107b0608092827fa8c8c76dcbc214f2bf1ff14e46e52c719da6477410ad492c29eb45fd05acb624953389611d92565b604051903382528560208301526040820152426060820152a1825260016020526040822090825260205261034960408220611c68565b60405162461bcd60e51b815260206004820152600e60248201526d43616e27742053656c662062757960901b6044820152606490fd5b60405162461bcd60e51b8152602060048201526013602482015272125b94dd59999a58da595b9d08105b5bdd5b9d606a1b6044820152606490fd5b50801515610756565b60405162461bcd60e51b815260206004820152600e60248201526d24b73b30b634b21029b2b63632b960911b6044820152606490fd5b5034610104576020366003190112610104576004356108b3611d20565b338083526001602090815260408085208486529091528320546001600160a01b031603610a805733825260016020526040822081835260205260ff60066040842001541615610a475733808352600160208181526040808620858752825280862060040154938652918152818520848652905283205483916001600160a01b039182169116803b15610a4357604051632142170760e11b81523060048201526001600160a01b039290921660248301526044820184905282908290606490829084905af18015610a3857610a1f575b50503382526001602052604082208183526020527f62a8c32d7e607200e5e6c5986d2407a01f983fe1af6d31899fb1e32c6fd1f2c2608060018060a01b0360408520541633855260016020526040852084865260205260018060a01b03600460408720015416604051918252846020830152604082015260016060820152a133825260016020526040822090825260205261034960408220611c68565b81610a2991611beb565b610a34578138610982565b5080fd5b6040513d84823e3d90fd5b8280fd5b60405162461bcd60e51b815260206004820152601160248201527013999d081a5cc81b9bdd08131a5cdd1959607a1b6044820152606490fd5b60405162461bcd60e51b815260206004820152602260248201527f4f6e6c792053656c6c65722063616e20756e4c69737420686973206f776e204e604482015261199d60f21b6064820152608490fd5b5034610104576080366003190112610104576004356044356001600160a01b0381169060243590829003610e3d57610b06611b87565b610b0e611d20565b60018060a01b03169160018060a01b0360045460081c16338652600160205260408620858752602052602060408720926024604051809481936326749ad760e01b835260048301525afa908115610cc8578691610e02575b5015610da2576040516331a9108f60e11b815260048101859052602081602481875afa908115610cc8578691610d5c575b50336001600160a01b0390911603610d0d57600681019060ff825416610cd7576004810180546001600160a01b0319908116861790915581541633178155600581018390556001908101859055815460ff1916178155823b15610cd357604051632142170760e11b815233600482015230602482015260448101859052858160648183885af18015610cc857610c88575b50917fa704c2f7861cb3e3fe5f14f2130761e59fbecf01cb35680cc00620ca3c02c16f939160ff60a0945416916040519333855260208501526040840152606083015215156080820152a16001600080516020611fd38339815191525580f35b9160ff86610cbc60a09694987fa704c2f7861cb3e3fe5f14f2130761e59fbecf01cb35680cc00620ca3c02c16f9896611beb565b96929450509193610c28565b6040513d88823e3d90fd5b8480fd5b60405162461bcd60e51b815260206004820152600e60248201526d105b1c9958591e48131a5cdd195960921b6044820152606490fd5b60405162461bcd60e51b815260206004820152602160248201527f596f7520617265206e6f7420746865206f776e6572206f662074686973204e666044820152601d60fa1b6064820152608490fd5b90506020813d602011610d9a575b81610d7760209383611beb565b81010312610d9657516001600160a01b0381168103610d965738610b97565b8580fd5b3d9150610d6a565b60405162461bcd60e51b815260206004820152603260248201527f436f6c6c656374696f6e2069736e2774206372656174656420696e204576656e60448201527174206465706c6f79657220666163746f727960701b6064820152608490fd5b90506020813d602011610e35575b81610e1d60209383611beb565b81010312610d9657518015158103610d965738610b66565b3d9150610e10565b8380fd5b5034610104578060031936011261010457600080516020611fb3833981519152546040516001600160a01b039091168152602090f35b5034610104578060031936011261010457600080516020611ff38339815191525460ff8160401c16159067ffffffffffffffff81168015908161100e575b6001149081611004575b159081610ffb575b50610fec5767ffffffffffffffff198116600117600080516020611ff38339815191525581610fbf575b50610efa611f84565b610f02611f84565b610f0b33611caa565b610f13611f84565b81546001600160a01b03191633178255610f2b611f84565b610f33611f84565b610f3c33611caa565b610f44611f84565b610f4c611f84565b6001600080516020611fd383398151915255610f655780f35b68ff000000000000000019600080516020611ff38339815191525416600080516020611ff3833981519152557fc7f505b2f371ae2175ee4913f4499e1f2633a7b5936321eed1cdaeb6115181d2602060405160018152a180f35b68ffffffffffffffffff19166801000000000000000117600080516020611ff38339815191525538610ef1565b63f92ee8a960e01b8352600483fd5b90501538610ec7565b303b159150610ebf565b839150610eb5565b503461010457604036600319011261010457600435611033611b71565b61103b611d20565b33835260016020526040832082845260205260408320906040519161105f83611bcf565b60018060a01b03815416835260018101546020840152600281016040518082602082945493848152019089526020892092895b8181106113875750506110a792500382611beb565b6040840152600381016040518082602082945493848152019089526020892092895b81811061136e5750506110de92500382611beb565b606084015260ff600660018060a01b036004840154169260808601938452600581015460a0870152015416151560c084015260018060a01b0382169283865260026020526040862085875260205260408620906040519061113e82611b9d565b60018060a01b0383541682526001830154602083015260028301546040830152608060ff6004600386015495606086019687520154169201911515825285885260036020526040882054156113315751336001600160a01b03909116036112ed5751156112a85751421015611273577f2b0295c6245bbde9b0128fbea0ea5fe173b82a59a739f77c5fc7deba224dbffc91611205608092858852600360205260408820548093878a526003602052896040812055339260018060a01b039051169089611d92565b60405190848252602082015284604082015260016060820152a133835260016020526040832082845260205261123d60408420611c68565b82526002602052604082209082526020526103496040822060046000918281558260018201558260028201558260038201550155565b60405162461bcd60e51b815260206004820152600d60248201526c13d999995c88115e1c1a5c9959609a1b6044820152606490fd5b60405162461bcd60e51b815260206004820152601760248201527f5468697320746f6b656e20686173206e6f206f666665720000000000000000006044820152606490fd5b606460405162461bcd60e51b815260206004820152602060248201527f4f6e6c792053656c6c65722063616e2061636365707420746865206f666665726044820152fd5b60405162461bcd60e51b81526020600482015260156024820152742237b2b9b713ba103932b1b2b4bb329037b33332b960591b6044820152606490fd5b84548352600194850194869450602090930192016110c9565b84546001600160a01b0316835260019485019486945060209093019201611092565b50346101045780600319360112610104576113c2611d5c565b600080516020611fb383398151915280546001600160a01b0319811690915581906001600160a01b03167f8be0079c531659141344cd1fd0a4f28419497f9722a3daafe3b4186f6b6457e08280a380f35b50346101045760203660031901126101045760408160a0926080835161143881611b9d565b82815282602082015282858201528260608201520152338152600260205281812060043582526020522060405161146e81611b9d565b600180841b038254169182825260018101546020830190815260028201549060408401918252608060ff600460038601549560608801968752015416940193151584526040519485525160208501525160408401525160608301525115156080820152f35b50346101045760403660031901126101045760043560ff8116809103610a34576114fb611b71565b611503611d5c565b81156115c2576001600160a01b03811691821561157d577f81897e5b12d5c065d370415ccc932a4c2399b8d4039a7ace848c9fc2c436a82a928160609360045490610100600160a81b039060081b16906affffffffffffffffffffff60a81b1617176004556040519133835260208301526040820152a180f35b60405162461bcd60e51b815260206004820152601760248201527f496e76616c696420466163746f727920416464726573730000000000000000006044820152606490fd5b60405162461bcd60e51b815260206004820152602660248201527f536572766963652046656573206d7573742062652067726561746572207468616044820152656e207a65726f60d01b6064820152608490fd5b50608036600319011261010457602435604435600435611634611b87565b9061163d611d20565b338552600260205260408520818652602052604085209160018060a01b03168552600160205260408520818652602052604085209260ff6006850154161561187a57428111156118485784340361181257600483019260ff8454166117d6576001913388526003602052346040892055828060a01b0333166bffffffffffffffffffffffff60a01b83541617825586600283015560038201550155600160ff1982541617905560028101805490600160401b8210156117c2578161170991600160039594018155611c0d565b81546001600160a01b0391851b91821b19163390911b17905501805490600160401b8210156117ae5791611767827fb2a4706eb30fbca70b94141708a50a456d89844927f443dadcde61e3920ab6af94600161179695018155611c0d565b815460001960039290921b91821b19169083901b17905560408051338152602081019290925290918291820190565b0390a16001600080516020611fd38339815191525580f35b634e487b7160e01b84526041600452602484fd5b634e487b7160e01b85526041600452602485fd5b60405162461bcd60e51b815260206004820152601460248201527320b63932b0b23c90283630b1b2b21027b33332b960611b6044820152606490fd5b60405162461bcd60e51b815260206004820152600e60248201526d125b9d985b1a5908185b5bdd5b9d60921b6044820152606490fd5b60405162461bcd60e51b815260206004820152600a6024820152692a34b6b29022b93937b960b11b6044820152606490fd5b60405162461bcd60e51b815260206004820152601860248201527f5468697320746f6b656e206973206e6f74204c697374656400000000000000006044820152606490fd5b5034610104576020366003190112610104576020906040906001600160a01b036118e7611b56565b168152600383522054604051908152f35b503461010457608036600319011261010457611912611b56565b5061191b611b71565b5060643567ffffffffffffffff8111610a345736602382011215610a3457806004013567ffffffffffffffff811161199357604051611964601f8301601f191660200182611beb565b8181523660248385010111610e3d578160246020940184830137010152604051630a85bd0160e11b8152602090f35b634e487b7160e01b83526041600452602483fd5b5034610104576020366003190112610104576119c1611d20565b3381526002602052604081206004358252602052604081206040516119e581611b9d565b608060ff600460018060a01b038554169485855260018101546020860152600281015460408601526003810154606086015201541615159101523303611b06573381526003602052604081205415611ac1573381526003602052604081205433825260036020528160408120558180828015611ab7575b8280929181923390f115611aaa5760408051338152602081019290925242908201527fb5c5f6724bdc9de2302196ac349f18e17fc199e7f3e9a1adbb788e22b98d4298908060608101611796565b50604051903d90823e3d90fd5b6108fc9150611a5c565b60405162461bcd60e51b815260206004820152601860248201527f416c726561647920576974682d4472617720416d6f756e7400000000000000006044820152606490fd5b60405162461bcd60e51b815260206004820152602260248201527f4f6e6c7920627579657220776974686472617720686973206f776e20616d6f756044820152611b9d60f21b6064820152608490fd5b600435906001600160a01b0382168203611b6c57565b600080fd5b602435906001600160a01b0382168203611b6c57565b606435906001600160a01b0382168203611b6c57565b60a0810190811067ffffffffffffffff821117611bb957604052565b634e487b7160e01b600052604160045260246000fd5b60e0810190811067ffffffffffffffff821117611bb957604052565b90601f8019910116810190811067ffffffffffffffff821117611bb957604052565b8054821015611c255760005260206000200190600090565b634e487b7160e01b600052603260045260246000fd5b81611c44575050565b6000526020600020908101905b818110611c5c575050565b60008155600101611c51565b6006600091828155826001820155611c8860028201805490858155611c3b565b611c9a60038201805490858155611c3b565b8260048201558260058201550155565b6001600160a01b03168015611d0a57600080516020611fb383398151915280546001600160a01b0319811683179091556001600160a01b03167f8be0079c531659141344cd1fd0a4f28419497f9722a3daafe3b4186f6b6457e0600080a3565b631e4fbdf760e01b600052600060045260246000fd5b6002600080516020611fd38339815191525414611d4b576002600080516020611fd383398151915255565b633ee5aeb560e01b60005260046000fd5b600080516020611fb3833981519152546001600160a01b03163303611d7d57565b63118cdaa760e01b6000523360045260246000fd5b60045460009591946001600160a01b03909416939060ff168015611f3357808202908282041482151715611f1f576064900490868080808560018060a01b03825416828215611f16575bf115610cc8578654604080516001600160a01b039092168252602082018490527f56a87afabcc5be804fc847379d1f4e3408f49b3016cc7dcea295265f59a0bd5791a181810391818311611f025790828892839214611ef8575b8291829182916001600160a01b03881690f115611eed57604080516001600160a01b03939093168352602083019190915242908201527ff474f1647716b20d13fea8c36a785eabe9a98725dd210a911b9e0fc1508a6af490606090a1813b15610e3d57604051632142170760e11b81523060048201526001600160a01b03919091166024820152604481019290925282908290606490829084905af18015610a3857611ee0575050565b81611eea91611beb565b50565b6040513d87823e3d90fd5b6108fc9150611e36565b634e487b7160e01b88526011600452602488fd5b506108fc611ddc565b634e487b7160e01b87526011600452602487fd5b60405162461bcd60e51b8152602060048201526024808201527f4d61726b6574506c616365206e6f742073657420736572766963652066656573604482015263081e595d60e21b6064820152608490fd5b60ff600080516020611ff38339815191525460401c1615611fa157565b631afcd79f60e31b60005260046000fdfe9016d09d72d40fdae2fd8ceac6b6234c7706214fd39c1cd1e609a0528c1993009b779b17422d0df92223018b32b4d1fa46e071723d6817e2486d003becc55f00f0c57e16840df040f15088dc2f81fe391c3923bec73e23a9662efc9c229c6a00a264697066735822122076f7968b6e4de9e089f29035572b660ea11a99332658c337fb41c2cdb31f219a64736f6c634300081a0033",
  "linkReferences": {},
  "deployedLinkReferences": {}
}