{
  "_format": "hh-sol-artifact-1",
  "contractName": "NatirumMarketplace",
  "sourceName": "contracts/Natrium-Nft-Marketplace.sol",
  "abi": [
    {
      "inputs": [],
      "name": "InvalidInitialization",
      "type": "error"
    },
    {
      "inputs": [],
      "name": "NotInitializing",
      "type": "error"
    },
    {
      "inputs": [
        {
          "internalType": "address",
          "name": "owner",
          "type": "address"
        }
      ],
      "name": "OwnableInvalidOwner",
      "type": "error"
    },
    {
      "inputs": [
        {
          "internalType": "address",
          "name": "account",
          "type": "address"
        }
      ],
      "name": "OwnableUnauthorizedAccount",
      "type": "error"
    },
    {
      "inputs": [],
      "name": "ReentrancyGuardReentrantCall",
      "type": "error"
    },
    {
      "anonymous": false,
      "inputs": [
        {
          "indexed": false,
          "internalType": "uint64",
          "name": "version",
          "type": "uint64"
        }
      ],
      "name": "Initialized",
      "type": "event"
    },
    {
      "anonymous": false,
      "inputs": [
        {
          "indexed": false,
          "internalType": "address",
          "name": "seller",
          "type": "address"
        },
        {
          "indexed": false,
          "internalType": "uint256",
          "name": "tokenID",
          "type": "uint256"
        },
        {
          "indexed": false,
          "internalType": "string",
          "name": "TicketType",
          "type": "string"
        },
        {
          "indexed": false,
          "internalType": "string",
          "name": "tokenUri",
          "type": "string"
        },
        {
          "indexed": false,
          "internalType": "address",
          "name": "hostContract",
          "type": "address"
        },
        {
          "indexed": false,
          "internalType": "uint256",
          "name": "nftPrice",
          "type": "uint256"
        },
        {
          "indexed": false,
          "internalType": "uint256",
          "name": "Expiration",
          "type": "uint256"
        },
        {
          "indexed": false,
          "internalType": "bool",
          "name": "isListed",
          "type": "bool"
        }
      ],
      "name": "ListNFT",
      "type": "event"
    },
    {
      "anonymous": false,
      "inputs": [
        {
          "indexed": true,
          "internalType": "address",
          "name": "previousOwner",
          "type": "address"
        },
        {
          "indexed": true,
          "internalType": "address",
          "name": "newOwner",
          "type": "address"
        }
      ],
      "name": "OwnershipTransferred",
      "type": "event"
    },
    {
      "anonymous": false,
      "inputs": [
        {
          "indexed": false,
          "internalType": "address",
          "name": "buyer",
          "type": "address"
        },
        {
          "indexed": false,
          "internalType": "uint256",
          "name": "offerPrice",
          "type": "uint256"
        },
        {
          "indexed": false,
          "internalType": "bool",
          "name": "isRejected",
          "type": "bool"
        }
      ],
      "name": "RejectOffer",
      "type": "event"
    },
    {
      "anonymous": false,
      "inputs": [
        {
          "indexed": false,
          "internalType": "address",
          "name": "from",
          "type": "address"
        },
        {
          "indexed": false,
          "internalType": "address",
          "name": "to",
          "type": "address"
        },
        {
          "indexed": false,
          "internalType": "uint256",
          "name": "tokenID",
          "type": "uint256"
        },
        {
          "indexed": false,
          "internalType": "uint256",
          "name": "paidPrice",
          "type": "uint256"
        },
        {
          "indexed": false,
          "internalType": "uint256",
          "name": "timeStamp",
          "type": "uint256"
        }
      ],
      "name": "TransferNft",
      "type": "event"
    },
    {
      "anonymous": false,
      "inputs": [
        {
          "indexed": false,
          "internalType": "address",
          "name": "seller",
          "type": "address"
        },
        {
          "indexed": false,
          "internalType": "uint256",
          "name": "tokenID",
          "type": "uint256"
        },
        {
          "indexed": false,
          "internalType": "address",
          "name": "hostContract",
          "type": "address"
        },
        {
          "indexed": false,
          "internalType": "bool",
          "name": "isUnlisted",
          "type": "bool"
        }
      ],
      "name": "UnListNFT",
      "type": "event"
    },
    {
      "anonymous": false,
      "inputs": [
        {
          "indexed": false,
          "internalType": "address",
          "name": "buyer",
          "type": "address"
        },
        {
          "indexed": false,
          "internalType": "uint256",
          "name": "acceptedPrice",
          "type": "uint256"
        },
        {
          "indexed": false,
          "internalType": "uint256",
          "name": "tokenId",
          "type": "uint256"
        },
        {
          "indexed": false,
          "internalType": "bool",
          "name": "isAccepted",
          "type": "bool"
        }
      ],
      "name": "acceptOffer",
      "type": "event"
    },
    {
      "anonymous": false,
      "inputs": [
        {
          "indexed": false,
          "internalType": "address",
          "name": "buyer",
          "type": "address"
        },
        {
          "indexed": false,
          "internalType": "uint256",
          "name": "offerPrice",
          "type": "uint256"
        },
        {
          "indexed": false,
          "internalType": "uint256",
          "name": "tokenId",
          "type": "uint256"
        }
      ],
      "name": "makeOffer",
      "type": "event"
    },
    {
      "anonymous": false,
      "inputs": [
        {
          "indexed": false,
          "internalType": "address",
          "name": "admin",
          "type": "address"
        },
        {
          "indexed": false,
          "internalType": "uint8",
          "name": "serviceFee",
          "type": "uint8"
        },
        {
          "indexed": false,
          "internalType": "address",
          "name": "FactoryAddress",
          "type": "address"
        }
      ],
      "name": "serviceFeesAndFactoryContract",
      "type": "event"
    },
    {
      "anonymous": false,
      "inputs": [
        {
          "indexed": false,
          "internalType": "address",
          "name": "seller",
          "type": "address"
        },
        {
          "indexed": false,
          "internalType": "uint256",
          "name": "nftPrice",
          "type": "uint256"
        },
        {
          "indexed": false,
          "internalType": "uint256",
          "name": "timeStamp",
          "type": "uint256"
        }
      ],
      "name": "transferNftPrice",
      "type": "event"
    },
    {
      "anonymous": false,
      "inputs": [
        {
          "indexed": false,
          "internalType": "address",
          "name": "owner",
          "type": "address"
        },
        {
          "indexed": false,
          "internalType": "uint256",
          "name": "serviceFees",
          "type": "uint256"
        }
      ],
      "name": "transferServiceFees",
      "type": "event"
    },
    {
      "anonymous": false,
      "inputs": [
        {
          "indexed": false,
          "internalType": "address",
          "name": "buyer",
          "type": "address"
        },
        {
          "indexed": false,
          "internalType": "uint256",
          "name": "amount",
          "type": "uint256"
        },
        {
          "indexed": false,
          "internalType": "uint256",
          "name": "timeStamp",
          "type": "uint256"
        }
      ],
      "name": "withdraw",
      "type": "event"
    },
    {
      "inputs": [
        {
          "internalType": "uint256",
          "name": "_tokenId",
          "type": "uint256"
        },
        {
          "internalType": "address",
          "name": "_buyer",
          "type": "address"
        }
      ],
      "name": "acceptOffers",
      "outputs": [],
      "stateMutability": "nonpayable",
      "type": "function"
    },
    {
      "inputs": [
        {
          "internalType": "uint256",
          "name": "_tokenId",
          "type": "uint256"
        },
        {
          "internalType": "address",
          "name": "_seller",
          "type": "address"
        }
      ],
      "name": "buyNft",
      "outputs": [],
      "stateMutability": "payable",
      "type": "function"
    },
    {
      "inputs": [],
      "name": "contractOwner",
      "outputs": [
        {
          "internalType": "address",
          "name": "",
          "type": "address"
        }
      ],
      "stateMutability": "view",
      "type": "function"
    },
    {
      "inputs": [
        {
          "internalType": "uint256",
          "name": "_tokenId",
          "type": "uint256"
        },
        {
          "internalType": "uint256",
          "name": "_offerPrice",
          "type": "uint256"
        },
        {
          "internalType": "uint256",
          "name": "_offerExpiry",
          "type": "uint256"
        },
        {
          "internalType": "address",
          "name": "_seller",
          "type": "address"
        }
      ],
      "name": "createOffer",
      "outputs": [],
      "stateMutability": "payable",
      "type": "function"
    },
    {
      "inputs": [
        {
          "internalType": "address",
          "name": "_seller",
          "type": "address"
        },
        {
          "internalType": "uint256",
          "name": "_tokenId",
          "type": "uint256"
        }
      ],
      "name": "getNftDetails",
      "outputs": [
        {
          "internalType": "address",
          "name": "Seller",
          "type": "address"
        },
        {
          "internalType": "uint256",
          "name": "TokenId",
          "type": "uint256"
        },
        {
          "internalType": "address",
          "name": "hostContract",
          "type": "address"
        },
        {
          "internalType": "uint256",
          "name": "NftPrice",
          "type": "uint256"
        },
        {
          "internalType": "bool",
          "name": "Listed",
          "type": "bool"
        }
      ],
      "stateMutability": "view",
      "type": "function"
    },
    {
      "inputs": [
        {
          "internalType": "uint256",
          "name": "_tokenId",
          "type": "uint256"
        }
      ],
      "name": "getOfferDetails",
      "outputs": [
        {
          "components": [
            {
              "internalType": "address",
              "name": "buyer",
              "type": "address"
            },
            {
              "internalType": "uint256",
              "name": "tokenID",
              "type": "uint256"
            },
            {
              "internalType": "uint256",
              "name": "offerPrice",
              "type": "uint256"
            },
            {
              "internalType": "uint256",
              "name": "offerExpire",
              "type": "uint256"
            },
            {
              "internalType": "bool",
              "name": "offerPlaced",
              "type": "bool"
            }
          ],
          "internalType": "struct NatirumMarketplace.OfferDetails",
          "name": "",
          "type": "tuple"
        }
      ],
      "stateMutability": "view",
      "type": "function"
    },
    {
      "inputs": [],
      "name": "initialize",
      "outputs": [],
      "stateMutability": "nonpayable",
      "type": "function"
    },
    {
      "inputs": [
        {
          "internalType": "uint256",
          "name": "_tokenId",
          "type": "uint256"
        },
        {
          "internalType": "uint256",
          "name": "_price",
          "type": "uint256"
        },
        {
          "internalType": "uint256",
          "name": "_NftExpiration",
          "type": "uint256"
        },
        {
          "internalType": "address",
          "name": "_hostContract",
          "type": "address"
        }
      ],
      "name": "listNft",
      "outputs": [],
      "stateMutability": "nonpayable",
      "type": "function"
    },
    {
      "inputs": [
        {
          "internalType": "address",
          "name": "",
          "type": "address"
        },
        {
          "internalType": "address",
          "name": "",
          "type": "address"
        },
        {
          "internalType": "uint256",
          "name": "",
          "type": "uint256"
        },
        {
          "internalType": "bytes",
          "name": "",
          "type": "bytes"
        }
      ],
      "name": "onERC721Received",
      "outputs": [
        {
          "internalType": "bytes4",
          "name": "",
          "type": "bytes4"
        }
      ],
      "stateMutability": "nonpayable",
      "type": "function"
    },
    {
      "inputs": [],
      "name": "owner",
      "outputs": [
        {
          "internalType": "address",
          "name": "",
          "type": "address"
        }
      ],
      "stateMutability": "view",
      "type": "function"
    },
    {
      "inputs": [
        {
          "internalType": "uint256",
          "name": "_tokenId",
          "type": "uint256"
        },
        {
          "internalType": "address",
          "name": "_buyer",
          "type": "address"
        }
      ],
      "name": "rejectOffer",
      "outputs": [],
      "stateMutability": "nonpayable",
      "type": "function"
    },
    {
      "inputs": [],
      "name": "renounceOwnership",
      "outputs": [],
      "stateMutability": "nonpayable",
      "type": "function"
    },
    {
      "inputs": [
        {
          "internalType": "uint8",
          "name": "_serviceFees",
          "type": "uint8"
        },
        {
          "internalType": "address",
          "name": "_factoryAddress",
          "type": "address"
        }
      ],
      "name": "setServiceFeesAndFactoryContract",
      "outputs": [],
      "stateMutability": "nonpayable",
      "type": "function"
    },
    {
      "inputs": [
        {
          "internalType": "address",
          "name": "",
          "type": "address"
        }
      ],
      "name": "trackOfferPrice",
      "outputs": [
        {
          "internalType": "uint256",
          "name": "",
          "type": "uint256"
        }
      ],
      "stateMutability": "view",
      "type": "function"
    },
    {
      "inputs": [
        {
          "internalType": "address",
          "name": "newOwner",
          "type": "address"
        }
      ],
      "name": "transferOwnership",
      "outputs": [],
      "stateMutability": "nonpayable",
      "type": "function"
    },
    {
      "inputs": [
        {
          "internalType": "uint256",
          "name": "_tokenId",
          "type": "uint256"
        }
      ],
      "name": "unListNft",
      "outputs": [],
      "stateMutability": "nonpayable",
      "type": "function"
    },
    {
      "inputs": [
        {
          "internalType": "uint256",
          "name": "_tokenId",
          "type": "uint256"
        }
      ],
      "name": "withDraw",
      "outputs": [],
      "stateMutability": "nonpayable",
      "type": "function"
    }
  ],
  "bytecode": "0x60808060405234601557611de3908161001b8239f35b600080fdfe6080604052600436101561001257600080fd5b6000803560e01c806314174f33146116a0578063150b7a0214611611578063292c30a2146115d85780634370fb34146114255780634c0115f91461109d5780634c93622414610f5a5780634fb64be214610e9a578063715018a614610e305780637cde120214610b255780638129fc1c146109865780638da5cb5b14610950578063ab67b23614610701578063bc3ad145146104f8578063c5a26fda14610443578063ce606ee01461041c578063db9371c2146101075763f2fde38b146100d857600080fd5b34610104576020366003190112610104576101016100f461185e565b6100fc611afb565b611a49565b80f35b80fd5b503461010457604036600319011261010457600435610124611879565b61012c611abf565b60018060a01b031680835260026020526040832082845260205260408320604051906101578261188f565b60018060a01b03815416825260ff60046001830154926020850193845260028101546040860152600381015460608601520154161515608083015233855260016020526040852084865260205283604086209160ff6005604051946101bb866118c1565b80546001600160a01b0390811687526001820154602088015260028201541660408701526003810154606087015260048101546080870152015416151560a084015251036103e45782855260036020526040852054156103935781516001600160a01b031683900361035657516001600160a01b031633036103075781845260036020528380808060408120548095878352600360205282604081205560018060a01b039051168282156102fe575bf1156102f35760607f16e834b19bcc6f577f7e0ed83bb4cb1df810ec798f673e5ca46faec8324d5a6b9160405190848252602082015260016040820152a182526002602052604082209082526020526102de6040822060046000918281558260018201558260028201558260038201550155565b6001600080516020611d6e8339815191525580f35b6040513d85823e3d90fd5b506108fc61026a565b60405162461bcd60e51b815260206004820152602160248201527f4f6e6c792053656c6c65722063616e2072656a6563742074686973206f6666656044820152603960f91b6064820152608490fd5b60405162461bcd60e51b8152602060048201526015602482015274496e56616c6964204275796572204164647265737360581b6044820152606490fd5b60405162461bcd60e51b815260206004820152602360248201527f4e6f204f6666657220686173207265636569766564206f6e207468697320746f60448201526235b2b760e91b6064820152608490fd5b60405162461bcd60e51b815260206004820152601060248201526f125b9d985b1a59081d1bdad95b88125960821b6044820152606490fd5b5034610104578060031936011261010457546040516001600160a01b039091168152602090f35b50346101045760403660031901126101045760a0906040906001600160a01b0361046b61185e565b1681526001602052818120602435825260205220816040519161048d836118c1565b600180831b03815416928381526001820154806020830152600180851b036002840154169182604082015260ff600560038601549586606085015260048101546080850152015416151594859101526040519485526020850152604084015260608301526080820152f35b50604036600319011261010457600435610510611879565b6001600160a01b03818116808552600160208181526040808820878952825280882060030154848952838352818920888a52835281892060020154858a52938352818920888a5290925287205492949184169391929091168490036106cb57803414806106c2575b156106875783865260016020526040862085875260205260018060a01b036040872054163314610651576105f660a092827fdf4046113ad3dca16e7291082da825762c3ac8c9f1f396d90b809e5a5c50d60995878a52600160205260408a20898b526020526105ef600460408c2001544210611949565b3389611b31565b604051908482523360208301528560408301526060820152426080820152a182526001602052604082209082526020526101016040822060056000918281558260018201558260028201558260038201558260048201550155565b60405162461bcd60e51b815260206004820152600e60248201526d43616e27742053656c662062757960901b6044820152606490fd5b60405162461bcd60e51b8152602060048201526013602482015272125b94dd59999a58da595b9d08105b5bdd5b9d606a1b6044820152606490fd5b50801515610578565b60405162461bcd60e51b815260206004820152600e60248201526d24b73b30b634b21029b2b63632b960911b6044820152606490fd5b5034610104576020366003190112610104576004353382526001602052604082208183526020523360018060a01b03604084205416036109005733825260016020526040822081835260205260ff600560408420015416156108c75733808352600160208181526040808620858752825280862060020154938652918152818520848652905283205483916001600160a01b039182169116803b156108c357604051632142170760e11b81523060048201526001600160a01b039290921660248301526044820184905282908290606490829084905af180156108b85761089f575b50503382526001602052604082208183526020527f62a8c32d7e607200e5e6c5986d2407a01f983fe1af6d31899fb1e32c6fd1f2c2608060018060a01b0360408520541633855260016020526040852084865260205260018060a01b03600260408720015416604051918252846020830152604082015260016060820152a13382526001602052604082209082526020526101016040822060056000918281558260018201558260028201558260038201558260048201550155565b816108a9916118dd565b6108b45781386107e3565b5080fd5b6040513d84823e3d90fd5b8280fd5b60405162461bcd60e51b815260206004820152601160248201527013999d081a5cc81b9bdd08131a5cdd1959607a1b6044820152606490fd5b60405162461bcd60e51b815260206004820152602260248201527f4f6e6c792053656c6c65722063616e20756e4c69737420686973206f776e204e604482015261199d60f21b6064820152608490fd5b5034610104578060031936011261010457600080516020611d4e833981519152546040516001600160a01b039091168152602090f35b5034610104578060031936011261010457600080516020611d8e8339815191525460ff8160401c16159067ffffffffffffffff811680159081610b1d575b6001149081610b13575b159081610b0a575b50610afb5767ffffffffffffffff198116600117600080516020611d8e8339815191525581610ace575b50610a09611d1f565b610a11611d1f565b610a1a33611a49565b610a22611d1f565b81546001600160a01b03191633178255610a3a611d1f565b610a42611d1f565b610a4b33611a49565b610a53611d1f565b610a5b611d1f565b6001600080516020611d6e83398151915255610a745780f35b68ff000000000000000019600080516020611d8e8339815191525416600080516020611d8e833981519152557fc7f505b2f371ae2175ee4913f4499e1f2633a7b5936321eed1cdaeb6115181d2602060405160018152a180f35b68ffffffffffffffffff19166801000000000000000117600080516020611d8e8339815191525538610a00565b63f92ee8a960e01b8352600483fd5b905015386109d6565b303b1591506109ce565b8391506109c4565b503461010457604036600319011261010457600435610b42611879565b338352600160205260408320828452602052604083209060405191610b66836118c1565b60018060a01b0381541683526001810154602084015260ff600560018060a01b0360028401541692604086019384526003810154606087015260048101546080870152015416151560a084015260018060a01b03821692838652600260205260408620858752602052604086209060405190610be18261188f565b60018060a01b0383541682526001830154602083015260028301546040830152608060ff600460038601549560608601968752015416920191151582528588526003602052604088205415610df35751336001600160a01b0390911603610daf575115610d6a5751421015610d35577f2b0295c6245bbde9b0128fbea0ea5fe173b82a59a739f77c5fc7deba224dbffc91610ca8608092858852600360205260408820548093878a526003602052896040812055339260018060a01b039051169089611b31565b60405190848252602082015284604082015260016060820152a1338352600160205260408320828452602052610cff6040842060056000918281558260018201558260028201558260038201558260048201550155565b82526002602052604082209082526020526101016040822060046000918281558260018201558260028201558260038201550155565b60405162461bcd60e51b815260206004820152600d60248201526c13d999995c88115e1c1a5c9959609a1b6044820152606490fd5b60405162461bcd60e51b815260206004820152601760248201527f5468697320746f6b656e20686173206e6f206f666665720000000000000000006044820152606490fd5b606460405162461bcd60e51b815260206004820152602060248201527f4f6e6c792053656c6c65722063616e2061636365707420746865206f666665726044820152fd5b60405162461bcd60e51b81526020600482015260156024820152742237b2b9b713ba103932b1b2b4bb329037b33332b960591b6044820152606490fd5b5034610104578060031936011261010457610e49611afb565b600080516020611d4e83398151915280546001600160a01b0319811690915581906001600160a01b03167f8be0079c531659141344cd1fd0a4f28419497f9722a3daafe3b4186f6b6457e08280a380f35b50346101045760203660031901126101045760408160a09260808351610ebf8161188f565b828152826020820152828582015282606082015201523381526002602052818120600435825260205220604051610ef58161188f565b600180841b038254169182825260018101546020830190815260028201549060408401918252608060ff600460038601549560608801968752015416940193151584526040519485525160208501525160408401525160608301525115156080820152f35b50346101045760403660031901126101045760043560ff81168091036108b457610f82611879565b610f8a611afb565b8115611049576001600160a01b038116918215611004577f81897e5b12d5c065d370415ccc932a4c2399b8d4039a7ace848c9fc2c436a82a928160609360045490610100600160a81b039060081b16906affffffffffffffffffffff60a81b1617176004556040519133835260208301526040820152a180f35b60405162461bcd60e51b815260206004820152601760248201527f496e76616c696420466163746f727920416464726573730000000000000000006044820152606490fd5b60405162461bcd60e51b815260206004820152602660248201527f536572766963652046656573206d7573742062652067726561746572207468616044820152656e207a65726f60d01b6064820152608490fd5b5034610104576110ac3661191b565b60018060a0969593961b031633845260016020526040842082855260205260408420946040516331a9108f60e11b8152836004820152602081602481865afa90811561134f5786916113df575b50336001600160a01b039091160361139057600586019560ff87541661135a5760048291611128428411611983565b6002810180546001600160a01b0319908116871790915581541633178155600381018790556001808201879055895460ff1916178955015560405163c87b56dd60e01b815260048101849052908582602481865afa91821561134f57869261130c575b5060405163fa71308360e01b815260048101859052948686602481875afa9586156113015787966112b6575b50833b156112b257604051632142170760e11b815233600482015230602482015260448101869052878160648183895af180156112a75761126e575b5061125160ff7f1170c512faec4fec4f8182474f34fd4b5f99ea5ab4cbb715dd83a9ce160895149899541693611243604051988998338a5260208a015261010060408a0152610100890190611a24565b908782036060890152611a24565b93608086015260a085015260c0840152151560e08301520390a180f35b60ff8861129f7f1170c512faec4fec4f8182474f34fd4b5f99ea5ab4cbb715dd83a9ce160895149a611251946118dd565b9850506111f3565b6040513d8a823e3d90fd5b8680fd5b9095503d8088833e6112c881836118dd565b8101906060818303126112fd5780519067ffffffffffffffff82116112f9576112f29291016119df565b94386111b7565b8880fd5b8780fd5b6040513d89823e3d90fd5b9091503d8087833e61131e81836118dd565b8101906020818303126112b25780519067ffffffffffffffff82116112fd576113489291016119df565b903861118b565b6040513d88823e3d90fd5b60405162461bcd60e51b815260206004820152600e60248201526d105b1c9958591e48131a5cdd195960921b6044820152606490fd5b60405162461bcd60e51b815260206004820152602160248201527f596f7520617265206e6f7420746865206f776e6572206f662074686973204e666044820152601d60fa1b6064820152608490fd5b90506020813d60201161141d575b816113fa602093836118dd565b8101031261141957516001600160a01b038116810361141957386110f9565b8580fd5b3d91506113ed565b5061142f3661191b565b92919092338552600260205260408520838652602052604085209060018060a01b031685526001602052604085208386526020526040852060ff600582015416156115935760046114839101544210611949565b61148e428511611983565b81340361155d57600481019060ff8254166115215733808752600360208181526040808a2034905584546001600160a01b0319168417855560028501879055918401979097556001928301869055835460ff1916909217909255805191825293810191909152918201527f7de3bd07351446d07eed8dd306fa8034994025802991b67b1b600366b9525cb990606090a180f35b60405162461bcd60e51b815260206004820152601460248201527320b63932b0b23c90283630b1b2b21027b33332b960611b6044820152606490fd5b60405162461bcd60e51b815260206004820152600e60248201526d125b9d985b1a5908185b5bdd5b9d60921b6044820152606490fd5b60405162461bcd60e51b815260206004820152601860248201527f5468697320746f6b656e206973206e6f74204c697374656400000000000000006044820152606490fd5b5034610104576020366003190112610104576020906040906001600160a01b0361160061185e565b168152600383522054604051908152f35b50346101045760803660031901126101045761162b61185e565b50611634611879565b5060643567ffffffffffffffff81116108b457366023820112156108b4578060040135611660816118ff565b61166d60405191826118dd565b818152366024838501011161169c578160246020940184830137010152604051630a85bd0160e11b8152602090f35b8380fd5b5034610104576020366003190112610104576116ba611abf565b3381526002602052604081206004358252602052604081206040516116de8161188f565b608060ff600460018060a01b03855416948585526001810154602086015260028101546040860152600381015460608601520154161515910152330361180e5733815260036020526040812054156117c95733815260036020526040812054338252600360205281604081205581808280156117bf575b8280929181923390f1156117b25760408051338152602081019290925242908201527fb5c5f6724bdc9de2302196ac349f18e17fc199e7f3e9a1adbb788e22b98d429890606090a16001600080516020611d6e8339815191525580f35b50604051903d90823e3d90fd5b6108fc9150611755565b60405162461bcd60e51b815260206004820152601860248201527f416c726561647920576974682d4472617720416d6f756e7400000000000000006044820152606490fd5b60405162461bcd60e51b815260206004820152602260248201527f4f6e6c7920627579657220776974686472617720686973206f776e20616d6f756044820152611b9d60f21b6064820152608490fd5b600435906001600160a01b038216820361187457565b600080fd5b602435906001600160a01b038216820361187457565b60a0810190811067ffffffffffffffff8211176118ab57604052565b634e487b7160e01b600052604160045260246000fd5b60c0810190811067ffffffffffffffff8211176118ab57604052565b90601f8019910116810190811067ffffffffffffffff8211176118ab57604052565b67ffffffffffffffff81116118ab57601f01601f191660200190565b6080906003190112611874576004359060243590604435906064356001600160a01b03811681036118745790565b1561195057565b60405162461bcd60e51b815260206004820152600b60248201526a13999d08115e1c1a5c995960aa1b6044820152606490fd5b1561198a57565b60405162461bcd60e51b815260206004820152600a6024820152692a34b6b29022b93937b960b11b6044820152606490fd5b60005b8381106119cf5750506000910152565b81810151838201526020016119bf565b81601f820112156118745780516119f5816118ff565b92611a0360405194856118dd565b8184526020828401011161187457611a2191602080850191016119bc565b90565b90602091611a3d815180928185528580860191016119bc565b601f01601f1916010190565b6001600160a01b03168015611aa957600080516020611d4e83398151915280546001600160a01b0319811683179091556001600160a01b03167f8be0079c531659141344cd1fd0a4f28419497f9722a3daafe3b4186f6b6457e0600080a3565b631e4fbdf760e01b600052600060045260246000fd5b6002600080516020611d6e8339815191525414611aea576002600080516020611d6e83398151915255565b633ee5aeb560e01b60005260046000fd5b600080516020611d4e833981519152546001600160a01b03163303611b1c57565b63118cdaa760e01b6000523360045260246000fd5b60045460009591946001600160a01b03909416939060ff168015611cce57808202908282041482151715611cba576064900490868080808560018060a01b03825416828215611cb1575bf11561134f577f56a87afabcc5be804fc847379d1f4e3408f49b3016cc7dcea295265f59a0bd57604060018060a01b038954168151908152846020820152a181810391818311611c9d5790828892839214611c93575b8291829182916001600160a01b03881690f115611c8857604080516001600160a01b03939093168352602083019190915242908201527ff474f1647716b20d13fea8c36a785eabe9a98725dd210a911b9e0fc1508a6af490606090a1813b1561169c57604051632142170760e11b81523060048201526001600160a01b03919091166024820152604481019290925282908290606490829084905af180156108b857611c7b575050565b81611c85916118dd565b50565b6040513d87823e3d90fd5b6108fc9150611bd1565b634e487b7160e01b88526011600452602488fd5b506108fc611b7b565b634e487b7160e01b87526011600452602487fd5b60405162461bcd60e51b8152602060048201526024808201527f4d61726b6574506c616365206e6f742073657420736572766963652066656573604482015263081e595d60e21b6064820152608490fd5b60ff600080516020611d8e8339815191525460401c1615611d3c57565b631afcd79f60e31b60005260046000fdfe9016d09d72d40fdae2fd8ceac6b6234c7706214fd39c1cd1e609a0528c1993009b779b17422d0df92223018b32b4d1fa46e071723d6817e2486d003becc55f00f0c57e16840df040f15088dc2f81fe391c3923bec73e23a9662efc9c229c6a00a26469706673582212200817263bc0198d02af28b61b5108bc78b94716ecad6003d5b6b7951c67d89c2664736f6c634300081a0033",
  "linkReferences": {},
  "deployedLinkReferences": {}
}