{
  "_format": "hh-sol-artifact-1",
  "contractName": "NatirumMarketplace",
  "sourceName": "contracts/Natrium-Nft-Marketplace.sol",
  "abi": [
    {
      "inputs": [],
      "name": "InvalidInitialization",
      "type": "error"
    },
    {
      "inputs": [],
      "name": "NotInitializing",
      "type": "error"
    },
    {
      "inputs": [
        {
          "internalType": "address",
          "name": "owner",
          "type": "address"
        }
      ],
      "name": "OwnableInvalidOwner",
      "type": "error"
    },
    {
      "inputs": [
        {
          "internalType": "address",
          "name": "account",
          "type": "address"
        }
      ],
      "name": "OwnableUnauthorizedAccount",
      "type": "error"
    },
    {
      "inputs": [],
      "name": "ReentrancyGuardReentrantCall",
      "type": "error"
    },
    {
      "anonymous": false,
      "inputs": [
        {
          "indexed": false,
          "internalType": "address",
          "name": "buyer",
          "type": "address"
        },
        {
          "indexed": false,
          "internalType": "uint256",
          "name": "offerPrice",
          "type": "uint256"
        },
        {
          "indexed": false,
          "internalType": "bool",
          "name": "isCancel",
          "type": "bool"
        }
      ],
      "name": "CancelOffer",
      "type": "event"
    },
    {
      "anonymous": false,
      "inputs": [
        {
          "indexed": false,
          "internalType": "uint64",
          "name": "version",
          "type": "uint64"
        }
      ],
      "name": "Initialized",
      "type": "event"
    },
    {
      "anonymous": false,
      "inputs": [
        {
          "indexed": false,
          "internalType": "address",
          "name": "seller",
          "type": "address"
        },
        {
          "indexed": false,
          "internalType": "uint256",
          "name": "tokenID",
          "type": "uint256"
        },
        {
          "indexed": false,
          "internalType": "address",
          "name": "hostContract",
          "type": "address"
        },
        {
          "indexed": false,
          "internalType": "uint256",
          "name": "nftPrice",
          "type": "uint256"
        },
        {
          "indexed": false,
          "internalType": "bool",
          "name": "isListed",
          "type": "bool"
        }
      ],
      "name": "ListNFT",
      "type": "event"
    },
    {
      "anonymous": false,
      "inputs": [
        {
          "indexed": true,
          "internalType": "address",
          "name": "previousOwner",
          "type": "address"
        },
        {
          "indexed": true,
          "internalType": "address",
          "name": "newOwner",
          "type": "address"
        }
      ],
      "name": "OwnershipTransferred",
      "type": "event"
    },
    {
      "anonymous": false,
      "inputs": [
        {
          "indexed": false,
          "internalType": "address",
          "name": "seller",
          "type": "address"
        },
        {
          "indexed": false,
          "internalType": "uint256",
          "name": "tokenID",
          "type": "uint256"
        },
        {
          "indexed": false,
          "internalType": "address",
          "name": "hostContract",
          "type": "address"
        },
        {
          "indexed": false,
          "internalType": "bool",
          "name": "isUnlisted",
          "type": "bool"
        }
      ],
      "name": "UnListNFT",
      "type": "event"
    },
    {
      "anonymous": false,
      "inputs": [
        {
          "indexed": false,
          "internalType": "address",
          "name": "buyer",
          "type": "address"
        },
        {
          "indexed": false,
          "internalType": "uint256",
          "name": "acceptedPrice",
          "type": "uint256"
        },
        {
          "indexed": false,
          "internalType": "uint256",
          "name": "tokenId",
          "type": "uint256"
        },
        {
          "indexed": false,
          "internalType": "bool",
          "name": "isAccepted",
          "type": "bool"
        }
      ],
      "name": "acceptOffer",
      "type": "event"
    },
    {
      "anonymous": false,
      "inputs": [
        {
          "indexed": false,
          "internalType": "address",
          "name": "buyer",
          "type": "address"
        },
        {
          "indexed": false,
          "internalType": "uint256",
          "name": "tokenID",
          "type": "uint256"
        },
        {
          "indexed": false,
          "internalType": "uint256",
          "name": "paidPrice",
          "type": "uint256"
        },
        {
          "indexed": false,
          "internalType": "uint256",
          "name": "timeStamp",
          "type": "uint256"
        }
      ],
      "name": "buyNFT",
      "type": "event"
    },
    {
      "anonymous": false,
      "inputs": [
        {
          "indexed": false,
          "internalType": "address",
          "name": "buyer",
          "type": "address"
        },
        {
          "indexed": false,
          "internalType": "uint256",
          "name": "offerPrice",
          "type": "uint256"
        }
      ],
      "name": "makeOffer",
      "type": "event"
    },
    {
      "anonymous": false,
      "inputs": [
        {
          "indexed": false,
          "internalType": "address",
          "name": "admin",
          "type": "address"
        },
        {
          "indexed": false,
          "internalType": "uint8",
          "name": "serviceFee",
          "type": "uint8"
        }
      ],
      "name": "servicePercentage",
      "type": "event"
    },
    {
      "anonymous": false,
      "inputs": [
        {
          "indexed": false,
          "internalType": "address",
          "name": "seller",
          "type": "address"
        },
        {
          "indexed": false,
          "internalType": "uint256",
          "name": "nftPrice",
          "type": "uint256"
        },
        {
          "indexed": false,
          "internalType": "uint256",
          "name": "timeStamp",
          "type": "uint256"
        }
      ],
      "name": "transferNftPrice",
      "type": "event"
    },
    {
      "anonymous": false,
      "inputs": [
        {
          "indexed": false,
          "internalType": "address",
          "name": "owner",
          "type": "address"
        },
        {
          "indexed": false,
          "internalType": "uint256",
          "name": "serviceFees",
          "type": "uint256"
        }
      ],
      "name": "transferServiceFees",
      "type": "event"
    },
    {
      "inputs": [
        {
          "internalType": "uint256",
          "name": "_tokenId",
          "type": "uint256"
        },
        {
          "internalType": "address",
          "name": "_buyer",
          "type": "address"
        }
      ],
      "name": "acceptOffers",
      "outputs": [],
      "stateMutability": "nonpayable",
      "type": "function"
    },
    {
      "inputs": [
        {
          "internalType": "uint256",
          "name": "_tokenId",
          "type": "uint256"
        },
        {
          "internalType": "address",
          "name": "_seller",
          "type": "address"
        },
        {
          "internalType": "address",
          "name": "_hostContract",
          "type": "address"
        }
      ],
      "name": "buyNft",
      "outputs": [],
      "stateMutability": "payable",
      "type": "function"
    },
    {
      "inputs": [
        {
          "internalType": "uint256",
          "name": "_tokenId",
          "type": "uint256"
        }
      ],
      "name": "cancelOffer",
      "outputs": [],
      "stateMutability": "nonpayable",
      "type": "function"
    },
    {
      "inputs": [
        {
          "internalType": "address",
          "name": "user",
          "type": "address"
        }
      ],
      "name": "checkBalance",
      "outputs": [
        {
          "internalType": "uint256",
          "name": "",
          "type": "uint256"
        }
      ],
      "stateMutability": "view",
      "type": "function"
    },
    {
      "inputs": [],
      "name": "contractOwner",
      "outputs": [
        {
          "internalType": "address",
          "name": "",
          "type": "address"
        }
      ],
      "stateMutability": "view",
      "type": "function"
    },
    {
      "inputs": [
        {
          "internalType": "uint256",
          "name": "_tokenId",
          "type": "uint256"
        },
        {
          "internalType": "uint256",
          "name": "_offerPrice",
          "type": "uint256"
        },
        {
          "internalType": "uint256",
          "name": "_offerExpiry",
          "type": "uint256"
        },
        {
          "internalType": "address",
          "name": "_seller",
          "type": "address"
        }
      ],
      "name": "createOffer",
      "outputs": [],
      "stateMutability": "payable",
      "type": "function"
    },
    {
      "inputs": [],
      "name": "currentOffer",
      "outputs": [
        {
          "internalType": "enum NatirumMarketplace.Offer",
          "name": "",
          "type": "uint8"
        }
      ],
      "stateMutability": "view",
      "type": "function"
    },
    {
      "inputs": [
        {
          "internalType": "uint256",
          "name": "_tokenId",
          "type": "uint256"
        }
      ],
      "name": "getNftDetails",
      "outputs": [
        {
          "components": [
            {
              "internalType": "address",
              "name": "seller",
              "type": "address"
            },
            {
              "internalType": "uint256",
              "name": "tokenID",
              "type": "uint256"
            },
            {
              "internalType": "address",
              "name": "hostContract",
              "type": "address"
            },
            {
              "internalType": "uint256",
              "name": "nftPrice",
              "type": "uint256"
            },
            {
              "internalType": "bool",
              "name": "isListed",
              "type": "bool"
            }
          ],
          "internalType": "struct NatirumMarketplace.NftDetails",
          "name": "",
          "type": "tuple"
        }
      ],
      "stateMutability": "view",
      "type": "function"
    },
    {
      "inputs": [
        {
          "internalType": "address",
          "name": "_buyer",
          "type": "address"
        }
      ],
      "name": "getOfferDetails",
      "outputs": [
        {
          "components": [
            {
              "internalType": "address",
              "name": "buyer",
              "type": "address"
            },
            {
              "internalType": "uint256",
              "name": "tokenID",
              "type": "uint256"
            },
            {
              "internalType": "uint256",
              "name": "offerPrice",
              "type": "uint256"
            },
            {
              "internalType": "uint256",
              "name": "offerExpire",
              "type": "uint256"
            },
            {
              "internalType": "enum NatirumMarketplace.Offer",
              "name": "currentOffer",
              "type": "uint8"
            }
          ],
          "internalType": "struct NatirumMarketplace.OfferDetails",
          "name": "",
          "type": "tuple"
        }
      ],
      "stateMutability": "view",
      "type": "function"
    },
    {
      "inputs": [],
      "name": "initialize",
      "outputs": [],
      "stateMutability": "nonpayable",
      "type": "function"
    },
    {
      "inputs": [
        {
          "internalType": "uint256",
          "name": "_tokenId",
          "type": "uint256"
        },
        {
          "internalType": "uint256",
          "name": "_price",
          "type": "uint256"
        },
        {
          "internalType": "address",
          "name": "_hostContract",
          "type": "address"
        }
      ],
      "name": "listNft",
      "outputs": [],
      "stateMutability": "nonpayable",
      "type": "function"
    },
    {
      "inputs": [
        {
          "internalType": "address",
          "name": "",
          "type": "address"
        },
        {
          "internalType": "uint256",
          "name": "",
          "type": "uint256"
        }
      ],
      "name": "nftInfo",
      "outputs": [
        {
          "internalType": "address",
          "name": "seller",
          "type": "address"
        },
        {
          "internalType": "uint256",
          "name": "tokenID",
          "type": "uint256"
        },
        {
          "internalType": "address",
          "name": "hostContract",
          "type": "address"
        },
        {
          "internalType": "uint256",
          "name": "nftPrice",
          "type": "uint256"
        },
        {
          "internalType": "bool",
          "name": "isListed",
          "type": "bool"
        }
      ],
      "stateMutability": "view",
      "type": "function"
    },
    {
      "inputs": [
        {
          "internalType": "address",
          "name": "",
          "type": "address"
        }
      ],
      "name": "offererInfo",
      "outputs": [
        {
          "internalType": "address",
          "name": "buyer",
          "type": "address"
        },
        {
          "internalType": "uint256",
          "name": "tokenID",
          "type": "uint256"
        },
        {
          "internalType": "uint256",
          "name": "offerPrice",
          "type": "uint256"
        },
        {
          "internalType": "uint256",
          "name": "offerExpire",
          "type": "uint256"
        },
        {
          "internalType": "enum NatirumMarketplace.Offer",
          "name": "currentOffer",
          "type": "uint8"
        }
      ],
      "stateMutability": "view",
      "type": "function"
    },
    {
      "inputs": [
        {
          "internalType": "address",
          "name": "",
          "type": "address"
        },
        {
          "internalType": "address",
          "name": "",
          "type": "address"
        },
        {
          "internalType": "uint256",
          "name": "",
          "type": "uint256"
        },
        {
          "internalType": "bytes",
          "name": "",
          "type": "bytes"
        }
      ],
      "name": "onERC721Received",
      "outputs": [
        {
          "internalType": "bytes4",
          "name": "",
          "type": "bytes4"
        }
      ],
      "stateMutability": "nonpayable",
      "type": "function"
    },
    {
      "inputs": [],
      "name": "owner",
      "outputs": [
        {
          "internalType": "address",
          "name": "",
          "type": "address"
        }
      ],
      "stateMutability": "view",
      "type": "function"
    },
    {
      "inputs": [
        {
          "internalType": "uint256",
          "name": "_tokenId",
          "type": "uint256"
        },
        {
          "internalType": "address",
          "name": "_buyer",
          "type": "address"
        }
      ],
      "name": "rejectOffer",
      "outputs": [],
      "stateMutability": "nonpayable",
      "type": "function"
    },
    {
      "inputs": [],
      "name": "renounceOwnership",
      "outputs": [],
      "stateMutability": "nonpayable",
      "type": "function"
    },
    {
      "inputs": [
        {
          "internalType": "uint8",
          "name": "_serviceFees",
          "type": "uint8"
        }
      ],
      "name": "setServiceFees",
      "outputs": [],
      "stateMutability": "nonpayable",
      "type": "function"
    },
    {
      "inputs": [
        {
          "internalType": "address",
          "name": "newOwner",
          "type": "address"
        }
      ],
      "name": "transferOwnership",
      "outputs": [],
      "stateMutability": "nonpayable",
      "type": "function"
    },
    {
      "inputs": [
        {
          "internalType": "uint256",
          "name": "_tokenId",
          "type": "uint256"
        }
      ],
      "name": "unListNft",
      "outputs": [],
      "stateMutability": "nonpayable",
      "type": "function"
    }
  ],
  "bytecode": "0x6080604052348015600f57600080fd5b506122e68061001f6000396000f3fe60806040526004361061011f5760003560e01c8063aa4b27a8116100a0578063ef706adf11610064578063ef706adf146104aa578063f24639c6146104ca578063f2fde38b146104ea578063f6ae72e81461050a578063fa4e28f61461057257600080fd5b8063aa4b27a814610322578063ab67b2361461034f578063ce606ee01461036f578063db9371c21461038f578063e85cd748146103af57600080fd5b8063715018a6116100e7578063715018a61461027457806372a43b9c146102895780637cde12021461029c5780638129fc1c146102bc5780638da5cb5b146102d157600080fd5b8063150b7a02146101245780631d62fa051461016d57806340e250d3146102095780634370fb341461022b5780635f5152261461023e575b600080fd5b34801561013057600080fd5b5061014f61013f366004611ef1565b630a85bd0160e11b949350505050565b6040516001600160e01b031990911681526020015b60405180910390f35b34801561017957600080fd5b506101d0610188366004611fd9565b60016020818152600093845260408085209091529183529120805491810154600282015460038301546004909301546001600160a01b03948516949293919092169160ff1685565b604080516001600160a01b039687168152602081019590955292909416918301919091526060820152901515608082015260a001610164565b34801561021557600080fd5b50610229610224366004612005565b6105a0565b005b61022961023936600461203e565b610808565b34801561024a57600080fd5b5061026661025936600461207f565b6001600160a01b03163190565b604051908152602001610164565b34801561028057600080fd5b50610229610a44565b6102296102973660046120a3565b610a58565b3480156102a857600080fd5b506102296102b73660046120da565b610c83565b3480156102c857600080fd5b50610229610fd4565b3480156102dd57600080fd5b507f9016d09d72d40fdae2fd8ceac6b6234c7706214fd39c1cd1e609a0528c199300546001600160a01b03165b6040516001600160a01b039091168152602001610164565b34801561032e57600080fd5b5061034261033d36600461207f565b6110f4565b6040516101649190612142565b34801561035b57600080fd5b5061022961036a36600461218b565b611182565b34801561037b57600080fd5b5060005461030a906001600160a01b031681565b34801561039b57600080fd5b506102296103aa3660046120da565b6112d9565b3480156103bb57600080fd5b506104606103ca36600461218b565b6040805160a0810182526000808252602082018190529181018290526060810182905260808101919091525033600090815260016020818152604080842094845293815291839020835160a08101855281546001600160a01b03908116825292820154938101939093526002810154909116928201929092526003820154606082015260049091015460ff161515608082015290565b6040805182516001600160a01b039081168252602080850151908301528383015116918101919091526060808301519082015260809182015115159181019190915260a001610164565b3480156104b657600080fd5b506102296104c536600461218b565b6115e5565b3480156104d657600080fd5b506102296104e53660046121a4565b611854565b3480156104f657600080fd5b5061022961050536600461207f565b61190d565b34801561051657600080fd5b5061056161052536600461207f565b6002602081905260009182526040909120805460018201549282015460038301546004909301546001600160a01b039092169392909160ff1685565b6040516101649594939291906121c7565b34801561057e57600080fd5b5060005461059390600160a01b900460ff1681565b6040516101649190612203565b6105a8611948565b3360009081526001602090815260408083208684529091529020600481015482919060ff16156106105760405162461bcd60e51b815260206004820152600e60248201526d105b1c9958591e48131a5cdd195960921b60448201526064015b60405180910390fd5b6040516331a9108f60e11b81526004810186905233906001600160a01b03841690636352211e90602401602060405180830381865afa158015610657573d6000803e3d6000fd5b505050506040513d601f19601f8201168201806040525081019061067b9190612211565b6001600160a01b0316146106db5760405162461bcd60e51b815260206004820152602160248201527f596f7520617265206e6f7420746865206f776e6572206f662074686973204e666044820152601d60fa1b6064820152608401610607565b6002810180546001600160a01b038581166001600160a01b0319928316179092558254163390811783556003830186905560018084018890556004808501805460ff1916909217909155604051632142170760e11b81529081019190915230602482015260448101879052908316906342842e0e90606401600060405180830381600087803b15801561076d57600080fd5b505af1158015610781573d6000803e3d6000fd5b50505050600181015460048201546040805133815260208101939093526001600160a01b038616908301526060820186905260ff16151560808201527fa704c2f7861cb3e3fe5f14f2130761e59fbecf01cb35680cc00620ca3c02c16f9060a00160405180910390a15050610803600160008051602061229183398151915255565b505050565b610810611948565b6001600160a01b0380821660009081526001602081815260408084208985528252808420815160a08101835281548716815293810154848401908152600280830154909716858401526003820154606086015260049091015460ff161515608085015233855294909152909120915190919086146108d05760405162461bcd60e51b815260206004820152601860248201527f5468697320746f6b656e206973206e6f74204c697374656400000000000000006044820152606401610607565b826001600160a01b031682600001516001600160a01b0316146109275760405162461bcd60e51b815260206004820152600f60248201526e496e56616c6964204164647265737360881b6044820152606401610607565b4284116109635760405162461bcd60e51b815260206004820152600a6024820152692a34b6b29022b93937b960b11b6044820152606401610607565b8434146109a35760405162461bcd60e51b815260206004820152600e60248201526d125b9d985b1a5908185b5bdd5b9d60921b6044820152606401610607565b80546001600160a01b03191633178155600281018590556003810184905560018101869055600060048201805460ff191660018360028111156109e8576109e861210a565b0217905550604080513381523460208201527fb2a4706eb30fbca70b94141708a50a456d89844927f443dadcde61e3920ab6af910160405180910390a15050610a3e600160008051602061229183398151915255565b50505050565b610a4c611994565b610a5660006119ef565b565b610a60611948565b6001600160a01b038216600090815260016020818152604080842087855290915290912001548314610ac75760405162461bcd60e51b815260206004820152601060248201526f125b9d985b1a5908151bdad95b88125160821b6044820152606401610607565b6001600160a01b03808316600081815260016020908152604080832088845290915290205490911614610b2d5760405162461bcd60e51b815260206004820152600e60248201526d24b72b30b634b21029b2b63632b960911b6044820152606401610607565b6001600160a01b03821660009081526001602090815260408083208684529091529020600301543414610b985760405162461bcd60e51b8152602060048201526013602482015272125b94dd59999a58da595b9d08105b5bdd5b9d606a1b6044820152606401610607565b6001600160a01b0382166000908152600160209081526040808320868452909152902060030154610bcf9084903390849086611a60565b6040805133815260208101859052348183015242606082015290517fa8c8c76dcbc214f2bf1ff14e46e52c719da6477410ad492c29eb45fd05acb6249181900360800190a16001600160a01b0382166000908152600160208181526040808420878552909152822080546001600160a01b031990811682559181018390556002810180549092169091556003810191909155600401805460ff19169055610803600160008051602061229183398151915255565b610c8b611948565b3360009081526001602081815260408084208685528252808420815160a0808201845282546001600160a01b039081168352838701548387015260028085015482168487015260038086015460608087019190915260049687015460ff90811615156080808901919091528d86168d52848b52898d208a519788018b52805490961687529a850154998601999099528383015497850197909752820154958301959095529283015491969590949293908501929190911690811115610d5257610d5261210a565b6002811115610d6357610d6361210a565b90525082519091506001600160a01b03163314610dc25760405162461bcd60e51b815260206004820181905260248201527f4f6e6c792053656c6c65722063616e2061636365707420746865206f666665726044820152606401610607565b6000816040015111610e075760405162461bcd60e51b815260206004820152600e60248201526d13d999995c881c995a9958dd195960921b6044820152606401610607565b80606001514210610e4a5760405162461bcd60e51b815260206004820152600d60248201526c13d999995c88115e1c1a5c9959609a1b6044820152606401610607565b83816020015114610e975760405162461bcd60e51b81526020600482015260176024820152762a3434b9903a37b5b2b7103430b99037379037b33332b960491b6044820152606401610607565b6001600160a01b038316600090815260026020526040902060040180546001919060ff191682800217905550610ed884848460400151846040015133611a60565b60408082015181516001600160a01b03861681526020810191909152908101859052600160608201527f2b0295c6245bbde9b0128fbea0ea5fe173b82a59a739f77c5fc7deba224dbffc9060800160405180910390a15050336000908152600160208181526040808420868552825280842080546001600160a01b03199081168255818501869055600280830180548316905560038084018890556004938401805460ff199081169091556001600160a01b038a168952958290529387208054909216825594810186905593840185905590830193909355910180549091169055610fd0600160008051602061229183398151915255565b5050565b7ff0c57e16840df040f15088dc2f81fe391c3923bec73e23a9662efc9c229c6a008054600160401b810460ff16159067ffffffffffffffff1660008115801561101a5750825b905060008267ffffffffffffffff1660011480156110375750303b155b905081158015611045575080155b156110635760405163f92ee8a960e01b815260040160405180910390fd5b845467ffffffffffffffff19166001178555831561108d57845460ff60401b1916600160401b1785555b61109633611ae4565b61109e611af5565b6110a6611b05565b83156110ed57845460ff60401b19168555604051600181527fc7f505b2f371ae2175ee4913f4499e1f2633a7b5936321eed1cdaeb6115181d2906020015b60405180910390a15b5050505050565b6110fc611e7e565b6001600160a01b03808316600090815260026020818152604092839020835160a081018552815490951685526001810154918501919091528082015492840192909252600382015460608401526004820154608084019160ff909116908111156111685761116861210a565b60028111156111795761117961210a565b90525092915050565b61118a611948565b3360008181526001602090815260408083208584529091529020546001600160a01b0316146112065760405162461bcd60e51b815260206004820152602260248201527f4f6e6c792053656c6c65722063616e20756e4c69737420686973206f776e204e604482015261199d60f21b6064820152608401610607565b33600090815260016020908152604080832084845290915290206004015460ff166112675760405162461bcd60e51b815260206004820152601160248201527013999d081a5cc81b9bdd08131a5cdd1959607a1b6044820152606401610607565b61127081611b2b565b336000908152600160208181526040808420858552909152822080546001600160a01b031990811682559181018390556002810180549092169091556003810191909155600401805460ff191690556112d6600160008051602061229183398151915255565b50565b6112e1611948565b6001600160a01b038082166000908152600260208181526040808420815160a0810183528154909616865260018101549286019290925281830154908501526003810154606085015260048101549293929091608084019160ff169081111561134c5761134c61210a565b600281111561135d5761135d61210a565b905250336000908152600160208181526040808420888552825292839020835160a08101855281546001600160a01b03908116825293820154928101929092526002810154909216818401526003820154606082015260049091015460ff161515608082015290820151919250906114235760405162461bcd60e51b815260206004820152602360248201527f4e6f204f6666657220686173207265636569766564206f6e207468697320746f60448201526235b2b760e91b6064820152608401610607565b826001600160a01b031682600001516001600160a01b0316146114805760405162461bcd60e51b8152602060048201526015602482015274496e56616c6964204275796572204164647265737360581b6044820152606401610607565b80516001600160a01b031633146114e35760405162461bcd60e51b815260206004820152602160248201527f4f6e6c792053656c6c65722063616e2072656a6563742074686973206f6666656044820152603960f91b6064820152608401610607565b838260200151146115295760405162461bcd60e51b815260206004820152601060248201526f125b95985b1a59081d1bdad95b88125960821b6044820152606401610607565b6001600160a01b038381166000908152600260208190526040808320600401805460ff191690921790915584518582015191519316926108fc82150292818181858888f19350505050158015611583573d6000803e3d6000fd5b5050506001600160a01b0381166000908152600260208190526040822080546001600160a01b0319168155600181018390559081018290556003810191909155600401805460ff19169055610fd0600160008051602061229183398151915255565b6115ed611948565b336000908152600260208181526040808420815160a08101835281546001600160a01b03168152600182015493810193909352808401549183019190915260038101546060830152600481015491929091608084019160ff909116908111156116585761165861210a565b60028111156116695761166961210a565b815250509050818160200151146116bc5760405162461bcd60e51b81526020600482015260176024820152762a3434b9903a37b5b2b7103430b99037379037b33332b960491b6044820152606401610607565b60008160400151116117105760405162461bcd60e51b815260206004820152601a60248201527f4572726f723a204f666665722063616e6e6f742043616e63656c0000000000006044820152606401610607565b80516001600160a01b0316331461177a5760405162461bcd60e51b815260206004820152602860248201527f4f6e6c79204f6666657220706c6163656420757365722063616e63656c20746860448201526734b99037b33332b960c11b6064820152608401610607565b805160408083015190516001600160a01b039092169181156108fc0291906000818181858888f193505050501580156117b7573d6000803e3d6000fd5b506040818101518151338152602081019190915260018183015290517fc84881cb17babe3d0cb1eed4d780ad627be071894011b3b4d1bde2689f7fa7b29181900360600190a150336000908152600260208190526040822080546001600160a01b0319168155600181018390559081018290556003810191909155600401805460ff191690556112d6600160008051602061229183398151915255565b61185c611994565b60008160ff16116118be5760405162461bcd60e51b815260206004820152602660248201527f536572766963652046656573206d7573742062652067726561746572207468616044820152656e207a65726f60d01b6064820152608401610607565b6003805460ff191660ff83169081179091556040805133815260208101929092527ffc893db7ca6eb178a7bd93cdeb99ea5fa6570d124b4f04b50f9a727e21cc9102910160405180910390a150565b611915611994565b6001600160a01b03811661193f57604051631e4fbdf760e01b815260006004820152602401610607565b6112d6816119ef565b60008051602061229183398151915280546001190161197a57604051633ee5aeb560e01b815260040160405180910390fd5b60029055565b600160008051602061229183398151915255565b336119c67f9016d09d72d40fdae2fd8ceac6b6234c7706214fd39c1cd1e609a0528c199300546001600160a01b031690565b6001600160a01b031614610a565760405163118cdaa760e01b8152336004820152602401610607565b7f9016d09d72d40fdae2fd8ceac6b6234c7706214fd39c1cd1e609a0528c19930080546001600160a01b031981166001600160a01b03848116918217845560405192169182907f8be0079c531659141344cd1fd0a4f28419497f9722a3daafe3b4186f6b6457e090600090a3505050565b6003548390611a7490849060ff1684611c31565b604051632142170760e11b81523060048201526001600160a01b038681166024830152604482018890528216906342842e0e90606401600060405180830381600087803b158015611ac457600080fd5b505af1158015611ad8573d6000803e3d6000fd5b50505050505050505050565b611aec611d2c565b6112d681611d75565b611afd611d2c565b610a56611d7d565b611b0d611d2c565b600080546001600160a01b03191633908117909155610a5690611ae4565b33600090815260016020908152604080832084845290915290819020600281015490549151632142170760e11b81523060048201526001600160a01b03928316602482015260448101849052911690819081906342842e0e90606401600060405180830381600087803b158015611ba157600080fd5b505af1158015611bb5573d6000803e3d6000fd5b5050336000908152600160208181526040808420898552825292839020805460029091015484516001600160a01b0392831681529283018a9052169281019290925260608201527f62a8c32d7e607200e5e6c5986d2407a01f983fe1af6d31899fb1e32c6fd1f2c29250608001905060405180910390a1505050565b60008260ff1611611c905760405162461bcd60e51b8152602060048201526024808201527f4d61726b6574506c616365206e6f742073657420736572766963652066656573604482015263081e595d60e21b6064820152608401610607565b826000611c9d8285611d85565b9050611ca98183612244565b6040519092506001600160a01b0384169083156108fc029084906000818181858888f19350505050158015611ce2573d6000803e3d6000fd5b50604080516001600160a01b03851681526020810184905242918101919091527ff474f1647716b20d13fea8c36a785eabe9a98725dd210a911b9e0fc1508a6af4906060016110e4565b7ff0c57e16840df040f15088dc2f81fe391c3923bec73e23a9662efc9c229c6a0054600160401b900460ff16610a5657604051631afcd79f60e31b815260040160405180910390fd5b611915611d2c565b611980611d2c565b6000806064611d9760ff851686612257565b611da1919061226e565b6000549091506001600160a01b0316611df55760405162461bcd60e51b815260206004820152601660248201527510dbdb9d1c9858dd081bdddb995c881b9bdd081cd95d60521b6044820152606401610607565b600080546040516001600160a01b039091169183156108fc02918491818181858888f19350505050158015611e2e573d6000803e3d6000fd5b50600054604080516001600160a01b039092168252602082018390527f56a87afabcc5be804fc847379d1f4e3408f49b3016cc7dcea295265f59a0bd57910160405180910390a190505b92915050565b6040518060a0016040528060006001600160a01b0316815260200160008152602001600081526020016000815260200160006002811115611ec157611ec161210a565b905290565b6001600160a01b03811681146112d657600080fd5b634e487b7160e01b600052604160045260246000fd5b60008060008060808587031215611f0757600080fd5b8435611f1281611ec6565b93506020850135611f2281611ec6565b925060408501359150606085013567ffffffffffffffff811115611f4557600080fd5b8501601f81018713611f5657600080fd5b803567ffffffffffffffff811115611f7057611f70611edb565b604051601f8201601f19908116603f0116810167ffffffffffffffff81118282101715611f9f57611f9f611edb565b604052818152828201602001891015611fb757600080fd5b8160208401602083013760006020838301015280935050505092959194509250565b60008060408385031215611fec57600080fd5b8235611ff781611ec6565b946020939093013593505050565b60008060006060848603121561201a57600080fd5b8335925060208401359150604084013561203381611ec6565b809150509250925092565b6000806000806080858703121561205457600080fd5b843593506020850135925060408501359150606085013561207481611ec6565b939692955090935050565b60006020828403121561209157600080fd5b813561209c81611ec6565b9392505050565b6000806000606084860312156120b857600080fd5b8335925060208401356120ca81611ec6565b9150604084013561203381611ec6565b600080604083850312156120ed57600080fd5b8235915060208301356120ff81611ec6565b809150509250929050565b634e487b7160e01b600052602160045260246000fd5b6003811061213e57634e487b7160e01b600052602160045260246000fd5b9052565b81516001600160a01b0316815260208083015190820152604080830151908201526060808301519082015260808083015160a083019161218490840182612120565b5092915050565b60006020828403121561219d57600080fd5b5035919050565b6000602082840312156121b657600080fd5b813560ff8116811461209c57600080fd5b6001600160a01b038616815260208101859052604081018490526060810183905260a081016121f96080830184612120565b9695505050505050565b60208101611e788284612120565b60006020828403121561222357600080fd5b815161209c81611ec6565b634e487b7160e01b600052601160045260246000fd5b81810381811115611e7857611e7861222e565b8082028115828204841417611e7857611e7861222e565b60008261228b57634e487b7160e01b600052601260045260246000fd5b50049056fe9b779b17422d0df92223018b32b4d1fa46e071723d6817e2486d003becc55f00a2646970667358221220b5328ae1c4f0d244a9e45400e95aaabd0d0cea22d5a6501d48774b00f4ddeaef64736f6c634300081a0033",
  "linkReferences": {},
  "deployedLinkReferences": {}
}