{
  "_format": "hh-sol-artifact-1",
  "contractName": "NatirumMarketplace",
  "sourceName": "contracts/Natrium-Nft-Marketplace.sol",
  "abi": [
    {
      "inputs": [],
      "name": "InvalidInitialization",
      "type": "error"
    },
    {
      "inputs": [],
      "name": "NotInitializing",
      "type": "error"
    },
    {
      "inputs": [
        {
          "internalType": "address",
          "name": "owner",
          "type": "address"
        }
      ],
      "name": "OwnableInvalidOwner",
      "type": "error"
    },
    {
      "inputs": [
        {
          "internalType": "address",
          "name": "account",
          "type": "address"
        }
      ],
      "name": "OwnableUnauthorizedAccount",
      "type": "error"
    },
    {
      "inputs": [],
      "name": "ReentrancyGuardReentrantCall",
      "type": "error"
    },
    {
      "anonymous": false,
      "inputs": [
        {
          "indexed": false,
          "internalType": "address",
          "name": "owner",
          "type": "address"
        },
        {
          "indexed": false,
          "internalType": "uint256",
          "name": "tokenID",
          "type": "uint256"
        },
        {
          "indexed": false,
          "internalType": "string",
          "name": "tokenUri",
          "type": "string"
        },
        {
          "indexed": false,
          "internalType": "string",
          "name": "CollectionUri",
          "type": "string"
        },
        {
          "indexed": false,
          "internalType": "string",
          "name": "TicketType",
          "type": "string"
        },
        {
          "indexed": false,
          "internalType": "uint256[]",
          "name": "previousPrice",
          "type": "uint256[]"
        },
        {
          "indexed": false,
          "internalType": "uint256",
          "name": "currentPrice",
          "type": "uint256"
        },
        {
          "indexed": false,
          "internalType": "uint256",
          "name": "NftExpire",
          "type": "uint256"
        },
        {
          "indexed": false,
          "internalType": "uint256[]",
          "name": "timestamps",
          "type": "uint256[]"
        }
      ],
      "name": "GetNft",
      "type": "event"
    },
    {
      "anonymous": false,
      "inputs": [
        {
          "indexed": false,
          "internalType": "uint64",
          "name": "version",
          "type": "uint64"
        }
      ],
      "name": "Initialized",
      "type": "event"
    },
    {
      "anonymous": false,
      "inputs": [
        {
          "indexed": false,
          "internalType": "address",
          "name": "seller",
          "type": "address"
        },
        {
          "indexed": false,
          "internalType": "uint256[]",
          "name": "tokenID",
          "type": "uint256[]"
        },
        {
          "indexed": false,
          "internalType": "string[]",
          "name": "TicketType",
          "type": "string[]"
        },
        {
          "indexed": false,
          "internalType": "string[]",
          "name": "tokenUri",
          "type": "string[]"
        },
        {
          "indexed": false,
          "internalType": "address",
          "name": "hostContract",
          "type": "address"
        },
        {
          "indexed": false,
          "internalType": "uint256[]",
          "name": "nftPrice",
          "type": "uint256[]"
        },
        {
          "indexed": false,
          "internalType": "uint256[]",
          "name": "Expiration",
          "type": "uint256[]"
        }
      ],
      "name": "ListNFT",
      "type": "event"
    },
    {
      "anonymous": false,
      "inputs": [
        {
          "indexed": true,
          "internalType": "address",
          "name": "previousOwner",
          "type": "address"
        },
        {
          "indexed": true,
          "internalType": "address",
          "name": "newOwner",
          "type": "address"
        }
      ],
      "name": "OwnershipTransferred",
      "type": "event"
    },
    {
      "anonymous": false,
      "inputs": [
        {
          "indexed": false,
          "internalType": "address",
          "name": "buyer",
          "type": "address"
        },
        {
          "indexed": false,
          "internalType": "uint256",
          "name": "offerPrice",
          "type": "uint256"
        },
        {
          "indexed": false,
          "internalType": "bool",
          "name": "isRejected",
          "type": "bool"
        }
      ],
      "name": "RejectOffer",
      "type": "event"
    },
    {
      "anonymous": false,
      "inputs": [
        {
          "indexed": false,
          "internalType": "address",
          "name": "admin",
          "type": "address"
        },
        {
          "indexed": false,
          "internalType": "uint8",
          "name": "serviceFee",
          "type": "uint8"
        }
      ],
      "name": "ServiceFees",
      "type": "event"
    },
    {
      "anonymous": false,
      "inputs": [
        {
          "indexed": true,
          "internalType": "address[]",
          "name": "from",
          "type": "address[]"
        },
        {
          "indexed": true,
          "internalType": "address[]",
          "name": "to",
          "type": "address[]"
        },
        {
          "indexed": false,
          "internalType": "uint256[]",
          "name": "tokenID",
          "type": "uint256[]"
        },
        {
          "indexed": false,
          "internalType": "uint256[]",
          "name": "paidPrice",
          "type": "uint256[]"
        },
        {
          "indexed": false,
          "internalType": "uint256[]",
          "name": "timeStamp",
          "type": "uint256[]"
        }
      ],
      "name": "TransferNft",
      "type": "event"
    },
    {
      "anonymous": false,
      "inputs": [
        {
          "indexed": false,
          "internalType": "address",
          "name": "seller",
          "type": "address"
        },
        {
          "indexed": false,
          "internalType": "uint256",
          "name": "tokenID",
          "type": "uint256"
        },
        {
          "indexed": false,
          "internalType": "address",
          "name": "hostContract",
          "type": "address"
        },
        {
          "indexed": false,
          "internalType": "bool",
          "name": "isUnlisted",
          "type": "bool"
        }
      ],
      "name": "UnListNFT",
      "type": "event"
    },
    {
      "anonymous": false,
      "inputs": [
        {
          "indexed": true,
          "internalType": "address[]",
          "name": "from",
          "type": "address[]"
        },
        {
          "indexed": true,
          "internalType": "address[]",
          "name": "to",
          "type": "address[]"
        },
        {
          "indexed": false,
          "internalType": "uint256[]",
          "name": "acceptedPrice",
          "type": "uint256[]"
        },
        {
          "indexed": false,
          "internalType": "uint256[]",
          "name": "tokenId",
          "type": "uint256[]"
        },
        {
          "indexed": false,
          "internalType": "uint256[]",
          "name": "timeStamps",
          "type": "uint256[]"
        }
      ],
      "name": "acceptOffer",
      "type": "event"
    },
    {
      "anonymous": false,
      "inputs": [
        {
          "indexed": false,
          "internalType": "address",
          "name": "buyer",
          "type": "address"
        },
        {
          "indexed": false,
          "internalType": "uint256",
          "name": "offerPrice",
          "type": "uint256"
        },
        {
          "indexed": false,
          "internalType": "uint256",
          "name": "tokenId",
          "type": "uint256"
        }
      ],
      "name": "makeOffer",
      "type": "event"
    },
    {
      "anonymous": false,
      "inputs": [
        {
          "indexed": false,
          "internalType": "address",
          "name": "seller",
          "type": "address"
        },
        {
          "indexed": false,
          "internalType": "uint256",
          "name": "nftPrice",
          "type": "uint256"
        },
        {
          "indexed": false,
          "internalType": "uint256",
          "name": "timeStamp",
          "type": "uint256"
        }
      ],
      "name": "transferNftPrice",
      "type": "event"
    },
    {
      "anonymous": false,
      "inputs": [
        {
          "indexed": false,
          "internalType": "address",
          "name": "owner",
          "type": "address"
        },
        {
          "indexed": false,
          "internalType": "uint256",
          "name": "serviceFees",
          "type": "uint256"
        }
      ],
      "name": "transferServiceFees",
      "type": "event"
    },
    {
      "anonymous": false,
      "inputs": [
        {
          "indexed": false,
          "internalType": "address",
          "name": "buyer",
          "type": "address"
        },
        {
          "indexed": false,
          "internalType": "uint256",
          "name": "amount",
          "type": "uint256"
        },
        {
          "indexed": false,
          "internalType": "uint256",
          "name": "timeStamp",
          "type": "uint256"
        }
      ],
      "name": "withdraw",
      "type": "event"
    },
    {
      "inputs": [
        {
          "internalType": "uint256",
          "name": "_tokenId",
          "type": "uint256"
        },
        {
          "internalType": "address",
          "name": "_buyer",
          "type": "address"
        },
        {
          "internalType": "address",
          "name": "hostContract",
          "type": "address"
        }
      ],
      "name": "acceptOffers",
      "outputs": [],
      "stateMutability": "nonpayable",
      "type": "function"
    },
    {
      "inputs": [
        {
          "internalType": "uint256",
          "name": "_tokenId",
          "type": "uint256"
        },
        {
          "internalType": "address",
          "name": "hostContract",
          "type": "address"
        }
      ],
      "name": "buyNft",
      "outputs": [],
      "stateMutability": "payable",
      "type": "function"
    },
    {
      "inputs": [],
      "name": "contractOwner",
      "outputs": [
        {
          "internalType": "address",
          "name": "",
          "type": "address"
        }
      ],
      "stateMutability": "view",
      "type": "function"
    },
    {
      "inputs": [
        {
          "internalType": "uint256",
          "name": "_tokenId",
          "type": "uint256"
        },
        {
          "internalType": "address",
          "name": "hostContract",
          "type": "address"
        },
        {
          "internalType": "uint256",
          "name": "_offerPrice",
          "type": "uint256"
        },
        {
          "internalType": "uint256",
          "name": "_offerExpiry",
          "type": "uint256"
        }
      ],
      "name": "createOffer",
      "outputs": [],
      "stateMutability": "payable",
      "type": "function"
    },
    {
      "inputs": [
        {
          "internalType": "uint256",
          "name": "_tokenId",
          "type": "uint256"
        }
      ],
      "name": "getOfferDetails",
      "outputs": [
        {
          "components": [
            {
              "internalType": "address",
              "name": "buyer",
              "type": "address"
            },
            {
              "internalType": "uint256",
              "name": "tokenID",
              "type": "uint256"
            },
            {
              "internalType": "uint256",
              "name": "offerPrice",
              "type": "uint256"
            },
            {
              "internalType": "uint256",
              "name": "offerExpire",
              "type": "uint256"
            },
            {
              "internalType": "bool",
              "name": "offerPlaced",
              "type": "bool"
            }
          ],
          "internalType": "struct NatirumMarketplace.OfferDetails",
          "name": "",
          "type": "tuple"
        }
      ],
      "stateMutability": "view",
      "type": "function"
    },
    {
      "inputs": [],
      "name": "initialize",
      "outputs": [],
      "stateMutability": "nonpayable",
      "type": "function"
    },
    {
      "inputs": [
        {
          "internalType": "uint256",
          "name": "_tokenId",
          "type": "uint256"
        },
        {
          "internalType": "uint256",
          "name": "_price",
          "type": "uint256"
        },
        {
          "internalType": "uint256",
          "name": "_NftExpiration",
          "type": "uint256"
        },
        {
          "internalType": "address",
          "name": "_hostContract",
          "type": "address"
        }
      ],
      "name": "listNft",
      "outputs": [],
      "stateMutability": "nonpayable",
      "type": "function"
    },
    {
      "inputs": [
        {
          "internalType": "address",
          "name": "",
          "type": "address"
        },
        {
          "internalType": "address",
          "name": "",
          "type": "address"
        },
        {
          "internalType": "uint256",
          "name": "",
          "type": "uint256"
        },
        {
          "internalType": "bytes",
          "name": "",
          "type": "bytes"
        }
      ],
      "name": "onERC721Received",
      "outputs": [
        {
          "internalType": "bytes4",
          "name": "",
          "type": "bytes4"
        }
      ],
      "stateMutability": "nonpayable",
      "type": "function"
    },
    {
      "inputs": [],
      "name": "owner",
      "outputs": [
        {
          "internalType": "address",
          "name": "",
          "type": "address"
        }
      ],
      "stateMutability": "view",
      "type": "function"
    },
    {
      "inputs": [
        {
          "internalType": "uint256",
          "name": "_tokenId",
          "type": "uint256"
        },
        {
          "internalType": "address",
          "name": "_buyer",
          "type": "address"
        },
        {
          "internalType": "address",
          "name": "hostContract",
          "type": "address"
        }
      ],
      "name": "rejectOffer",
      "outputs": [],
      "stateMutability": "nonpayable",
      "type": "function"
    },
    {
      "inputs": [],
      "name": "renounceOwnership",
      "outputs": [],
      "stateMutability": "nonpayable",
      "type": "function"
    },
    {
      "inputs": [
        {
          "internalType": "uint8",
          "name": "_serviceFees",
          "type": "uint8"
        }
      ],
      "name": "setServiceFees",
      "outputs": [],
      "stateMutability": "nonpayable",
      "type": "function"
    },
    {
      "inputs": [
        {
          "internalType": "address",
          "name": "",
          "type": "address"
        }
      ],
      "name": "trackOfferPrice",
      "outputs": [
        {
          "internalType": "uint256",
          "name": "",
          "type": "uint256"
        }
      ],
      "stateMutability": "view",
      "type": "function"
    },
    {
      "inputs": [
        {
          "internalType": "address",
          "name": "newOwner",
          "type": "address"
        }
      ],
      "name": "transferOwnership",
      "outputs": [],
      "stateMutability": "nonpayable",
      "type": "function"
    },
    {
      "inputs": [
        {
          "internalType": "uint256",
          "name": "_tokenId",
          "type": "uint256"
        },
        {
          "internalType": "address",
          "name": "hostContract",
          "type": "address"
        }
      ],
      "name": "unListNft",
      "outputs": [],
      "stateMutability": "nonpayable",
      "type": "function"
    },
    {
      "inputs": [
        {
          "internalType": "uint256",
          "name": "_tokenId",
          "type": "uint256"
        }
      ],
      "name": "withDraw",
      "outputs": [],
      "stateMutability": "nonpayable",
      "type": "function"
    }
  ],
  "bytecode": "0x60808060405234601557612b3d908161001b8239f35b600080fdfe6080604052600436101561001257600080fd5b6000803560e01c806314174f3314611b32578063150b7a0214611aa7578063292c30a214611a6e57806348f6c45a146117955780634c0115f914610fe95780634fb64be214610f29578063715018a614610ebf5780637613d59914610b775780638129fc1c146109d85780638da5cb5b146109a2578063bc3ad1451461079c578063ce606ee014610775578063cf1b2a901461041b578063ee1733e3146101c1578063f24639c6146100fc5763f2fde38b146100cd57600080fd5b346100f95760203660031901126100f9576100f66100e9611cf0565b6100f16126e6565b61206d565b80f35b80fd5b50346100f95760203660031901126100f95760043560ff81168091036101bd576101246126e6565b8015610169576040817fac7eb0af6db152aa1f5d99f0e740a9aa0055697a11ed8d61a9143f3591525a719260ff1960085416176008558151903382526020820152a180f35b60405162461bcd60e51b815260206004820152602660248201527f536572766963652046656573206d7573742062652067726561746572207468616044820152656e207a65726f60d01b6064820152608490fd5b5080fd5b5060803660031901126100f9576004356101d9611d0b565b9060443560643592338552600260205260408520838652602052604085209060018060a01b031685526001602052604085208386526020526040852060405161022181611d53565b81546001600160a01b03168152600182015460208201526040516102538161024c8160028701611e22565b0382611d70565b604082015260405161026c8161024c8160038701611e22565b606082015260048201546001600160a01b039081166080830152600583015460a0830152600683015460c0830190815260079093015460ff16151560e083015290511633146103d6576102c190514210611f81565b6102cc428511611f48565b8134036103a057600481019060ff825416610364573380875260066020908152604080892034905583546001600160a01b031916831784556002840186905560038401979097556001928301869055835460ff19169092179092558451918252810191909152918201527f7de3bd07351446d07eed8dd306fa8034994025802991b67b1b600366b9525cb99080606081015b0390a180f35b60405162461bcd60e51b815260206004820152601460248201527320b63932b0b23c90283630b1b2b21027b33332b960611b6044820152606490fd5b60405162461bcd60e51b815260206004820152600e60248201526d125b9d985b1a5908185b5bdd5b9d60921b6044820152606490fd5b60405162461bcd60e51b815260206004820152601f60248201527f546f6b656e204f776e65722043616e6e6f7420637265617465204f66666572006044820152606490fd5b50346100f95761042a36611dae565b919060018060a01b03831690818552600160205260408520838652602052604085206040519161045983611d53565b81546001600160a01b03168352600182015460208401526040516104848161024c8160028701611e22565b604084015260405161049d8161024c8160038701611e22565b606084015260ff600760018060a01b036004850154169360808601948552600581015460a0870152600681015460c0870152015416151560e084015260018060a01b0381169283885260026020526040882086895260205260408820906040519061050782611d21565b60018060a01b0383541682526001830154602083015260028301546040830152608060ff60046003860154956060860196875201541692019115158252858a52600660205260408a20541561073857516001600160a01b031633036106f45751156106af575142101561067a577fe3de38cc8058c547f66f86fa1794a56f6afe69fc90af6325db4711f0fb9018098588926106086105fb6105f56105f0976105d16100f69d8b8a52600660205260408a2054998c815260066020526040812055428a8989336127b1565b9451949c929b919990989394929333936001600160a01b031691612866565b611fbb565b95611fbb565b9560405193849384612033565b0390a381855260016020526040852083865260205261062960408620611f0c565b845260026020526040842082855260205261065f6040852060046000918281558260018201558260028201558260038201550155565b8352600760205261067460408420809261214d565b906123c1565b60405162461bcd60e51b815260206004820152600d60248201526c13d999995c88115e1c1a5c9959609a1b6044820152606490fd5b60405162461bcd60e51b815260206004820152601760248201527f5468697320746f6b656e20686173206e6f206f666665720000000000000000006044820152606490fd5b606460405162461bcd60e51b815260206004820152602060248201527f4f6e6c792053656c6c65722063616e2061636365707420746865206f666665726044820152fd5b60405162461bcd60e51b81526020600482015260156024820152742237b2b9b713ba103932b1b2b4bb329037b33332b960591b6044820152606490fd5b50346100f957806003193601126100f957546040516001600160a01b039091168152602090f35b5060403660031901126100f9576004356107b4611d0b565b60018060a01b0381169081845260016020526040842083855260205260408420906040516107e181611d53565b82546001600160a01b031681526001830154602082015260405161080c8161024c8160028801611e22565b60408201526040516108258161024c8160038801611e22565b606082015260018060a01b03600484015416928360808301526005810154918260a082015260ff600760068401549360c08401948552015416151560e082015260018060a01b03815116331461096c5782341480610963575b1561092857846108f06105fb6105f58a6108d56105f0996108c27f54f39e5a587b1d68ea791209291a72929b764dd16747ec1d52d8ba8302612ac799514210611f81565b428a843360018060a01b038c51166127b1565b9c9394929b9198909960018060a01b03905116923390612866565b0390a38352600760205261090b60408420610674818561214d565b82526001602052604082209082526020526100f660408220611f0c565b60405162461bcd60e51b8152602060048201526013602482015272125b94dd59999a58da595b9d08105b5bdd5b9d606a1b6044820152606490fd5b5082151561087e565b60405162461bcd60e51b815260206004820152600e60248201526d43616e27742053656c662062757960901b6044820152606490fd5b50346100f957806003193601126100f957600080516020612aa8833981519152546040516001600160a01b039091168152602090f35b50346100f957806003193601126100f957600080516020612ae88339815191525460ff8160401c16159067ffffffffffffffff811680159081610b6f575b6001149081610b65575b159081610b5c575b50610b4d5767ffffffffffffffff198116600117600080516020612ae88339815191525581610b20575b50610a5b612a79565b610a63612a79565b610a6c3361206d565b610a74612a79565b81546001600160a01b03191633178255610a8c612a79565b610a94612a79565b610a9d3361206d565b610aa5612a79565b610aad612a79565b6001600080516020612ac883398151915255610ac65780f35b68ff000000000000000019600080516020612ae88339815191525416600080516020612ae8833981519152557fc7f505b2f371ae2175ee4913f4499e1f2633a7b5936321eed1cdaeb6115181d2602060405160018152a180f35b68ffffffffffffffffff19166801000000000000000117600080516020612ae88339815191525538610a52565b63f92ee8a960e01b8352600483fd5b90501538610a28565b303b159150610a20565b839150610a16565b50346100f957610b8636611dae565b90610b8f6120e3565b60018060a01b0316908184526002602052604084208385526020526040842060405191610bbb83611d21565b60018060a01b03825416835260ff60046001840154936020860194855260028101546040870152600381015460608701520154161515608084015260018060a01b0316855260016020526040852084865260205283604086209160ff600760405194610c2686611d53565b80546001600160a01b0316865260018101546020870152604051610c518161024c8160028601611e22565b6040870152604051610c6a8161024c8160038601611e22565b606087015260048101546001600160a01b03166080870152600581015460a0870152600681015460c0870152015416151560e08401525103610e87578285526006602052604085205415610e365781516001600160a01b0316839003610df957516001600160a01b03163303610daa5781845260066020528380808060408120548095878352600660205282604081205560018060a01b03905116828215610da1575bf115610d965760607f16e834b19bcc6f577f7e0ed83bb4cb1df810ec798f673e5ca46faec8324d5a6b9160405190848252602082015260016040820152a18252600260205260408220908252602052610d816040822060046000918281558260018201558260028201558260038201550155565b6001600080516020612ac88339815191525580f35b6040513d85823e3d90fd5b506108fc610d0d565b60405162461bcd60e51b815260206004820152602160248201527f4f6e6c792053656c6c65722063616e2072656a6563742074686973206f6666656044820152603960f91b6064820152608490fd5b60405162461bcd60e51b8152602060048201526015602482015274496e56616c6964204275796572204164647265737360581b6044820152606490fd5b60405162461bcd60e51b815260206004820152602360248201527f4e6f204f6666657220686173207265636569766564206f6e207468697320746f60448201526235b2b760e91b6064820152608490fd5b60405162461bcd60e51b815260206004820152601060248201526f125b9d985b1a59081d1bdad95b88125960821b6044820152606490fd5b50346100f957806003193601126100f957610ed86126e6565b600080516020612aa883398151915280546001600160a01b0319811690915581906001600160a01b03167f8be0079c531659141344cd1fd0a4f28419497f9722a3daafe3b4186f6b6457e08280a380f35b50346100f95760203660031901126100f95760408160a09260808351610f4e81611d21565b828152826020820152828582015282606082015201523381526002602052818120600435825260205220604051610f8481611d21565b600180841b038254169182825260018101546020830190815260028201549060408401918252608060ff600460038601549560608801968752015416940193151584526040519485525160208501525160408401525160608301525115156080820152f35b50346100f95760803660031901126100f9576064356024356044356001600160a01b03831683036117915761101f428211611f48565b6001600160a01b03831680855260016020908152604080872060048035808a52918452828920858a5260078552838a2093516331a9108f60e11b8152918201929092529193909290829060249082905afa9081156116f557879161174f575b50336001600160a01b03909116036117005760405163fa71308360e01b8152600480359082015286816024816001600160a01b038a165afa9081156116f55787916116b7575b5060405163c87b56dd60e01b815260048035908201529187836024816001600160a01b038b165afa9283156116ac57889361165e575b50600480820180546001600160a01b03199081166001600160a01b038b161790915582541633178255600582018790553560018083019190915560078201805460ff1916909117905560068101859055611166908290600290611160866003830161253f565b0161253f565b60018060a01b0386168752600460205260408720600435885260205261118f85604089206125fe565b60018060a01b038616875260056020526040872060043588526020526111b842604089206125fe565b6111f160018401956111cc600435886125fe565b6111da600386019485612621565b6111e8600286019384612621565b600485016125fe565b6111ff6005840194856125fe565b82546001600160a01b031916331783556001600160a01b0386168752600160209081526040808920600480358b529252808920905161123d81611d53565b81546001600160a01b031681526001820154602082015260405191611270836112698160028501611e22565b0384611d70565b6040820192835260405161128b8161024c8160038601611e22565b606083019081528b60018060a01b038684015416918260808601528160058501549360a0870194855260ff600760068801549760c08a01988952015416151560e08801526040519889809263190edb9360e11b82525afa928315611566578d9783946115d9575b506040611374969593611343959361137b93515051985194519660018060a01b039051169960018060a01b03811682526004602052828220600435835260205261134a83832084519889809261264e565b0388611d70565b6001600160a01b03168152600560209081528282206004358352905220604051968791829061264e565b0386611d70565b82518e81156115995750806000198101116115855783516000198201101561157157604096936114237fe6970b952b12ff37a4e863182bbab16bf1bf828e411cbecce9d2fd8c92fb5b6399979461141561144a98956114076020611431976000190160051b87010151995b6101208e519e8f9e8f908152600435602082015201526101208d0190612a54565b908b820360608d0152612a54565b9089820360808b0152612a54565b9087820360a0890152611fff565b9260c086015260e0850152838203610100850152611fff565b0390a16001600160a01b0386163b1561156257604051632142170760e11b81523360048083019190915230602483015235604482015287908181606481836001600160a01b038d165af1801561156657611545575b507f1ab8b46a59fc22d4cf4c52fbde7b9caacd38779242653bfb909f59ddb860394460208761035e886115378c60048b6115198c61150b8d6114fd60018060a01b038654169b60e06040519e8f9e8f908152015260e08d019061264e565b908b820360408d0152612688565b9089820360608b0152612688565b6001600160a01b03909316608088015286830360a08801520161264e565b9083820360c085015261264e565b816115539197969497611d70565b6115625786389592949561149f565b8680fd5b6040513d84823e3d90fd5b634e487b7160e01b8f52603260045260248ffd5b634e487b7160e01b8f52601160045260248ffd5b6114319150936114237fe6970b952b12ff37a4e863182bbab16bf1bf828e411cbecce9d2fd8c92fb5b6399979461141561144a989561140760409c6113e6565b93509094939196503d8088853e6115f08185611d70565b830160c08482031261165a57835167ffffffffffffffff811161165657816116199186016124fd565b50602084015167ffffffffffffffff8111611656578e986113749761164861137b9460409461134399016124fd565b9650939250939596506112f2565b8880fd5b8780fd5b9092503d8089833e6116708183611d70565b810160208282031261165657815167ffffffffffffffff81116116a85761169f849260029261116695016124fd565b949250506110fa565b8980fd5b6040513d8a823e3d90fd5b90503d8088833e6116c88183611d70565b810160608282031261165a57815167ffffffffffffffff8111611656576116ef92016124fd565b386110c4565b6040513d89823e3d90fd5b60405162461bcd60e51b815260206004820152602160248201527f596f7520617265206e6f7420746865206f776e6572206f662074686973204e666044820152601d60fa1b6064820152608490fd5b90506020813d602011611789575b8161176a60209383611d70565b8101031261156257516001600160a01b0381168103611562573861107e565b3d915061175d565b8380fd5b50346100f95760403660031901126100f957600435906001600160a01b036117bb611d0b565b16918282526001602052604082208183526020526040822060ff6007604051926117e484611d53565b80546001600160a01b031684526001810154602085015260405161180f8161024c8160028601611e22565b60408501526040516118288161024c8160038601611e22565b606085015260048101546001600160a01b039081166080860152600582015460a0860152600682015460c086015291015491909116151560e08301529051163303611a1e5782825260016020526040822081835260205260408220926040519361189185611d53565b80546001600160a01b03168552600181015460208601526040516118bc8161024c8160028601611e22565b60408601526040516118d58161024c8160038601611e22565b606086015260048101546001600160a01b0390811660808701908152600583015460a0880152600683015460c088015260079092015460ff16151560e0870152855116823b15611a1a57604051632142170760e11b81523060048201526001600160a01b0391909116602482015260448101849052848160648183875af18015611a0f576119d4575b5060807f62a8c32d7e607200e5e6c5986d2407a01f983fe1af6d31899fb1e32c6fd1f2c2916100f6959660018060a01b039051169060018060a01b03905116604051918252856020830152604082015260016060820152a180845260016020526040842082855260205261065f60408520611f0c565b7f62a8c32d7e607200e5e6c5986d2407a01f983fe1af6d31899fb1e32c6fd1f2c29185611a066100f697608094611d70565b9550915061195e565b6040513d87823e3d90fd5b8480fd5b60405162461bcd60e51b815260206004820152602260248201527f4f6e6c792053656c6c65722063616e20756e4c69737420686973206f776e204e604482015261199d60f21b6064820152608490fd5b50346100f95760203660031901126100f9576020906040906001600160a01b03611a96611cf0565b168152600683522054604051908152f35b50346100f95760803660031901126100f957611ac1611cf0565b50611aca611d0b565b5060643567ffffffffffffffff81116101bd57366023820112156101bd578060040135611af681611d92565b611b036040519182611d70565b8181523660248385010111611791578160246020940184830137010152604051630a85bd0160e11b8152602090f35b50346100f95760203660031901126100f957611b4c6120e3565b338152600260205260408120600435825260205260408120604051611b7081611d21565b608060ff600460018060a01b038554169485855260018101546020860152600281015460408601526003810154606086015201541615159101523303611ca0573381526006602052604081205415611c5b573381526006602052604081205433825260066020528160408120558180828015611c51575b8280929181923390f115611c445760408051338152602081019290925242908201527fb5c5f6724bdc9de2302196ac349f18e17fc199e7f3e9a1adbb788e22b98d429890606090a16001600080516020612ac88339815191525580f35b50604051903d90823e3d90fd5b6108fc9150611be7565b60405162461bcd60e51b815260206004820152601860248201527f416c726561647920576974682d4472617720416d6f756e7400000000000000006044820152606490fd5b60405162461bcd60e51b815260206004820152602260248201527f4f6e6c7920627579657220776974686472617720686973206f776e20616d6f756044820152611b9d60f21b6064820152608490fd5b600435906001600160a01b0382168203611d0657565b600080fd5b602435906001600160a01b0382168203611d0657565b60a0810190811067ffffffffffffffff821117611d3d57604052565b634e487b7160e01b600052604160045260246000fd5b610100810190811067ffffffffffffffff821117611d3d57604052565b90601f8019910116810190811067ffffffffffffffff821117611d3d57604052565b67ffffffffffffffff8111611d3d57601f01601f191660200190565b6060906003190112611d0657600435906024356001600160a01b0381168103611d0657906044356001600160a01b0381168103611d065790565b90600182811c92168015611e18575b6020831014611e0257565b634e487b7160e01b600052602260045260246000fd5b91607f1691611df7565b60009291815491611e3283611de8565b8083529260018116908115611e885750600114611e4e57505050565b60009081526020812093945091925b838310611e6e575060209250010190565b600181602092949394548385870101520191019190611e5d565b915050602093945060ff929192191683830152151560051b010190565b818110611eb0575050565b60008155600101611ea5565b611ec68154611de8565b9081611ed0575050565b81601f60009311600114611ee35750555b565b81835260208320611eff91601f0160051c810190600101611ea5565b8082528160208120915555565b6007600091828155826001820155611f2660028201611ebc565b611f3260038201611ebc565b8260048201558260058201558260068201550155565b15611f4f57565b60405162461bcd60e51b815260206004820152600a6024820152692a34b6b29022b93937b960b11b6044820152606490fd5b15611f8857565b60405162461bcd60e51b815260206004820152600b60248201526a13999d08115e1c1a5c995960aa1b6044820152606490fd5b60405180918291602082519192019060005b818110611fdd5750505003902090565b82516001600160a01b0316845285945060209384019390920191600101611fcd565b906020808351928381520192019060005b81811061201d5750505090565b8251845260209384019390920191600101612010565b9161205c9061204e61206a9593606086526060860190611fff565b908482036020860152611fff565b916040818403910152611fff565b90565b6001600160a01b031680156120cd57600080516020612aa883398151915280546001600160a01b0319811683179091556001600160a01b03167f8be0079c531659141344cd1fd0a4f28419497f9722a3daafe3b4186f6b6457e0600080a3565b631e4fbdf760e01b600052600060045260246000fd5b6002600080516020612ac8833981519152541461210e576002600080516020612ac883398151915255565b633ee5aeb560e01b60005260046000fd5b80548210156121375760005260206000200190600090565b634e487b7160e01b600052603260045260246000fd5b60005b6001830180548210156121825761216882849261211f565b90549060031b1c1461217c57600101612150565b91505090565b60405162461bcd60e51b815260206004820152601c60248201527f546f6b656e204944206e6f7420666f756e6420696e20737472756374000000006044820152606490fd5b9190601f81116121d657505050565b611ee1926000526020600020906020601f840160051c83019310612202575b601f0160051c0190611ea5565b90915081906121f5565b9190918281146122eb576122208354611de8565b67ffffffffffffffff8111611d3d576122438161223d8454611de8565b846121c7565b600093601f821160011461228557612276929394829160009261227a575b50508160011b916000199060031b1c19161790565b9055565b015490503880612261565b845260208085208386529085209094601f198316815b8181106122d3575095836001959697106122ba575b505050811b019055565b015460001960f88460031b161c191690553880806122b0565b9192600180602092868b01548155019401920161229b565b509050565b91906122ff57611ee19161220c565b634e487b7160e01b600052600060045260246000fd5b8054801561233e57600019019061232c828261211f565b8154906000199060031b1b1916905555565b634e487b7160e01b600052603160045260246000fd5b8054801561233e57600019019061236b828261211f565b6122ff576123798154611de8565b908161238457505055565b81601f6000931160011461239757505555565b818352602083206123b391601f0160051c810190600101611ea5565b808252816020812091555555565b906001820191825460001981019081116124c457611ee19383826123ef9360059603612419575b5050612315565b6123fb60028201612354565b61240760038201612354565b61241360048201612315565b01612315565b61243e6124bd9261245761242d848761211f565b90549060031b1c61243e838861211f565b90919082549060031b91821b91600019901b1916179055565b612479600288016124738361246c878461211f565b509261211f565b906122f0565b61248e600388016124738361246c878461211f565b6124b06004880161243e836124a3878461211f565b90549060031b1c9261211f565b6124a3888801938461211f565b38806123e8565b634e487b7160e01b600052601160045260246000fd5b60005b8381106124ed5750506000910152565b81810151838201526020016124dd565b81601f82011215611d0657805161251381611d92565b926125216040519485611d70565b81845260208284010111611d065761206a91602080850191016124da565b919091825167ffffffffffffffff8111611d3d576125618161223d8454611de8565b6020601f821160011461259d5781906122769394956000926125925750508160011b916000199060031b1c19161790565b015190503880612261565b601f1982169083600052806000209160005b8181106125e6575095836001959697106125cd57505050811b019055565b015160001960f88460031b161c191690553880806122b0565b9192602060018192868b0151815501940192016125af565b90815491600160401b831015611d3d578261243e916001611ee19501815561211f565b8054600160401b811015611d3d5761263e9160018201815561211f565b9190916122ff57611ee19161253f565b906020825491828152019160005260206000209060005b8181106126725750505090565b8254845260209093019260019283019201612665565b90806020835491828152019160208260051b820101936000526020600020926000915b8383106126ba57505050505090565b9091929394602060016126d78193601f1986820301875289611e22565b970193019301919392906126ab565b600080516020612aa8833981519152546001600160a01b0316330361270757565b63118cdaa760e01b6000523360045260246000fd5b8054600160401b811015611d3d576127399160018201815561211f565b81546001600160a01b0393841660039290921b91821b9390911b1916919091179055565b906040519182815491828252602082019060005260206000209260005b81811061278f575050611ee192500383611d70565b84546001600160a01b031683526001948501948794506020909301920161277a565b61024c61285961024c61284c61283f61283961206a9661024c989d999c9b9a9b60018060a01b0316600052600360205260406000208d6000526020526127fc6040600020918261271c565b61280a600182019e8f61271c565b612818600382019d8e6125fe565b612826600282019c8d6125fe565b612834600482019b8c6125fe565b61275d565b9b61275d565b996040519283809261264e565b966040519283809261264e565b936040519283809261264e565b60085460009591946001600160a01b03909416939060ff168015612a03578082029082820414821517156129ef576064900490868080808560018060a01b038254168282156129e6575bf1156129db577f56a87afabcc5be804fc847379d1f4e3408f49b3016cc7dcea295265f59a0bd57604060018060a01b038954168151908152846020820152a1818103918183116129c757908288928392146129bd575b8291829182916001600160a01b03881690f115611a0f57604080516001600160a01b03939093168352602083019190915242908201527ff474f1647716b20d13fea8c36a785eabe9a98725dd210a911b9e0fc1508a6af490606090a1813b1561179157604051632142170760e11b81523060048201526001600160a01b03919091166024820152604481019290925282908290606490829084905af18015611566576129b0575050565b816129ba91611d70565b50565b6108fc9150612906565b634e487b7160e01b88526011600452602488fd5b6040513d88823e3d90fd5b506108fc6128b0565b634e487b7160e01b87526011600452602487fd5b60405162461bcd60e51b8152602060048201526024808201527f4d61726b6574506c616365206e6f742073657420736572766963652066656573604482015263081e595d60e21b6064820152608490fd5b90602091612a6d815180928185528580860191016124da565b601f01601f1916010190565b60ff600080516020612ae88339815191525460401c1615612a9657565b631afcd79f60e31b60005260046000fdfe9016d09d72d40fdae2fd8ceac6b6234c7706214fd39c1cd1e609a0528c1993009b779b17422d0df92223018b32b4d1fa46e071723d6817e2486d003becc55f00f0c57e16840df040f15088dc2f81fe391c3923bec73e23a9662efc9c229c6a00a2646970667358221220ee41f673b294e852d336e7a491d59e7ab52e60ce3ed4df6d874ad68c912905ea64736f6c634300081a0033",
  "linkReferences": {},
  "deployedLinkReferences": {}
}