{
  "_format": "hh-sol-artifact-1",
  "contractName": "NatirumMarketplace",
  "sourceName": "contracts/Natrium-Nft-Marketplace.sol",
  "abi": [
    {
      "inputs": [],
      "name": "InvalidInitialization",
      "type": "error"
    },
    {
      "inputs": [],
      "name": "NotInitializing",
      "type": "error"
    },
    {
      "inputs": [
        {
          "internalType": "address",
          "name": "owner",
          "type": "address"
        }
      ],
      "name": "OwnableInvalidOwner",
      "type": "error"
    },
    {
      "inputs": [
        {
          "internalType": "address",
          "name": "account",
          "type": "address"
        }
      ],
      "name": "OwnableUnauthorizedAccount",
      "type": "error"
    },
    {
      "inputs": [],
      "name": "ReentrancyGuardReentrantCall",
      "type": "error"
    },
    {
      "anonymous": false,
      "inputs": [
        {
          "indexed": false,
          "internalType": "address",
          "name": "buyer",
          "type": "address"
        },
        {
          "indexed": false,
          "internalType": "uint256",
          "name": "offerPrice",
          "type": "uint256"
        },
        {
          "indexed": false,
          "internalType": "bool",
          "name": "isCancel",
          "type": "bool"
        }
      ],
      "name": "CancelOffer",
      "type": "event"
    },
    {
      "anonymous": false,
      "inputs": [
        {
          "indexed": false,
          "internalType": "uint64",
          "name": "version",
          "type": "uint64"
        }
      ],
      "name": "Initialized",
      "type": "event"
    },
    {
      "anonymous": false,
      "inputs": [
        {
          "indexed": false,
          "internalType": "address",
          "name": "seller",
          "type": "address"
        },
        {
          "indexed": false,
          "internalType": "uint256",
          "name": "tokenID",
          "type": "uint256"
        },
        {
          "indexed": false,
          "internalType": "address",
          "name": "hostContract",
          "type": "address"
        },
        {
          "indexed": false,
          "internalType": "uint256",
          "name": "nftPrice",
          "type": "uint256"
        },
        {
          "indexed": false,
          "internalType": "bool",
          "name": "isListed",
          "type": "bool"
        }
      ],
      "name": "ListNFT",
      "type": "event"
    },
    {
      "anonymous": false,
      "inputs": [
        {
          "indexed": true,
          "internalType": "address",
          "name": "previousOwner",
          "type": "address"
        },
        {
          "indexed": true,
          "internalType": "address",
          "name": "newOwner",
          "type": "address"
        }
      ],
      "name": "OwnershipTransferred",
      "type": "event"
    },
    {
      "anonymous": false,
      "inputs": [
        {
          "indexed": false,
          "internalType": "address",
          "name": "seller",
          "type": "address"
        },
        {
          "indexed": false,
          "internalType": "uint256",
          "name": "tokenID",
          "type": "uint256"
        },
        {
          "indexed": false,
          "internalType": "address",
          "name": "hostContract",
          "type": "address"
        },
        {
          "indexed": false,
          "internalType": "bool",
          "name": "isUnlisted",
          "type": "bool"
        }
      ],
      "name": "UnListNFT",
      "type": "event"
    },
    {
      "anonymous": false,
      "inputs": [
        {
          "indexed": false,
          "internalType": "address",
          "name": "buyer",
          "type": "address"
        },
        {
          "indexed": false,
          "internalType": "uint256",
          "name": "acceptedPrice",
          "type": "uint256"
        },
        {
          "indexed": false,
          "internalType": "uint256",
          "name": "tokenId",
          "type": "uint256"
        },
        {
          "indexed": false,
          "internalType": "bool",
          "name": "isAccepted",
          "type": "bool"
        }
      ],
      "name": "acceptOffer",
      "type": "event"
    },
    {
      "anonymous": false,
      "inputs": [
        {
          "indexed": false,
          "internalType": "address",
          "name": "buyer",
          "type": "address"
        },
        {
          "indexed": false,
          "internalType": "uint256",
          "name": "tokenID",
          "type": "uint256"
        },
        {
          "indexed": false,
          "internalType": "uint256",
          "name": "paidPrice",
          "type": "uint256"
        },
        {
          "indexed": false,
          "internalType": "uint256",
          "name": "timeStamp",
          "type": "uint256"
        }
      ],
      "name": "buyNFT",
      "type": "event"
    },
    {
      "anonymous": false,
      "inputs": [
        {
          "indexed": false,
          "internalType": "address",
          "name": "buyer",
          "type": "address"
        },
        {
          "indexed": false,
          "internalType": "uint256",
          "name": "offerPrice",
          "type": "uint256"
        }
      ],
      "name": "makeOffer",
      "type": "event"
    },
    {
      "anonymous": false,
      "inputs": [
        {
          "indexed": false,
          "internalType": "address",
          "name": "admin",
          "type": "address"
        },
        {
          "indexed": false,
          "internalType": "uint8",
          "name": "serviceFee",
          "type": "uint8"
        }
      ],
      "name": "servicePercentage",
      "type": "event"
    },
    {
      "anonymous": false,
      "inputs": [
        {
          "indexed": false,
          "internalType": "address",
          "name": "seller",
          "type": "address"
        },
        {
          "indexed": false,
          "internalType": "uint256",
          "name": "nftPrice",
          "type": "uint256"
        },
        {
          "indexed": false,
          "internalType": "uint256",
          "name": "timeStamp",
          "type": "uint256"
        }
      ],
      "name": "transferNftPrice",
      "type": "event"
    },
    {
      "anonymous": false,
      "inputs": [
        {
          "indexed": false,
          "internalType": "address",
          "name": "owner",
          "type": "address"
        },
        {
          "indexed": false,
          "internalType": "uint256",
          "name": "serviceFees",
          "type": "uint256"
        }
      ],
      "name": "transferServiceFees",
      "type": "event"
    },
    {
      "inputs": [
        {
          "internalType": "uint256",
          "name": "_tokenId",
          "type": "uint256"
        },
        {
          "internalType": "address",
          "name": "_buyer",
          "type": "address"
        }
      ],
      "name": "acceptOffers",
      "outputs": [],
      "stateMutability": "nonpayable",
      "type": "function"
    },
    {
      "inputs": [
        {
          "internalType": "uint256",
          "name": "_tokenId",
          "type": "uint256"
        },
        {
          "internalType": "address",
          "name": "_seller",
          "type": "address"
        },
        {
          "internalType": "address",
          "name": "_hostContract",
          "type": "address"
        }
      ],
      "name": "buyNft",
      "outputs": [],
      "stateMutability": "payable",
      "type": "function"
    },
    {
      "inputs": [],
      "name": "contractOwner",
      "outputs": [
        {
          "internalType": "address",
          "name": "",
          "type": "address"
        }
      ],
      "stateMutability": "view",
      "type": "function"
    },
    {
      "inputs": [
        {
          "internalType": "uint256",
          "name": "_tokenId",
          "type": "uint256"
        },
        {
          "internalType": "uint256",
          "name": "_offerPrice",
          "type": "uint256"
        },
        {
          "internalType": "uint256",
          "name": "_offerExpiry",
          "type": "uint256"
        },
        {
          "internalType": "address",
          "name": "_seller",
          "type": "address"
        }
      ],
      "name": "createOffer",
      "outputs": [],
      "stateMutability": "payable",
      "type": "function"
    },
    {
      "inputs": [],
      "name": "currentOffer",
      "outputs": [
        {
          "internalType": "enum NatirumMarketplace.Offer",
          "name": "",
          "type": "uint8"
        }
      ],
      "stateMutability": "view",
      "type": "function"
    },
    {
      "inputs": [
        {
          "internalType": "address",
          "name": "listerAddress",
          "type": "address"
        }
      ],
      "name": "getNftDetails",
      "outputs": [
        {
          "components": [
            {
              "internalType": "address",
              "name": "seller",
              "type": "address"
            },
            {
              "internalType": "uint256",
              "name": "tokenID",
              "type": "uint256"
            },
            {
              "internalType": "address",
              "name": "hostContract",
              "type": "address"
            },
            {
              "internalType": "uint256",
              "name": "nftPrice",
              "type": "uint256"
            },
            {
              "internalType": "bool",
              "name": "isListed",
              "type": "bool"
            }
          ],
          "internalType": "struct NatirumMarketplace.NftDetails",
          "name": "",
          "type": "tuple"
        }
      ],
      "stateMutability": "view",
      "type": "function"
    },
    {
      "inputs": [
        {
          "internalType": "address",
          "name": "_buyer",
          "type": "address"
        }
      ],
      "name": "getOfferDetails",
      "outputs": [
        {
          "components": [
            {
              "internalType": "address",
              "name": "buyer",
              "type": "address"
            },
            {
              "internalType": "uint256",
              "name": "tokenID",
              "type": "uint256"
            },
            {
              "internalType": "uint256",
              "name": "offerPrice",
              "type": "uint256"
            },
            {
              "internalType": "uint256",
              "name": "offerExpire",
              "type": "uint256"
            },
            {
              "internalType": "enum NatirumMarketplace.Offer",
              "name": "currentOffer",
              "type": "uint8"
            }
          ],
          "internalType": "struct NatirumMarketplace.OfferDetails",
          "name": "",
          "type": "tuple"
        }
      ],
      "stateMutability": "view",
      "type": "function"
    },
    {
      "inputs": [],
      "name": "initialize",
      "outputs": [],
      "stateMutability": "nonpayable",
      "type": "function"
    },
    {
      "inputs": [
        {
          "internalType": "uint256",
          "name": "_tokenId",
          "type": "uint256"
        },
        {
          "internalType": "uint256",
          "name": "_price",
          "type": "uint256"
        },
        {
          "internalType": "address",
          "name": "_hostContract",
          "type": "address"
        }
      ],
      "name": "listNft",
      "outputs": [],
      "stateMutability": "nonpayable",
      "type": "function"
    },
    {
      "inputs": [
        {
          "internalType": "address",
          "name": "",
          "type": "address"
        },
        {
          "internalType": "address",
          "name": "",
          "type": "address"
        },
        {
          "internalType": "uint256",
          "name": "",
          "type": "uint256"
        },
        {
          "internalType": "bytes",
          "name": "",
          "type": "bytes"
        }
      ],
      "name": "onERC721Received",
      "outputs": [
        {
          "internalType": "bytes4",
          "name": "",
          "type": "bytes4"
        }
      ],
      "stateMutability": "nonpayable",
      "type": "function"
    },
    {
      "inputs": [],
      "name": "owner",
      "outputs": [
        {
          "internalType": "address",
          "name": "",
          "type": "address"
        }
      ],
      "stateMutability": "view",
      "type": "function"
    },
    {
      "inputs": [
        {
          "internalType": "uint256",
          "name": "_tokenId",
          "type": "uint256"
        },
        {
          "internalType": "address",
          "name": "_buyer",
          "type": "address"
        }
      ],
      "name": "rejectOffer",
      "outputs": [],
      "stateMutability": "nonpayable",
      "type": "function"
    },
    {
      "inputs": [],
      "name": "renounceOwnership",
      "outputs": [],
      "stateMutability": "nonpayable",
      "type": "function"
    },
    {
      "inputs": [
        {
          "internalType": "uint8",
          "name": "_serviceFees",
          "type": "uint8"
        }
      ],
      "name": "setServiceFees",
      "outputs": [],
      "stateMutability": "nonpayable",
      "type": "function"
    },
    {
      "inputs": [
        {
          "internalType": "address",
          "name": "newOwner",
          "type": "address"
        }
      ],
      "name": "transferOwnership",
      "outputs": [],
      "stateMutability": "nonpayable",
      "type": "function"
    },
    {
      "inputs": [
        {
          "internalType": "uint256",
          "name": "_tokenId",
          "type": "uint256"
        }
      ],
      "name": "unListNft",
      "outputs": [],
      "stateMutability": "nonpayable",
      "type": "function"
    }
  ],
  "bytecode": "0x608080604052346019576001805561193a908161001f8239f35b600080fdfe608080604052600436101561001357600080fd5b600090813560e01c908163150b7a021461144c5750806322d868cb1461139557806340e250d3146111315780634370fb3414610eec578063715018a614610e8257806372a43b9c14610c915780637cde1202146109805780638129fc1c146108035780638da5cb5b146107cd578063aa4b27a8146106f3578063ab67b236146104ea578063ce606ee0146104c3578063db9371c2146101ed578063f24639c614610128578063f2fde38b146100fb5763fa4e28f6146100d157600080fd5b346100f857806003193601126100f857602060ff600254166100f66040518092611596565bf35b80fd5b50346100f85760203660031901126100f8576101256101186114fb565b61012061167c565b6115e4565b80f35b50346100f85760203660031901126100f85760043560ff81168091036101e95761015061167c565b8015610195576040817ffc893db7ca6eb178a7bd93cdeb99ea5fa6570d124b4f04b50f9a727e21cc91029260ff1960065416176006558151903382526020820152a180f35b60405162461bcd60e51b815260206004820152602660248201527f536572766963652046656573206d7573742062652067726561746572207468616044820152656e207a65726f60d01b6064820152608490fd5b5080fd5b50346100f85760403660031901126100f857610207611516565b61020f61165a565b6001600160a01b03168082526004602052604080832090519061023182611542565b60018060a01b0381541682526001810154906020830191825260ff6004600283015492604086019384526003810154606087015201541660038110156104af5760808401523385526003602052604085209060ff60046040519361029485611542565b80546001600160a01b0390811686526001820154602087015260028201541660408601526003810154606086015201541615156080830152511561045e5782516001600160a01b031684900361042157516001600160a01b031633036103d25760043590510361039a578280808093858252600460205260046040832001600260ff198254161790558582526005602052604082205490868352600560205282604081205560018060a01b03905116828215610391575bf115610384578152600460205261037d6040822060046000918281558260018201558260028201558260038201550155565b6001805580f35b50604051903d90823e3d90fd5b506108fc61034b565b60405162461bcd60e51b815260206004820152601060248201526f125b95985b1a59081d1bdad95b88125960821b6044820152606490fd5b60405162461bcd60e51b815260206004820152602160248201527f4f6e6c792053656c6c65722063616e2072656a6563742074686973206f6666656044820152603960f91b6064820152608490fd5b60405162461bcd60e51b8152602060048201526015602482015274496e56616c6964204275796572204164647265737360581b6044820152606490fd5b60405162461bcd60e51b815260206004820152602360248201527f4e6f204f6666657220686173207265636569766564206f6e207468697320746f60448201526235b2b760e91b6064820152608490fd5b634e487b7160e01b86526021600452602486fd5b50346100f857806003193601126100f857546040516001600160a01b039091168152602090f35b50346100f85760203660031901126100f85760043561050761165a565b33808352600360205260408320546001600160a01b0316036106a357338252600360205260ff6004604084200154161561066a57338083526003602081815260408086206002015493865291905283205483916001600160a01b039182169116803b1561066657604051632142170760e11b81523060048201526001600160a01b039290921660248301526044820184905282908290606490829084905af1801561065b57610646575b5033808252600360208181526040808520549385529181528184206002015482516001600160a01b03948516815291820186905290921690820152600160608201527f62a8c32d7e607200e5e6c5986d2407a01f983fe1af6d31899fb1e32c6fd1f2c290608090a1338152600360205261037d6040822060046000918281558260018201558260028201558260038201550155565b8161065091611574565b6101e95781386105b1565b6040513d84823e3d90fd5b8280fd5b60405162461bcd60e51b815260206004820152601160248201527013999d081a5cc81b9bdd08131a5cdd1959607a1b6044820152606490fd5b60405162461bcd60e51b815260206004820152602260248201527f4f6e6c792053656c6c65722063616e20756e4c69737420686973206f776e204e604482015261199d60f21b6064820152608490fd5b50346100f85760203660031901126100f85761070d6114fb565b6107156115b9565b506001600160a01b031681526004602052604080822090519061073782611542565b60018060a01b0381541682526001810154602083019081526002820154906040840191825260ff600460038501549460608701958652015416608085019560038210156107b9575085526040805194516001600160a01b0316855290516020850152905190830152516060820152905160a091906100f6906080830190611596565b634e487b7160e01b81526021600452602490fd5b50346100f857806003193601126100f8576000805160206118c5833981519152546040516001600160a01b039091168152602090f35b50346100f857806003193601126100f8576000805160206118e58339815191525460ff8160401c16159067ffffffffffffffff811680159081610978575b600114908161096e575b159081610965575b506109565767ffffffffffffffff1981166001176000805160206118e58339815191525581610929575b50610886611896565b61088e611896565b610897336115e4565b61089f611896565b81546001600160a01b031916331782556108b7611896565b6108bf611896565b6108c8336115e4565b6108cf5780f35b68ff0000000000000000196000805160206118e583398151915254166000805160206118e5833981519152557fc7f505b2f371ae2175ee4913f4499e1f2633a7b5936321eed1cdaeb6115181d2602060405160018152a180f35b68ffffffffffffffffff191668010000000000000001176000805160206118e5833981519152553861087d565b63f92ee8a960e01b8352600483fd5b90501538610853565b303b15915061084b565b839150610841565b50346100f85760403660031901126100f85760043561099d611516565b6109a561165a565b338352600360205260408320604051926109be84611542565b81546001600160a01b03908116855260018301546020808701919091526002840154821660408088019182526003860154606089015260049586015460ff16151560808901529286168089529490915281872091519395909391610a2183611542565b60018060a01b038154168352600181015491602084019283526002820154936040810194855260ff600460038501549460608401958652015416906003821015610c7d576080015251336001600160a01b0390911603610c39578688526005602052604088205415610bfc5751421015610bc75782905103610b8257610b0e6080937f2b0295c6245bbde9b0128fbea0ea5fe173b82a59a739f77c5fc7deba224dbffc958789526004602052600460408a2001600160ff198254161790558789526005602052604089205490888a526005602052896040812055339260018060a01b0390511690866116b2565b5190604051918583526020830152604082015260016060820152a13382526003602052610b566040832060046000918281558260018201558260028201558260038201550155565b8152600460205261037d6040822060046000918281558260018201558260028201558260038201550155565b60405162461bcd60e51b815260206004820152601760248201527f5468697320746f6b656e20686173206e6f206f666665720000000000000000006044820152606490fd5b60405162461bcd60e51b815260206004820152600d60248201526c13d999995c88115e1c1a5c9959609a1b6044820152606490fd5b60405162461bcd60e51b81526020600482015260156024820152742237b2b9b713ba103932b1b2b4bb329037b33332b960591b6044820152606490fd5b606460405162461bcd60e51b815260206004820152602060248201527f4f6e6c792053656c6c65722063616e2061636365707420746865206f666665726044820152fd5b634e487b7160e01b8b52602160045260248bfd5b5060603660031901126100f857600435610ca9611516565b610cb161152c565b90610cba61165a565b6001600160a01b0381168085526003602052604085206004015490939060ff1615610e4b57838552600360205260408520546001600160a01b0316849003610e1557838552600360205260036040862001543403610dda57838552600360205260408520546001600160a01b03163314610da457610d5f6080927fa8c8c76dcbc214f2bf1ff14e46e52c719da6477410ad492c29eb45fd05acb62494349033856116b2565b604051903382526020820152346040820152426060820152a18152600360205261037d6040822060046000918281558260018201558260028201558260038201550155565b60405162461bcd60e51b815260206004820152600e60248201526d43616e27742053656c662062757960901b6044820152606490fd5b60405162461bcd60e51b8152602060048201526013602482015272125b94dd59999a58da595b9d08105b5bdd5b9d606a1b6044820152606490fd5b60405162461bcd60e51b815260206004820152600e60248201526d24b73b30b634b21029b2b63632b960911b6044820152606490fd5b60405162461bcd60e51b815260206004820152600f60248201526e13999d0e88139bdd08131a5cdd1959608a1b6044820152606490fd5b50346100f857806003193601126100f857610e9b61167c565b6000805160206118c583398151915280546001600160a01b0319811690915581906001600160a01b03167f8be0079c531659141344cd1fd0a4f28419497f9722a3daafe3b4186f6b6457e08280a380f35b5060803660031901126100f857602435906064356001600160a01b03811690600435906044359083900361112d57610f2261165a565b82845260036020526040842092604051610f3b81611542565b60018060a01b03855416815260ff60046001870154966020840197885260018060a01b0360028201541660408501526003810154606085015201541615156080820152338652600460205283604087209551036110e857516001600160a01b0316036110b1574281111561107f57843403611049573384526005602052604084209485543481018091116110355790955582546001600160a01b031916339081178455600284019590955560038301556001820155600401805460ff191690556040805192835234602084015290917fb2a4706eb30fbca70b94141708a50a456d89844927f443dadcde61e3920ab6af9190a16001805580f35b634e487b7160e01b86526011600452602486fd5b60405162461bcd60e51b815260206004820152600e60248201526d125b9d985b1a5908185b5bdd5b9d60921b6044820152606490fd5b60405162461bcd60e51b815260206004820152600a6024820152692a34b6b29022b93937b960b11b6044820152606490fd5b60405162461bcd60e51b815260206004820152600f60248201526e496e76616c6964204164647265737360881b6044820152606490fd5b60405162461bcd60e51b815260206004820152601860248201527f5468697320746f6b656e206973206e6f74204c697374656400000000000000006044820152606490fd5b8380fd5b50346100f85760603660031901126100f85760043560243561115161152c565b61115961165a565b60018060a01b0316903384526003602052604084206040516331a9108f60e11b8152846004820152602081602481875afa9081156112bb57869161134f575b50336001600160a01b039091160361130057600481019060ff8254166112ca576002810180546001600160a01b0319908116861790915581541633178155600381018390556001908101859055815460ff1916178155823b156112c657604051632142170760e11b815233600482015230602482015260448101859052858160648183885af180156112bb5761127b575b50917fa704c2f7861cb3e3fe5f14f2130761e59fbecf01cb35680cc00620ca3c02c16f939160ff60a0945416916040519333855260208501526040840152606083015215156080820152a16001805580f35b9160ff866112af60a09694987fa704c2f7861cb3e3fe5f14f2130761e59fbecf01cb35680cc00620ca3c02c16f9896611574565b96929450509193611229565b6040513d88823e3d90fd5b8480fd5b60405162461bcd60e51b815260206004820152600e60248201526d105b1c9958591e48131a5cdd195960921b6044820152606490fd5b60405162461bcd60e51b815260206004820152602160248201527f596f7520617265206e6f7420746865206f776e6572206f662074686973204e666044820152601d60fa1b6064820152608490fd5b90506020813d60201161138d575b8161136a60209383611574565b8101031261138957516001600160a01b03811681036113895738611198565b8580fd5b3d915061135d565b50346100f85760203660031901126100f857604060a0916113b46114fb565b6113bc6115b9565b50600180851b031681526003602052206040516113d881611542565b600180841b0382541691828252600181015460208301908152600180861b036002830154169060408401918252608060ff60046003860154956060880196875201541694019315158452604051948552516020850152600180861b0390511660408401525160608301525115156080820152f35b9050346101e95760803660031901126101e9576114676114fb565b50611470611516565b506064359067ffffffffffffffff821161066657366023830112156106665781600401359067ffffffffffffffff82116114e7576114b8601f8301601f191660200182611574565b818152366024838501011161112d578160246020940184830137010152604051630a85bd0160e11b8152602090f35b634e487b7160e01b84526041600452602484fd5b600435906001600160a01b038216820361151157565b600080fd5b602435906001600160a01b038216820361151157565b604435906001600160a01b038216820361151157565b60a0810190811067ffffffffffffffff82111761155e57604052565b634e487b7160e01b600052604160045260246000fd5b90601f8019910116810190811067ffffffffffffffff82111761155e57604052565b9060038210156115a35752565b634e487b7160e01b600052602160045260246000fd5b604051906115c682611542565b60006080838281528260208201528260408201528260608201520152565b6001600160a01b03168015611644576000805160206118c583398151915280546001600160a01b0319811683179091556001600160a01b03167f8be0079c531659141344cd1fd0a4f28419497f9722a3daafe3b4186f6b6457e0600080a3565b631e4fbdf760e01b600052600060045260246000fd5b60026001541461166b576002600155565b633ee5aeb560e01b60005260046000fd5b6000805160206118c5833981519152546001600160a01b0316330361169d57565b63118cdaa760e01b6000523360045260246000fd5b60065460009591946001600160a01b0390941693919060ff168015611845578083029083820414831517156118315760649004868080808460018060a01b03825416828215611828575bf1156112bb578654604080516001600160a01b039092168252602082018390527f56a87afabcc5be804fc847379d1f4e3408f49b3016cc7dcea295265f59a0bd5791a180830391838311611814576001600160a01b03169287918391859184911461180b575b839283928392f115611800577ff474f1647716b20d13fea8c36a785eabe9a98725dd210a911b9e0fc1508a6af4916060916040519182526020820152426040820152a1813b1561112d57604051632142170760e11b81523060048201526001600160a01b03919091166024820152604481019290925282908290606490829084905af1801561065b576117f3575050565b816117fd91611574565b50565b6040513d87823e3d90fd5b506108fc611762565b634e487b7160e01b88526011600452602488fd5b506108fc6116fc565b634e487b7160e01b87526011600452602487fd5b60405162461bcd60e51b8152602060048201526024808201527f4d61726b6574506c616365206e6f742073657420736572766963652066656573604482015263081e595d60e21b6064820152608490fd5b60ff6000805160206118e58339815191525460401c16156118b357565b631afcd79f60e31b60005260046000fdfe9016d09d72d40fdae2fd8ceac6b6234c7706214fd39c1cd1e609a0528c199300f0c57e16840df040f15088dc2f81fe391c3923bec73e23a9662efc9c229c6a00a26469706673582212205336f439bf43fb0ab23da2cc49602901075bc0dbbe28b0a0634c2bcc3d472f1764736f6c634300081a0033",
  "linkReferences": {},
  "deployedLinkReferences": {}
}