{
  "_format": "hh-sol-artifact-1",
  "contractName": "NatirumMarketplace",
  "sourceName": "contracts/Natrium-Nft-Marketplace.sol",
  "abi": [
    {
      "inputs": [],
      "name": "InvalidInitialization",
      "type": "error"
    },
    {
      "inputs": [],
      "name": "NotInitializing",
      "type": "error"
    },
    {
      "inputs": [
        {
          "internalType": "address",
          "name": "owner",
          "type": "address"
        }
      ],
      "name": "OwnableInvalidOwner",
      "type": "error"
    },
    {
      "inputs": [
        {
          "internalType": "address",
          "name": "account",
          "type": "address"
        }
      ],
      "name": "OwnableUnauthorizedAccount",
      "type": "error"
    },
    {
      "inputs": [],
      "name": "ReentrancyGuardReentrantCall",
      "type": "error"
    },
    {
      "anonymous": false,
      "inputs": [
        {
          "indexed": false,
          "internalType": "uint64",
          "name": "version",
          "type": "uint64"
        }
      ],
      "name": "Initialized",
      "type": "event"
    },
    {
      "anonymous": false,
      "inputs": [
        {
          "indexed": false,
          "internalType": "address",
          "name": "seller",
          "type": "address"
        },
        {
          "indexed": false,
          "internalType": "uint256",
          "name": "tokenID",
          "type": "uint256"
        },
        {
          "indexed": false,
          "internalType": "address",
          "name": "hostContract",
          "type": "address"
        },
        {
          "indexed": false,
          "internalType": "uint256",
          "name": "nftPrice",
          "type": "uint256"
        },
        {
          "indexed": false,
          "internalType": "bool",
          "name": "isListed",
          "type": "bool"
        }
      ],
      "name": "ListNFT",
      "type": "event"
    },
    {
      "anonymous": false,
      "inputs": [
        {
          "indexed": true,
          "internalType": "address",
          "name": "previousOwner",
          "type": "address"
        },
        {
          "indexed": true,
          "internalType": "address",
          "name": "newOwner",
          "type": "address"
        }
      ],
      "name": "OwnershipTransferred",
      "type": "event"
    },
    {
      "anonymous": false,
      "inputs": [
        {
          "indexed": false,
          "internalType": "address",
          "name": "buyer",
          "type": "address"
        },
        {
          "indexed": false,
          "internalType": "uint256",
          "name": "offerPrice",
          "type": "uint256"
        },
        {
          "indexed": false,
          "internalType": "bool",
          "name": "isRejected",
          "type": "bool"
        }
      ],
      "name": "RejectOffer",
      "type": "event"
    },
    {
      "anonymous": false,
      "inputs": [
        {
          "indexed": false,
          "internalType": "address",
          "name": "seller",
          "type": "address"
        },
        {
          "indexed": false,
          "internalType": "uint256",
          "name": "tokenID",
          "type": "uint256"
        },
        {
          "indexed": false,
          "internalType": "address",
          "name": "hostContract",
          "type": "address"
        },
        {
          "indexed": false,
          "internalType": "bool",
          "name": "isUnlisted",
          "type": "bool"
        }
      ],
      "name": "UnListNFT",
      "type": "event"
    },
    {
      "anonymous": false,
      "inputs": [
        {
          "indexed": false,
          "internalType": "address",
          "name": "buyer",
          "type": "address"
        },
        {
          "indexed": false,
          "internalType": "uint256",
          "name": "acceptedPrice",
          "type": "uint256"
        },
        {
          "indexed": false,
          "internalType": "uint256",
          "name": "tokenId",
          "type": "uint256"
        },
        {
          "indexed": false,
          "internalType": "bool",
          "name": "isAccepted",
          "type": "bool"
        }
      ],
      "name": "acceptOffer",
      "type": "event"
    },
    {
      "anonymous": false,
      "inputs": [
        {
          "indexed": false,
          "internalType": "address",
          "name": "buyer",
          "type": "address"
        },
        {
          "indexed": false,
          "internalType": "uint256",
          "name": "tokenID",
          "type": "uint256"
        },
        {
          "indexed": false,
          "internalType": "uint256",
          "name": "paidPrice",
          "type": "uint256"
        },
        {
          "indexed": false,
          "internalType": "uint256",
          "name": "timeStamp",
          "type": "uint256"
        }
      ],
      "name": "buyNFT",
      "type": "event"
    },
    {
      "anonymous": false,
      "inputs": [
        {
          "indexed": false,
          "internalType": "address",
          "name": "buyer",
          "type": "address"
        },
        {
          "indexed": false,
          "internalType": "uint256",
          "name": "offerPrice",
          "type": "uint256"
        }
      ],
      "name": "makeOffer",
      "type": "event"
    },
    {
      "anonymous": false,
      "inputs": [
        {
          "indexed": false,
          "internalType": "address",
          "name": "admin",
          "type": "address"
        },
        {
          "indexed": false,
          "internalType": "uint8",
          "name": "serviceFee",
          "type": "uint8"
        }
      ],
      "name": "servicePercentage",
      "type": "event"
    },
    {
      "anonymous": false,
      "inputs": [
        {
          "indexed": false,
          "internalType": "address",
          "name": "seller",
          "type": "address"
        },
        {
          "indexed": false,
          "internalType": "uint256",
          "name": "nftPrice",
          "type": "uint256"
        },
        {
          "indexed": false,
          "internalType": "uint256",
          "name": "timeStamp",
          "type": "uint256"
        }
      ],
      "name": "transferNftPrice",
      "type": "event"
    },
    {
      "anonymous": false,
      "inputs": [
        {
          "indexed": false,
          "internalType": "address",
          "name": "owner",
          "type": "address"
        },
        {
          "indexed": false,
          "internalType": "uint256",
          "name": "serviceFees",
          "type": "uint256"
        }
      ],
      "name": "transferServiceFees",
      "type": "event"
    },
    {
      "inputs": [
        {
          "internalType": "uint256",
          "name": "_tokenId",
          "type": "uint256"
        },
        {
          "internalType": "address",
          "name": "_buyer",
          "type": "address"
        }
      ],
      "name": "acceptOffers",
      "outputs": [],
      "stateMutability": "nonpayable",
      "type": "function"
    },
    {
      "inputs": [
        {
          "internalType": "uint256",
          "name": "_tokenId",
          "type": "uint256"
        },
        {
          "internalType": "address",
          "name": "_seller",
          "type": "address"
        },
        {
          "internalType": "address",
          "name": "_hostContract",
          "type": "address"
        }
      ],
      "name": "buyNft",
      "outputs": [],
      "stateMutability": "payable",
      "type": "function"
    },
    {
      "inputs": [],
      "name": "contractOwner",
      "outputs": [
        {
          "internalType": "address",
          "name": "",
          "type": "address"
        }
      ],
      "stateMutability": "view",
      "type": "function"
    },
    {
      "inputs": [
        {
          "internalType": "uint256",
          "name": "_tokenId",
          "type": "uint256"
        },
        {
          "internalType": "uint256",
          "name": "_offerPrice",
          "type": "uint256"
        },
        {
          "internalType": "uint256",
          "name": "_offerExpiry",
          "type": "uint256"
        },
        {
          "internalType": "address",
          "name": "_seller",
          "type": "address"
        }
      ],
      "name": "createOffer",
      "outputs": [],
      "stateMutability": "payable",
      "type": "function"
    },
    {
      "inputs": [],
      "name": "getNftDetails",
      "outputs": [
        {
          "components": [
            {
              "internalType": "address",
              "name": "seller",
              "type": "address"
            },
            {
              "internalType": "address[]",
              "name": "offererAddress",
              "type": "address[]"
            },
            {
              "internalType": "uint256[]",
              "name": "offererAmount",
              "type": "uint256[]"
            },
            {
              "internalType": "uint256",
              "name": "tokenID",
              "type": "uint256"
            },
            {
              "internalType": "address",
              "name": "hostContract",
              "type": "address"
            },
            {
              "internalType": "uint256",
              "name": "nftPrice",
              "type": "uint256"
            },
            {
              "internalType": "bool",
              "name": "isListed",
              "type": "bool"
            }
          ],
          "internalType": "struct NatirumMarketplace.NftDetails[]",
          "name": "",
          "type": "tuple[]"
        }
      ],
      "stateMutability": "view",
      "type": "function"
    },
    {
      "inputs": [],
      "name": "getOfferDetails",
      "outputs": [
        {
          "components": [
            {
              "internalType": "address",
              "name": "buyer",
              "type": "address"
            },
            {
              "internalType": "uint256",
              "name": "tokenID",
              "type": "uint256"
            },
            {
              "internalType": "uint256",
              "name": "offerPrice",
              "type": "uint256"
            },
            {
              "internalType": "uint256",
              "name": "offerExpire",
              "type": "uint256"
            },
            {
              "internalType": "bool",
              "name": "offerPlaced",
              "type": "bool"
            }
          ],
          "internalType": "struct NatirumMarketplace.OfferDetails",
          "name": "",
          "type": "tuple"
        }
      ],
      "stateMutability": "view",
      "type": "function"
    },
    {
      "inputs": [],
      "name": "initialize",
      "outputs": [],
      "stateMutability": "nonpayable",
      "type": "function"
    },
    {
      "inputs": [
        {
          "internalType": "uint256",
          "name": "_tokenId",
          "type": "uint256"
        },
        {
          "internalType": "uint256",
          "name": "_price",
          "type": "uint256"
        },
        {
          "internalType": "address",
          "name": "_hostContract",
          "type": "address"
        }
      ],
      "name": "listNft",
      "outputs": [],
      "stateMutability": "nonpayable",
      "type": "function"
    },
    {
      "inputs": [
        {
          "internalType": "address",
          "name": "",
          "type": "address"
        },
        {
          "internalType": "address",
          "name": "",
          "type": "address"
        },
        {
          "internalType": "uint256",
          "name": "",
          "type": "uint256"
        },
        {
          "internalType": "bytes",
          "name": "",
          "type": "bytes"
        }
      ],
      "name": "onERC721Received",
      "outputs": [
        {
          "internalType": "bytes4",
          "name": "",
          "type": "bytes4"
        }
      ],
      "stateMutability": "nonpayable",
      "type": "function"
    },
    {
      "inputs": [],
      "name": "owner",
      "outputs": [
        {
          "internalType": "address",
          "name": "",
          "type": "address"
        }
      ],
      "stateMutability": "view",
      "type": "function"
    },
    {
      "inputs": [
        {
          "internalType": "uint256",
          "name": "_tokenId",
          "type": "uint256"
        },
        {
          "internalType": "address",
          "name": "_buyer",
          "type": "address"
        }
      ],
      "name": "rejectOffer",
      "outputs": [],
      "stateMutability": "nonpayable",
      "type": "function"
    },
    {
      "inputs": [],
      "name": "renounceOwnership",
      "outputs": [],
      "stateMutability": "nonpayable",
      "type": "function"
    },
    {
      "inputs": [
        {
          "internalType": "uint8",
          "name": "_serviceFees",
          "type": "uint8"
        }
      ],
      "name": "setServiceFees",
      "outputs": [],
      "stateMutability": "nonpayable",
      "type": "function"
    },
    {
      "inputs": [
        {
          "internalType": "address",
          "name": "",
          "type": "address"
        }
      ],
      "name": "trackOfferPrice",
      "outputs": [
        {
          "internalType": "uint256",
          "name": "",
          "type": "uint256"
        }
      ],
      "stateMutability": "view",
      "type": "function"
    },
    {
      "inputs": [
        {
          "internalType": "address",
          "name": "newOwner",
          "type": "address"
        }
      ],
      "name": "transferOwnership",
      "outputs": [],
      "stateMutability": "nonpayable",
      "type": "function"
    },
    {
      "inputs": [
        {
          "internalType": "uint256",
          "name": "_tokenId",
          "type": "uint256"
        }
      ],
      "name": "unListNft",
      "outputs": [],
      "stateMutability": "nonpayable",
      "type": "function"
    }
  ],
  "bytecode": "0x60808060405234601557611ebb908161001b8239f35b600080fdfe608080604052600436101561001357600080fd5b600090813560e01c9081630ab0210c1461173c57508063150b7a021461169d578063292c30a21461166457806340e250d3146112085780634370fb3414610f20578063715018a614610eb657806372a43b9c14610cfe5780637cde120214610a6e5780638129fc1c146108cf5780638da5cb5b14610899578063ab67b2361461066e578063ce606ee014610647578063d35cfcd41461047c578063db9371c2146101c5578063f24639c6146101005763f2fde38b146100d157600080fd5b346100fd5760203660031901126100fd576100fa6100ed6117f0565b6100f5611bdd565b611b2b565b80f35b80fd5b50346100fd5760203660031901126100fd5760043560ff81168091036101c157610128611bdd565b801561016d576040817ffc893db7ca6eb178a7bd93cdeb99ea5fa6570d124b4f04b50f9a727e21cc91029260ff1960055416176005558151903382526020820152a180f35b60405162461bcd60e51b815260206004820152602660248201527f536572766963652046656573206d7573742062652067726561746572207468616044820152656e207a65726f60d01b6064820152608490fd5b5080fd5b50346100fd5760403660031901126100fd576004356101e261180b565b6101ea611ba1565b6001600160a01b0316808352600260205260408084209051919261020d83611837565b60018060a01b03825416835260ff60046001840154936020860194855260028101546040870152600381015460608701520154161515608084015233855260016020526040852081865260205261026660408620611a1a565b9151036104445782845260036020526040842054156103f35781516001600160a01b03168390036103b657516001600160a01b031633036103675781835260036020528280808060408120548095878352600360205282604081205560018060a01b0390511682821561035e575bf1156103535760607f16e834b19bcc6f577f7e0ed83bb4cb1df810ec798f673e5ca46faec8324d5a6b9160405190848252602082015260016040820152a18152600260205261033e6040822060046000918281558260018201558260028201558260038201550155565b6001600080516020611e468339815191525580f35b6040513d84823e3d90fd5b506108fc6102d4565b60405162461bcd60e51b815260206004820152602160248201527f4f6e6c792053656c6c65722063616e2072656a6563742074686973206f6666656044820152603960f91b6064820152608490fd5b60405162461bcd60e51b8152602060048201526015602482015274496e56616c6964204275796572204164647265737360581b6044820152606490fd5b60405162461bcd60e51b815260206004820152602360248201527f4e6f204f6666657220686173207265636569766564206f6e207468697320746f60448201526235b2b760e91b6064820152608490fd5b60405162461bcd60e51b815260206004820152601060248201526f125b9d985b1a59081d1bdad95b88125960821b6044820152606490fd5b50346100fd57806003193601126100fd5760045467ffffffffffffffff8111610633576040516104b260208360051b0182611869565b818152600483526020810191837f8a35acfbc15ff81a39ae7d344fd709f28e8600b4aa8c65c6b64bfe7fe36bd19b845b8383106106155786858760405192839260208401906020855251809152604084019160408260051b8601019392815b83831061051e5786860387f35b919395509193603f1987820301835285519060e081019160018060a01b03815116825260208101519260e0602084015283518091526020610100840194019085905b8082106105f35750505060408101519282810360408401526020808551928381520194019085905b8082106105db5750505060019260209260c080846060879601516060850152878060a01b03608082015116608085015260a081015160a08501520151151591015297019301930190928695949293610511565b90919460208060019288518152019601920190610588565b82516001600160a01b0316865260209586019590920191600190910190610560565b6007602060019261062585611a1a565b8152019201920191906104e2565b634e487b7160e01b82526041600452602482fd5b50346100fd57806003193601126100fd57546040516001600160a01b039091168152602090f35b50346100fd5760203660031901126100fd5760043561068b611ba1565b338083526001602090815260408085208486529091528320546001600160a01b0316036108495733825260016020526040822081835260205260ff600660408420015416156108105733808352600160208181526040808620858752825280862060040154938652918152818520848652905283205483916001600160a01b039182169116803b1561080c57604051632142170760e11b81523060048201526001600160a01b039290921660248301526044820184905282908290606490829084905af18015610353576107f7575b50503382526001602052604082208183526020527f62a8c32d7e607200e5e6c5986d2407a01f983fe1af6d31899fb1e32c6fd1f2c2608060018060a01b0360408520541633855260016020526040852084865260205260018060a01b03600460408720015416604051918252846020830152604082015260016060820152a133825260016020526040822090825260205261033e604082206119d6565b8161080191611869565b6101c157813861075a565b8280fd5b60405162461bcd60e51b815260206004820152601160248201527013999d081a5cc81b9bdd08131a5cdd1959607a1b6044820152606490fd5b60405162461bcd60e51b815260206004820152602260248201527f4f6e6c792053656c6c65722063616e20756e4c69737420686973206f776e204e604482015261199d60f21b6064820152608490fd5b50346100fd57806003193601126100fd57600080516020611e26833981519152546040516001600160a01b039091168152602090f35b50346100fd57806003193601126100fd57600080516020611e668339815191525460ff8160401c16159067ffffffffffffffff811680159081610a66575b6001149081610a5c575b159081610a53575b50610a445767ffffffffffffffff198116600117600080516020611e668339815191525581610a17575b50610952611df7565b61095a611df7565b61096333611b2b565b61096b611df7565b81546001600160a01b03191633178255610983611df7565b61098b611df7565b61099433611b2b565b61099c611df7565b6109a4611df7565b6001600080516020611e46833981519152556109bd5780f35b68ff000000000000000019600080516020611e668339815191525416600080516020611e66833981519152557fc7f505b2f371ae2175ee4913f4499e1f2633a7b5936321eed1cdaeb6115181d2602060405160018152a180f35b68ffffffffffffffffff19166801000000000000000117600080516020611e668339815191525538610949565b63f92ee8a960e01b8352600483fd5b9050153861091f565b303b159150610917565b83915061090d565b50346100fd5760403660031901126100fd57600435610a8b61180b565b90610a94611ba1565b338352600160205260408320818452602052610ab260408420611a1a565b6001600160a01b0383168085526002602052604080862090519194929190610ad982611837565b80546001600160a01b039081168352600182015460208401526002820154604084015260038201546060840190815260049092015460ff1615156080909301928352835133911603610cba578587526003602052604087205415610c7d5751421015610c48575115610c03577f2b0295c6245bbde9b0128fbea0ea5fe173b82a59a739f77c5fc7deba224dbffc91610b9f608092868852600360205260408820548093888a52600360205289604081205533928660018060a01b03910151169088611c13565b60405190858252602082015283604082015260016060820152a1338352600160205260408320908352602052610bd7604083206119d6565b8152600260205261033e6040822060046000918281558260018201558260028201558260038201550155565b60405162461bcd60e51b815260206004820152601760248201527f5468697320746f6b656e20686173206e6f206f666665720000000000000000006044820152606490fd5b60405162461bcd60e51b815260206004820152600d60248201526c13d999995c88115e1c1a5c9959609a1b6044820152606490fd5b60405162461bcd60e51b81526020600482015260156024820152742237b2b9b713ba103932b1b2b4bb329037b33332b960591b6044820152606490fd5b606460405162461bcd60e51b815260206004820152602060248201527f4f6e6c792053656c6c65722063616e2061636365707420746865206f666665726044820152fd5b5060603660031901126100fd57600435610d1661180b565b610d1e611821565b610d26611ba1565b60018060a01b0382169182855260016020526040852084865260205260056040862001548386526001602052604086208587526020528360018060a01b0360408820541603610e805780341480610e77575b15610e3c5783865260016020526040862085875260205260018060a01b036040872054163314610e0657610dad923386611c13565b7fa8c8c76dcbc214f2bf1ff14e46e52c719da6477410ad492c29eb45fd05acb6246080604051338152846020820152346040820152426060820152a1825260016020526040822090825260205261033e604082206119d6565b60405162461bcd60e51b815260206004820152600e60248201526d43616e27742053656c662062757960901b6044820152606490fd5b60405162461bcd60e51b8152602060048201526013602482015272125b94dd59999a58da595b9d08105b5bdd5b9d606a1b6044820152606490fd5b50801515610d78565b60405162461bcd60e51b815260206004820152600e60248201526d24b73b30b634b21029b2b63632b960911b6044820152606490fd5b50346100fd57806003193601126100fd57610ecf611bdd565b600080516020611e2683398151915280546001600160a01b0319811690915581906001600160a01b03167f8be0079c531659141344cd1fd0a4f28419497f9722a3daafe3b4186f6b6457e08280a380f35b5060803660031901126100fd576064356001600160a01b0381169060443590600435906024359084900361120457610f56611ba1565b83855260016020526040852082865260205260408520933386526002602052604086209060ff600687015416156111bf5785546001600160a01b03160361118857428411156111565781340361112057600481019360ff8554166110e4576001923388526003602052346040892055838060a01b0333166bffffffffffffffffffffffff60a01b845416178355600283015560038201550155600160ff1982541617905560018101805490600160401b8210156110d05781611020916001600295940181556119a8565b81546001600160a01b0360039290921b91821b19163390911b17905501805490600160401b8210156110bc579061105c916001820181556119a8565b815460001960039290921b91821b1916349182901b179091556040805133815260208101929092527fb2a4706eb30fbca70b94141708a50a456d89844927f443dadcde61e3920ab6af91a16001600080516020611e468339815191525580f35b634e487b7160e01b83526041600452602483fd5b634e487b7160e01b84526041600452602484fd5b60405162461bcd60e51b815260206004820152601460248201527320b63932b0b23c90283630b1b2b21027b33332b960611b6044820152606490fd5b60405162461bcd60e51b815260206004820152600e60248201526d125b9d985b1a5908185b5bdd5b9d60921b6044820152606490fd5b60405162461bcd60e51b815260206004820152600a6024820152692a34b6b29022b93937b960b11b6044820152606490fd5b60405162461bcd60e51b815260206004820152600f60248201526e496e76616c6964204164647265737360881b6044820152606490fd5b60405162461bcd60e51b815260206004820152601860248201527f5468697320746f6b656e206973206e6f74204c697374656400000000000000006044820152606490fd5b8480fd5b50346100fd5760603660031901126100fd57600435602435611228611821565b611230611ba1565b60018060a01b03169033845260016020526040842083855260205260408420600681019060ff82541661162e576040516331a9108f60e11b815260048101869052602081602481885afa9081156116235787916115dd575b50336001600160a01b039091160361158e57600481810180546001600160a01b031990811687178255835416331783556005830185815560038401888155855460ff191660011786559254909190600160401b81101561157a5760018101806004558110156115665760079060048b520292837f8a35acfbc15ff81a39ae7d344fd709f28e8600b4aa8c65c6b64bfe7fe36bd19b0194808603611412575b505050505050823b1561120457604051632142170760e11b815233600482015230602482015260448101859052858160648183885af18015611407576113c7575b50917fa704c2f7861cb3e3fe5f14f2130761e59fbecf01cb35680cc00620ca3c02c16f939160ff60a0945416916040519333855260208501526040840152606083015215156080820152a16001600080516020611e468339815191525580f35b9160ff866113fb60a09694987fa704c2f7861cb3e3fe5f14f2130761e59fbecf01cb35680cc00620ca3c02c16f9896611869565b96929450509193611367565b6040513d88823e3d90fd5b805486546001600160a01b0319166001600160a01b0391909116179095557f8a35acfbc15ff81a39ae7d344fd709f28e8600b4aa8c65c6b64bfe7fe36bd1a1946114b190600290611488600182017f8a35acfbc15ff81a39ae7d344fd709f28e8600b4aa8c65c6b64bfe7fe36bd19c89016118db565b017f8a35acfbc15ff81a39ae7d344fd709f28e8600b4aa8c65c6b64bfe7fe36bd19d8601611949565b547f8a35acfbc15ff81a39ae7d344fd709f28e8600b4aa8c65c6b64bfe7fe36bd19e84015560018060a01b039054167f8a35acfbc15ff81a39ae7d344fd709f28e8600b4aa8c65c6b64bfe7fe36bd19f83019060018060a01b03166bffffffffffffffffffffffff60a01b825416179055547f8a35acfbc15ff81a39ae7d344fd709f28e8600b4aa8c65c6b64bfe7fe36bd1a08201550160ff825416151560ff80198354169116179055388080808080611326565b634e487b7160e01b8a52603260045260248afd5b634e487b7160e01b8a52604160045260248afd5b60405162461bcd60e51b815260206004820152602160248201527f596f7520617265206e6f7420746865206f776e6572206f662074686973204e666044820152601d60fa1b6064820152608490fd5b90506020813d60201161161b575b816115f860209383611869565b8101031261161757516001600160a01b03811681036116175738611288565b8680fd5b3d91506115eb565b6040513d89823e3d90fd5b60405162461bcd60e51b815260206004820152600e60248201526d105b1c9958591e48131a5cdd195960921b6044820152606490fd5b50346100fd5760203660031901126100fd576020906040906001600160a01b0361168c6117f0565b168152600383522054604051908152f35b50346100fd5760803660031901126100fd576116b76117f0565b506116c061180b565b5060643567ffffffffffffffff81116101c157366023820112156101c157806004013567ffffffffffffffff81116110bc57604051611709601f8301601f191660200182611869565b8181523660248385010111611738578160246020940184830137010152604051630a85bd0160e11b8152602090f35b8380fd5b9050346101c157816003193601126101c1578160a092608083611760604095611837565b8281528260208201528285820152826060820152015233815260026020522060405161178b81611837565b600180841b038254169182825260018101546020830190815260028201549060408401918252608060ff600460038601549560608801968752015416940193151584526040519485525160208501525160408401525160608301525115156080820152f35b600435906001600160a01b038216820361180657565b600080fd5b602435906001600160a01b038216820361180657565b604435906001600160a01b038216820361180657565b60a0810190811067ffffffffffffffff82111761185357604052565b634e487b7160e01b600052604160045260246000fd5b90601f8019910116810190811067ffffffffffffffff82111761185357604052565b91909182821061189a57505050565b600052602060002091820191015b8181106118b3575050565b600081556001016118a8565b90600160401b81116118535781548183556118d99261188b565b565b8181146119455781549167ffffffffffffffff8311611853576118fe83836118bf565b60005260206000209060005260206000208154916000925b848410611924575050505050565b600191820180546001600160a01b0390921684860155939091019290611916565b5050565b8181146119455781549167ffffffffffffffff83116118535761196c83836118bf565b60005260206000209060005260206000208154916000925b848410611992575050505050565b6001809192019384549281850155019290611984565b80548210156119c05760005260206000200190600090565b634e487b7160e01b600052603260045260246000fd5b60066000918281556119f1836001830180549082815561188b565b611a04836002830180549082815561188b565b8260038201558260048201558260058201550155565b9060405160e0810181811067ffffffffffffffff82111761185357604052809260018060a01b038154168252600181016040518082602082945493848152019060005260206000209260005b818110611b09575050611a7b92500382611869565b60208301526002810160405190816020825491828152019160005260206000209060005b818110611af35750505060c09282611abd60ff946006940382611869565b60408601526003810154606086015260048101546001600160a01b03166080860152600581015460a08601520154161515910152565b8254845260209093019260019283019201611a9f565b84546001600160a01b0316835260019485019486945060209093019201611a66565b6001600160a01b03168015611b8b57600080516020611e2683398151915280546001600160a01b0319811683179091556001600160a01b03167f8be0079c531659141344cd1fd0a4f28419497f9722a3daafe3b4186f6b6457e0600080a3565b631e4fbdf760e01b600052600060045260246000fd5b6002600080516020611e468339815191525414611bcc576002600080516020611e4683398151915255565b633ee5aeb560e01b60005260046000fd5b600080516020611e26833981519152546001600160a01b03163303611bfe57565b63118cdaa760e01b6000523360045260246000fd5b60055460009591946001600160a01b0390941693919060ff168015611da657808302908382041483151715611d925760649004868080808460018060a01b03825416828215611d89575bf115611407578654604080516001600160a01b039092168252602082018390527f56a87afabcc5be804fc847379d1f4e3408f49b3016cc7dcea295265f59a0bd5791a180830391838311611d75576001600160a01b031692879183918591849114611d6c575b839283928392f115611d61577ff474f1647716b20d13fea8c36a785eabe9a98725dd210a911b9e0fc1508a6af4916060916040519182526020820152426040820152a1813b1561173857604051632142170760e11b81523060048201526001600160a01b03919091166024820152604481019290925282908290606490829084905af1801561035357611d54575050565b81611d5e91611869565b50565b6040513d87823e3d90fd5b506108fc611cc3565b634e487b7160e01b88526011600452602488fd5b506108fc611c5d565b634e487b7160e01b87526011600452602487fd5b60405162461bcd60e51b8152602060048201526024808201527f4d61726b6574506c616365206e6f742073657420736572766963652066656573604482015263081e595d60e21b6064820152608490fd5b60ff600080516020611e668339815191525460401c1615611e1457565b631afcd79f60e31b60005260046000fdfe9016d09d72d40fdae2fd8ceac6b6234c7706214fd39c1cd1e609a0528c1993009b779b17422d0df92223018b32b4d1fa46e071723d6817e2486d003becc55f00f0c57e16840df040f15088dc2f81fe391c3923bec73e23a9662efc9c229c6a00a2646970667358221220735ae54fa17ac4b5e55e1c04c40f0086fafeeb00170c4ad486bfb1d428d6e7c364736f6c634300081a0033",
  "linkReferences": {},
  "deployedLinkReferences": {}
}