{
  "_format": "hh-sol-artifact-1",
  "contractName": "NatirumMarketplace",
  "sourceName": "contracts/marketplace.sol",
  "abi": [
    {
      "inputs": [],
      "name": "InvalidInitialization",
      "type": "error"
    },
    {
      "inputs": [],
      "name": "NotInitializing",
      "type": "error"
    },
    {
      "inputs": [
        {
          "internalType": "address",
          "name": "owner",
          "type": "address"
        }
      ],
      "name": "OwnableInvalidOwner",
      "type": "error"
    },
    {
      "inputs": [
        {
          "internalType": "address",
          "name": "account",
          "type": "address"
        }
      ],
      "name": "OwnableUnauthorizedAccount",
      "type": "error"
    },
    {
      "inputs": [],
      "name": "ReentrancyGuardReentrantCall",
      "type": "error"
    },
    {
      "anonymous": false,
      "inputs": [
        {
          "indexed": false,
          "internalType": "address",
          "name": "owner",
          "type": "address"
        },
        {
          "indexed": false,
          "internalType": "address",
          "name": "hostContract",
          "type": "address"
        },
        {
          "indexed": false,
          "internalType": "uint256",
          "name": "tokenID",
          "type": "uint256"
        },
        {
          "indexed": false,
          "internalType": "string",
          "name": "tokenUri",
          "type": "string"
        },
        {
          "indexed": false,
          "internalType": "string",
          "name": "CollectionUri",
          "type": "string"
        },
        {
          "indexed": false,
          "internalType": "string",
          "name": "TicketType",
          "type": "string"
        },
        {
          "indexed": false,
          "internalType": "uint256",
          "name": "previousPrice",
          "type": "uint256"
        },
        {
          "indexed": false,
          "internalType": "uint256",
          "name": "currentPrice",
          "type": "uint256"
        },
        {
          "indexed": false,
          "internalType": "uint256",
          "name": "NftExpire",
          "type": "uint256"
        },
        {
          "indexed": false,
          "internalType": "uint256",
          "name": "timestamps",
          "type": "uint256"
        }
      ],
      "name": "GetNft",
      "type": "event"
    },
    {
      "anonymous": false,
      "inputs": [
        {
          "indexed": false,
          "internalType": "uint64",
          "name": "version",
          "type": "uint64"
        }
      ],
      "name": "Initialized",
      "type": "event"
    },
    {
      "anonymous": false,
      "inputs": [
        {
          "indexed": false,
          "internalType": "address",
          "name": "seller",
          "type": "address"
        },
        {
          "indexed": false,
          "internalType": "string",
          "name": "CollectionURI",
          "type": "string"
        },
        {
          "indexed": false,
          "internalType": "uint256",
          "name": "tokenID",
          "type": "uint256"
        },
        {
          "indexed": false,
          "internalType": "string",
          "name": "TicketType",
          "type": "string"
        },
        {
          "indexed": false,
          "internalType": "string",
          "name": "tokenUri",
          "type": "string"
        },
        {
          "indexed": false,
          "internalType": "address",
          "name": "hostContract",
          "type": "address"
        },
        {
          "indexed": false,
          "internalType": "uint256",
          "name": "nftPrice",
          "type": "uint256"
        },
        {
          "indexed": false,
          "internalType": "uint256",
          "name": "Expiration",
          "type": "uint256"
        }
      ],
      "name": "ListNFT",
      "type": "event"
    },
    {
      "anonymous": false,
      "inputs": [
        {
          "indexed": true,
          "internalType": "address",
          "name": "previousOwner",
          "type": "address"
        },
        {
          "indexed": true,
          "internalType": "address",
          "name": "newOwner",
          "type": "address"
        }
      ],
      "name": "OwnershipTransferred",
      "type": "event"
    },
    {
      "anonymous": false,
      "inputs": [
        {
          "indexed": false,
          "internalType": "address",
          "name": "buyer",
          "type": "address"
        },
        {
          "indexed": false,
          "internalType": "uint256",
          "name": "offerPrice",
          "type": "uint256"
        },
        {
          "indexed": false,
          "internalType": "bool",
          "name": "isRejected",
          "type": "bool"
        }
      ],
      "name": "RejectOffer",
      "type": "event"
    },
    {
      "anonymous": false,
      "inputs": [
        {
          "indexed": false,
          "internalType": "address",
          "name": "admin",
          "type": "address"
        },
        {
          "indexed": false,
          "internalType": "uint8",
          "name": "serviceFee",
          "type": "uint8"
        }
      ],
      "name": "ServiceFees",
      "type": "event"
    },
    {
      "anonymous": false,
      "inputs": [
        {
          "indexed": false,
          "internalType": "address",
          "name": "from",
          "type": "address"
        },
        {
          "indexed": false,
          "internalType": "address",
          "name": "to",
          "type": "address"
        },
        {
          "indexed": false,
          "internalType": "uint256",
          "name": "tokenID",
          "type": "uint256"
        },
        {
          "indexed": false,
          "internalType": "uint256",
          "name": "paidPrice",
          "type": "uint256"
        },
        {
          "indexed": false,
          "internalType": "uint256",
          "name": "timeStamp",
          "type": "uint256"
        }
      ],
      "name": "TransferNft",
      "type": "event"
    },
    {
      "anonymous": false,
      "inputs": [
        {
          "indexed": false,
          "internalType": "address",
          "name": "seller",
          "type": "address"
        },
        {
          "indexed": false,
          "internalType": "uint256",
          "name": "tokenID",
          "type": "uint256"
        },
        {
          "indexed": false,
          "internalType": "address",
          "name": "hostContract",
          "type": "address"
        },
        {
          "indexed": false,
          "internalType": "bool",
          "name": "isUnlisted",
          "type": "bool"
        }
      ],
      "name": "UnListNFT",
      "type": "event"
    },
    {
      "anonymous": false,
      "inputs": [
        {
          "indexed": false,
          "internalType": "address",
          "name": "from",
          "type": "address"
        },
        {
          "indexed": false,
          "internalType": "address",
          "name": "to",
          "type": "address"
        },
        {
          "indexed": false,
          "internalType": "uint256",
          "name": "acceptedPrice",
          "type": "uint256"
        },
        {
          "indexed": false,
          "internalType": "uint256",
          "name": "tokenId",
          "type": "uint256"
        },
        {
          "indexed": false,
          "internalType": "uint256",
          "name": "timeStamps",
          "type": "uint256"
        }
      ],
      "name": "acceptOffer",
      "type": "event"
    },
    {
      "anonymous": false,
      "inputs": [
        {
          "indexed": false,
          "internalType": "address",
          "name": "buyer",
          "type": "address"
        },
        {
          "indexed": false,
          "internalType": "uint256",
          "name": "offerPrice",
          "type": "uint256"
        },
        {
          "indexed": false,
          "internalType": "uint256",
          "name": "tokenId",
          "type": "uint256"
        }
      ],
      "name": "makeOffer",
      "type": "event"
    },
    {
      "anonymous": false,
      "inputs": [
        {
          "indexed": false,
          "internalType": "address",
          "name": "seller",
          "type": "address"
        },
        {
          "indexed": false,
          "internalType": "uint256",
          "name": "nftPrice",
          "type": "uint256"
        },
        {
          "indexed": false,
          "internalType": "uint256",
          "name": "timeStamp",
          "type": "uint256"
        }
      ],
      "name": "transferNftPrice",
      "type": "event"
    },
    {
      "anonymous": false,
      "inputs": [
        {
          "indexed": false,
          "internalType": "address",
          "name": "owner",
          "type": "address"
        },
        {
          "indexed": false,
          "internalType": "uint256",
          "name": "serviceFees",
          "type": "uint256"
        }
      ],
      "name": "transferServiceFees",
      "type": "event"
    },
    {
      "anonymous": false,
      "inputs": [
        {
          "indexed": false,
          "internalType": "address",
          "name": "buyer",
          "type": "address"
        },
        {
          "indexed": false,
          "internalType": "uint256",
          "name": "amount",
          "type": "uint256"
        },
        {
          "indexed": false,
          "internalType": "uint256",
          "name": "timeStamp",
          "type": "uint256"
        }
      ],
      "name": "withdraw",
      "type": "event"
    },
    {
      "inputs": [
        {
          "internalType": "uint256",
          "name": "_tokenId",
          "type": "uint256"
        },
        {
          "internalType": "address",
          "name": "_buyer",
          "type": "address"
        },
        {
          "internalType": "address",
          "name": "hostContract",
          "type": "address"
        }
      ],
      "name": "acceptOffers",
      "outputs": [],
      "stateMutability": "nonpayable",
      "type": "function"
    },
    {
      "inputs": [
        {
          "internalType": "uint256",
          "name": "_tokenId",
          "type": "uint256"
        },
        {
          "internalType": "address",
          "name": "hostContract",
          "type": "address"
        }
      ],
      "name": "buyNft",
      "outputs": [],
      "stateMutability": "payable",
      "type": "function"
    },
    {
      "inputs": [],
      "name": "contractOwner",
      "outputs": [
        {
          "internalType": "address",
          "name": "",
          "type": "address"
        }
      ],
      "stateMutability": "view",
      "type": "function"
    },
    {
      "inputs": [
        {
          "internalType": "uint256",
          "name": "_tokenId",
          "type": "uint256"
        },
        {
          "internalType": "address",
          "name": "hostContract",
          "type": "address"
        },
        {
          "internalType": "uint256",
          "name": "_offerPrice",
          "type": "uint256"
        },
        {
          "internalType": "uint256",
          "name": "_offerExpiry",
          "type": "uint256"
        }
      ],
      "name": "createOffer",
      "outputs": [],
      "stateMutability": "payable",
      "type": "function"
    },
    {
      "inputs": [
        {
          "internalType": "uint256",
          "name": "tokenId",
          "type": "uint256"
        },
        {
          "internalType": "address",
          "name": "hostContract",
          "type": "address"
        }
      ],
      "name": "getNft",
      "outputs": [
        {
          "internalType": "address",
          "name": "",
          "type": "address"
        },
        {
          "internalType": "string",
          "name": "",
          "type": "string"
        },
        {
          "internalType": "string",
          "name": "",
          "type": "string"
        },
        {
          "internalType": "string",
          "name": "",
          "type": "string"
        },
        {
          "internalType": "uint256",
          "name": "previousPrices",
          "type": "uint256"
        },
        {
          "internalType": "uint256",
          "name": "",
          "type": "uint256"
        },
        {
          "internalType": "uint256",
          "name": "timestamps",
          "type": "uint256"
        }
      ],
      "stateMutability": "nonpayable",
      "type": "function"
    },
    {
      "inputs": [
        {
          "internalType": "uint256",
          "name": "_tokenId",
          "type": "uint256"
        }
      ],
      "name": "getOfferDetails",
      "outputs": [
        {
          "components": [
            {
              "internalType": "address",
              "name": "buyer",
              "type": "address"
            },
            {
              "internalType": "uint256",
              "name": "tokenID",
              "type": "uint256"
            },
            {
              "internalType": "uint256",
              "name": "offerPrice",
              "type": "uint256"
            },
            {
              "internalType": "uint256",
              "name": "offerExpire",
              "type": "uint256"
            },
            {
              "internalType": "bool",
              "name": "offerPlaced",
              "type": "bool"
            }
          ],
          "internalType": "struct NatirumMarketplace.OfferDetails",
          "name": "",
          "type": "tuple"
        }
      ],
      "stateMutability": "view",
      "type": "function"
    },
    {
      "inputs": [],
      "name": "initialize",
      "outputs": [],
      "stateMutability": "nonpayable",
      "type": "function"
    },
    {
      "inputs": [
        {
          "internalType": "uint256",
          "name": "_tokenId",
          "type": "uint256"
        },
        {
          "internalType": "uint256",
          "name": "_price",
          "type": "uint256"
        },
        {
          "internalType": "uint256",
          "name": "_NftExpiration",
          "type": "uint256"
        },
        {
          "internalType": "address",
          "name": "_hostContract",
          "type": "address"
        }
      ],
      "name": "listNft",
      "outputs": [],
      "stateMutability": "nonpayable",
      "type": "function"
    },
    {
      "inputs": [
        {
          "internalType": "address",
          "name": "",
          "type": "address"
        },
        {
          "internalType": "uint256",
          "name": "",
          "type": "uint256"
        }
      ],
      "name": "nftInfo",
      "outputs": [
        {
          "internalType": "address",
          "name": "seller",
          "type": "address"
        },
        {
          "internalType": "uint256",
          "name": "tokenID",
          "type": "uint256"
        },
        {
          "internalType": "string",
          "name": "TicketType",
          "type": "string"
        },
        {
          "internalType": "string",
          "name": "TokenUri",
          "type": "string"
        },
        {
          "internalType": "address",
          "name": "hostContract",
          "type": "address"
        },
        {
          "internalType": "uint256",
          "name": "nftPrice",
          "type": "uint256"
        },
        {
          "internalType": "uint256",
          "name": "Expiration",
          "type": "uint256"
        },
        {
          "internalType": "bool",
          "name": "isListed",
          "type": "bool"
        }
      ],
      "stateMutability": "view",
      "type": "function"
    },
    {
      "inputs": [
        {
          "internalType": "address",
          "name": "",
          "type": "address"
        },
        {
          "internalType": "address",
          "name": "",
          "type": "address"
        },
        {
          "internalType": "uint256",
          "name": "",
          "type": "uint256"
        },
        {
          "internalType": "bytes",
          "name": "",
          "type": "bytes"
        }
      ],
      "name": "onERC721Received",
      "outputs": [
        {
          "internalType": "bytes4",
          "name": "",
          "type": "bytes4"
        }
      ],
      "stateMutability": "nonpayable",
      "type": "function"
    },
    {
      "inputs": [],
      "name": "owner",
      "outputs": [
        {
          "internalType": "address",
          "name": "",
          "type": "address"
        }
      ],
      "stateMutability": "view",
      "type": "function"
    },
    {
      "inputs": [
        {
          "internalType": "uint256",
          "name": "_tokenId",
          "type": "uint256"
        },
        {
          "internalType": "address",
          "name": "_buyer",
          "type": "address"
        },
        {
          "internalType": "address",
          "name": "hostContract",
          "type": "address"
        }
      ],
      "name": "rejectOffer",
      "outputs": [],
      "stateMutability": "nonpayable",
      "type": "function"
    },
    {
      "inputs": [],
      "name": "renounceOwnership",
      "outputs": [],
      "stateMutability": "nonpayable",
      "type": "function"
    },
    {
      "inputs": [
        {
          "internalType": "uint8",
          "name": "_serviceFees",
          "type": "uint8"
        }
      ],
      "name": "setServiceFees",
      "outputs": [],
      "stateMutability": "nonpayable",
      "type": "function"
    },
    {
      "inputs": [
        {
          "internalType": "address",
          "name": "",
          "type": "address"
        }
      ],
      "name": "trackOfferPrice",
      "outputs": [
        {
          "internalType": "uint256",
          "name": "",
          "type": "uint256"
        }
      ],
      "stateMutability": "view",
      "type": "function"
    },
    {
      "inputs": [
        {
          "internalType": "address",
          "name": "newOwner",
          "type": "address"
        }
      ],
      "name": "transferOwnership",
      "outputs": [],
      "stateMutability": "nonpayable",
      "type": "function"
    },
    {
      "inputs": [
        {
          "internalType": "uint256",
          "name": "_tokenId",
          "type": "uint256"
        },
        {
          "internalType": "address",
          "name": "_hostContract",
          "type": "address"
        }
      ],
      "name": "unListNft",
      "outputs": [],
      "stateMutability": "nonpayable",
      "type": "function"
    },
    {
      "inputs": [
        {
          "internalType": "uint256",
          "name": "_tokenId",
          "type": "uint256"
        }
      ],
      "name": "withDraw",
      "outputs": [],
      "stateMutability": "nonpayable",
      "type": "function"
    }
  ],
  "bytecode": "0x608080604052346015576127de908161001b8239f35b600080fdfe6080604052600436101561001257600080fd5b6000803560e01c806314174f3314611b52578063150b7a0214611ac35780631d62fa05146119f0578063292c30a2146119b75780633d685c0b1461193057806348f6c45a146117015780634c0115f914610f8d5780634fb64be214610ecd578063715018a614610e635780637613d59914610b405780638129fc1c146109a15780638da5cb5b1461096b578063bc3ad14514610775578063ce606ee01461074e578063cf1b2a9014610410578063ee1733e3146101d7578063f24639c6146101125763f2fde38b146100e357600080fd5b3461010f57602036600319011261010f5761010c6100ff611d01565b6101076124f6565b61240a565b80f35b80fd5b503461010f57602036600319011261010f5760043560ff81168091036101d35761013a6124f6565b801561017f576040817fac7eb0af6db152aa1f5d99f0e740a9aa0055697a11ed8d61a9143f3591525a719260ff1960065416176006558151903382526020820152a180f35b60405162461bcd60e51b815260206004820152602660248201527f536572766963652046656573206d7573742062652067726561746572207468616044820152656e207a65726f60d01b6064820152608490fd5b5080fd5b50608036600319011261010f57600435906101f0611d1c565b916044356064356101ff612480565b338452600260205260408420838552602052604084209460018060a01b031684526001602052604084208385526020526040842060405161023f81611d64565b81546001600160a01b031681526001820154602082015261026260028301611df9565b604082015261027360038301611df9565b606082015260048201546001600160a01b039081166080830152600583015460a0830152600683015460c0830190815260079093015460ff16151560e083015290511633146103cb576102c8905142106123d0565b6102d3428211612397565b81340361039557338452600560205260408420805490838201809211610381575584546001600160a01b03191633908117865560028601839055600386019190915560018086018490556004909501805460ff1916909517909455604080519485526020850191909152830152907f7de3bd07351446d07eed8dd306fa8034994025802991b67b1b600366b9525cb99080606081015b0390a160016000805160206127698339815191525580f35b634e487b7160e01b86526011600452602486fd5b60405162461bcd60e51b815260206004820152600e60248201526d125b9d985b1a5908185b5bdd5b9d60921b6044820152606490fd5b60405162461bcd60e51b815260206004820152601d60248201527f4e6674204f776e65722043616e6e6f7420637265617465204f666665720000006044820152606490fd5b503461010f5761041f36611ee5565b610427612480565b60018060a01b0316808452600160205260408420838552602052604084206040519261045284611d64565b81546001600160a01b031684526001820154602085015261047560028301611df9565b604085015261048660038301611df9565b606085015260ff600760018060a01b036004850154169360808701948552600581015460a0880152600681015460c0880152015416151560e085015260018060a01b038116938487526002602052604087208688526020526040872090604051906104f082611d32565b60018060a01b0383541682526001830154602083015260028301546040830152608060ff60046003860154956060860196875201541692019115158252868952600560205260408920541561071657516001600160a01b031633036106d157511561068c5751421015610657577fb8d578f17c8a878ff929d75fce111b0610154ffa6e11c0bd38c5e338789b9a24916105ec869286895260056020526105b760408a205493888b5260056020528a604081205584339160018060a01b03905116848861252c565b604080513381526001600160a01b039092166020830152810192909252606082019290925242608082015290819060a0820190565b0390a1835260016020526040832082845260205261060c6040842061235b565b82526002602052604082209082526020526106426040822060046000918281558260018201558260028201558260038201550155565b60016000805160206127698339815191525580f35b60405162461bcd60e51b815260206004820152600d60248201526c13d999995c88115e1c1a5c9959609a1b6044820152606490fd5b60405162461bcd60e51b815260206004820152601760248201527f5468697320746f6b656e20686173206e6f206f666665720000000000000000006044820152606490fd5b60405162461bcd60e51b815260206004820152601f60248201527f4f6e6c79204e6674204f776e65722061636365707420746865206f66666572006044820152606490fd5b60405162461bcd60e51b815260206004820152601060248201526f4e6f206f66666572207265636569766560801b6044820152606490fd5b503461010f578060031936011261010f57546040516001600160a01b039091168152602090f35b50604036600319011261010f5760043561078d611d1c565b610795612480565b60018060a01b0316825260016020526040822081835260205260408220604051906107bf82611d64565b80546001600160a01b03168252600181015460208301526107e260028201611df9565b60408301526107f360038201611df9565b606083015260018060a01b03600482015416918260808201526005820154908160a082015260ff600760068501549460c084019586520154169260e08201931515845260018060a01b038251163314610935578234148061092c575b156108f1577fdf4046113ad3dca16e7291082da825762c3ac8c9f1f396d90b809e5a5c50d6099361088561088d925142106123d0565b5115156122b5565b80516108a5906001600160a01b03168386338961252c565b51604080516001600160a01b0390921682523360208301528101859052606081019190915242608082015260a090a182526001602052604082209082526020526106426040822061235b565b60405162461bcd60e51b8152602060048201526013602482015272125b94dd59999a58da595b9d08105b5bdd5b9d606a1b6044820152606490fd5b5082151561084f565b60405162461bcd60e51b815260206004820152600e60248201526d43616e27742053656c662062757960901b6044820152606490fd5b503461010f578060031936011261010f57600080516020612749833981519152546040516001600160a01b039091168152602090f35b503461010f578060031936011261010f576000805160206127898339815191525460ff8160401c16159067ffffffffffffffff811680159081610b38575b6001149081610b2e575b159081610b25575b50610b165767ffffffffffffffff1981166001176000805160206127898339815191525581610ae9575b50610a2461271a565b610a2c61271a565b610a353361240a565b610a3d61271a565b81546001600160a01b03191633178255610a5561271a565b610a5d61271a565b610a663361240a565b610a6e61271a565b610a7661271a565b600160008051602061276983398151915255610a8f5780f35b68ff0000000000000000196000805160206127898339815191525416600080516020612789833981519152557fc7f505b2f371ae2175ee4913f4499e1f2633a7b5936321eed1cdaeb6115181d2602060405160018152a180f35b68ffffffffffffffffff191668010000000000000001176000805160206127898339815191525538610a1b565b63f92ee8a960e01b8352600483fd5b905015386109f1565b303b1591506109e9565b8391506109df565b503461010f57610b4f36611ee5565b90610b58612480565b60018060a01b0316908184526002602052604084208385526020526040842060405191610b8483611d32565b60018060a01b03825416835260ff60046001840154936020860194855260028101546040870152600381015460608701520154161515608084015260018060a01b0316855260016020526040852084865260205283604086209160ff600760405194610bef86611d64565b80546001600160a01b0316865260018101546020870152610c1260028201611df9565b6040870152610c2360038201611df9565b606087015260048101546001600160a01b03166080870152600581015460a0870152600681015460c0870152015416151560e08401525103610e2b578285526005602052604085205415610dda5781516001600160a01b0316839003610d9d57516001600160a01b03163303610d4e5781845260056020528380808060408120548095878352600560205282604081205560018060a01b03905116828215610d45575bf115610d3a5760607f16e834b19bcc6f577f7e0ed83bb4cb1df810ec798f673e5ca46faec8324d5a6b9160405190848252602082015260016040820152a182526002602052604082209082526020526106426040822060046000918281558260018201558260028201558260038201550155565b6040513d85823e3d90fd5b506108fc610cc6565b60405162461bcd60e51b815260206004820152602160248201527f4f6e6c792053656c6c65722063616e2072656a6563742074686973206f6666656044820152603960f91b6064820152608490fd5b60405162461bcd60e51b8152602060048201526015602482015274496e56616c6964204275796572204164647265737360581b6044820152606490fd5b60405162461bcd60e51b815260206004820152602360248201527f4e6f204f6666657220686173207265636569766564206f6e207468697320746f60448201526235b2b760e91b6064820152608490fd5b60405162461bcd60e51b815260206004820152601060248201526f125b9d985b1a59081d1bdad95b88125960821b6044820152606490fd5b503461010f578060031936011261010f57610e7c6124f6565b60008051602061274983398151915280546001600160a01b0319811690915581906001600160a01b03167f8be0079c531659141344cd1fd0a4f28419497f9722a3daafe3b4186f6b6457e08280a380f35b503461010f57602036600319011261010f5760408160a09260808351610ef281611d32565b828152826020820152828582015282606082015201523381526002602052818120600435825260205220604051610f2881611d32565b600180841b038254169182825260018101546020830190815260028201549060408401918252608060ff600460038601549560608801968752015416940193151584526040519485525160208501525160408401525160608301525115156080820152f35b503461010f57608036600319011261010f57606435906004356001600160a01b0383166044356024358286036116fd57610fc5612480565b610fd0428311612397565b8285526001602052604085208486526020526040852093604051637c01394b60e11b8152846004820152602081602481885afa9081156116545787916116c2575b501561165f576040516331a9108f60e11b815260048101829052602081602481885afa90811561165457879161160e575b50336001600160a01b03909116036115bf57600785019660ff8854166115825760405163fa71308360e01b815260048101839052908782602481895afa918215611577578892611530575b5060405163c87b56dd60e01b8152600481018490529688886024818a5afa9788156113635789986114e5575b506004810180546001600160a01b031990811689178255825416331782556005820186905560018083018690558b5460ff191617909a55600681018690558751600382019067ffffffffffffffff81116114d1576111178254611dbf565b601f81116114a1575b5060208b601f831160011461143a5791806111549260029695949161142f575b508160011b916000199060031b1c19161790565b90555b0198825167ffffffffffffffff811161141b576111748b54611dbf565b601f81116113e0575b506020601f8211600114611379579a6111b3828c9d938d959460049d9e9161136e57508160011b916000199060031b1c19161790565b90555b8782526003602052604082208583526020526111d586604084206124bc565b87825288602052604082208583526020526111f342604084206124bc565b5460405163190edb9360e11b815298899182906001600160a01b03165afa968715611363578997611335575b5061122a9083611ff7565b50505050505050843b1561132657604051632142170760e11b81523360048201523060248201526044810183905288908181606481838b5af1801561132a57611305575b5095926112dd886112cf7f76e71997a932f95e7f996397365a21aded336d656cd5f82f417d7ead1ae4360398956112bc9895604051998a99338b5261010060208c01526101008b0190611ec0565b9160408a015288820360608a0152611ec0565b908682036080880152611ec0565b9260a085015260c084015260e08301520390a160016000805160206127698339815191525580f35b816113169198979695949398611d81565b611326579091929394873861126e565b8780fd5b6040513d84823e3d90fd5b61122a919750611356903d808c833e61134e8183611d81565b810190611f64565b505050509050969061121f565b6040513d8b823e3d90fd5b905087015138611140565b8b8b52808b2090601f1983168c5b8181106113c85750928c9d926001928260049e9f9796106113af575b5050811b0190556111b6565b88015160001960f88460031b161c1916905538806113a3565b9192602060018192868b015181550194019201611387565b61140b908c8c5260208c20601f840160051c81019160208510611411575b601f0160051c01906122f5565b3861117d565b90915081906113fe565b634e487b7160e01b8a52604160045260248afd5b90508c015138611140565b50828c52808c2090601f1983168d5b8d828210611489575050918391600296959460019410611470575b5050811b019055611157565b8d015160001960f88460031b161c191690553880611464565b60018495602093958493015181550194019201611449565b6114cb90838d5260208d20601f840160051c8101916020851061141157601f0160051c01906122f5565b38611120565b634e487b7160e01b8b52604160045260248bfd5b9097503d808a833e6114f78183611d81565b81019060208183031261152c5780519067ffffffffffffffff821161152857611521929101611f1f565b96386110b9565b8a80fd5b8980fd5b9091503d8089833e6115428183611d81565b8101906060818303126115735780519067ffffffffffffffff821161152c5761156c929101611f1f565b903861108d565b8880fd5b6040513d8a823e3d90fd5b60405162461bcd60e51b815260206004820152601560248201527413999d081a5cc8105b1c9958591e48131a5cdd1959605a1b6044820152606490fd5b60405162461bcd60e51b815260206004820152602160248201527f596f7520617265206e6f7420746865206f776e6572206f662074686973204e666044820152601d60fa1b6064820152608490fd5b90506020813d60201161164c575b8161162960209383611d81565b8101031261164857516001600160a01b03811681036116485738611042565b8680fd5b3d915061161c565b6040513d89823e3d90fd5b60405162461bcd60e51b815260206004820152603560248201527f5469636b6574696e6720436f6e7472616374206973206e6f74206372656174656044820152741908189e48119858dd1bdc9e4810dbdb9d1c9858dd605a1b6064820152608490fd5b90506020813d6020116116f5575b816116dd60209383611d81565b81010312611648575180151581036116485738611011565b3d91506116d0565b8480fd5b503461010f57604036600319011261010f5760043561171e611d1c565b611726612480565b60018060a01b03168083526001602052604083208284526020526040832060405161175081611d64565b81546001600160a01b031681526001820154602082015261177360028301611df9565b604082015261178460038301611df9565b606082015260048201546001600160a01b0390811660808301908152600584015460a0840152600684015460c084015260079093015460ff16151560e08301908152825190911633036118e0576117dd905115156122b5565b80516001600160a01b031685843b1561010f57604051632142170760e11b81523060048201526001600160a01b03929092166024830152604482018690528160648183885af180156118d55761189c575b50519051604080516001600160a01b039384168152602081018690529290911690820152600160608201527f62a8c32d7e607200e5e6c5986d2407a01f983fe1af6d31899fb1e32c6fd1f2c290608090a182526001602052604082209082526020526106426040822061235b565b91856118cc608093977f62a8c32d7e607200e5e6c5986d2407a01f983fe1af6d31899fb1e32c6fd1f2c295611d81565b9591509161182e565b6040513d88823e3d90fd5b60405162461bcd60e51b815260206004820152602260248201527f4f6e6c792053656c6c65722063616e20756e4c69737420686973206f776e204e604482015261199d60f21b6064820152608490fd5b503461010f57604036600319011261010f576119a361199561195b611953611d1c565b600435611ff7565b9497929195969093611987604051998a9960018060a01b03168a5260e060208b015260e08a0190611ec0565b9088820360408a0152611ec0565b908682036060880152611ec0565b92608085015260a084015260c08301520390f35b503461010f57602036600319011261010f576020906040906001600160a01b036119df611d01565b168152600583522054604051908152f35b503461010f57604036600319011261010f576040906001600160a01b03611a15611d01565b168152600160205281812060243582526020522060018060a01b03815416600182015491611a4560028201611df9565b611a5160038301611df9565b9160018060a01b0360048201541692611aa8600583015491611a9a60ff600760068701549601541695604051998a998a5260208a015261010060408a0152610100890190611ec0565b908782036060890152611ec0565b93608086015260a085015260c0840152151560e08301520390f35b503461010f57608036600319011261010f57611add611d01565b50611ae6611d1c565b5060643567ffffffffffffffff81116101d357366023820112156101d3578060040135611b1281611da3565b611b1f6040519182611d81565b8181523660248385010111611b4e578160246020940184830137010152604051630a85bd0160e11b8152602090f35b8380fd5b503461010f57602036600319011261010f57611b6c612480565b338152600260205260408120600435825260205260408120604051611b9081611d32565b608060ff600460018060a01b038554169485855260018101546020860152600281015460408601526003810154606086015201541615159101523303611cb1573381526005602052604081205415611c6c573381526005602052604081205433825260056020528160408120558180828015611c62575b8280929181923390f115611c555760408051338152602081019290925242908201527fb5c5f6724bdc9de2302196ac349f18e17fc199e7f3e9a1adbb788e22b98d4298908060608101610369565b50604051903d90823e3d90fd5b6108fc9150611c07565b60405162461bcd60e51b815260206004820152601860248201527f416c726561647920576974682d4472617720416d6f756e7400000000000000006044820152606490fd5b60405162461bcd60e51b815260206004820152602260248201527f4f6e6c7920627579657220776974686472617720686973206f776e20616d6f756044820152611b9d60f21b6064820152608490fd5b600435906001600160a01b0382168203611d1757565b600080fd5b602435906001600160a01b0382168203611d1757565b60a0810190811067ffffffffffffffff821117611d4e57604052565b634e487b7160e01b600052604160045260246000fd5b610100810190811067ffffffffffffffff821117611d4e57604052565b90601f8019910116810190811067ffffffffffffffff821117611d4e57604052565b67ffffffffffffffff8111611d4e57601f01601f191660200190565b90600182811c92168015611def575b6020831014611dd957565b634e487b7160e01b600052602260045260246000fd5b91607f1691611dce565b9060405191826000825492611e0d84611dbf565b8084529360018116908115611e7b5750600114611e34575b50611e3292500383611d81565b565b90506000929192526020600020906000915b818310611e5f575050906020611e329282010138611e25565b6020919350806001915483858901015201910190918492611e46565b905060209250611e3294915060ff191682840152151560051b82010138611e25565b60005b838110611eb05750506000910152565b8181015183820152602001611ea0565b90602091611ed981518092818552858086019101611e9d565b601f01601f1916010190565b6060906003190112611d1757600435906024356001600160a01b0381168103611d1757906044356001600160a01b0381168103611d175790565b81601f82011215611d17578051611f3581611da3565b92611f436040519485611d81565b81845260208284010111611d1757611f619160208085019101611e9d565b90565b91909160c081840312611d1757805167ffffffffffffffff8111611d175783611f8e918301611f1f565b9260208201519067ffffffffffffffff8211611d1757611faf918301611f1f565b9160408201519160608101519160a0608083015192015190565b8054821015611fe15760005260206000200190600090565b634e487b7160e01b600052603260045260246000fd5b60049160018060a01b03169081600052600160205260406000208160005260205260406000209160405161202a81611d64565b83546001600160a01b031681526001840154602082015261204d60028501611df9565b956040820196875261206160038601611df9565b926060830193845260018060a01b038787015416806080850152600060058801549160a0860192835260ff600760068b01549a60c089019b8c52015416151560e0870152604051998a809263190edb9360e11b82525afa9788156122a957600098612286575b50519351975195519260018060a01b03905116908060005260036020526040600020866000526020526002604060002054101560001461227e5760008181526003602090815260408083208984529091529020805460011981019081116122335761213191611fc9565b90549060031b1c955b816000526004602052604060002081600052602052896002604060002054101560001461224957506000828152600460209081526040808320848452909152902080546001198101969193919087116122335761220d6121ff6121f16121c28f9a7f36164b2feece31c78d2845f9509706de527131ffe9376cc509508b4c1f230c7298611fc9565b90549060031b1c995b6040519687968a8852602088015260408701526101406060870152610140860190611ec0565b84810360808601528d611ec0565b83810360a08501528b611ec0565b908960c08401528860e0840152610100830152866101208301520390a196959493929190565b634e487b7160e01b600052601160045260246000fd5b94917f36164b2feece31c78d2845f9509706de527131ffe9376cc509508b4c1f230c729261220d6121ff6121f16000996121cb565b60009561213a565b61229c9198503d806000833e61134e8183611d81565b50505050905096386120c7565b6040513d6000823e3d90fd5b156122bc57565b60405162461bcd60e51b815260206004820152601160248201527013999d081a5cc81b9bdd08131a5cdd1959607a1b6044820152606490fd5b818110612300575050565b600081556001016122f5565b6123168154611dbf565b9081612320575050565b81601f60009311600114612332575055565b8183526020832061234e91601f0160051c8101906001016122f5565b8082528160208120915555565b60076000918281558260018201556123756002820161230c565b6123816003820161230c565b8260048201558260058201558260068201550155565b1561239e57565b60405162461bcd60e51b815260206004820152600a6024820152692a34b6b29022b93937b960b11b6044820152606490fd5b156123d757565b60405162461bcd60e51b815260206004820152600b60248201526a13999d08115e1c1a5c995960aa1b6044820152606490fd5b6001600160a01b0316801561246a5760008051602061274983398151915280546001600160a01b0319811683179091556001600160a01b03167f8be0079c531659141344cd1fd0a4f28419497f9722a3daafe3b4186f6b6457e0600080a3565b631e4fbdf760e01b600052600060045260246000fd5b600260008051602061276983398151915254146124ab57600260008051602061276983398151915255565b633ee5aeb560e01b60005260046000fd5b805468010000000000000000811015611d4e576124de91600182018155611fc9565b819291549060031b91821b91600019901b1916179055565b600080516020612749833981519152546001600160a01b0316330361251757565b63118cdaa760e01b6000523360045260246000fd5b60065460009591946001600160a01b03909416939060ff1680156126c9578082029082820414821517156126b5576064900490868080808560018060a01b038254168282156126ac575bf1156118d5577f56a87afabcc5be804fc847379d1f4e3408f49b3016cc7dcea295265f59a0bd57604060018060a01b038954168151908152846020820152a181810391818311612698579082889283921461268e575b8291829182916001600160a01b03881690f11561268357604080516001600160a01b03939093168352602083019190915242908201527ff474f1647716b20d13fea8c36a785eabe9a98725dd210a911b9e0fc1508a6af490606090a1813b15611b4e57604051632142170760e11b81523060048201526001600160a01b03919091166024820152604481019290925282908290606490829084905af1801561132a57612676575050565b8161268091611d81565b50565b6040513d87823e3d90fd5b6108fc91506125cc565b634e487b7160e01b88526011600452602488fd5b506108fc612576565b634e487b7160e01b87526011600452602487fd5b60405162461bcd60e51b8152602060048201526024808201527f4d61726b6574506c616365206e6f742073657420736572766963652066656573604482015263081e595d60e21b6064820152608490fd5b60ff6000805160206127898339815191525460401c161561273757565b631afcd79f60e31b60005260046000fdfe9016d09d72d40fdae2fd8ceac6b6234c7706214fd39c1cd1e609a0528c1993009b779b17422d0df92223018b32b4d1fa46e071723d6817e2486d003becc55f00f0c57e16840df040f15088dc2f81fe391c3923bec73e23a9662efc9c229c6a00a26469706673582212208ac46fe0d70b3d6112a2c2fe9516f180eaacaa20516e5b88ec0afe390d20536864736f6c634300081a0033",
  "linkReferences": {},
  "deployedLinkReferences": {}
}