{
  "_format": "hh-sol-artifact-1",
  "contractName": "EventDeployer",
  "sourceName": "contracts/EventDeployer.sol",
  "abi": [
    {
      "inputs": [],
      "name": "InvalidInitialization",
      "type": "error"
    },
    {
      "inputs": [],
      "name": "NotInitializing",
      "type": "error"
    },
    {
      "inputs": [
        {
          "internalType": "address",
          "name": "owner",
          "type": "address"
        }
      ],
      "name": "OwnableInvalidOwner",
      "type": "error"
    },
    {
      "inputs": [
        {
          "internalType": "address",
          "name": "account",
          "type": "address"
        }
      ],
      "name": "OwnableUnauthorizedAccount",
      "type": "error"
    },
    {
      "anonymous": false,
      "inputs": [
        {
          "indexed": false,
          "internalType": "address",
          "name": "collectionAddress",
          "type": "address"
        },
        {
          "indexed": false,
          "internalType": "bool",
          "name": "isApproved",
          "type": "bool"
        }
      ],
      "name": "CollectionApproval",
      "type": "event"
    },
    {
      "anonymous": false,
      "inputs": [
        {
          "indexed": false,
          "internalType": "address",
          "name": "collectionAddress",
          "type": "address"
        },
        {
          "indexed": false,
          "internalType": "string",
          "name": "CollectionUri",
          "type": "string"
        },
        {
          "indexed": false,
          "internalType": "uint256",
          "name": "createdAt",
          "type": "uint256"
        }
      ],
      "name": "CollectionDetails",
      "type": "event"
    },
    {
      "anonymous": false,
      "inputs": [
        {
          "indexed": false,
          "internalType": "uint64",
          "name": "version",
          "type": "uint64"
        }
      ],
      "name": "Initialized",
      "type": "event"
    },
    {
      "anonymous": false,
      "inputs": [
        {
          "indexed": true,
          "internalType": "address",
          "name": "previousOwner",
          "type": "address"
        },
        {
          "indexed": true,
          "internalType": "address",
          "name": "newOwner",
          "type": "address"
        }
      ],
      "name": "OwnershipTransferred",
      "type": "event"
    },
    {
      "inputs": [
        {
          "internalType": "address",
          "name": "contractAddress",
          "type": "address"
        }
      ],
      "name": "approveContract",
      "outputs": [],
      "stateMutability": "nonpayable",
      "type": "function"
    },
    {
      "inputs": [
        {
          "internalType": "address",
          "name": "",
          "type": "address"
        }
      ],
      "name": "approvedContracts",
      "outputs": [
        {
          "internalType": "bool",
          "name": "",
          "type": "bool"
        }
      ],
      "stateMutability": "view",
      "type": "function"
    },
    {
      "inputs": [
        {
          "internalType": "uint256",
          "name": "",
          "type": "uint256"
        }
      ],
      "name": "contractAddresses",
      "outputs": [
        {
          "internalType": "address",
          "name": "",
          "type": "address"
        }
      ],
      "stateMutability": "view",
      "type": "function"
    },
    {
      "inputs": [],
      "name": "contractCount",
      "outputs": [
        {
          "internalType": "uint256",
          "name": "",
          "type": "uint256"
        }
      ],
      "stateMutability": "view",
      "type": "function"
    },
    {
      "inputs": [
        {
          "internalType": "string",
          "name": "name",
          "type": "string"
        },
        {
          "internalType": "string",
          "name": "symbol",
          "type": "string"
        },
        {
          "internalType": "string",
          "name": "_collectionURI",
          "type": "string"
        },
        {
          "internalType": "string",
          "name": "eventName",
          "type": "string"
        },
        {
          "internalType": "uint256",
          "name": "startTime",
          "type": "uint256"
        },
        {
          "internalType": "uint256",
          "name": "endTime",
          "type": "uint256"
        },
        {
          "internalType": "uint256",
          "name": "ticketStartBuyDate",
          "type": "uint256"
        },
        {
          "internalType": "uint256",
          "name": "ticketEndBuyDate",
          "type": "uint256"
        },
        {
          "components": [
            {
              "internalType": "string",
              "name": "ticketType",
              "type": "string"
            },
            {
              "internalType": "uint256",
              "name": "quantity",
              "type": "uint256"
            },
            {
              "internalType": "uint256",
              "name": "price",
              "type": "uint256"
            }
          ],
          "internalType": "struct EventTicket.Ticket[]",
          "name": "tickets",
          "type": "tuple[]"
        },
        {
          "internalType": "contract IERC20",
          "name": "_Token",
          "type": "address"
        },
        {
          "internalType": "address",
          "name": "_fundsWallet",
          "type": "address"
        }
      ],
      "name": "deployNewCollection",
      "outputs": [
        {
          "internalType": "address",
          "name": "",
          "type": "address"
        }
      ],
      "stateMutability": "nonpayable",
      "type": "function"
    },
    {
      "inputs": [],
      "name": "deploymentFee",
      "outputs": [
        {
          "internalType": "uint256",
          "name": "",
          "type": "uint256"
        }
      ],
      "stateMutability": "view",
      "type": "function"
    },
    {
      "inputs": [],
      "name": "fundsWallet",
      "outputs": [
        {
          "internalType": "address",
          "name": "",
          "type": "address"
        }
      ],
      "stateMutability": "view",
      "type": "function"
    },
    {
      "inputs": [
        {
          "internalType": "address",
          "name": "_tokenAddress",
          "type": "address"
        },
        {
          "internalType": "address",
          "name": "_fundsWallet",
          "type": "address"
        }
      ],
      "name": "initialize",
      "outputs": [],
      "stateMutability": "nonpayable",
      "type": "function"
    },
    {
      "inputs": [],
      "name": "owner",
      "outputs": [
        {
          "internalType": "address",
          "name": "",
          "type": "address"
        }
      ],
      "stateMutability": "view",
      "type": "function"
    },
    {
      "inputs": [],
      "name": "renounceOwnership",
      "outputs": [],
      "stateMutability": "nonpayable",
      "type": "function"
    },
    {
      "inputs": [
        {
          "internalType": "address",
          "name": "contractAddress",
          "type": "address"
        }
      ],
      "name": "revokeContract",
      "outputs": [],
      "stateMutability": "nonpayable",
      "type": "function"
    },
    {
      "inputs": [
        {
          "internalType": "uint256",
          "name": "_deploymentFee",
          "type": "uint256"
        }
      ],
      "name": "setDeploymentFee",
      "outputs": [],
      "stateMutability": "nonpayable",
      "type": "function"
    },
    {
      "inputs": [
        {
          "internalType": "address",
          "name": "_fundsWallet",
          "type": "address"
        }
      ],
      "name": "setFundsWallet",
      "outputs": [],
      "stateMutability": "nonpayable",
      "type": "function"
    },
    {
      "inputs": [
        {
          "internalType": "address",
          "name": "_tokenAddress",
          "type": "address"
        }
      ],
      "name": "setTokenAddress",
      "outputs": [],
      "stateMutability": "nonpayable",
      "type": "function"
    },
    {
      "inputs": [],
      "name": "tokenAddress",
      "outputs": [
        {
          "internalType": "contract IERC20",
          "name": "",
          "type": "address"
        }
      ],
      "stateMutability": "view",
      "type": "function"
    },
    {
      "inputs": [
        {
          "internalType": "address",
          "name": "newOwner",
          "type": "address"
        }
      ],
      "name": "transferOwnership",
      "outputs": [],
      "stateMutability": "nonpayable",
      "type": "function"
    },
    {
      "inputs": [
        {
          "internalType": "address",
          "name": "contractAddress",
          "type": "address"
        }
      ],
      "name": "viewApprovedContracts",
      "outputs": [
        {
          "internalType": "bool",
          "name": "",
          "type": "bool"
        }
      ],
      "stateMutability": "view",
      "type": "function"
    }
  ],
  "bytecode": "0x608080604052346015576133be908161001b8239f35b600080fdfe6080604052600436101561001257600080fd5b6000803560e01c806307f7aafb146109845780632194f3a21461095b57806326749ad71461058a57806326a4e8d21461091b5780633263b545146108e8578063485cc9551461075257806364e39b8714610712578063715018a6146106a85780638736381a1461068a5780638da5cb5b146106545780639d76ea581461062d578063cc2e3ee1146105ec578063d002462b146105c9578063d250da961461058a578063d686d5c814610125578063f2cff57f146101075763f2fde38b146100d857600080fd5b34610104576020366003190112610104576101016100f4610a06565b6100fc610b65565b610aef565b80f35b80fd5b50346101045780600319360112610104576020600254604051908152f35b503461010457610160366003190112610104576004356001600160401b03811161058657610157903690600401610a58565b6024356001600160401b03811161058257610176903690600401610a58565b906044356001600160401b03811161057e57610196903690600401610a58565b906064356001600160401b03811161057a576101b6903690600401610a58565b9261010435906001600160401b03821161057657366023830112156105765781600401356001600160401b038111610562578060051b92604051916101fe6020860184610a21565b8252602082019060248295820101903682116104965760248101925b8284106104c157505050610124356001600160a01b0381169791508790036104bd57610144356001600160a01b03811693908490036104b95760405161277f808201908282106001600160401b038311176104a557908291610bca833903908af0801561049a576001600160a01b031697883b15610496576102f2610304916102c9989597946102db8d98956040519b8c996304960a2560e31b8b526101a060048c01526101a48b0190610aae565b8981036003190160248b015290610aae565b916044880152600319878303016064880152610aae565b84810360031901608486015288610aae565b9460843560a485015260a43560c485015260c43560e485015260e4356101048501526003198487030161012485015251808652602086019560208260051b820101939686915b8383106104465750505050829394506101448301523361016483015230610184830152038183875af1801561043b57610427575b5060058054845260036020526040842080546001600160a01b03191684179055546000198114610413577f0eab0487abc142bf72ed586f84204d57aca6663b54400c6ac177aa4ca823b68891604060209560016104029401600555858152600487522060ff1981541690556040519182918583526060878401526060830190610aae565b4260408301520390a1604051908152f35b634e487b7160e01b84526011600452602484fd5b8361043491949294610a21565b913861037e565b6040513d86823e3d90fd5b92955092955092602080600192601f198582030186528951906040806104758451606085526060850190610aae565b93858101518685015201519101529801930193018a9592969388959261034a565b8980fd5b6040513d8b823e3d90fd5b634e487b7160e01b8c52604160045260248cfd5b8880fd5b8780fd5b83356001600160401b03811161055e5782016060602319823603011261055e5760405191606083018381106001600160401b0382111761054a576040526024820135926001600160401b03841161054657606460209493610529869560243691840101610a58565b83526044810135858401520135604082015281520193019261021a565b8d80fd5b634e487b7160e01b8e52604160045260248efd5b8b80fd5b634e487b7160e01b87526041600452602487fd5b8580fd5b8480fd5b8380fd5b8280fd5b5080fd5b50346101045760203660031901126101045760209060ff906040906001600160a01b036105b5610a06565b168152600484522054166040519015158152f35b5034610104576020366003190112610104576105e3610b65565b60043560025580f35b503461010457602036600319011261010457610606610a06565b61060e610b65565b6001600160a01b03168152600460205260408120805460ff1916905580f35b5034610104578060031936011261010457546040516001600160a01b039091168152602090f35b5034610104578060031936011261010457600080516020613349833981519152546040516001600160a01b039091168152602090f35b50346101045780600319360112610104576020600554604051908152f35b50346101045780600319360112610104576106c1610b65565b60008051602061334983398151915280546001600160a01b0319811690915581906001600160a01b03167f8be0079c531659141344cd1fd0a4f28419497f9722a3daafe3b4186f6b6457e08280a380f35b50346101045760203660031901126101045761072c610a06565b610734610b65565b60018060a01b03166001600160601b0360a01b600154161760015580f35b50346101045760403660031901126101045761076c610a06565b6024356001600160a01b0381169081900361058257600080516020613369833981519152549160ff8360401c1615926001600160401b038116801590816108e0575b60011490816108d6575b1590816108cd575b506108be5767ffffffffffffffff1981166001176000805160206133698339815191525583610891575b506107f3610b9b565b6107fb610b9b565b61080433610aef565b60018060a01b03166001600160601b0360a01b8454161783556001600160601b0360a01b60015416176001556108375780f35b68ff0000000000000000196000805160206133698339815191525416600080516020613369833981519152557fc7f505b2f371ae2175ee4913f4499e1f2633a7b5936321eed1cdaeb6115181d2602060405160018152a180f35b68ffffffffffffffffff1916680100000000000000011760008051602061336983398151915255386107ea565b63f92ee8a960e01b8552600485fd5b905015386107c0565b303b1591506107b8565b8591506107ae565b503461010457602036600319011261010457602090600435815260038252604060018060a01b0391205416604051908152f35b503461010457602036600319011261010457610935610a06565b61093d610b65565b81546001600160a01b0319166001600160a01b039190911617815580f35b50346101045780600319360112610104576001546040516001600160a01b039091168152602090f35b5034610104576020366003190112610104577fb57092cedd2635883dee7c7dfe62490fe6fd98a126272f00201b5d13bf9d276560406109c1610a06565b6109c9610b65565b6001600160a01b031680845260046020818152838620805460ff1916600117905582865290815282852054835192835260ff16151590820152a180f35b600435906001600160a01b0382168203610a1c57565b600080fd5b90601f801991011681019081106001600160401b03821117610a4257604052565b634e487b7160e01b600052604160045260246000fd5b81601f82011215610a1c578035906001600160401b038211610a425760405192610a8c601f8401601f191660200185610a21565b82845260208383010111610a1c57816000926020809301838601378301015290565b919082519283825260005b848110610ada575050826000602080949584010152601f8019910116010190565b80602080928401015182828601015201610ab9565b6001600160a01b03168015610b4f5760008051602061334983398151915280546001600160a01b0319811683179091556001600160a01b03167f8be0079c531659141344cd1fd0a4f28419497f9722a3daafe3b4186f6b6457e0600080a3565b631e4fbdf760e01b600052600060045260246000fd5b600080516020613349833981519152546001600160a01b03163303610b8657565b63118cdaa760e01b6000523360045260246000fd5b60ff6000805160206133698339815191525460401c1615610bb857565b631afcd79f60e31b60005260046000fdfe60808060405234601557612764908161001b8239f35b600080fdfe608080604052600436101561001357600080fd5b60003560e01c90816301ffc9a714611dba5750806306fdde0314611cf8578063081812fc14611cad578063095ea7b314611bbb57806319e2a211146116945780632194f3a21461166b57806323b872dd1461165457806324600fc31461142b57806324b0512814610993578063321db726146107c857806342842e0e146107985780634ed02622146106715780636352211e1461064157806370a08231146105ef578063715018a6146105855780638da5cb5b1461054f57806395d89b41146104685780639dec65ed1461043f578063a22cb465146103a3578063a98ad46c1461037a578063b88d4fde1461030f578063bda90604146102cc578063c87b56dd14610260578063e985e9c514610212578063f2fde38b146101e7578063f8027296146101a85763fa7130831461014857600080fd5b346101a35760203660031901126101a357600435600052600a602052610194604060002061017581611fc9565b9060026001820154910154604051938493606085526060850190611e25565b91602084015260408301520390f35b600080fd5b346101a35760203660031901126101a3576001600160a01b036101c9611e66565b16600052600c602052602060ff604060002054166040519015158152f35b346101a35760203660031901126101a357610210610203611e66565b61020b6124b3565b61240c565b005b346101a35760403660031901126101a35761022b611e66565b61023c610236611e7c565b916120a6565b9060018060a01b0316600052602052602060ff604060002054166040519015158152f35b346101a35760203660031901126101a3576004356001600160a01b0361028582612626565b16156102bb57600052600b6020526102b76102a36040600020611fc9565b604051918291602083526020830190611e25565b0390f35b63677510db60e11b60005260046000fd5b346101a35760203660031901126101a3576102e5611e66565b6102ed6124b3565b600080546001600160a01b0319166001600160a01b0392909216919091179055005b346101a35760803660031901126101a357610328611e66565b610330611e7c565b90604435606435926001600160401b0384116101a357366023850112156101a357610368610210943690602481600401359101611ee9565b92610374838383612242565b336124e9565b346101a35760003660031901126101a3576008546040516001600160a01b039091168152602090f35b346101a35760403660031901126101a3576103bc611e66565b602435908115158092036101a3576001600160a01b031690811561042a576103e3336120a6565b82600052602052604060002060ff1981541660ff83161790556040519081527f17307eab39ab6107e8899845ad3d59bd9653f200f220920489ca2b5937696c3160203392a3005b50630b61174360e31b60005260045260246000fd5b346101a35760003660031901126101a3576000546040516001600160a01b039091168152602090f35b346101a35760003660031901126101a357604051600060008051602061270f8339815191525461049781611f8f565b808452906001811690811561052b57506001146104bf575b6102b7836102a381850382611ead565b60008051602061270f83398151915260009081527ff4bad0a69248f59680a4f2b3000328cec71a413447c96781cfe5996daa8c456e939250905b808210610511575090915081016020016102a36104af565b9192600181602092548385880101520191019092916104f9565b60ff191660208086019190915291151560051b840190910191506102a390506104af565b346101a35760003660031901126101a3576000805160206126af833981519152546040516001600160a01b039091168152602090f35b346101a35760003660031901126101a35761059e6124b3565b6000805160206126af83398151915280546001600160a01b031981169091556000906001600160a01b03167f8be0079c531659141344cd1fd0a4f28419497f9722a3daafe3b4186f6b6457e08280a3005b346101a35760203660031901126101a357610608611e66565b6001600160a01b0381161561062b5761062260209161206d565b54604051908152f35b6322718ad960e21b600052600060045260246000fd5b346101a35760203660031901126101a357602061065f600435612482565b6040516001600160a01b039091168152f35b346101a35760003660031901126101a35760075461068e81611f78565b9061069c6040519283611ead565b80825260208201908160076000527fa66cc928b5edb82af9bd49922954155ab7b0942694bea4ce44661d9a8736c6886000915b83831061075a57848660405191829160208301906020845251809152604083019060408160051b85010192916000905b82821061070e57505050500390f35b919360019193955060208091603f1989820301855287519060408061073c8451606085526060850190611e25565b938581015186850152015191015296019201920185949391926106ff565b6003602060019260405161076d81611e92565b61077686611fc9565b81528486015483820152600286015460408201528152019201920191906106cf565b346101a3576102106107a936611f3e565b90604051926107b9602085611ead565b60008452610374838383612242565b346101a35760003660031901126101a3576040516001548160006107eb83611f8f565b80835292600181169081156109745750600114610914575b61080f92500382611ead565b6040519060009160025461082281611f8f565b80835290600181169081156108f05750600114610897575b5061084a81610870940382611ead565b600354906004546005549061087e6006549360405197889760c0895260c0890190611e25565b908782036020890152611e25565b9360408601526060850152608084015260a08301520390f35b600260009081529093507f405787fa12a823e0f2b7631cc41b3ba8828b3321ca811111fa75cd3aa3bb5ace5b8482106108da57508101602001925061084a61083a565b60018160209254838587010152019101906108c3565b60ff191660208085019190915291151560051b8301909101935061084a905061083a565b506001600090815290917fb10e2d527612073b26eecdfd717e6a320cf44b4afac2b0732d9fcbe2b7fa0cf65b81831061095857505090602061080f92820101610803565b6020919350806001915483858801015201910190918392610940565b6020925061080f94915060ff191682840152151560051b820101610803565b346101a3576101a03660031901126101a3576004356001600160401b0381116101a3576109c4903690600401611f20565b6024356001600160401b0381116101a3576109e3903690600401611f20565b6044356001600160a01b03811691908290036101a3576064356001600160401b0381116101a357610a18903690600401611f20565b926084356001600160401b0381116101a357610a38903690600401611f20565b9261012435926001600160401b0384116101a357366023850112156101a3578360040135610a6581611f78565b94610a736040519687611ead565b8186526024602087019260051b820101903682116101a35760248101925b8284106113b657505050610144356001600160a01b0381169391508390036101a357610164356001600160a01b03811681036101a357610184356001600160a01b03811693908490036101a3576000805160206126ef833981519152549560ff8760401c1615966001600160401b038116801590816113ae575b60011490816113a4575b15908161139b575b5061138a5767ffffffffffffffff1981166001176000805160206126ef833981519152558761135d575b50610b50612660565b610b58612660565b8051906001600160401b03821161103d57610b8160008051602061268f83398151915254611f8f565b601f81116112eb575b50602090601f831160011461124b57610bbc929160009183611147575b50508160011b916000199060031b1c19161790565b60008051602061268f833981519152555b8051906001600160401b03821161103d57610bf660008051602061270f83398151915254611f8f565b601f81116111d9575b50602090601f8311600114611152579180610c3592610c5695946000926111475750508160011b916000199060031b1c19161790565b60008051602061270f833981519152555b610c4e612660565b61020b612660565b6001600160601b0360a01b60085416176008556001600160601b0360a01b60005416176000556001600160601b0360a01b600954161760095583516001600160401b03811161103d57610caa600154611f8f565b601f81116110e2575b50602094601f821160011461105e57610ce79293949582916000926110535750508160011b916000199060031b1c19161790565b6001555b82516001600160401b03811161103d57610d06600254611f8f565b601f8111610fd8575b506020601f8211600114610f54578190610d41939495600092610f495750508160011b916000199060031b1c19161790565b6002555b60a43560035560c43560045560e4356005556101043560065530600052600c6020526040600020600160ff1982541617905560005b8251811015610ee457600060208260051b8501015160075468010000000000000000811015610ed057806001610db392016007556120df565b929092610ebc578151908151916001600160401b038311610ea857610de283610ddc8754611f8f565b87612114565b602091601f8411600114610e3d5783600294604094600199989794610e1b9492610e325750508160011b916000199060031b1c19161790565b84555b602081015186850155015191015501610d7a565b015190508b80610ba7565b9190601f198416868452828420935b818110610e9057509360409360019897969389938360029810610e77575b505050811b018455610e1e565b015160001960f88460031b161c191690558a8080610e6a565b92936020600181928786015181550195019301610e4c565b634e487b7160e01b82526041600452602482fd5b634e487b7160e01b81526004819052602490fd5b634e487b7160e01b83526041600452602483fd5b506000600e55610ef057005b68ff0000000000000000196000805160206126ef83398151915254166000805160206126ef833981519152557fc7f505b2f371ae2175ee4913f4499e1f2633a7b5936321eed1cdaeb6115181d2602060405160018152a1005b015190508580610ba7565b601f1982169060026000527f405787fa12a823e0f2b7631cc41b3ba8828b3321ca811111fa75cd3aa3bb5ace9160005b818110610fc057509583600195969710610fa7575b505050811b01600255610d45565b015160001960f88460031b161c19169055848080610f99565b9192602060018192868b015181550194019201610f84565b60026000527f405787fa12a823e0f2b7631cc41b3ba8828b3321ca811111fa75cd3aa3bb5ace601f830160051c81019160208410611033575b601f0160051c01905b8181106110275750610d0f565b6000815560010161101a565b9091508190611011565b634e487b7160e01b600052604160045260246000fd5b015190508680610ba7565b601f1982169560016000527fb10e2d527612073b26eecdfd717e6a320cf44b4afac2b0732d9fcbe2b7fa0cf69160005b8881106110ca575083600195969798106110b1575b505050811b01600155610ceb565b015160001960f88460031b161c191690558580806110a3565b9192602060018192868501518155019401920161108e565b60016000527fb10e2d527612073b26eecdfd717e6a320cf44b4afac2b0732d9fcbe2b7fa0cf6601f830160051c8101916020841061113d575b601f0160051c01905b8181106111315750610cb3565b60008155600101611124565b909150819061111b565b015190508c80610ba7565b90601f1983169160008051602061270f833981519152600052816000209260005b8181106111c15750916001939185610c56979694106111a8575b505050811b0160008051602061270f83398151915255610c46565b015160001960f88460031b161c191690558b808061118d565b92936020600181928786015181550195019301611173565b60008051602061270f8339815191526000527ff4bad0a69248f59680a4f2b3000328cec71a413447c96781cfe5996daa8c456e601f840160051c81019160208510611241575b601f0160051c01905b8181106112355750610bff565b60008155600101611228565b909150819061121f565b90601f1983169160008051602061268f8339815191526000527f37c58c799b6609234b945e882912ee9ad34948a1dfaa20a97485e1a7752bbf819260005b8181106112d357509084600195949392106112ba575b505050811b0160008051602061268f83398151915255610bcd565b015160001960f88460031b161c191690558b808061129f565b92936020600181928786015181550195019301611289565b60008051602061268f8339815191526000527f37c58c799b6609234b945e882912ee9ad34948a1dfaa20a97485e1a7752bbf81601f840160051c81019160208510611353575b601f0160051c01905b8181106113475750610b8a565b6000815560010161133a565b9091508190611331565b68ffffffffffffffffff191668010000000000000001176000805160206126ef833981519152558a610b47565b63f92ee8a960e01b60005260046000fd5b9050158c610b1d565b303b159150610b15565b899150610b0b565b83356001600160401b0381116101a3578201606060231982360301126101a357604051916113e383611e92565b6024820135926001600160401b0384116101a35760646020949361140e869560243691840101611f20565b835260448101358584015201356040820152815201930192610a91565b346101a35760003660031901126101a3576114446124b3565b6000546040516326749ad760e01b815230600482015290602090829060249082906001600160a01b03165afa90811561153d57600091611612575b50156115b7576008546040516370a0823160e01b81523060048201526001600160a01b0390911690602081602481855afa90811561153d57600091611585575b50801561154957600060209160018060a01b036009541690604051908482019263a9059cbb60e01b84526024830152604482015260448152611502606482611ead565b519082855af11561153d576000513d6115345750803b155b61152057005b635274afe760e01b60005260045260246000fd5b6001141561151a565b6040513d6000823e3d90fd5b60405162461bcd60e51b81526020600482015260146024820152734e6f2066756e647320746f20776974686472617760601b6044820152606490fd5b90506020813d6020116115af575b816115a060209383611ead565b810103126101a35751826114bf565b3d9150611593565b60405162461bcd60e51b815260206004820152602d60248201527f5468697320636f6e7472616374206973206e6f7420617070726f76656420666f60448201526c72207769746864726177616c7360981b6064820152608490fd5b6020813d60201161164c575b8161162b60209383611ead565b81010312611648575190811515820361164557508161147f565b80fd5b5080fd5b3d915061161e565b346101a35761021061166536611f3e565b91612242565b346101a35760003660031901126101a3576009546040516001600160a01b039091168152602090f35b346101a35760403660031901126101a3576004356024356001600160401b0381116101a3576116c7903690600401611f20565b906005544210611b6c576006544211611b2757600754811015611aec576116ed906120df565b506001810180548015611ab5576000198101908111611a9f578155600e549060018201808311611a9f57600e5560209260405161172a8582611ead565b600081523315611a895761173d84612626565b6001600160a01b0381168015159190869083611a4a575b61175d3361206d565b8054600101905560008281527f80bb2b638cc20bc4d0a60d66940f3ab4a00c1d7b313497ca82fb0b4ab00793028a526040812080546001600160a01b0319163390811790915591907fddf252ad1be2c89b69c2b068fc378daa952ba7f163c4a11628f55a4df523b3ef9080a450611a345784333b611923575b506001600160a01b0390506117ea84612626565b16156102bb5782600052600b845260406000208551956001600160401b03871161103d576118228761181c8454611f8f565b84612114565b8590601f88116001146118bb57968061185492600d996000926118b05750508160011b916000199060031b1c19161790565b90555b82600052600a845260406000209181830361188e575b50505060009081529190526040902080546001600160a01b03191633179055005b600291829161189d8286612166565b546001850155015491015583808061186d565b015190508980610ba7565b90601f1988169183600052876000209260005b81811061190c575091600193918a600d9b94106118f3575b505050811b019055611857565b015160001960f88460031b161c191690558880806118e6565b9293896001819287860151815501950193016118ce565b61195c9160405180938192630a85bd0160e11b835233600484015260006024840152886044840152608060648401526084830190611e25565b03816000335af180916000916119f6575b50906119c357843d156119bc573d61198481611ece565b906119926040519283611ead565b81523d60008383013e5b805191826119b957633250574960e11b6000523360045260246000fd5b01fd5b606061199c565b6001600160e01b03191663757a42ff60e11b016119e15785846117d6565b633250574960e11b6000523360045260246000fd5b8681813d8311611a2d575b611a0b8183611ead565b810103126116485751906001600160e01b03198216820361164557508761196d565b503d611a01565b6339e3563760e11b600052600060045260246000fd5b60008281526000805160206126cf8339815191526020526040902080546001600160a01b0319169055611a7c8361206d565b8054600019019055611754565b633250574960e11b600052600060045260246000fd5b634e487b7160e01b600052601160045260246000fd5b60405162461bcd60e51b815260206004820152600f60248201526e151a58dad95d081cdbdb19081bdd5d608a1b6044820152606490fd5b60405162461bcd60e51b8152602060048201526013602482015272496e76616c6964207469636b6574207479706560681b6044820152606490fd5b60405162461bcd60e51b815260206004820152601760248201527f5469636b65742073616c6573206861766520656e6465640000000000000000006044820152606490fd5b60405162461bcd60e51b815260206004820152602160248201527f5469636b65742073616c65732068617665206e6f7420737461727465642079656044820152601d60fa1b6064820152608490fd5b346101a35760403660031901126101a357611bd4611e66565b602435611be081612482565b33151580611c9a575b80611c76575b611c615781906001600160a01b0384811691167f8c5be1e5ebec7d5bd14f71427d1e84f3dd0314c0f7b2291e5b200ac8c7c3b925600080a460009081526000805160206126cf8339815191526020526040902080546001600160a01b0319166001600160a01b03909216919091179055005b63a9fbf51f60e01b6000523360045260246000fd5b50611c80816120a6565b336000908152602091909152604090205460ff1615611bef565b506001600160a01b038116331415611be9565b346101a35760203660031901126101a357602061065f600435611ccf81612482565b5060009081526000805160206126cf83398151915260205260409020546001600160a01b031690565b346101a35760003660031901126101a357604051600060008051602061268f83398151915254611d2781611f8f565b808452906001811690811561052b5750600114611d4e576102b7836102a381850382611ead565b60008051602061268f83398151915260009081527f37c58c799b6609234b945e882912ee9ad34948a1dfaa20a97485e1a7752bbf81939250905b808210611da0575090915081016020016102a36104af565b919260018160209254838588010152019101909291611d88565b346101a35760203660031901126101a3576004359063ffffffff60e01b82168092036101a3576020916380ac58cd60e01b8114908115611e14575b8115611e03575b5015158152f35b6301ffc9a760e01b14905083611dfc565b635b5e139f60e01b81149150611df5565b919082519283825260005b848110611e51575050826000602080949584010152601f8019910116010190565b80602080928401015182828601015201611e30565b600435906001600160a01b03821682036101a357565b602435906001600160a01b03821682036101a357565b606081019081106001600160401b0382111761103d57604052565b90601f801991011681019081106001600160401b0382111761103d57604052565b6001600160401b03811161103d57601f01601f191660200190565b929192611ef582611ece565b91611f036040519384611ead565b8294818452818301116101a3578281602093846000960137010152565b9080601f830112156101a357816020611f3b93359101611ee9565b90565b60609060031901126101a3576004356001600160a01b03811681036101a357906024356001600160a01b03811681036101a3579060443590565b6001600160401b03811161103d5760051b60200190565b90600182811c92168015611fbf575b6020831014611fa957565b634e487b7160e01b600052602260045260246000fd5b91607f1691611f9e565b9060405191826000825492611fdd84611f8f565b808452936001811690811561204b5750600114612004575b5061200292500383611ead565b565b90506000929192526020600020906000915b81831061202f5750509060206120029282010138611ff5565b6020919350806001915483858901015201910190918492612016565b90506020925061200294915060ff191682840152151560051b82010138611ff5565b6001600160a01b031660009081527f80bb2b638cc20bc4d0a60d66940f3ab4a00c1d7b313497ca82fb0b4ab00793036020526040902090565b6001600160a01b031660009081527f80bb2b638cc20bc4d0a60d66940f3ab4a00c1d7b313497ca82fb0b4ab00793056020526040902090565b6007548110156120fe5760076000526003602060002091020190600090565b634e487b7160e01b600052603260045260246000fd5b601f821161212157505050565b6000526020600020906020601f840160051c8301931061215c575b601f0160051c01905b818110612150575050565b60008155600101612145565b909150819061213c565b91909182811461223d5761217a8354611f8f565b6001600160401b03811161103d576121968161181c8454611f8f565b600093601f82116001146121d7576121c892939482916000926121cc5750508160011b916000199060031b1c19161790565b9055565b015490503880610ba7565b845260208085208386529085209094601f198316815b8181106122255750958360019596971061220c575b505050811b019055565b015460001960f88460031b161c19169055388080612202565b9192600180602092868b0154815501940192016121ed565b509050565b909291906001600160a01b0384168015611a895760009461226284612626565b9533151580612360575b509184917fddf252ad1be2c89b69c2b068fc378daa952ba7f163c4a11628f55a4df523b3ef6122ad97989460018060a01b038616988993846123215761206d565b805460010190558481527f80bb2b638cc20bc4d0a60d66940f3ab4a00c1d7b313497ca82fb0b4ab00793026020526040812080546001600160a01b0319168517905580a4506001600160a01b031680830361230757505050565b6364283d7b60e01b60005260045260245260445260646000fd5b60008781526000805160206126cf8339815191526020526040902080546001600160a01b03191690556123538861206d565b805460001901905561206d565b806123a9575b15612371573861226c565b84906001600160a01b03881661239357602491637e27328960e01b8252600452fd5b60449163177e802f60e01b825233600452602452fd5b506001600160a01b038716331480156123ef575b80612366575060008581526000805160206126cf83398151915260205260409020546001600160a01b03163314612366565b506123f9876120a6565b338252602052604081205460ff166123bd565b6001600160a01b0316801561246c576000805160206126af83398151915280546001600160a01b0319811683179091556001600160a01b03167f8be0079c531659141344cd1fd0a4f28419497f9722a3daafe3b4186f6b6457e0600080a3565b631e4fbdf760e01b600052600060045260246000fd5b61248b81612626565b906001600160a01b0382161561249f575090565b637e27328960e01b60005260045260246000fd5b6000805160206126af833981519152546001600160a01b031633036124d457565b63118cdaa760e01b6000523360045260246000fd5b823b6124f7575b5050505050565b604051630a85bd0160e11b81526001600160a01b039182166004820152918116602483015260448201939093526080606482015291169160209082908190612543906084830190611e25565b03816000865af180916000916125e3575b50906125ad57503d156125a6573d61256b81611ece565b906125796040519283611ead565b81523d6000602083013e5b805190816125a15782633250574960e11b60005260045260246000fd5b602001fd5b6060612584565b6001600160e01b03191663757a42ff60e11b016125cf575038808080806124f0565b633250574960e11b60005260045260246000fd5b6020813d60201161261e575b816125fc60209383611ead565b810103126116485751906001600160e01b031982168203611645575038612554565b3d91506125ef565b60009081527f80bb2b638cc20bc4d0a60d66940f3ab4a00c1d7b313497ca82fb0b4ab007930260205260409020546001600160a01b031690565b60ff6000805160206126ef8339815191525460401c161561267d57565b631afcd79f60e31b60005260046000fdfe80bb2b638cc20bc4d0a60d66940f3ab4a00c1d7b313497ca82fb0b4ab00793009016d09d72d40fdae2fd8ceac6b6234c7706214fd39c1cd1e609a0528c19930080bb2b638cc20bc4d0a60d66940f3ab4a00c1d7b313497ca82fb0b4ab0079304f0c57e16840df040f15088dc2f81fe391c3923bec73e23a9662efc9c229c6a0080bb2b638cc20bc4d0a60d66940f3ab4a00c1d7b313497ca82fb0b4ab0079301a2646970667358221220b26bd2184b34257b2fd41bb1d27827fa9af37e3a3f556a112762e598a5f25f9f64736f6c634300081a00339016d09d72d40fdae2fd8ceac6b6234c7706214fd39c1cd1e609a0528c199300f0c57e16840df040f15088dc2f81fe391c3923bec73e23a9662efc9c229c6a00a2646970667358221220fc6667a1213295a2718e50bd845dac2de4c4ae308198225b61d799ca7fc7512564736f6c634300081a0033",
  "linkReferences": {},
  "deployedLinkReferences": {}
}