{
  "_format": "hh-sol-artifact-1",
  "contractName": "EventDeployer",
  "sourceName": "contracts/EventDeployer.sol",
  "abi": [
    {
      "inputs": [],
      "name": "InvalidInitialization",
      "type": "error"
    },
    {
      "inputs": [],
      "name": "NotInitializing",
      "type": "error"
    },
    {
      "inputs": [
        {
          "internalType": "address",
          "name": "owner",
          "type": "address"
        }
      ],
      "name": "OwnableInvalidOwner",
      "type": "error"
    },
    {
      "inputs": [
        {
          "internalType": "address",
          "name": "account",
          "type": "address"
        }
      ],
      "name": "OwnableUnauthorizedAccount",
      "type": "error"
    },
    {
      "anonymous": false,
      "inputs": [
        {
          "indexed": false,
          "internalType": "uint64",
          "name": "version",
          "type": "uint64"
        }
      ],
      "name": "Initialized",
      "type": "event"
    },
    {
      "anonymous": false,
      "inputs": [
        {
          "indexed": true,
          "internalType": "address",
          "name": "previousOwner",
          "type": "address"
        },
        {
          "indexed": true,
          "internalType": "address",
          "name": "newOwner",
          "type": "address"
        }
      ],
      "name": "OwnershipTransferred",
      "type": "event"
    },
    {
      "inputs": [
        {
          "internalType": "address",
          "name": "contractAddress",
          "type": "address"
        }
      ],
      "name": "approveContract",
      "outputs": [],
      "stateMutability": "nonpayable",
      "type": "function"
    },
    {
      "inputs": [
        {
          "internalType": "address",
          "name": "",
          "type": "address"
        }
      ],
      "name": "approvedContracts",
      "outputs": [
        {
          "internalType": "bool",
          "name": "",
          "type": "bool"
        }
      ],
      "stateMutability": "view",
      "type": "function"
    },
    {
      "inputs": [
        {
          "internalType": "uint256",
          "name": "",
          "type": "uint256"
        }
      ],
      "name": "contractAddresses",
      "outputs": [
        {
          "internalType": "address",
          "name": "",
          "type": "address"
        }
      ],
      "stateMutability": "view",
      "type": "function"
    },
    {
      "inputs": [],
      "name": "contractCount",
      "outputs": [
        {
          "internalType": "uint256",
          "name": "",
          "type": "uint256"
        }
      ],
      "stateMutability": "view",
      "type": "function"
    },
    {
      "inputs": [
        {
          "internalType": "string",
          "name": "name",
          "type": "string"
        },
        {
          "internalType": "string",
          "name": "symbol",
          "type": "string"
        },
        {
          "internalType": "string",
          "name": "eventName",
          "type": "string"
        },
        {
          "internalType": "uint256",
          "name": "startTime",
          "type": "uint256"
        },
        {
          "internalType": "uint256",
          "name": "endTime",
          "type": "uint256"
        },
        {
          "internalType": "uint256",
          "name": "ticketStartBuyDate",
          "type": "uint256"
        },
        {
          "internalType": "uint256",
          "name": "ticketEndBuyDate",
          "type": "uint256"
        },
        {
          "components": [
            {
              "internalType": "string",
              "name": "ticketType",
              "type": "string"
            },
            {
              "internalType": "uint256",
              "name": "quantity",
              "type": "uint256"
            },
            {
              "internalType": "uint256",
              "name": "price",
              "type": "uint256"
            }
          ],
          "internalType": "struct EventTicket.Ticket[]",
          "name": "tickets",
          "type": "tuple[]"
        },
        {
          "internalType": "contract IERC20",
          "name": "_Token",
          "type": "address"
        },
        {
          "internalType": "address",
          "name": "_fundsWallet",
          "type": "address"
        }
      ],
      "name": "deployNewCollection",
      "outputs": [
        {
          "internalType": "address",
          "name": "",
          "type": "address"
        }
      ],
      "stateMutability": "nonpayable",
      "type": "function"
    },
    {
      "inputs": [],
      "name": "deploymentFee",
      "outputs": [
        {
          "internalType": "uint256",
          "name": "",
          "type": "uint256"
        }
      ],
      "stateMutability": "view",
      "type": "function"
    },
    {
      "inputs": [],
      "name": "fundsWallet",
      "outputs": [
        {
          "internalType": "address",
          "name": "",
          "type": "address"
        }
      ],
      "stateMutability": "view",
      "type": "function"
    },
    {
      "inputs": [
        {
          "internalType": "address",
          "name": "_tokenAddress",
          "type": "address"
        },
        {
          "internalType": "address",
          "name": "_fundsWallet",
          "type": "address"
        }
      ],
      "name": "initialize",
      "outputs": [],
      "stateMutability": "nonpayable",
      "type": "function"
    },
    {
      "inputs": [],
      "name": "owner",
      "outputs": [
        {
          "internalType": "address",
          "name": "",
          "type": "address"
        }
      ],
      "stateMutability": "view",
      "type": "function"
    },
    {
      "inputs": [],
      "name": "renounceOwnership",
      "outputs": [],
      "stateMutability": "nonpayable",
      "type": "function"
    },
    {
      "inputs": [
        {
          "internalType": "address",
          "name": "contractAddress",
          "type": "address"
        }
      ],
      "name": "revokeContract",
      "outputs": [],
      "stateMutability": "nonpayable",
      "type": "function"
    },
    {
      "inputs": [
        {
          "internalType": "uint256",
          "name": "_deploymentFee",
          "type": "uint256"
        }
      ],
      "name": "setDeploymentFee",
      "outputs": [],
      "stateMutability": "nonpayable",
      "type": "function"
    },
    {
      "inputs": [
        {
          "internalType": "address",
          "name": "_fundsWallet",
          "type": "address"
        }
      ],
      "name": "setFundsWallet",
      "outputs": [],
      "stateMutability": "nonpayable",
      "type": "function"
    },
    {
      "inputs": [
        {
          "internalType": "address",
          "name": "_tokenAddress",
          "type": "address"
        }
      ],
      "name": "setTokenAddress",
      "outputs": [],
      "stateMutability": "nonpayable",
      "type": "function"
    },
    {
      "inputs": [],
      "name": "tokenAddress",
      "outputs": [
        {
          "internalType": "contract IERC20",
          "name": "",
          "type": "address"
        }
      ],
      "stateMutability": "view",
      "type": "function"
    },
    {
      "inputs": [
        {
          "internalType": "address",
          "name": "newOwner",
          "type": "address"
        }
      ],
      "name": "transferOwnership",
      "outputs": [],
      "stateMutability": "nonpayable",
      "type": "function"
    }
  ],
  "bytecode": "0x60808060405234601557612f84908161001b8239f35b600080fdfe6080604052600436101561001257600080fd5b6000803560e01c806307f7aafb146108e75780630fe9a094146105195780632194f3a2146104f057806326749ad7146104b157806326a4e8d2146104715780633263b5451461043e578063485cc955146102a357806364e39b8714610263578063715018a6146101f95780638736381a146101db5780638da5cb5b146101a55780639d76ea581461017e578063cc2e3ee11461013d578063d002462b1461011a578063f2cff57f146100fc5763f2fde38b146100cd57600080fd5b346100f95760203660031901126100f9576100f66100e961092b565b6100f1610a8c565b610a16565b80f35b80fd5b50346100f957806003193601126100f9576020600254604051908152f35b50346100f95760203660031901126100f957610134610a8c565b60043560025580f35b50346100f95760203660031901126100f95761015761092b565b61015f610a8c565b6001600160a01b03168152600460205260408120805460ff1916905580f35b50346100f957806003193601126100f957546040516001600160a01b039091168152602090f35b50346100f957806003193601126100f957600080516020612f0f833981519152546040516001600160a01b039091168152602090f35b50346100f957806003193601126100f9576020600554604051908152f35b50346100f957806003193601126100f957610212610a8c565b600080516020612f0f83398151915280546001600160a01b0319811690915581906001600160a01b03167f8be0079c531659141344cd1fd0a4f28419497f9722a3daafe3b4186f6b6457e08280a380f35b50346100f95760203660031901126100f95761027d61092b565b610285610a8c565b60018060a01b03166001600160601b0360a01b600154161760015580f35b50346100f95760403660031901126100f9576102bd61092b565b6024356001600160a01b0381169081900361043a57600080516020612f2f833981519152549160ff8360401c16159267ffffffffffffffff811680159081610432575b6001149081610428575b15908161041f575b506104105767ffffffffffffffff198116600117600080516020612f2f83398151915255836103e3575b50610345610ac2565b61034d610ac2565b61035633610a16565b60018060a01b03166001600160601b0360a01b8454161783556001600160601b0360a01b60015416176001556103895780f35b68ff000000000000000019600080516020612f2f8339815191525416600080516020612f2f833981519152557fc7f505b2f371ae2175ee4913f4499e1f2633a7b5936321eed1cdaeb6115181d2602060405160018152a180f35b68ffffffffffffffffff19166801000000000000000117600080516020612f2f833981519152553861033c565b63f92ee8a960e01b8552600485fd5b90501538610312565b303b15915061030a565b859150610300565b8280fd5b50346100f95760203660031901126100f957602090600435815260038252604060018060a01b0391205416604051908152f35b50346100f95760203660031901126100f95761048b61092b565b610493610a8c565b81546001600160a01b0319166001600160a01b039190911617815580f35b50346100f95760203660031901126100f95760209060ff906040906001600160a01b036104dc61092b565b168152600484522054166040519015158152f35b50346100f957806003193601126100f9576001546040516001600160a01b039091168152602090f35b50346100f9576101403660031901126100f95760043567ffffffffffffffff81116108e35761054c90369060040161097e565b9060243567ffffffffffffffff81116108e35761056d90369060040161097e565b9160443567ffffffffffffffff811161043a5761058e90369060040161097e565b60e4359067ffffffffffffffff82116108df57366023830112156108df57816004013567ffffffffffffffff81116108cb578060051b92604051916105d66020860184610946565b8252602082019060248295820101903682116107fc5760248101925b82841061082757505050610104356001600160a01b038116915081900361082357610124356001600160a01b038116939084900361081f5760405161241e8082019082821067ffffffffffffffff83111761080b57908291610af18339039088f08015610800576001600160a01b031697883b156107fc5761069d969395928895926106af6106c6936040519a8b98622a1f6360ea1b8a5261018060048b01526101848a01906109d5565b8881036003190160248a0152906109d5565b9160448701526003198683030160648701526109d5565b94606435608485015260843560a485015260a43560c485015260c43560e48501526003198487030161010485015251808652602086019560208260051b820101939686915b8383106107ac5750505050829394506101248301523361014483015230610164830152038183875af180156107a157610791575b5060058054825260036020526040822080546001600160a01b03191684179055549190600019831461077d5750600160209201600555604051908152f35b634e487b7160e01b81526011600452602490fd5b8161079b91610946565b3861073f565b6040513d84823e3d90fd5b92955092955092602080600192601f198582030186528951906040806107db84516060855260608501906109d5565b9385810151868501520151910152980193019301889592969388959261070b565b8780fd5b6040513d89823e3d90fd5b634e487b7160e01b8a52604160045260248afd5b8680fd5b8580fd5b833567ffffffffffffffff81116108c7578201606060231982360301126108c757604051906060820182811067ffffffffffffffff8211176108b357604052602481013567ffffffffffffffff81116108af579160646020949261089286956024369184010161097e565b8352604481013585840152013560408201528152019301926105f2565b8b80fd5b634e487b7160e01b8c52604160045260248cfd5b8980fd5b634e487b7160e01b85526041600452602485fd5b8380fd5b5080fd5b50346100f95760203660031901126100f95761090161092b565b610909610a8c565b6001600160a01b03168152600460205260408120805460ff1916600117905580f35b600435906001600160a01b038216820361094157565b600080fd5b90601f8019910116810190811067ffffffffffffffff82111761096857604052565b634e487b7160e01b600052604160045260246000fd5b81601f820112156109415780359067ffffffffffffffff821161096857604051926109b3601f8401601f191660200185610946565b8284526020838301011161094157816000926020809301838601378301015290565b919082519283825260005b848110610a01575050826000602080949584010152601f8019910116010190565b806020809284010151828286010152016109e0565b6001600160a01b03168015610a7657600080516020612f0f83398151915280546001600160a01b0319811683179091556001600160a01b03167f8be0079c531659141344cd1fd0a4f28419497f9722a3daafe3b4186f6b6457e0600080a3565b631e4fbdf760e01b600052600060045260246000fd5b600080516020612f0f833981519152546001600160a01b03163303610aad57565b63118cdaa760e01b6000523360045260246000fd5b60ff600080516020612f2f8339815191525460401c1615610adf57565b631afcd79f60e31b60005260046000fdfe60808060405234601557612403908161001b8239f35b600080fdfe608080604052600436101561001357600080fd5b60003560e01c90816301ffc9a7146118fd5750806306fdde031461183b578063081812fc146117f0578063095ea7b3146116fe57806319e2a211146111375780632194f3a21461110e57806323b872dd146110f757806324600fc314610ece578063321db72614610e7057806342842e0e14610e405780634ed0262214610d115780636352211e14610ce157806370a0823114610c8f578063715018a614610c255780638da5cb5b14610bef57806395d89b4114610b085780639dec65ed14610adf578063a22cb46514610a43578063a87d8c0014610379578063a98ad46c14610350578063b88d4fde146102e5578063bda90604146102a2578063c87b56dd14610225578063e985e9c5146101d7578063f2fde38b146101ac5763fa7130831461013d57600080fd5b346101a75760203660031901126101a757600435600052600960205261019860406000206040519061017a826101738184611b96565b03836119f0565b60026001820154910154604051938493606085526060850190611968565b91602084015260408301520390f35b600080fd5b346101a75760203660031901126101a7576101d56101c86119a9565b6101d0612152565b6120ab565b005b346101a75760403660031901126101a7576101f06119a9565b6102016101fb6119bf565b91612072565b9060018060a01b0316600052602052602060ff604060002054166040519015158152f35b346101a75760203660031901126101a7576004356001600160a01b0361024a826122c5565b161561029157600052600a60205261028d610272610279604060002060405192838092611b96565b03826119f0565b604051918291602083526020830190611968565b0390f35b63677510db60e11b60005260046000fd5b346101a75760203660031901126101a7576102bb6119a9565b6102c3612152565b600080546001600160a01b0319166001600160a01b0392909216919091179055005b346101a75760803660031901126101a7576102fe6119a9565b6103066119bf565b90604435606435926001600160401b0384116101a757366023850112156101a75761033e6101d5943690602481600401359101611a2c565b9261034a838383611e6f565b33612188565b346101a75760003660031901126101a7576007546040516001600160a01b039091168152602090f35b346101a7576101803660031901126101a7576004356001600160401b0381116101a7576103aa903690600401611a63565b6024356001600160401b0381116101a7576103c9903690600401611a63565b6044356001600160a01b03811692908390036101a7576064356001600160401b0381116101a7576103fe903690600401611a63565b9261010435926001600160401b0384116101a757366023850112156101a757836004013561042b81611c19565b9461043960405196876119f0565b8186526024602087019260051b820101903682116101a75760248101925b8284106109ce57505050610124356001600160a01b0381169391508390036101a757610144356001600160a01b03811681036101a757610164356001600160a01b03811693908490036101a75760008051602061238e833981519152549560ff8760401c1615966001600160401b038116801590816109c6575b60011490816109bc575b1590816109b3575b506109a25767ffffffffffffffff19811660011760008051602061238e8339815191525587610975575b506105166122ff565b61051e6122ff565b8051906001600160401b03821161084a5761055f8261054b60008051602061232e83398151915254611abb565b60008051602061232e833981519152611c65565b602090601f83116001146108f257610590929160009183610860575b50508160011b916000199060031b1c19161790565b60008051602061232e833981519152555b8051906001600160401b03821161084a576105e2826105ce6000805160206123ae83398151915254611abb565b6000805160206123ae833981519152611c65565b602090601f831160011461086b5791806106179261063895946000926108605750508160011b916000199060031b1c19161790565b6000805160206123ae833981519152555b6106306122ff565b6101d06122ff565b6001600160601b0360a01b60075416176007556001600160601b0360a01b60005416176000556001600160601b0360a01b600854161760085582516001600160401b03811161084a5761069781610690600154611abb565b6001611c65565b6020601f82116001146107e35781906106c89394956000926107d85750508160011b916000199060031b1c19161790565b6001555b60843560025560a43560035560c43560045560e43560055560005b825181101561077357600060208260051b85010151600654600160401b81101561075f5780600161071b9201600655611c30565b92909261074b5750906002604083610737600196955185611db1565b6020810151868501550151910155016106e7565b634e487b7160e01b81526004819052602490fd5b634e487b7160e01b83526041600452602483fd5b506000600d5561077f57005b68ff00000000000000001960008051602061238e833981519152541660008051602061238e833981519152557fc7f505b2f371ae2175ee4913f4499e1f2633a7b5936321eed1cdaeb6115181d2602060405160018152a1005b01519050858061057b565b601f198216906001600052806000209160005b81811061083257509583600195969710610819575b505050811b016001556106cc565b015160001960f88460031b161c1916905584808061080b565b9192602060018192868b0151815501940192016107f6565b634e487b7160e01b600052604160045260246000fd5b015190508b8061057b565b90601f198316916000805160206123ae833981519152600052816000209260005b8181106108da5750916001939185610638979694106108c1575b505050811b016000805160206123ae83398151915255610628565b015160001960f88460031b161c191690558a80806108a6565b9293602060018192878601518155019501930161088c565b90601f1983169160008051602061232e833981519152600052816000209260005b81811061095d5750908460019594939210610944575b505050811b0160008051602061232e833981519152556105a1565b015160001960f88460031b161c191690558a8080610929565b92936020600181928786015181550195019301610913565b68ffffffffffffffffff1916680100000000000000011760008051602061238e833981519152558961050d565b63f92ee8a960e01b60005260046000fd5b9050158b6104e3565b303b1591506104db565b8991506104d1565b83356001600160401b0381116101a7578201606060231982360301126101a757604051916109fb836119d5565b6024820135926001600160401b0384116101a757606460209493610a26869560243691840101611a63565b835260448101358584015201356040820152815201930192610457565b346101a75760403660031901126101a757610a5c6119a9565b602435908115158092036101a7576001600160a01b0316908115610aca57610a8333612072565b82600052602052604060002060ff1981541660ff83161790556040519081527f17307eab39ab6107e8899845ad3d59bd9653f200f220920489ca2b5937696c3160203392a3005b50630b61174360e31b60005260045260246000fd5b346101a75760003660031901126101a7576000546040516001600160a01b039091168152602090f35b346101a75760003660031901126101a75760405160006000805160206123ae83398151915254610b3781611abb565b8084529060018116908115610bcb5750600114610b5f575b61028d83610279818503826119f0565b6000805160206123ae83398151915260009081527ff4bad0a69248f59680a4f2b3000328cec71a413447c96781cfe5996daa8c456e939250905b808210610bb157509091508101602001610279610b4f565b919260018160209254838588010152019101909291610b99565b60ff191660208086019190915291151560051b840190910191506102799050610b4f565b346101a75760003660031901126101a75760008051602061234e833981519152546040516001600160a01b039091168152602090f35b346101a75760003660031901126101a757610c3e612152565b60008051602061234e83398151915280546001600160a01b031981169091556000906001600160a01b03167f8be0079c531659141344cd1fd0a4f28419497f9722a3daafe3b4186f6b6457e08280a3005b346101a75760203660031901126101a757610ca86119a9565b6001600160a01b03811615610ccb57610cc2602091612039565b54604051908152f35b6322718ad960e21b600052600060045260246000fd5b346101a75760203660031901126101a7576020610cff600435612121565b6040516001600160a01b039091168152f35b346101a75760003660031901126101a757600654610d2e81611c19565b90610d3c60405192836119f0565b80825260208201908160066000527ff652222313e28459528d920b65115c16c04f3efc82aaedc97be59f3f377c0d3f6000915b838310610dfa57848660405191829160208301906020845251809152604083019060408160051b85010192916000905b828210610dae57505050500390f35b919360019193955060208091603f19898203018552875190604080610ddc8451606085526060850190611968565b93858101518685015201519101529601920192018594939192610d9f565b60036020600192604051610e0d816119d5565b604051610e1e81610272818a611b96565b8152848601548382015260028601546040820152815201920192019190610d6f565b346101a7576101d5610e5136611a81565b9060405192610e616020856119f0565b6000845261034a838383611e6f565b346101a75760003660031901126101a757610eb5604051610e948161027281611af5565b6002546003546004546005549160405195869560a0875260a0870190611968565b9360208601526040850152606084015260808301520390f35b346101a75760003660031901126101a757610ee7612152565b6000546040516326749ad760e01b815230600482015290602090829060249082906001600160a01b03165afa908115610fe0576000916110b5575b501561105a576007546040516370a0823160e01b81523060048201526001600160a01b0390911690602081602481855afa908115610fe057600091611028575b508015610fec57600060209160018060a01b036008541690604051908482019263a9059cbb60e01b84526024830152604482015260448152610fa56064826119f0565b519082855af115610fe0576000513d610fd75750803b155b610fc357005b635274afe760e01b60005260045260246000fd5b60011415610fbd565b6040513d6000823e3d90fd5b60405162461bcd60e51b81526020600482015260146024820152734e6f2066756e647320746f20776974686472617760601b6044820152606490fd5b90506020813d602011611052575b81611043602093836119f0565b810103126101a7575182610f62565b3d9150611036565b60405162461bcd60e51b815260206004820152602d60248201527f5468697320636f6e7472616374206973206e6f7420617070726f76656420666f60448201526c72207769746864726177616c7360981b6064820152608490fd5b6020813d6020116110ef575b816110ce602093836119f0565b810103126110eb57519081151582036110e8575081610f22565b80fd5b5080fd5b3d91506110c1565b346101a7576101d561110836611a81565b91611e6f565b346101a75760003660031901126101a7576008546040516001600160a01b039091168152602090f35b346101a75760403660031901126101a7576004356024356001600160401b0381116101a75761116a903690600401611a63565b60045442106116af57600554421161166a5760065482101561162f5761118f82611c30565b509060018201805480156115f85760001981019081116115e2578155600d5490600182018083116115e257600d556020936040516111cd86826119f0565b6000815233156115cc576111e0846122c5565b6001600160a01b038116801515919086908361158d575b61120033612039565b8054600101905560008281527f80bb2b638cc20bc4d0a60d66940f3ab4a00c1d7b313497ca82fb0b4ab00793028b526040812080546001600160a01b0319163390811790915591907fddf252ad1be2c89b69c2b068fc378daa952ba7f163c4a11628f55a4df523b3ef9080a4506115775785333b611466575b506001600160a01b03905061128d846122c5565b16156102915782600052600a85526112a9846040600020611db1565b8260005260098552604060002091818303611444575b50505083600052600b835260406000208054600160401b81101561084a576112ec91600182018155611d99565b819291549060031b91821b91600019901b191617905582600052600c825260406000208054600160401b81101561084a5761132c91600182018155611d99565b91909161142e5761133c91611db1565b81600052600b8152604060002082600052600c8252604060002090604051926080845261136b60808501611af5565b42828601528481036040860152818354918281520192600052816000209060005b81811061141a57505050838203606085015282549081835280830192818360051b8201019460005281600020936000915b8483106113ed57887fec2cc4fea0bdfe56bbaaa64f77dc987e4225d7e24793556b66eb2befbe42d8088989038aa2005b90919293949584600161140a8193601f198682030187528a611b96565b98019301930191949392906113bd565b82548552938301936001928301920161138c565b634e487b7160e01b600052600060045260246000fd5b60029182916114538286611cb7565b54600185015501549101558480806112bf565b61149f9160405180938192630a85bd0160e11b835233600484015260006024840152886044840152608060648401526084830190611968565b03816000335af18091600091611539575b509061150657853d156114ff573d6114c781611a11565b906114d560405192836119f0565b81523d60008383013e5b805191826114fc57633250574960e11b6000523360045260246000fd5b01fd5b60606114df565b6001600160e01b03191663757a42ff60e11b01611524578685611279565b633250574960e11b6000523360045260246000fd5b8781813d8311611570575b61154e81836119f0565b810103126110eb5751906001600160e01b0319821682036110e85750886114b0565b503d611544565b6339e3563760e11b600052600060045260246000fd5b600082815260008051602061236e8339815191526020526040902080546001600160a01b03191690556115bf83612039565b80546000190190556111f7565b633250574960e11b600052600060045260246000fd5b634e487b7160e01b600052601160045260246000fd5b60405162461bcd60e51b815260206004820152600f60248201526e151a58dad95d081cdbdb19081bdd5d608a1b6044820152606490fd5b60405162461bcd60e51b8152602060048201526013602482015272496e76616c6964207469636b6574207479706560681b6044820152606490fd5b60405162461bcd60e51b815260206004820152601760248201527f5469636b65742073616c6573206861766520656e6465640000000000000000006044820152606490fd5b60405162461bcd60e51b815260206004820152602160248201527f5469636b65742073616c65732068617665206e6f7420737461727465642079656044820152601d60fa1b6064820152608490fd5b346101a75760403660031901126101a7576117176119a9565b60243561172381612121565b331515806117dd575b806117b9575b6117a45781906001600160a01b0384811691167f8c5be1e5ebec7d5bd14f71427d1e84f3dd0314c0f7b2291e5b200ac8c7c3b925600080a4600090815260008051602061236e8339815191526020526040902080546001600160a01b0319166001600160a01b03909216919091179055005b63a9fbf51f60e01b6000523360045260246000fd5b506117c381612072565b336000908152602091909152604090205460ff1615611732565b506001600160a01b03811633141561172c565b346101a75760203660031901126101a7576020610cff60043561181281612121565b50600090815260008051602061236e83398151915260205260409020546001600160a01b031690565b346101a75760003660031901126101a757604051600060008051602061232e8339815191525461186a81611abb565b8084529060018116908115610bcb57506001146118915761028d83610279818503826119f0565b60008051602061232e83398151915260009081527f37c58c799b6609234b945e882912ee9ad34948a1dfaa20a97485e1a7752bbf81939250905b8082106118e357509091508101602001610279610b4f565b9192600181602092548385880101520191019092916118cb565b346101a75760203660031901126101a7576004359063ffffffff60e01b82168092036101a7576020916380ac58cd60e01b8114908115611957575b8115611946575b5015158152f35b6301ffc9a760e01b1490508361193f565b635b5e139f60e01b81149150611938565b919082519283825260005b848110611994575050826000602080949584010152601f8019910116010190565b80602080928401015182828601015201611973565b600435906001600160a01b03821682036101a757565b602435906001600160a01b03821682036101a757565b606081019081106001600160401b0382111761084a57604052565b90601f801991011681019081106001600160401b0382111761084a57604052565b6001600160401b03811161084a57601f01601f191660200190565b929192611a3882611a11565b91611a4660405193846119f0565b8294818452818301116101a7578281602093846000960137010152565b9080601f830112156101a757816020611a7e93359101611a2c565b90565b60609060031901126101a7576004356001600160a01b03811681036101a757906024356001600160a01b03811681036101a7579060443590565b90600182811c92168015611aeb575b6020831014611ad557565b634e487b7160e01b600052602260045260246000fd5b91607f1691611aca565b60015460009291611b0582611abb565b8082529160018116908115611b7a5750600114611b20575050565b600160009081529293509091907fb10e2d527612073b26eecdfd717e6a320cf44b4afac2b0732d9fcbe2b7fa0cf65b838310611b60575060209250010190565b600181602092949394548385870101520191019190611b4f565b9050602093945060ff929192191683830152151560051b010190565b60009291815491611ba683611abb565b8083529260018116908115611bfc5750600114611bc257505050565b60009081526020812093945091925b838310611be2575060209250010190565b600181602092949394548385870101520191019190611bd1565b915050602093945060ff929192191683830152151560051b010190565b6001600160401b03811161084a5760051b60200190565b600654811015611c4f5760066000526003602060002091020190600090565b634e487b7160e01b600052603260045260246000fd5b601f8211611c7257505050565b6000526020600020906020601f840160051c83019310611cad575b601f0160051c01905b818110611ca1575050565b60008155600101611c96565b9091508190611c8d565b919091828114611d9457611ccb8354611abb565b6001600160401b03811161084a57611ced81611ce78454611abb565b84611c65565b600093601f8211600114611d2e57611d1f9293948291600092611d235750508160011b916000199060031b1c19161790565b9055565b01549050388061057b565b845260208085208386529085209094601f198316815b818110611d7c57509583600195969710611d63575b505050811b019055565b015460001960f88460031b161c19169055388080611d59565b9192600180602092868b015481550194019201611d44565b509050565b8054821015611c4f5760005260206000200190600090565b91909182516001600160401b03811161084a57611dd281611ce78454611abb565b6020601f8211600114611e0e578190611d1f939495600092611e035750508160011b916000199060031b1c19161790565b01519050388061057b565b601f1982169083600052806000209160005b818110611e5757509583600195969710611e3e57505050811b019055565b015160001960f88460031b161c19169055388080611d59565b9192602060018192868b015181550194019201611e20565b909291906001600160a01b03841680156115cc57600094611e8f846122c5565b9533151580611f8d575b509184917fddf252ad1be2c89b69c2b068fc378daa952ba7f163c4a11628f55a4df523b3ef611eda97989460018060a01b03861698899384611f4e57612039565b805460010190558481527f80bb2b638cc20bc4d0a60d66940f3ab4a00c1d7b313497ca82fb0b4ab00793026020526040812080546001600160a01b0319168517905580a4506001600160a01b0316808303611f3457505050565b6364283d7b60e01b60005260045260245260445260646000fd5b600087815260008051602061236e8339815191526020526040902080546001600160a01b0319169055611f8088612039565b8054600019019055612039565b80611fd6575b15611f9e5738611e99565b84906001600160a01b038816611fc057602491637e27328960e01b8252600452fd5b60449163177e802f60e01b825233600452602452fd5b506001600160a01b0387163314801561201c575b80611f935750600085815260008051602061236e83398151915260205260409020546001600160a01b03163314611f93565b5061202687612072565b338252602052604081205460ff16611fea565b6001600160a01b031660009081527f80bb2b638cc20bc4d0a60d66940f3ab4a00c1d7b313497ca82fb0b4ab00793036020526040902090565b6001600160a01b031660009081527f80bb2b638cc20bc4d0a60d66940f3ab4a00c1d7b313497ca82fb0b4ab00793056020526040902090565b6001600160a01b0316801561210b5760008051602061234e83398151915280546001600160a01b0319811683179091556001600160a01b03167f8be0079c531659141344cd1fd0a4f28419497f9722a3daafe3b4186f6b6457e0600080a3565b631e4fbdf760e01b600052600060045260246000fd5b61212a816122c5565b906001600160a01b0382161561213e575090565b637e27328960e01b60005260045260246000fd5b60008051602061234e833981519152546001600160a01b0316330361217357565b63118cdaa760e01b6000523360045260246000fd5b823b612196575b5050505050565b604051630a85bd0160e11b81526001600160a01b0391821660048201529181166024830152604482019390935260806064820152911691602090829081906121e2906084830190611968565b03816000865af18091600091612282575b509061224c57503d15612245573d61220a81611a11565b9061221860405192836119f0565b81523d6000602083013e5b805190816122405782633250574960e11b60005260045260246000fd5b602001fd5b6060612223565b6001600160e01b03191663757a42ff60e11b0161226e5750388080808061218f565b633250574960e11b60005260045260246000fd5b6020813d6020116122bd575b8161229b602093836119f0565b810103126110eb5751906001600160e01b0319821682036110e85750386121f3565b3d915061228e565b60009081527f80bb2b638cc20bc4d0a60d66940f3ab4a00c1d7b313497ca82fb0b4ab007930260205260409020546001600160a01b031690565b60ff60008051602061238e8339815191525460401c161561231c57565b631afcd79f60e31b60005260046000fdfe80bb2b638cc20bc4d0a60d66940f3ab4a00c1d7b313497ca82fb0b4ab00793009016d09d72d40fdae2fd8ceac6b6234c7706214fd39c1cd1e609a0528c19930080bb2b638cc20bc4d0a60d66940f3ab4a00c1d7b313497ca82fb0b4ab0079304f0c57e16840df040f15088dc2f81fe391c3923bec73e23a9662efc9c229c6a0080bb2b638cc20bc4d0a60d66940f3ab4a00c1d7b313497ca82fb0b4ab0079301a2646970667358221220d7e4b2415ffcaf07a648581fa57b1f51156e4bc21658a53860613bf002e194f764736f6c634300081a00339016d09d72d40fdae2fd8ceac6b6234c7706214fd39c1cd1e609a0528c199300f0c57e16840df040f15088dc2f81fe391c3923bec73e23a9662efc9c229c6a00a26469706673582212205ce20ab361feb74305b030c2ae9f6fe48be964413bee9b4fc3d504c486f98ad064736f6c634300081a0033",
  "linkReferences": {},
  "deployedLinkReferences": {}
}